:100000000C946E010C9496010C9496010C9496013C
:100010000C9496010C9496010C9496010C94960104
:100020000C9496010C9496010C9496010C949601F4
:100030000C9496010C9496010C9496010C949601E4
:100040000C94D5140C9496010C94A3140C947D1468
:100050000C9496010C9496010C9496010C949601C4
:100060000C941F150C949601084AD73B3BCE016EA9
:1000700084BCBFFDC12F3D6C74319ABD56833DDAFF
:100080003D00C77F11BED9E4BB4C3E916BAAAABE0E
:10009000000000803F07634236B79BD8A71A396833
:1000A0005618AEBAAB558C1D3CB7CC5763BD6DED41
:1000B000FD753EF6177231BF000000803F0800005A
:1000C00000BE922449123EABAAAA2ABECDCCCC4C8B
:1000D0003E00000080BEABAAAAAA3E00000000BFFE
:1000E000000000803F0000000000084178D3BB43BF
:1000F00087D1133D190E3CC3BD4282AD2B3E68EC47
:100100008276BED98FE1A93E4C80EFFFBE01C4FFCD
:100110007F3F00000000000000010800060400010D
:1001200000000000240027002A0000000000250035
:1001300028002B00000000002300260029000404F2
:10014000040404040404020202020202030303037F
:10015000030301020408102040800102040810205B
:100160000102040810200000000800020100000342
:1001700004070000000000000000205357205665CF
:100180007273696F6E2050617463683A2030780032
:10019000205357204275696C64204E756D626572FC
:1001A0003A203078002053572050617274204E75E9
:1001B0006D6265723A203078002053572056657280
:1001C00073696F6E204D696E6F723A2030780053FC
:1001D000572056657273696F6E204D616A6F723A6F
:1001E000203078004661696C656420746F2061631B
:1001F000636573732045746865726E657420636F00
:100200006E74726F6C6C6572004500008200004075
:10021000002053504920494E542074696D656F7514
:1002200074005350492057616974004779726F2DEB
:10023000766563746F720057616B652D7265706FC0
:1002400072740053656E736F722D7265706F727485
:1002500000436F6E74726F6C0045786563757461EE
:10026000626C6500436F6D6D616E64002043686170
:100270006E6E656C3A00204C656E6774683A0020BB
:100280005B436F6E74696E756564207061636B6546
:10029000745D20003000200020426F64793A003005
:1002A0000020004865616465723A00300020004813
:1002B00065616465723A004932432074696D656F07
:1002C0007574004D452043616C207265706F7274C7
:1002D00020666F756E64210021003E1611241FBE3A
:1002E000CFEFD8E0DEBFCDBF12E0A0E0B1E0EAEC96
:1002F000F8E402C005900D92A63CB107D9F726E0BC
:10030000A6ECB2E001C01D92AA3BB207E1F711E0F2
:10031000CEE6D1E004C02197FE010E944724CD36ED
:10032000D107C9F70E94D6160C9463240C940000E0
:1003300008950895CF93DF93209186042223C1F07E
:10034000FC0120812223A1F0C6E8D4E0A2E8B4E0B9
:100350009C012C5F3F4F899141919D918427892376
:1003600039F4E217F307B9F781E0DF91CF910895EF
:1003700080E0FBCF80E480937C0080917A008064F1
:1003800080937A0080917A0086FDFCCF809178007E
:10039000909179000895EF92FF920F931F93CF935E
:1003A000DF938C017B01D0E0C0E0F701EC0FFD1F73
:1003B0006491662361F0D801ED91FC910190F08188
:1003C000E02DC8010995892B11F02196EECFCE01C1
:1003D000DF91CF911F910F91FF90EF900895AF9211
:1003E000BF92CF92DF92EF92FF920F931F93CF9322
:1003F000DF936C017B018B01040F151FEB015E0184
:10040000AE18BF08C017D10759F06991D601ED9118
:10041000FC910190F081E02DC6010995892B79F7B7
:10042000C501DF91CF911F910F91FF90EF90DF9069
:10043000CF90BF90AF900895FC01538D448D252F30
:1004400030E0842F90E0821B930B541710F0CF966E
:10045000089501970895FC01918D828D981761F0A0
:10046000A28DAE0FBF2FB11D5D968C91928D9F5FB7
:100470009F73928F90E008958FEF9FEF0895FC0196
:10048000918D828D981731F0828DE80FF11D858D49
:1004900090E008958FEF9FEF0895FC01918D228DDC
:1004A000892F90E0805C9F4F821B91098F73992761
:1004B000089588ED94E00E944D0221E0892B09F413
:1004C00020E0822F089580E090E0892B29F00E949F
:1004D000590281110C9400000895FC01A48DA80F0D
:1004E000B92FB11DA35ABF4F2C91848D90E0019676
:1004F0008F739927848FA689B7892C93A089B18996
:100500008C91837080648C93938D848D981306C036
:100510000288F389E02D80818F7D80830895EF929A
:10052000FF920F931F93CF93DF93EC0181E0888FAD
:100530009B8D8C8D98131AC0E889F989808185FF7D
:1005400015C09FB7F894EE89FF896083E889F9891F
:1005500080818370806480839FBF81E090E0DF9121
:10056000CF911F910F91FF90EF900895F62E0B8D74
:1005700010E00F5F1F4F0F731127E02E8C8D8E112F
:100580000CC00FB607FCFACFE889F989808185FF96
:10059000F5CFCE010E946D02F1CFEB8DEC0FFD2F58
:1005A000F11DE35AFF4FF0829FB7F8940B8FEA8951
:1005B000FB8980818062CFCFCF93DF93EC01888D60
:1005C0008823B9F0AA89BB89E889F9898C9185FDCE
:1005D00003C0808186FD0DC00FB607FCF7CF8C915C
:1005E00085FFF2CF808185FFEDCFCE010E946D02A5
:1005F000E9CFDF91CF910895833081F028F48130E5
:1006000099F08230A9F008958730A9F08830C9F0B8
:100610008430B1F4809180008F7D03C08091800090
:100620008F7780938000089584B58F7784BD089577
:1006300084B58F7DFBCF8091B0008F778093B00021
:1006400008958091B0008F7DF9CFCF93DF93282F4D
:1006500030E0F901EA59FE4F8491F901EE5AFE4F5C
:10066000D491F901E25CFE4FC491CC23A1F0811139
:100670000E94FC02EC2FF0E0EE0FFF1FEC5CFE4F3F
:10068000A591B491EC91ED2381E090E009F480E034
:10069000DF91CF91089580E090E0FACF1F93CF9340
:1006A000DF93282F30E0F901EA59FE4F8491F901D8
:1006B000EE5AFE4FD491F901E25CFE4FC491CC2377
:1006C000A9F0162F81110E94FC02EC2FF0E0EE0F32
:1006D000FF1FE65DFE4FA591B4918FB7F894EC91A2
:1006E000111108C0D095DE23DC938FBFDF91CF912D
:1006F0001F910895DE2BF8CFCF93DF9390E0FC019C
:10070000EE5AFE4F2491825C9E4FFC018491882317
:10071000C9F090E0880F991FFC01E05EFE4FA591A3
:10072000B491FC01E65DFE4FC591D49161110DC0FD
:100730009FB7F8948C91209582238C9388812823ED
:1007400028839FBFDF91CF910895623051F49FB706
:10075000F8943C91822F809583238C93E8812E2BF3
:10076000EFCF8FB7F894EC912E2B2C938FBFEACF5D
:100770001F93CF93DF93182FEB0161E00E947C035E
:10078000209739F460E0812FDF91CF911F910C9475
:100790004E03CF3FD10511F461E0F5CFE12FF0E03A
:1007A000EA59FE4FE491E33031F140F4E130B1F029
:1007B000E230E1F0C038D1057CF7E4CFE73029F131
:1007C000E83059F1E430B1F7809180008062809385
:1007D0008000D0938B00C0938A0004C084B58068E9
:1007E00084BDC7BDDF91CF911F91089584B580620C
:1007F00084BDC8BDF7CF8091800080688093800061
:10080000D0938900C0938800EDCF8091B0008068BC
:100810008093B000C093B300E5CF8091B0008062B8
:100820008093B000C093B400DDCF3FB7F8948091BF
:10083000320390913303A0913403B091350326B570
:10084000A89B05C02F3F19F00196A11DB11D3FBF08
:10085000BA2FA92F982F8827BC01CD01620F711DD7
:10086000811D911D42E0660F771F881F991F4A95D1
:10087000D1F708958F929F92AF92BF92CF92DF925D
:10088000EF92FF924B015C010E9415046B017C0109
:100890000E9415046C197D098E099F09683E7340FA
:1008A00081059105A8F321E0821A9108A108B108F9
:1008B00088EEC80E83E0D81EE11CF11C811491045F
:1008C000A104B10429F7FF90EF90DF90CF90BF9083
:1008D000AF909F908F90089520910E03260F33279D
:1008E000331F21323105ECF42091D204FC0190E059
:1008F00080E0243069F082E00895A0910E032191F8
:10090000AC0142515D4FA40FB52FB11D2C93019640
:10091000861798F380910E03680F60930E0380E0B2
:10092000089581E008951092D20481E08093B1048B
:100930001092AC0461E082E10E944E0361E083E129
:100940000E944E03E9EBF0E080818E7F80838081FE
:100950008D7F808388E48093B80085E48093BC0019
:100960000895CF93DF9391E09093ED028823B9F03F
:10097000C091B800D091BA008091BC008A7B80936E
:10098000BC0060E082E10E944E0360E083E10E94CF
:100990004E030E949304D093BA00C093B800DF9135
:1009A000CF910895CF92DF92EF92FF920F931F9312
:1009B000CF93DF93D82FC62F613208F098C00E94E2
:1009C00015046B017C018091D20481116BC081E020
:1009D0008093D2048093B1049FEF9093B00410925F
:1009E000AF049C0F9093AE048093AD048091AD044E
:1009F000DD0FD82BD093AD048091AC04813009F089
:100A000078C01092AC040E9415046B017C018091A7
:100A1000AD048093BB008091D4049091D504A09143
:100A2000D604B091D704892B8A2B8B2BA1F00E947E
:100A300015040091D4041091D5042091D60430916E
:100A4000D7046C197D098E099F0906171707280717
:100A5000390708F448C08091BC0083FDD8CF85ECED
:100A60008093BC000E9415046B017C018091D2042C
:100A7000813009F440C08091AF048C1710F4C0910C
:100A8000AF04ECE8F4E0A2EBB4E080E08C1355C0D6
:100A90008C2FDF91CF911F910F91FF90EF90DF90FE
:100AA000CF9008958091D4049091D504A091D6045C
:100AB000B091D704892B8A2B8B2B09F484CF0E9409
:100AC00015040091D4041091D5042091D6043091DE
:100AD000D7046C197D098E099F0906171707280787
:100AE000390708F070CF8091D3040E94B104C0E0B0
:100AF000CFCF85EEB5CF8091D4049091D504A0914D
:100B0000D604B091D704892B8A2B8B2B09F4AECF56
:100B10000E9415040091D4041091D5042091D604AC
:100B20003091D7046C197D098E099F0906171707A4
:100B30002807390708F09ACFD6CF91919D938F5F00
:100B4000A5CF0895E0917C0580917B05E81730F4EE
:100B5000F0E0EE54FB4F808190E008958FEF9FEF1F
:100B6000089590917C0580917B052FEF3FEF9817BA
:100B700048F4E92FF0E0EE54FB4F208130E09F5F16
:100B800090937C05C901089580917B0590917C0527
:100B9000891B990B0895CF92DF92EF92FF920F93EA
:100BA0001F93CF93DF937C01CB018A0120918B04AB
:100BB000222389F0EB016B01C40ED51ECC15DD0597
:100BC00069F06991D701ED91FC910190F081E02DE0
:100BD000C7010995F3CF642F0E946C04C801DF910F
:100BE000CF911F910F91FF90EF90DF90CF900895DC
:100BF000CF93DF931F92CDB7DEB7698320918B042B
:100C00002223F9F020917905203258F021E030E0DC
:100C1000FC013383228390E080E00F90DF91CF913D
:100C2000089580917A05E82FF0E0E353FD4F998114
:100C300090838F5F80937A058093790581E090E0BF
:100C4000ECCF61E0CE0101960E946C04F7CFCF9209
:100C5000DF92EF92FF920F931F93CF93DF93D09188
:100C6000790581E0D13208F09CC0C0918A040E94CD
:100C700015046B017C018091D20481116CC082E06B
:100C80008093D20481E08093B1048FEF8093B0040D
:100C90001092AF04D093AE04ADECB2E0ECE8F4E017
:100CA00080E0D8138DC01092AD048091AD04CC0FBC
:100CB000C82BC093AD048091AC04813009F084C08E
:100CC0001092AC040E9415046B017C018091AD046C
:100CD0008093BB008091D4049091D504A091D60458
:100CE000B091D704892B8A2B8B2BA1F00E9415047D
:100CF0000091D4041091D5042091D6043091D704EA
:100D00006C197D098E099F090617170728073907EF
:100D100008F442C08091BC0083FDD8CF85EC80935D
:100D2000BC000E9415046B017C018091D2048230CA
:100D300009F44CC08091B0048F3F09F469C08091E0
:100D4000B004803209F466C08091B004803309F4A5
:100D500063C084E026C08091D4049091D504A09112
:100D6000D604B091D704892B8A2B8B2B09F483CF1F
:100D70000E9415040091D4041091D5042091D6044A
:100D80003091D7046C197D098E099F090617170742
:100D90002807390708F06FCF8091D3040E94B1046F
:100DA00085E010927A051092790510928B04DF91FC
:100DB000CF911F910F91FF90EF90DF90CF9008950A
:100DC0009D9191938F5F6DCF85EEA9CF8091D404D3
:100DD0009091D504A091D604B091D704892B8A2B89
:100DE0008B2B09F4A2CF0E9415040091D40410911A
:100DF000D5042091D6043091D7046C197D098E0951
:100E00009F09061717072807390708F08ECFC4CFA8
:100E100080E0C7CF82E0C5CF83E0C3CF0F931F939D
:100E2000CF93DF9370E066547C4F2130A9F48A01A0
:100E3000075F1F4F30E020E0EB01FA01E230F105DF
:100E400078F0A991B991BA27AB27BA270A0F1B1FCF
:100E5000211D311D3297F2CF00E010E09801ECCF58
:100E6000FA01EE7F6E0F7F1F4E175F0769F0FB01DF
:100E7000408150E070E060E0762F652F542F4427CA
:100E8000040F151F261F371FA90166277727411555
:100E900051056105710519F022273327F1CF00951F
:100EA0001095E82FF0E0E654FC4F10830183DF91AA
:100EB000CF911F910F9108958EBD0DB407FEFDCF08
:100EC000089561E0809136030E944E03789408955E
:100ED000F89460E0809136030C944E030F931F93B7
:100EE000CF93DF93EC018B010E9468072097B9F044
:100EF0008AE30E945C071EBCF801CE01019739F01D
:100F00000DB407FEFDCF2EB51EBC2193F7CF219760
:100F1000C00FD11F0DB407FEFDCF8EB58883DF91C2
:100F2000CF911F910F910C9461071F93CF93DF9383
:100F3000182FC62FD42F0E9468078C2F8F71812BFA
:100F40000E945C078D2F0E945C07DF91CF911F915B
:100F50000C946107CF93C82FC0768091CC028C1778
:100F600099F043E06FE180EA0E949507C093CC02BC
:100F70004C2F50E085E0559547958A95E1F76FE154
:100F800080E8CF910C949507CF910895CF93DF938C
:100F9000C82FD62F0E94AA074D2F6C2F80E4DF9117
:100FA000CF910C949507CF93DF93C82FD72F0E9432
:100FB000C6076D2F81E08C0FDF91CF910C94C6078F
:100FC000CF93C82F0E94AA070E9468078C2F8F71A9
:100FD0000E945C0780E00E945C07C7FF03C080E0BE
:100FE0000E945C07CEB50E9461078C2FCF910895B7
:100FF000CF93DF93EC0140E86FE180E80E94950712
:1010000040E86FE180EA0E9495074AE06CE180EADF
:101010000E94950760E07CE082E00E94D307BE0159
:10102000745F86E00E94D30740E060E08AE70E9498
:1010300095070E9468072097B1F08AE70E945C0735
:101040008091BA038EBDEBEBF3E0C654DC4FEC1796
:10105000FD0731F081910DB407FEFDCF8EBDF7CFB6
:101060000DB407FEFDCF0E94610748E06FE180E804
:101070000E949507D0E0C0E08CE10E94E0078A70F2
:1010800029F42196C83E83E0D807B1F78CE10E948D
:10109000E00781FD03C0C83ED34039F448E06FE16A
:1010A00080EADF91CF910C949507DF91CF9108955D
:1010B00090E080E0089508958EBD00000DB407FE15
:1010C000FDCF8EB508958CBD9DBD0895CF93DF9360
:1010D000C0919403D091950380913A018823F9F04F
:1010E000D7FD10C05C9AC0919403D0919503BE01C6
:1010F00083E00E94B803D093CB02C093CA02DF9171
:10110000CF9108955C988091940390919503919567
:10111000819591099093950380939403E4CF1C16D5
:101120001D0694F470E060E089E00E94B803BE01FF
:1011300083E00E94B803809194039091950390936B
:10114000CB028093CA02DBCFD195C195D109D09350
:101150009503C093940370E060E083E00E94B803BD
:10116000BE0189E0E6CFDC01ED91FC910190F081B8
:10117000E02D0994CF93DF93E4EBF6E08581836063
:10118000C181D28123813481C22BD32BD168C82B5A
:10119000808191E090938B0480938A0410927A0569
:1011A0001092790561E070E08DE795E00E94B30848
:1011B0006D2F8DE795E00E94F8056C2F8DE795E087
:1011C0000E94F8058DE795E0DF91CF910C942706FA
:1011D0000F931F93FC0100E012E12AE730E090E05A
:1011E000401751076207730740F436952795179506
:1011F00007959F5F9630A1F797E0292F286B2695DA
:1012000020839095917091831F910F910895CF93B2
:10121000DF93C4EBD6E0888191E090938B048093B8
:101220008A0410927A051092790570E060E08DE7EB
:1012300095E00E94B3088DE795E00E94270662E0E2
:1012400088810E94D20410927C0580937B058DE7F3
:1012500095E00E94B105C82F8DE795E00E94B10589
:1012600020E0822B9C2BDF91CF910895CF92DF92CB
:10127000EF92FF92CF93C62FBC01990F880B990B69
:101280000E940E216B017C016C2F70E071956195BD
:101290007109072E000C880B990B0E940E219B01EF
:1012A000AC0160E070E080E090E40E945F229B016E
:1012B000AC01C701B6010E94F221CF91FF90EF90DF
:1012C000DF90CF900895DC0196E0FB0101900D9234
:1012D0009A95E1F70895BC018AEB93E00E946309B7
:1012E00060E573E080EC93E00C946309DC0194E02A
:1012F000FB0101900D929A95E1F70895CF93DF934A
:10130000EB0144E050E0BC0186ED93E00E944D24E7
:10131000892B49F460ED73E0CE010E94630981E0FE
:10132000DF91CF91089580E0FBCFDF92EF92FF92A3
:101330000F931F93CF93DF937C01C62F142F052F9C
:10134000D22FD32E82E391E00E949A01882309F4E0
:101350008BC084EB93E00E946B0962E371E088ED3F
:1013600093E00E94760966E874E084ED93E00E94C1
:10137000760980913201807F803EB9F08091320100
:1013800090913301A0913401B09135018F3F9F4F6F
:10139000AF4FBF4F51F044E050E062E371E08AEAA2
:1013A00093E00E944D24892B31F462E571E08AEBD1
:1013B00093E00E94630988E08093C6031092C703FC
:1013C00049E050E069E072E088EC93E00E94611F20
:1013D0001092CA0381E18093D103D092DE03D093AF
:1013E000DF030093DC031093DD031092E0031092FF
:1013F000E2031092E303CD3D08F0CCED0C2F10E09A
:10140000A801B70184EE93E00E945A248CE18C0F6E
:101410008093CB031092D2031092D30380E4809385
:10142000CE031092CF038093D00320E044E150E03C
:101430006EE088E10E940E071092E003C85FC0933F
:10144000E103A801405F5F4F21E06AE188E20E946A
:101450000E07C8018A96DF91CF911F910F91FF90DF
:10146000EF90DF900C94F8078EEA93E074CFFB01C5
:1014700001900020E9F73197AF01461B570BDC01C3
:10148000ED91FC910280F381E02D09948F929F925F
:10149000AF92BF92EF92FF920F931F93CF93DF9380
:1014A000CDB7DEB7A1970FB6F894DEBF0FBECDBFA4
:1014B0007C01FA01CB0119A2223008F42AE08E0146
:1014C0000F5D1F4F822E912CB12CA12CBF01A501C5
:1014D00094010E940624F901CA016A300CF5605D8E
:1014E000D8016E938D01232B242B252B79F790E0C7
:1014F00080E0109721F0BD01C7010E94370AA19634
:101500000FB6F894DEBF0FBECDBFDF91CF911F9114
:101510000F91FF90EF90BF90AF909F908F900895A4
:10152000695CDECF242F462F50E070E060E00C9421
:10153000460A8F929F92AF92BF92CF92DF92EF9224
:10154000FF920F931F93CF93DF937C01EB016C010C
:1015500082E0C80ED11C4701E5E08E0E911C10E020
:1015600000E0F60161916F014AE050E0CE010E9477
:10157000920A5C01E881F9810190F081E02D6EE230
:10158000CE0109958A0D9B1D080F191FC814D90497
:1015900041F74AE050E0F7016581CE010E94920ACE
:1015A000800F911FDF91CF911F910F91FF90EF90CE
:1015B000DF90CF90BF90AF909F908F90089562E89A
:1015C00071E00C94370ACF93DF93BC0188ED94E06F
:1015D0000E94370AEC0188ED94E00E94DF0A8C0F2C
:1015E0009D1FDF91CF910895CF93DF9340E150E0AD
:1015F000682F88ED94E00E94920AEC0188ED94E057
:101600000E94DF0A8C0F9D1FDF91CF9108950F93E9
:101610001F93CF93DF93EC010E94CB018C01CE018D
:101620000E94DF0A800F911FDF91CF911F910F91D0
:1016300008951F93CF93DF93E0918905F0918A0578
:101640004091910560918F057091900520918E05D4
:1016500080918E0590918F05A0919005B091910594
:1016600080937C0690937D06A0937E06B0937F06C0
:1016700090919405D09196058091920530918B05BB
:101680003530B1F590918D05322F292F30936906B1
:101690002093680670936B0660936A06982F842FD8
:1016A00090936D0680936C068091930590919405BC
:1016B00090936F0680936E068091950590919605A4
:1016C0009093750680937406809197059091980584
:1016D00090937706809376068091990590919A056C
:1016E0009093790680937806DF91CF911F910895AA
:1016F000FF773497C091970593706091960570912C
:101700009705409198055091990520919A0530913F
:101710009B05EF30F105FCF0A0919C05B0919D0573
:101720007197DCF0E0919E05F0919F058130C1F446
:10173000892F90E090934F0680934E067093490650
:101740006093480650934B0640934A0630934D06EB
:1017500020934C06C9CFB0E0A0E0F0E0E0E0E6CF97
:10176000843099F4892F90E0909357068093560621
:10177000709351066093500650935306409352065F
:101780003093550620935406AFCF823099F4892FB9
:1017900090E090935F0680935E0670935906609385
:1017A000580650935B0640935A0630935D0620938B
:1017B0005C069ACF833099F4892F90E09093670666
:1017C000809366067093610660936006509363068B
:1017D00040936206309365062093640685CF85307A
:1017E00031F0883021F018ED180F1230D8F4892F1D
:1017F00090E09093730680937206709369066093ED
:10180000680650936B0640936A0630936D062093EA
:101810006C06B0936F06A0936E06F0937106E0938A
:10182000700662CF813129F430937B0620937A06CB
:101830005BCF833119F4D093800656CF8E3199F463
:10184000C0938106A8E9B5E090E080E02D91E09199
:101850008206F0918306E80FF91F208301968930F4
:101860009105A1F741CF843169F470938F0660939D
:101870008E065093910640939006309393062093E2
:10188000920632CF853169F4709395066093940681
:1018900050939706409396063093990620939806A6
:1018A00023CF863169F470939B0660939A06509318
:1018B0009D0640939C0630939F0620939E0614CF6E
:1018C000813F09F011CF80913D06882341F068EDFA
:1018D00072E080913B0690913C060E94070B80913C
:1018E0009405873009F000CF80913D06882341F0B0
:1018F00063EC72E080913B0690913C060E94070BDE
:101900008091970580938406EFCECF93C4E68091B3
:10191000380690913906DC01ED91FC910084F18547
:10192000E02D099518161906BCF061E070E080E022
:1019300090E00E943A04C15051F780913D068823FF
:1019400049F067EB72E080913B0690913C060E9463
:10195000070B80E0CF91089581E0FCCF8F929F929A
:10196000BF92CF92DF92EF92FF920F931F93CF938C
:10197000DF9300D0CDB7DEB780913806909139065D
:10198000892B09F067C1809146060E9425030197C3
:1019900009F46BC0409140065091410660914206A7
:1019A00070914306CE0101960E94E80889819A81D0
:1019B0000E94630860E0809144060E944E0380E02C
:1019C0000E945C08082F80E00E945C08182F80E0CD
:1019D0000E945C08F82E80E00E945C080093890554
:1019E00010938A05F0928B0580938C05C8019F7730
:1019F0000097E9F580913D068823B9F16FEA72E01E
:101A000080913B0690913C060E94CB0109E815E0CD
:101A10005DE8E52E55E0F52E6DEA72E080913B061B
:101A200090913C060E94CB01D8018D918D018031AF
:101A300040F46BEA72E080913B0690913C060E9474
:101A4000CB0140E150E0F8013197608180913B0685
:101A500090913C060E94920AE016F106E9F6809108
:101A60003B0690913C060E94DF0AF12C22C08C01BB
:101A700004501109F12CE12CE016F10678F48FEFF7
:101A80000E945C08B0E8EB16F10420F4F701E75778
:101A9000FA4F8483EFEFEE1AFE0AEECF61E08091F9
:101AA00044060E944E03F0903D06F11011C0FF2441
:101AB000F3948F2D0F900F90DF91CF911F910F9185
:101AC000FF90EF90DF90CF90BF909F908F90089500
:101AD0000091890510918A0563EA72E080913B06C6
:101AE00090913C060E94CB0149E8C42E45E0D42EDB
:101AF00061EA72E080913B0690913C060E94CB0126
:101B0000D6018D916D01803140F46FE972E08091D2
:101B10003B0690913C060E94CB0140E150E0F6016B
:101B20003197608180913B0690913C060E94920A19
:101B3000BDE8CB16B5E0DB06D9F63CEFB32EB00E10
:101B4000E8E2EB1510F428E2B22E68E972E0809129
:101B50003B0690913C060E94CB019DE8C92E95E082
:101B6000D92EE12C80913B0690913C06BE1401F1E8
:101B700066E972E00E94CB014601D6018C9180316A
:101B800040F464E972E080913B0690913C060E942B
:101B9000CB01BFEFCB1ADB0A40E150E0F4016081DA
:101BA00080913B0690913C060E94920AE394DACF22
:101BB00017FF05C06FE772E00E94070B1F7766E70B
:101BC00072E080913B0690913C060E94CB01A801F7
:101BD00070E060E02AE080913B0690913C060E9414
:101BE000460A6CE672E080913B0690913C060E94AA
:101BF000CB0160918B0580913B0690913C06611171
:101C00000BC064E672E00E94CB0180913B0690918C
:101C10003C060E94DF0A4DCF613019F469E572E09D
:101C2000F2CF623019F461E572E0EDCF633019F460
:101C300063E472E0E8CF643019F467E372E0E3CF65
:101C4000653019F46BE272E0DECF4AE050E00E94AA
:101C5000920ADBCF64E080913A060E94D20410928F
:101C60007C0580937B050E94850C882309F4FDCEBA
:101C70008091380690913906DC01ED91FC91028447
:101C8000F385E02D0995F82E80913806909139065C
:101C9000DC01ED91FC910284F385E02D0995E82E9D
:101CA0008091380690913906DC01ED91FC91028417
:101CB000F385E02D0995182F80913806909139060B
:101CC000DC01ED91FC910284F385E02D0995F09201
:101CD0008905E0928A0510938B0580938C0500E0BE
:101CE0001E2D0F291F770115110509F4BECE0450D2
:101CF0001109D12CC12C0115110509F4D8CE780198
:101D00000D31110518F08CE1E82EF12C64E06E0D18
:101D100080913A060E94D20410927C0580937B0544
:101D20000E94850C882309F4C2CE809138069091D8
:101D30003906DC01ED91FC910284F385E02D0995D3
:101D40008091380690913906DC01ED91FC91028476
:101D5000F385E02D09958091380690913906DC01D4
:101D6000ED91FC910284F385E02D09958091380670
:101D700090913906DC01ED91FC910284F385E02D10
:101D80000995B12CBE141F04C0F4809138069091BF
:101D90003906DC01ED91FC910284F385E02D099573
:101DA000B0E8CB16D10438F4F601E757FA4F848334
:101DB000F60131966F01B394E5CF0E191F099BCF41
:101DC000CF93809146068F3F49F40E94AE0CC82FF6
:101DD000811109C0C0E08C2FCF9108950E94250386
:101DE000019799F7F7CF80918B05833039F4809173
:101DF0008D058B3F79F70E94190BEDCF8230A1F54D
:101E000080918D05813FC9F480918F05873019F746
:101E10008091920580938406809193058093850636
:101E2000809194058093860680919505809387061E
:101E30008091960580938806CECF8C3F61F6809185
:101E40008E05809389068091920590919305A091CB
:101E50009405B091950580938A0690938B06A09384
:101E60008C06B0938D06B7CF853009F0B3CFC3CFC2
:101E7000CF92DF92EF92FF920F931F93CF93DF9356
:101E800000D0CDB7DEB7082FF62E14E0160F8091E4
:101E9000380690913906009709F073C02DE7E22EBD
:101EA000809146060E942503892B21F180913D06F1
:101EB000882341F062E272E080913B0690913C06FB
:101EC0000E94070B61E070E080E090E00E943A041D
:101ED000EA94E110E5CF90913D06992309F445C0BD
:101EE00062E172E080913B0690913C060E94070BF4
:101EF00090E03BC0409140065091410660914206FF
:101F000070914306CE0101960E94E80889819A816A
:101F10000E94630860E0809144060E944E03812F76
:101F20000E945C0880E00E945C08802F0E945C0890
:101F3000A02FB0E0A35FB94F8C9191E0980F9C93D4
:101F40000E945C089DE8C92E95E0D92E10E0D601CC
:101F50008D916D010E945C081F5FF112F8CF61E066
:101F6000809144060E944E0391E0892F0F900F90BC
:101F7000DF91CF911F910F91FF90EF90DF90CF9065
:101F8000089520913A0631E030938B0420938A041F
:101F900010927A0510927905612F70E00E94B308C3
:101FA00070E060E080913806909139060E94B30895
:101FB0008091380690913906DC01ED91FC910190F9
:101FC000F081E02D602F09958091380690913906B7
:101FD000DC01ED91FC910190F081E02DA02FB0E0AB
:101FE000A35FB94F6C9121E0260F2C9309958DE8E2
:101FF000C82E85E0D82E10E08091380690913906E1
:10200000F60161916F01DC01ED91FC910190F0818D
:10201000E02D09951F5FF112EFCF80913806909166
:1020200039060E94270691E0882309F49ECF60CFED
:102030000F931F93CF93DF93D62FC72FBC0188ED4B
:1020400094E00E94370A0D2F1C2FC0E0F801619127
:102050008F014AE050E088ED94E00E94920AC3307C
:1020600029F06EE288ED94E00E948F02CF5FC430C9
:1020700069F788ED94E0DF91CF911F910F910C9457
:10208000DF0A85ED8093BC008091D4049091D50443
:10209000A091D604B091D7040796A11DB11D23E0ED
:1020A000B695A795979587952A95D1F72091BC006D
:1020B00024FD03C01092D20408954091D40450919D
:1020C000D5046091D6047091D704452B462B472B3D
:1020D00069F30097A105B10541F025E32A95F1F7D1
:1020E00000000197A109B109E1CF8091D3040C94BC
:1020F000B1040F931F93CF938C0182E591E00E946E
:102100006B09EAEBF3E088E08487C6E0C58748E026
:1021100050E068E171E088EC93E00E94611FEAED15
:10212000F3E0DF011D92CA95E9F760E573E080ED09
:1021300093E00E946309B80180EE93E00E94760963
:1021400066E874E086ED93E00E9476098AE290E00A
:10215000CF911F910F910C94F807FF920F931F934B
:10216000CF93DF93EC01F62E08811981C8010E94FC
:102170006A1FF81621F06F2DC8010E94721FCE0150
:10218000DF91CF911F910F91FF900895EF92FF92F1
:102190000F931F93CF93DF9300D0CDB7DEB782E4C8
:1021A000E82E81E0F82E0AE010E01A830983F70197
:1021B00061917F01CE0101960E94AD100F5F1F4F0C
:1021C0000831110591F782E491E00F900F90DF91B3
:1021D000CF911F910F91FF90EF900895EF92FF9292
:1021E0000F931F93CF93DF9300D0CDB7DEB786E375
:1021F000E82E81E0F82E08E210E01A830983F70147
:1022000061917F01CE0101960E94AD100F5F1F4FBB
:102210000433110591F786E391E00F900F90DF9161
:10222000CF911F910F91FF90EF9008954F925F9281
:102230006F927F928F929F92AF92BF92CF92DF92D6
:10224000EF92FF92CF93DF93CDB7DEB760970FB6D3
:10225000F894DEBF0FBECDBF3A832983F901808198
:10226000803809F0D2C08181813809F0CEC08281E6
:102270008F3709F0CAC083818E3F09F069C2E580BB
:10228000F680D780D092A60360857185072E000C5A
:10229000880B990B0E940E212AE037ED43E25CE3A4
:1022A0000E94F22160939A0370939B0380939C0396
:1022B00090939D03D0FE19C0B701FF0C880B990BBA
:1022C0000E940E212DEC3CEC4CEC5DE30E94F221CF
:1022D0002DEC3CEC4CEC5DE30E945F2087FD05C0DB
:1022E00080912C01813009F0A5C086E680932D01F4
:1022F00020E030E048EC52E460919E0370919F032F
:102300008091A0039091A1030E94F2210E94D62007
:10231000609305017093060180914203882309F4BC
:102320008CC081E080938B0480E680938A041092B5
:102330007A051092790562E070E08DE795E00E94E1
:10234000B3088DE795E00E94270662E080E60E94D0
:10235000D20410927C0580937B058230F0F38DE7E8
:1023600095E00E94B105809308018DE795E00E94F9
:10237000B1058093070181E080938B0480E6809310
:102380008A0410927A05109279056CE170E08DE76D
:1023900095E00E94B3088DE795E00E94270662E071
:1023A00080E60E94D20410927C0580937B058230E7
:1023B000F0F38DE795E00E94B10580930A018DE767
:1023C00095E00E94B105809309018091A403809358
:1023D0000B018091CA0280930C01E2E0F1E090E0F1
:1023E00080E022E03191830F911D2F5F2D30D1F7D6
:1023F00080930D012FE037E248EB52E26EE080E07F
:1024000091E00E9495091092930360960FB6F8949C
:10241000DEBF0FBECDBFDF91CF91FF90EF90DF9079
:10242000CF90BF90AF909F908F907F906F905F9074
:102430004F90089510922D015BCF80914003882327
:1024400009F479C10E94E00E882309F4BECFF0910F
:10245000A006F9836F2F80916E0690916F060E94FF
:1024600036092B013C0169818091680690916906CB
:102470000E9436094B015C01698180916A06909146
:102480006B060E9436096D837E838F8398876981EE
:1024900080916C0690916D060E94360969837A835B
:1024A0008B839C83A3019201C301B2010E94F2219C
:1024B0006B017C01A5019401C501B4010E94F221C8
:1024C0009B01AC01C701B6010E94811F6B017C0119
:1024D0002D813E814F815885CA01B9010E94F221A8
:1024E0009B01AC01C701B6010E94811F6B017C01F9
:1024F00029813A814B815C81CA01B9010E94F22194
:102500009B01AC01C701B6010E94811F0E94B52248
:102510006B017C01AC019B01C301B2010E946420EC
:1025200069877A878B879C87A7019601C501B401CB
:102530000E9464202B013C01A70196016D817E81E0
:102540008F8198850E9464204B015C01A701960150
:1025500069817A818B819C810E94642069837A835E
:102560008B839C83A5019401C501B4010E94F221D3
:102570006D837E838F83988729813A814B815C812B
:10258000CA01B9010E94F2212D813E814F815885F7
:102590000E94811F9B01AC010E94811F9B01AC0125
:1025A00060E070E080E89FE30E94801F6D877E8777
:1025B0008F87988B29813A814B815C8169857A85E7
:1025C0008B859C850E94F2216B017C01A501940101
:1025D000C301B2010E94F2219B01AC01C701B60107
:1025E0000E94811F9B01AC010E94811F2D853E85A9
:1025F0004F8558890E94002021EE3EE245E652E4D4
:102600000E94F2216B017C01DC01CB01B058809368
:10261000C6029093C702A093C802B093C90220E0FB
:1026200030E0A901C701B6010E94E5211816D4F4D3
:1026300020E030E044E353E4C701B6010E945F208C
:10264000181684F0A701960160E070E084EB93E433
:102650000E94801F6093C6027093C7028093C802D5
:102660009093C902A3019201C301B2010E94F22119
:102670002D813E814F8158850E94811F9B01AC01B5
:102680000E94811F9B01AC0160E070E080E89FE345
:102690000E94801F6B017C01A301920169857A85EC
:1026A0008B859C850E94F2212B013C0129813A8176
:1026B0004B815C81C501B4010E94F2219B01AC01F8
:1026C000C301B2010E94811F9B01AC010E94811FC6
:1026D000A70196010E9400206B017C0120E030E000
:1026E00040E251E46091C6027091C7028091C80235
:1026F0009091C9020E94F2210E94D6206D837983B5
:1027000021EE3EE245E652E4C701B6010E94F22105
:1027100020E030E040E251E40E94F2210E94D62005
:102720008D8180930701E981E0930801609309019D
:1027300070930A014ACE8FE08093070187E280936D
:10274000080188EB8093090182E280930A013DCE63
:102750008C3F09F055C0E981FA818581809342015F
:102760008681809347018781809343018085809390
:102770004601618570E090E080E00E940C2160934A
:1027800048017093490180934A0190934B01E9817C
:10279000FA818285938590934501809344016485F5
:1027A00070E090E080E00E940C212AE037ED43E2E7
:1027B0005CE30E94F22160934C0170934D01809381
:1027C0004E0190934F010E94C61060914701809185
:1027D0004301681B770B072E000C880B990B0E9496
:1027E0000E2120E030E040EA50E40E946420609333
:1027F0004703709348038093490390934A0305CE9F
:102800008B3F09F002CEE981FA81858180FF54C0B7
:1028100091E09093360181FF52C091E0909337018F
:1028200082FF50C091E09093380183FF4EC091E049
:102830009093390184FF4CC091E090933A0185FF59
:102840004AC091E090933B0186FF48C091E090938D
:102850003C0187FF46C081E080933D01E981FA8118
:10286000868180934001808580FF3EC091E09093F7
:10287000410181FF3CC091E090933E0182FF3AC04C
:1028800081E080933F010E94EE10F0E0E0E060966E
:102890000FB6F894DEBF0FBECDBFDF91CF91FF9092
:1028A000EF90DF90CF90BF90AF909F908F907F90F0
:1028B0006F905F904F90099410923601ACCF1092B8
:1028C0003701AECF10923801B0CF10923901B2CF9C
:1028D00010923A01B4CF10923B01B6CF10923C0156
:1028E000B8CF10923D01BACF10924101C2CF1092E1
:1028F0003E01C4CF10923F01C6CF1F920F920FB678
:102900000F9211242F933F934F935F936F937F9375
:102910008F939F93AF93BF93EF93FF9388ED94E0D2
:102920000E946D02FF91EF91BF91AF919F918F91A6
:102930007F916F915F914F913F912F910F900FBEBB
:102940000F901F9018951F920F920FB60F9211249F
:102950002F938F939F93EF93FF93E091E804F0916F
:10296000E9048081E091EE04F091EF0482FD1BC048
:1029700090818091F1048F5F8F732091F204821710
:1029800041F0E091F104F0E0E852FB4F958F809325
:10299000F104FF91EF919F918F912F910F900FBEB6
:1029A0000F901F9018958081F4CF1F920F920FB651
:1029B0000F9211242F933F938F939F93AF93BF93C5
:1029C0008091430390914403A0914503B091460345
:1029D0003091310323E0230F2D3758F50196A11DC7
:1029E000B11D209331038093430390934403A0933C
:1029F0004503B09346038091320390913303A09135
:102A00003403B09135030196A11DB11D80933203AB
:102A100090933303A0933403B0933503BF91AF91E8
:102A20009F918F913F912F910F900FBE0F901F900C
:102A3000189526E8230F0296A11DB11DD2CF1F9233
:102A40000F920FB60F9211242F933F934F935F93E2
:102A50006F937F938F939F93AF93BF93EF93FF9366
:102A60008091B900887F803609F44AC0F0F5883239
:102A700009F4A7C018F5803109F49BC0B8F4882385
:102A800009F4F9C0883009F494C0FF91EF91BF9127
:102A9000AF919F918F917F916F915F914F913F91F6
:102AA0002F910F900FBE0F901F901895883109F449
:102AB00088C0803251F78093B00414C0803409F488
:102AC0009DC040F48033B9F38833F9F68093B004A5
:102AD00085ECB0C0803509F485C0883509F496C00E
:102AE000883499F60E944110D0CF883909F48CC0FF
:102AF00038F5883729F050F4883611F0803729F6F8
:102B000083E08093D2041092300357C0883809F4D0
:102B10007BC0803919F0803809F0B7CF809130033D
:102B2000803208F071C0E091300381E08E0F809315
:102B300030038091BB00F0E0E05FFC4F80833DC03C
:102B4000803B39F0E0F4803A09F479C0883A09F022
:102B50009CCF84E08093D20410920F0310920E0356
:102B6000E0917505F0917605099580910E0381112C
:102B70000FC081E080930E031092EE0209C0803CEA
:102B800009F4A6CF883C09F4A3CF883B09F07DCF98
:102B9000E0910F0381E08E0F80930F03F0E0E2518C
:102BA000FD4F80818093BB0090910F0380910E03B5
:102BB00029C08091AD048093BB0085EC8093BC005C
:102BC00064CF9091AF048091AE04981758F5E091CE
:102BD000AF0481E08E0F8093AF04F0E0E457FB4F29
:102BE0008081E9CFE091AF0481E08E0F8093AF0444
:102BF0008091BB00F0E0E457FB4F80839091AF04DD
:102C00008091AE049817C8F285E8D8CFE091AF0460
:102C100081E08E0F8093AF048091BB00F0E0E45719
:102C2000FB4F80838091B10481115CCF81E0809360
:102C3000AC0484EA8093BC001092D20426CF85ECC9
:102C40008093BC001092D20480913003803230F423
:102C5000E0913003F0E0E05FFC4F108260913003C0
:102C600070E0E0917705F091780580E193E00995B7
:102C7000109230030ACF1092B00434CFE8EDF4E0A4
:102C80001382128288EE93E0A0E0B0E08483958303
:102C9000A683B7832CE531E03183208325EC30E037
:102CA0003587248724EC30E03787268720EC30E016
:102CB000318B208B21EC30E0338B228B22EC30E007
:102CC000358B248B26EC30E0378B268B118E128EC1
:102CD000138E148EEDE7F5E01382128284839583C0
:102CE000A683B7838EE691E09183808310927C0562
:102CF00010927B0510927A05109279050E94930438
:102D000088E991E0909376058093750589E991E0D3
:102D10009093780580937705E4EBF6E088E4808370
:102D200080E094E0928381831482138280E885831B
:102D3000EEEAF6E080E891E09183808312821382CC
:102D400014821582EDE0F6E086E0DF011D928A959F
:102D5000E9F71092130610923D068EE090E09093F2
:102D6000A1068093A0068CE090E09093A306809348
:102D7000A20688E090E09093A5068093A406909325
:102D8000A7068093A60689E090E09093A906809319
:102D9000A80684E090E09093AB068093AA068AE0B0
:102DA00090E09093AD068093AC060895CF93DF93A7
:102DB00000D000D000D0CDB7DEB7789484B5826063
:102DC00084BD84B5816084BD85B5826085BD85B5CF
:102DD000816085BD80916E00816080936E0010924D
:102DE00081008091810082608093810080918100C8
:102DF0008160809381008091800081608093800059
:102E00008091B10084608093B1008091B0008160B6
:102E10008093B00080917A00846080937A008091E2
:102E20007A00826080937A0080917A00816080933A
:102E30007A0080917A00806880937A001092C100B5
:102E400062E087E00E947C0362E086E00E947C03EF
:102E500062E088E00E947C0361E084E00E947C03E1
:102E600080913A01882321F061E089E00E947C038F
:102E700010927C0510927B0510927A0510927905CC
:102E80000E94930488E991E09093760580937505FC
:102E900089E991E09093780580937705E091E804C3
:102EA000F091E90482E08083E091E404F091E5048C
:102EB0001082E091E604F091E70483E380831092AE
:102EC000F004E091EC04F091ED0486E08083E09161
:102ED000EA04F091EB04808180618083E091EA0450
:102EE000F091EB04808188608083E091EA04F091A6
:102EF000EB04808180688083E091EA04F091EB0428
:102F000080818F7D808311E010938B0480E6809315
:102F10008A048DE795E00E9427068111F8C185E8B3
:102F200091E00E94E30A6FE871E088ED94E00E946E
:102F3000370A20E140E650E060E070E088ED94E080
:102F40000E94460A88ED94E00E94DF0A82EA91E03E
:102F50000E94E30A1093420380914203811171C1E0
:102F600000E511E092E5892E91E0992EFF24F3947B
:102F70002CE0222E3DEF332E4FE5E42ED8018D912B
:102F80008D018093410363ED71E088ED94E00E9430
:102F9000370A809141030E94F40A80914103F09224
:102FA0008B0480938A0410927A05109279058DE73C
:102FB00095E00E9427068111BEC185E891E00E943C
:102FC000E30A6DEE71E088ED94E00E94370A80918B
:102FD00041030E94F40A80E092E00E94E30A80919B
:102FE000410380933A068DE795E0909339068093EC
:102FF0003806BFEFB0934606F0928D0561E081E0A0
:103000000E94380F62E370E080E090E00E943A0492
:103010000E94AE0C8111FCCF62E370E080E090E092
:103020000E943A040E94AE0C8111FCCFE9EFE093BC
:103030008D0510928E0562E082E00E94380F0E949A
:10304000AE0C882309F46EC180918D05883F09F08C
:1030500069C180913D06882309F470C06FEC71E06E
:1030600080913B0690913C060E94CB0140E150E0EC
:1030700060918F0580913B0690913C060E94920AD8
:1030800069EB71E080913B0690913C060E94CB0178
:1030900040E150E06091900580913B0690913C06A4
:1030A0000E94920A4090910550909205609093057D
:1030B0007090940565EA71E080913B0690913C0622
:1030C0000E94CB0120E1B301A20180913B069091C7
:1030D0003C060E94460A40909505509096056090E7
:1030E00097057090980560E971E080913B0690919A
:1030F0003C060E94CB0120E1B301A20180913B0676
:1031000090913C060E94460AA0909905B0909A05BD
:103110006AE771E080913B0690913C060E94CB01EA
:1031200060903B0670903C06A50170E060E020E1F5
:10313000C3010E94460AC3010E94DF0A2092B80020
:1031400030928D05F8E0F0938E0510928F05109265
:1031500090051092910520E920939205E092930545
:10316000F09294051092950510929605109297058D
:10317000109298051092990510929A0510929B054D
:1031800010929C0510929D0561E182E00E94380F2B
:1031900088EEA82E83E0B82E31E0A31AB10809F416
:1031A00014C60E94E00E8823B9F380918D058C3FF0
:1031B00099F760918A0670918B0680918C069091A8
:1031C0008D0620918906283039F460391FE5710792
:1031D00011E08107910591F128EE33E040E050E0E5
:1031E0000E94282449015A016BE072E088ED94E0C6
:1031F0000E94370A809189060E94F40A6AE172E00F
:1032000088ED94E00E94370A2AE0B501A401B7FED8
:103210000DC06DE288ED94E00E948F02442755278F
:10322000BA01481959096A097B092AE088ED94E036
:103230000E94460A8DE292E00E94E30A81E08093B8
:10324000400380E98093B80090E080E00E946A1F0C
:1032500080933E0381E090E00E946A1F80933F03C9
:1032600080913E0390913F038C3E934109F46AC0E4
:103270001A8219826CEECE0101960E94AD1081E097
:1032800090E09A83898363E1CE0101960E94AD109C
:103290000E94C6100E94EE10609147018091430188
:1032A000681B770B072E000C880B990B0E940E21D0
:1032B00020E030E040EA50E40E946420609347033D
:1032C000709348038093490390934A0387E390E007
:1032D000812C912C54018394009709F456C0FC0171
:1032E000A3E0F595E795AA95E1F7E95CFC4F282F57
:1032F0002770B501A40104C0440F551F661F771F36
:103300002A95D2F72081242B20830197E5CF8DEADF
:1033100091E00E94E30A87EB91E00E94E30A109299
:1033200042031ACE81E392E00E94E30A80169106DE
:1033300009F487CF23CE8DEA91E00E94E30A8BE562
:1033400092E0F2CF02E4E02E01E0F02E0AE010E07D
:10335000C8010E946A1FF70181937F010F5F1F4F11
:1033600008311105A9F716E3E12E11E0F12E08E26C
:1033700010E0C8010E946A1FD7018D937D010F5F85
:103380001F4F04331105A9F787CF6EE171E080E587
:1033900093E00E94630988EC90E090934C03809343
:1033A0004B030CB406FC25C061E08AE00E947C035C
:1033B00061E08AE00E944E0361E08BE00E947C03A2
:1033C00061E08DE00E947C0360E08CE00E947C0361
:1033D00061E08BE00E944E0360E08BE00E944E03B0
:1033E00060E08DE00E944E0380E58CBD8DB581606C
:1033F0008DBD8AE08093360361E00E947C030E94C9
:1034000061074FEF60E08FEF0E94950762E070E088
:1034100080E090E00E943A040E9468078DE10E94DB
:103420005C0780E00E945C071EB50E9461071123C3
:1034300099F370E060E088E00E94D30770E060E0FC
:103440008CE00E94D3076FEF7BE08AE00E94D307F5
:1034500060E07CE084E00E94D3076FEF71E186E0DA
:103460000E94D30761EB88E30E94C6076FE370E315
:1034700088E20E94D30769EF77EF80E30E94D307C9
:103480006DE080EC0E94C60760E081EC0E94C607F8
:1034900042E362EC80E80E94950762E17CE086EC02
:1034A0000E94D30762E184EC0E94C6076CED75E0D0
:1034B0008AEC0E94D3076091500384EE0E94C607F5
:1034C0006091510385EE0E94C6076091520382EE1F
:1034D0000E94C6076091530383EE0E94C607609165
:1034E000540380EE0E94C6076091550381EE0E944E
:1034F000C60760E184ED0E94C60760E071E086EDDA
:103500000E94D3078AEE0E94E00780FDFBCF8FE187
:103510000E94AA0740EC6BE180E80E94950744E016
:103520006FE180E80E94950782E70E94E0078630FD
:1035300008F08F5F811106C064EE71E088ED94E0C1
:103540000E94070B6AE171E086E894E00E94760928
:103550001092900310928F0381E08093910366E1B3
:1035600071E08BE893E00E94760962E171E087E800
:1035700093E00E9476096EE071E082E894E00E9498
:103580007609E6E8F4E022E834E04AEA53E0919173
:10359000D9018D919D018095892BDA018D93AD0123
:1035A000B4E0EA38FB0799F766E874E089E792E04F
:1035B0000E9418106BE873E08FE792E00E941810E9
:1035C00067E873E085E892E00E94181080917E031E
:1035D000883098F405E0809FF0011124EA5AFC4FEE
:1035E00026E131E13183208328EB32E233832283E9
:1035F00091E094838F5F80937E038BE892E00E943A
:10360000E30A80E88093B9061092B6061092B506D8
:10361000FF24F39466E6362E72E0E72E2FB7F89477
:103620008091430390914403A0914503B0914603D8
:103630002FBF40912E0150912F0160913001709168
:1036400031018C019D01041B150B260B370BB901B1
:10365000A801493151056105710508F4E3C1809362
:103660002E0190932F01A0933001B0933101F0927D
:10367000A90380912D018B3F08F04BC28F5F80938F
:103680002D0187E00E942503182F8093A8038091C5
:103690003B01813009F040C286E00E9425038093FF
:1036A0002C0180913D01882361F09091400180912F
:1036B000A503891730F0F0922C01F0922B011092A3
:1036C000A70380913F01882379F10E94BA019250AB
:1036D000BC01990F880B990B0E940E212AE037ED4F
:1036E00043E251E40E9464202B013C0120E030E0E1
:1036F000A9010E94E521181624F077FA709477F852
:1037000070946091400170E090E080E00E940E2192
:10371000A30192010E945F20181634F0F0922C0150
:10372000F0922B011092A70380913E018823F1F0C3
:103730000E94BA018C5C9109BC01990F880B990B0E
:103740000E940E2120E030E44CE95EE30E94F22169
:103750000E94D620209140012617170609F034F464
:10376000F0922C01F0922B011092A70388E00E94A6
:103770002503982F990F990F80912C01880F892B81
:10378000812B8093A40380913901882309F4FFC120
:1037900020E030E43093B8062093B7060E94070972
:1037A0009093A3038093A2030E94BA088091A2037E
:1037B0009091A303959587959093A3038093A2037B
:1037C0006091A2037091A30365597A4180914401ED
:1037D00090914501409048015090490160904A0104
:1037E00070904B0120913601222309F4D5C1681B4A
:1037F000790B7093A3036093A203072E000C880B30
:10380000990B0E940E21A301920150580E9464203E
:1038100060939E0370939F038093A0039093A103F2
:1038200040909E0350909F036090A0037090A1036E
:1038300020E030E0A901C301B2010E945F2087FFB0
:1038400014C0A301920160914C0170914D018091CF
:103850004E0190914F010E94F22160939E0370935C
:103860009F038093A0039093A10380913A019091CC
:103870002D01943608F0AFC1882309F49CC18091D2
:10388000370160E0811101C061E089E00E944E03D0
:1038900020919A0330919B0340919C0350919D038A
:1038A00060919E0370919F038091A0039091A1036A
:1038B0000E94801F2B013C01409296035092970377
:1038C00060929803709299036091420170E090E0D9
:1038D00080E00E940E21A30192010E94F2210E9429
:1038E000D6204B018B01709395036093940320E0E5
:1038F00030E0A901C301B2010E94E521181624F0AD
:1039000077FA709477F8709420E030E040EA50E461
:10391000C301B2010E945F206091470170E087FF00
:103920001DC02091470330914803409149035091B5
:103930004A03C301B2010E94F2212B013C016091B4
:10394000430170E090E080E00E940E219B01AC01F9
:10395000C301B2010E94811F0E94D62017FF2EC111
:103960008091460190E0881A990A9092950380927E
:10397000940380919403909195036817790724F438
:10398000709395036093940371956195710980918B
:103990009403909195038617970724F470939503E9
:1039A0006093940380913801882359F080919403A7
:1039B00090919503919581959109909395038093AA
:1039C0009403809141018823C9F0809194039091E0
:1039D00095038B3F910514F08AEF90E086303FEF1E
:1039E000930714F486E09FEF9595879595958795B5
:1039F00080589F4F90939503809394030E9466088C
:103A0000809193038F5F809393038B3058F02FE066
:103A100037E248EB52E267E084E291E00E949509C8
:103A20001092930361E070E080E090E00E943A041D
:103A300080914F03882379F060914D0370914E037C
:103A40006115710509F0DEC06FEF7BE08CE00E942C
:103A5000D30710924F0389E30E94E0078111D5C07C
:103A600080919103857009F089C180918F039091B5
:103A7000900301969093900380938F0387E893E0DF
:103A80000E949A01882371F08091860381110AC0F7
:103A900080918503811106C087E893E00E94791028
:103AA000F092850381E893E00E949A01882371F0E7
:103AB0008091800381110AC080917F03811106C02B
:103AC00081E893E00E947910F0927F038091A9032E
:103AD000882391F088E00E94250390919203891732
:103AE00059F080939203882339F08091A5038F5F6A
:103AF0008093A5031092A90300E010E0012B09F4C4
:103B00008DCD0E945902882309F488CD0E940000BF
:103B100085CD30922D01B5CD80913C018130C9F425
:103B200086E00E942503811111C09091A703913076
:103B300069F420912B01213029F410922B0110926D
:103B40002C0104C090932B0190932C018093A70328
:103B5000A8CD8091A603813051F480912C01813051
:103B600009F09FCD9091A70391119BCDE8CF8111D2
:103B700098CD80912C01811194CD8091A703813043
:103B800009F08FCD80932C011092A7038ACD10925B
:103B9000B8061092B70602CE680F791F7093A30380
:103BA0006093A203072E000C880B990B0E940E2134
:103BB000A30192012BCE61E084E068CE012B09F4D1
:103BC000D8CE8091460190E0880D991D9093950381
:103BD00080939403CECE882391F08091370161E0E9
:103BE000811101C060E089E00E944E0310929503AC
:103BF000109294030E9466081092A50301CF60E022
:103C000084E0F2CF6150710921CF60914D03709132
:103C10004E0380E00E94D307BE016F5F7F4F86E0B6
:103C200090E00E946E0789819A8190934E03809361
:103C30004D038D819E818C010078112787FF12C072
:103C40008B819C81049700914B0310914C03015090
:103C500011098017910708F48C016AEB73E0C80121
:103C60000E946E07F801E654FC4F1082F0924F0359
:103C700040E46EE180E80E9495070115110509F402
:103C8000EFCE0932110508F421CF8091C6038830A8
:103C900009F01CCF8091C703863009F099C044E039
:103CA00050E066E874E080EE93E00E944D24892B9A
:103CB00009F00CCF8091CF03813021F580EC93E0A7
:103CC0000E946B091092CE03E092CF0360ED73E087
:103CD0008AED93E00E94630960E573E080ED93E074
:103CE0000E94630966ED73E080EE93E00E9476091E
:103CF00066E874E086ED93E00E9476098AE290E03F
:103D00000E94F8078091910383FF0DC01091CF03AB
:103D1000123049F46EEA73E08BE893E00E947E096A
:103D200081111093910380918603811110C08091BD
:103D30008503882361F064EB73E087E893E00E94D9
:103D40007E09882321F0F0928603109285038091EA
:103D500080038111BBCE80917F03882309F4B6CE06
:103D600064EB73E081E893E00E947E09882309F404
:103D7000ADCEF092800310927F03A8CE80918F0386
:103D800090919003892B09F070CE61E184ED0E943F
:103D9000C60761E082ED0E94C6078AEE0E94E00736
:103DA00080FDFBCF60E082ED0E94C60789ED0E9496
:103DB000E00782FF5ACE8BE893E00E947910809151
:103DC000910388608093910350CE81EB92E0ACCA5E
:103DD0000932110509F47ACE811178CE8091C80399
:103DE000853409F073CE44E050E066E874E088ED75
:103DF00093E00E944D24892BA9F044E050E06AEA48
:103E000073E088ED93E00E944D24892B59F044E043
:103E100050E062E571E088ED93E00E944D24892B2B
:103E200009F054CE80917E03882309F44FCE80910F
:103E3000D103813109F04ACE36E5632E33E0732E8B
:103E4000512C412C80917E038415150409F00CF44B
:103E50003DCED30112962C91129713969C911397F5
:103E60008091DE03C92ED12C8C151D0419F580918B
:103E7000DF0382131FC014962C9114972223D1F0D4
:103E80004091E1034850550B2091E003022F10E0D0
:103E9000102F0027040F151F4091DC035091DD0304
:103EA000542745275427ED91FC9124EE33E064ED2F
:103EB00073E00995BFEF4B1A5B0AE5E06E0E711CCB
:103EC000C1CFFB01DC0102C005900D924150504072
:103ED000D8F70895F999FECF92BD81BDF89A992738
:103EE00080B50895262FF999FECF1FBA92BD81BDE6
:103EF00020BD0FB6F894FA9AF99A0FBE019608956C
:103F00005058BB27AA270E94981F0C94AB210E94EF
:103F10009D2138F00E94A42120F039F49F3F19F42C
:103F200026F40C9473210EF4E095E7FB0C946D21BC
:103F3000E92F0E94BC2158F3BA1762077307840760
:103F4000950720F079F4A6F50C94DE210EF4E095A7
:103F50000B2EBA2FA02D0B01B90190010C01CA0143
:103F6000A0011124FF27591B99F0593F50F4503EEE
:103F700068F11A16F040A22F232F342F4427585FE0
:103F8000F3CF469537952795A795F0405395C9F7F8
:103F90007EF41F16BA0B620B730B840BBAF09150B0
:103FA000A1F0FF0FBB1F661F771F881FC2F70EC04F
:103FB000BA0F621F731F841F48F487957795679522
:103FC000B795F7959E3F08F0B0CF9395880F08F00E
:103FD0009927EE0F9795879508950E949D2160F08F
:103FE00080E891E009F49EEF0E94A42128F040E8C7
:103FF00051E071F45EEF0CC00C9473210C94DE213F
:10400000E92FE0780E94BC2140F3092E052AB1F384
:10401000261737074807590738F00E2E07F8E0250E
:1040200069F0E025E0640AC0EF6307F8009407FA3E
:10403000DB01B9019D01DC01CA01AD01EF930E94D2
:104040007B200E94AB210E9430205F91552339F0E4
:104050002BED3FE049E450FD49EC0C94811F08959D
:10406000DF93DD27B92FBF7740E85FE31616170609
:1040700048075B0718F4D92F0E94EA219F938F937A
:104080007F936F930E94F522E8E6F0E00E9476218C
:104090000E94AB212F913F914F915F910E94052289
:1040A000DD2351F09058A2EA2AED3FE049EC5FE3AE
:1040B000D0785D270E94981FDF910C94AB210E945D
:1040C000492108F481E008950E9478200C94AB21E6
:1040D0000E94A42158F00E949D2140F029F45F3FE6
:1040E00029F00C946D2151110C94DF210C94732153
:1040F0000E94BC2168F39923B1F3552391F3951BDA
:10410000550BBB27AA2762177307840738F09F5FF8
:104110005F4F220F331F441FAA1FA9F335D00E2E65
:104120003AF0E0E832D091505040E695001CCAF7D2
:104130002BD0FE2F29D0660F771F881FBB1F261795
:1041400037074807AB07B0E809F0BB0B802DBF016C
:10415000FF2793585F4F3AF09E3F510578F00C943B
:104160006D210C94DF215F3FE4F3983ED4F38695F4
:1041700077956795B795F7959F5FC9F7880F911D5C
:104180009695879597F90895E1E0660F771F881F48
:10419000BB1F621773078407BA0720F0621B730BFB
:1041A000840BBA0BEE1F88F7E09508950E94DD207E
:1041B0006894B1110C94DF2108950E94C42188F005
:1041C0009F5798F0B92F9927B751B0F0E1F0660FDB
:1041D000771F881F991F1AF0BA95C9F714C0B1301C
:1041E00091F00E94DE21B1E008950C94DE21672F4A
:1041F000782F8827B85F39F0B93FCCF3869577954B
:104200006795B395D9F73EF4909580957095619533
:104210007F4F8F4F9F4F0895E89409C097FB3EF45E
:1042200090958095709561957F4F8F4F9F4F992303
:10423000A9F0F92F96E9BB279395F6958795779581
:104240006795B795F111F8CFFAF4BB0F11F460FF41
:104250001BC06F5F7F4F8F4F9F4F16C0882311F099
:1042600096E911C0772321F09EE8872F762F05C0AD
:10427000662371F096E8862F70E060E02AF09A9548
:10428000660F771F881FDAF7880F9695879597F93D
:104290000895990F0008550FAA0BE0E8FEEF1616D7
:1042A0001706E807F907C0F012161306E407F5072A
:1042B00098F0621B730B840B950B39F40A2661F09E
:1042C000232B242B252B21F408950A2609F4A14041
:1042D000A6958FEF811D811D089597F99F6780E84E
:1042E00070E060E008959FEF80EC0895DF93CF9336
:1042F0001F930F93FF92EF92DF927B018C016894E2
:1043000006C0DA2EEF010E940522FE01E894A59175
:104310002591359145915591A6F3EF010E94981F83
:10432000FE019701A801DA9469F7DF90EF90FF9002
:104330000F911F91CF91DF91089500240A941616D2
:10434000170618060906089500240A941216130683
:10435000140605060895092E0394000C11F4882311
:1043600052F0BB0F40F4BF2B11F460FF04C06F5F2D
:104370007F4F8F4F9F4F089557FD9058440F551F03
:1043800059F05F3F71F04795880F97FB991F61F0D7
:104390009F3F79F087950895121613061406551F4E
:1043A000F2CF4695F1DF08C0161617061806991FBA
:1043B000F1CF86957105610508940895E894BB27AF
:1043C00066277727CB0197F908950E94492108F4C1
:1043D0008FEF08959B01AC0160E070E080E89FE3FF
:1043E0000C9464200E9405220C94AB210E949D2114
:1043F00038F00E94A42120F0952311F00C946D2137
:104400000C94732111240C94DF210E94BC2170F3C1
:10441000959FC1F3950F50E0551F629FF001729F69
:10442000BB27F00DB11D639FAA27F00DB11DAA1F78
:10443000649F6627B00DA11D661F829F2227B00DC5
:10444000A11D621F739FB00DA11D621F839FA00D50
:10445000611D221F749F3327A00D611D231F849FA0
:10446000600D211D822F762F6A2F11249F575040F7
:104470009AF0F1F088234AF0EE0FFF1FBB1F661F72
:10448000771F881F91505040A9F79E3F510580F03B
:104490000C946D210C94DF215F3FE4F3983ED4F33C
:1044A000869577956795B795F795E7959F5FC1F7DF
:1044B000FE2B880F911D9695879597F90895FA011F
:1044C000EE0FFF1F309621053105A1F16115710531
:1044D00061F48038BFE39B0749F168949038810507
:1044E00061F08038BFEF9B0741F099234AF5FF3F09
:1044F000E1053105210519F1E8940894E795D90102
:10450000AA2329F4AB2FBE2FF85FD0F310C0FF5FB2
:1045100070F4A695E0F7F73950F019F0FF3A38F447
:104520009F779F930DD00F9007FC9058089546F009
:104530000C94732160E070E080E89FE308954FE7FA
:104540009F775F934F933F932F930E948A232F91DE
:104550003F914F915F910E94F2210C94012319F435
:1045600016F40C9473210C9433230E94C421B8F3E5
:104570009923C9F3B6F39F57550B87FF0E94412338
:104580000024A0E640EA900180585695979528F4BB
:10459000805C660F771F881F20F0261737074807B3
:1045A00030F4621B730B840B202931294A2BA6950A
:1045B00017940794202531254A2758F7660F771F4F
:1045C000881F20F026173707480730F4620B730B5B
:1045D000840B200D311D411DA09581F7B901842F59
:1045E0009158880F9695879508959B01AC010C947E
:1045F000F22129F416F00C946D210C94DE210C9418
:1046000073210E94C421A8F39638A0F707F80F92EF
:10461000E8942BE33AEA48EB5FE70E9408220F9206
:104620000F920F924DB75EB70F920E94D223E5E929
:10463000F0E00E9476214F915F91EF91FF91E59517
:10464000EE1FFF1F49F0FE57E0684427EE0F441F9E
:10465000FA95E1F74195550B0E944C230F9007FE08
:104660000C94EA2108959F3F31F0915020F48795F2
:1046700077956795B795880F911D9695879597F9CA
:10468000089591505040660F771F881FD2F7089504
:104690000C946D210C9433230E94C421D8F39923E8
:1046A000C9F3940F511DA3F39150504094F059F069
:1046B000882332F0660F771F881F91505040C1F752
:1046C0009E3F51052CF7880F911D9695879597F978
:1046D00008955F3FACF0983E9CF0BB278695779598
:1046E0006795B79508F4B1609395C1F7BB0F58F77C
:1046F00011F460FFE8CF6F5F7F4F8F4F9F4FE3CF85
:104700000C94DF2116F00C9433230C9473216894DD
:104710000C946D210E94C421A8F39923C1F3AEF338
:10472000DF93CF931F930F93FF92C92FDD27882329
:104730002AF02197660F771F881FDAF720E030E014
:1047400040E85FEB9FE3883920F0803E38F0219607
:104750008F770E94811FEDEBF0E004C00E94811F63
:10476000EAEEF0E00E9476218B01BE01EC01FB2E07
:104770006F5771097595771F880B990B0E940E2151
:1047800028E132E741E35FE30E940522AF2D980163
:10479000AE01FF900F911F91CF91DF910E94981F62
:1047A0000C94AB21FA01DC01AA0FBB1F9B01AC01E9
:1047B000BF5728F4222733274427507820C0B75109
:1047C00090F4AB2F0024469537952795011CA395AF
:1047D000D2F3002071F0220F331F441FB395DAF398
:1047E0000ED00C94801F61307105A0E88A07B9468D
:1047F00030F49B01AC0166277727882790783096A4
:1048000021F020833183428353830895A1E21A2E3D
:10481000AA1BBB1BFD010DC0AA1FBB1FEE1FFF1F64
:10482000A217B307E407F50720F0A21BB30BE40BB4
:10483000F50B661F771F881F991F1A9469F76095FB
:104840007095809590959B01AC01BD01CF010895B5
:10485000052E97FB1EF400940E943F2457FD07D0BD
:104860000E94062407FC03D04EF40C943F2450957C
:104870004095309521953F4F4F4F5F4F089590954C
:104880008095709561957F4F8F4F9F4F0895EE0FE4
:10489000FF1F0590F491E02D0994FB01DC0104C099
:1048A0008D910190801921F441505040C8F7881B28
:1048B000990B0895FB01DC0102C001900D9241505B
:0A48C0005040D8F70895F894FFCF98
:1048CA0080817FFD080000000000000000CCFFFF8F
:1048DA00FF0008080808C0A80101C0A801497069BA
:1048EA00692D303180817FC70100470101661900B7
:1048FA000000C0A801FF0000000101000000000044
:10490A000500280A0000093C0000F0410000803F31
:10491A004A4BFFFFFFFFFFFF000000008F02EF017D
:10492A001C02DC024D022B023F0200000000F805C7
:10493A00CB055808A105C405B105A2050000000071
:10494A00990A0D0A004572726F72203D20300043A9
:10495A004D5053313420414444524553733A203028
:10496A007800434D50533134204F6B2E00457272FC
:10497A006F72203D203400434D5053206E6F7420D7
:10498A00436F6E6E6563746564206F7220466F753F
:10499A006E64000D0A436865636B696E6720666F13
:1049AA007220424E4F303858206F6E2000424E4FD0
:1049BA0030385820414444524553733A20307800E5
:1049CA00424E4F303858204F6B2E005265706F722E
:1049DA0074204944203A203078005265706F72740E
:1049EA0020696E74657276616C203A2000206D73BE
:1049FA0000424E4F303830206E6F74206465746503
:104A0A006374656420617420676976656E20493233
:104A1A004320616464726573732E00424E4F3038CE
:104A2A0058206E6F7420436F6E6E656374656420E0
:104A3A006F7220466F756E640049503A2020004715
:104A4A00573A202000444E533A200053657475703B
:104A5A0020636F6D706C6574652C20776169746969
:104A6A006E6720666F722041674F70656E475053BC
:104A7A0000424E4F30387820696E69742066616949
:064A8A006C732121000005
:00000001FF
