:100000000C946A010C9492010C9492010C9492014C
:100010000C9492010C9492010C9492010C94920114
:100020000C9492010C9492010C9492010C94920104
:100030000C9492010C9492010C9492010C949201F4
:100040000C945E0E0C9492010C942C0E0C94060EE3
:100050000C9492010C9492010C9492010C949201D4
:100060000C94A80E0C949201084AD73B3BCE016E2B
:1000700084BCBFFDC12F3D6C74319ABD56833DDAFF
:100080003D00C77F11BED9E4BB4C3E916BAAAABE0E
:10009000000000803F07634236B79BD8A71A396833
:1000A0005618AEBAAB558C1D3CB7CC5763BD6DED41
:1000B000FD753EF6177231BF000000803F0800005A
:1000C00000BE922449123EABAAAA2ABECDCCCC4C8B
:1000D0003E00000080BEABAAAAAA3E00000000BFFE
:1000E000000000803F0000000000084178D3BB43BF
:1000F00087D1133D190E3CC3BD4282AD2B3E68EC47
:100100008276BED98FE1A93E4C80EFFFBE01C4FFCD
:100110007F3F0000000000000000000024002700D6
:100120002A0000000000250028002B00000000002D
:100130002300260029000404040404040404020229
:100140000202020203030303030301020408102056
:100150004080010204081020010204081020000061
:100160000008000201000003040700000000000076
:1001700000002053572056657273696F6E205061DE
:100180007463683A20307800205357204275696CB8
:1001900064204E756D6265723A20307800205357A6
:1001A0002050617274204E756D6265723A2030780D
:1001B000002053572056657273696F6E204D696E2B
:1001C0006F723A2030780053572056657273696F0A
:1001D0006E204D616A6F723A203078004661696C1A
:1001E000656420746F206163636573732045746870
:1001F00065726E657420636F6E74726F6C6C65727D
:10020000004500008200004000204779726F2D7683
:100210006563746F720057616B652D7265706F72E4
:10022000740053656E736F722D7265706F72740017
:10023000436F6E74726F6C004578656375746162AC
:100240006C6500436F6D6D616E6400204368616E84
:100250006E656C3A00204C656E6774683A00205BEE
:10026000436F6E74696E756564207061636B65744D
:100270005D20003000200020426F64793A00300099
:1002800020004865616465723A00300020004865CE
:10029000616465723A0053504920494E5420746994
:1002A0006D656F757400535049205761697400493A
:1002B00032432074696D656F7574004D452043614C
:1002C0006C207265706F727420666F756E642100A9
:1002D0002100C70F11241FBECFEFD8E0DEBFCDBF76
:1002E00012E0A0E0B1E0EAEFF7E302C005900D9262
:1002F000A638B107D9F726E0A6E8B2E001C01D9202
:10030000AB31B207E1F711E0CAE6D1E004C02197B2
:10031000FE010E94E81BC936D107C9F70E943D10B3
:100320000C94FB1B0C9400008091F5039091F60354
:10033000891B990B089508950895EF92FF920F93EA
:100340001F93CF93DF938C017B01D0E0C0E0F701D6
:10035000EC0FFD1F6491662361F0D801ED91FC91D3
:100360000190F081E02DC8010995892B11F02196AB
:10037000EECFCE01DF91CF911F910F91FF90EF90C3
:100380000895AF92BF92CF92DF92EF92FF920F93B8
:100390001F93CF93DF936C017B018B01040F151F1B
:1003A000EB015E01AE18BF08C017D10759F0699183
:1003B000D601ED91FC910190F081E02DC6010995E7
:1003C000892B79F7C501DF91CF911F910F91FF9094
:1003D000EF90DF90CF90BF90AF900895FC01538DC8
:1003E000448D252F30E0842F90E0821B930B54170F
:1003F00010F0CF96089501970895FC01918D828D9C
:10040000981761F0A28DAE0FBF2FB11D5D968C9134
:10041000928D9F5F9F73928F90E008958FEF9FEF73
:100420000895FC01918D828D981731F0828DE80F2F
:10043000F11D858D90E008958FEF9FEF0895FC01E9
:10044000918D228D892F90E0805C9F4F821B9109B6
:100450008F739927089587E494E00E941F0221E09A
:10046000892B09F420E0822F089580E090E0892B09
:1004700029F00E942B0281110C9400000895FC01C8
:10048000A48DA80FB92FB11DA35ABF4F2C91848DF5
:1004900090E001968F739927848FA689B7892C9352
:1004A000A089B1898C91837080648C93938D848DA5
:1004B000981306C00288F389E02D80818F7D8083A8
:1004C0000895EF92FF920F931F93CF93DF93EC0168
:1004D00081E0888F9B8D8C8D98131AC0E889F989EB
:1004E000808185FF15C09FB7F894EE89FF896083EE
:1004F000E889F98980818370806480839FBF81E06F
:1005000090E0DF91CF911F910F91FF90EF900895B0
:10051000F62E0B8D10E00F5F1F4F0F731127E02E8B
:100520008C8D8E110CC00FB607FCFACFE889F989C3
:10053000808185FFF5CFCE010E943F02F1CFEB8D88
:10054000EC0FFD2FF11DE35AFF4FF0829FB7F89497
:100550000B8FEA89FB8980818062CFCFCF93DF93B5
:10056000EC01888D8823B9F0AA89BB89E889F989CB
:100570008C9185FD03C0808186FD0DC00FB607FC00
:10058000F7CF8C9185FFF2CF808185FFEDCFCE0133
:100590000E943F02E9CFDF91CF910895833081F02F
:1005A00028F4813099F08230A9F008958730A9F0BD
:1005B0008830C9F08430B1F4809180008F7D03C011
:1005C000809180008F7780938000089584B58F7725
:1005D00084BD089584B58F7DFBCF8091B0008F7767
:1005E0008093B00008958091B0008F7DF9CFCF93B4
:1005F000DF93282F30E0F901E25AFE4F8491F90190
:10060000E65BFE4FD491F901EA5CFE4FC491CC2326
:10061000A1F081110E94CE02EC2FF0E0EE0FFF1F3F
:10062000E45DFE4FA591B491EC91ED2381E090E063
:1006300009F480E0DF91CF91089580E090E0FACF57
:100640001F93CF93DF93282F30E0F901E25AFE4F3A
:100650008491F901E65BFE4FD491F901EA5CFE4F0B
:10066000C491CC23A9F0162F81110E94CE02EC2F49
:10067000F0E0EE0FFF1FEE5DFE4FA591B4918FB736
:10068000F894EC91111108C0D095DE23DC938FBF54
:10069000DF91CF911F910895DE2BF8CFCF93DF9399
:1006A00090E0FC01E65BFE4F24918A5C9E4FFC01CA
:1006B00084918823D1F090E0880F991FFC01E85EB7
:1006C000FE4FA591B491FC01EE5DFE4FC591D49112
:1006D00061110EC09FB7F8948C91E22FE0958E23A4
:1006E0008C932881E223E8839FBFDF91CF91089507
:1006F0008FB7F894EC91E22BEC938FBFF6CF3FB716
:10070000F8948091EC029091ED02A091EE02B091EC
:10071000EF0226B5A89B05C02F3F19F00196A11D39
:10072000B11D3FBFBA2FA92F982F8827BC01CD013B
:10073000620F711D811D911D42E0660F771F881F9A
:10074000991F4A95D1F708958F929F92AF92BF92C9
:10075000CF92DF92EF92FF924B015C010E947F03E8
:100760006B017C010E947F036C197D098E099F0932
:10077000683E734081059105A8F321E0821A910833
:10078000A108B10888EEC80E83E0D81EE11CF11C58
:1007900081149104A104B10429F7FF90EF90DF9038
:1007A000CF90BF90AF909F908F9008952091C802F6
:1007B000260F3327331F21323105ECF420914104F9
:1007C000FC0190E080E0243069F082E00895A0917F
:1007D000C8022191AC0148555D4FA40FB52FB11D42
:1007E0002C930196861798F38091C802680F609346
:1007F000C80280E0089581E008951092410481E0EC
:100800008093200410921B0461E082E10E94200387
:1008100061E083E10E942003E9EBF0E080818E7FBC
:10082000808380818D7F808388E48093B80085E415
:100830008093BC000895CF93DF9391E09093A7023B
:100840008823B9F0C091B800D091BA008091BC0063
:100850008A7B8093BC0060E082E10E94200360E01C
:1008600083E10E9420030E94FD03D093BA00C0934D
:10087000B800DF91CF910895CF92DF92EF92FF926F
:100880000F931F93CF93DF93D82FC62F613208F0B9
:1008900098C00E947F036B017C018091410481110B
:1008A0006BC081E080934104809320049FEF90937C
:1008B0001F0410921E049C0F90931D0480931C042F
:1008C00080911C04DD0FD82BD0931C0480911B0455
:1008D000813009F078C010921B040E947F036B01E5
:1008E0007C0180911C048093BB0080914304909113
:1008F0004404A0914504B0914604892B8A2B8B2B8C
:10090000A1F00E947F0300914304109144042091C0
:100910004504309146046C197D098E099F0906171C
:1009200017072807390708F448C08091BC0083FDE9
:10093000D8CF85EC8093BC000E947F036B017C01C3
:1009400080914104813009F440C080911E048C17CD
:1009500010F4C0911E04EBEFF3E0A1E2B4E080E0FC
:100960008C1355C08C2FDF91CF911F910F91FF9069
:10097000EF90DF90CF9008958091430490914404CC
:10098000A0914504B0914604892B8A2B8B2B09F446
:1009900084CF0E947F03009143041091440420916E
:1009A0004504309146046C197D098E099F0906178C
:1009B00017072807390708F070CF809142040E947A
:1009C0001B04C0E0CFCF85EEB5CF8091430490915A
:1009D0004404A0914504B0914604892B8A2B8B2BAB
:1009E00009F4AECF0E947F030091430410914404A8
:1009F00020914504309146046C197D098E099F09A8
:100A0000061717072807390708F09ACFD6CF919114
:100A10009D938F5FA5CF0895E091F6038091F50334
:100A2000E81730F4F0E0EF5DFB4F808190E008952F
:100A30008FEF9FEF08959091F6038091F5032FEFCC
:100A40003FEF981748F4E92FF0E0EF5DFB4F20816E
:100A500030E09F5F9093F603C9010895CF92DF9233
:100A6000EF92FF920F931F93CF93DF937C01CB0103
:100A70008A012091FA03222389F0EB016B01C40E55
:100A8000D51ECC15DD0569F06991D701ED91FC917A
:100A90000190F081E02DC7010995F3CF642F0E94EA
:100AA000D603C801DF91CF911F910F91FF90EF9076
:100AB000DF90CF900895CF93DF931F92CDB7DEB72D
:100AC00069832091FA032223F9F02091F703203261
:100AD00058F021E030E0FC013383228390E080E095
:100AE0000F90DF91CF9108958091F803E82FF0E007
:100AF000E957FD4F998190838F5F8093F80380932E
:100B0000F70381E090E0ECCF61E0CE0101960E9416
:100B1000D603F7CFCF92DF92EF92FF920F931F93FE
:100B2000CF93DF93D091F70381E0D13208F09CC0DE
:100B3000C091F9030E947F036B017C018091410405
:100B400081116CC082E08093410481E08093200495
:100B50008FEF80931F0410921E04D0931D04A7E80A
:100B6000B2E0EBEFF3E080E0D8138DC010921C04EC
:100B700080911C04CC0FC82BC0931C0480911B04D3
:100B8000813009F084C010921B040E947F036B0126
:100B90007C0180911C048093BB0080914304909160
:100BA0004404A0914504B0914604892B8A2B8B2BD9
:100BB000A1F00E947F03009143041091440420910E
:100BC0004504309146046C197D098E099F0906176A
:100BD00017072807390708F442C08091BC0083FD3D
:100BE000D8CF85EC8093BC000E947F036B017C0111
:100BF00080914104823009F44CC080911F048F3FE2
:100C000009F469C080911F04803209F466C08091A4
:100C10001F04803309F463C084E026C0809143043C
:100C200090914404A0914504B0914604892B8A2BED
:100C30008B2B09F483CF0E947F0300914304109112
:100C4000440420914504309146046C197D098E09B5
:100C50009F09061717072807390708F06FCF8091FB
:100C600042040E941B0485E01092F8031092F703DF
:100C70001092FA03DF91CF911F910F91FF90EF90A7
:100C8000DF90CF9008959D9191938F5F6DCF85EE0A
:100C9000A9CF8091430490914404A0914504B09160
:100CA0004604892B8A2B8B2B09F4A2CF0E947F0349
:100CB000009143041091440420914504309146046E
:100CC0006C197D098E099F09061717072807390730
:100CD00008F08ECFC4CF80E0C7CF82E0C5CF83E0DD
:100CE000C3CF0F931F93CF93DF9370E0635D7C4F6F
:100CF0002130A9F48A01075F1F4F30E020E0EB01AB
:100D0000FA01E230F10578F0A991B991BA27AB2741
:100D1000BA270A0F1B1F211D311D3297F2CF00E0A9
:100D200010E09801ECCFFA01EE7F6E0F7F1F4E1797
:100D30005F0769F0FB01408150E070E060E0762FD2
:100D4000652F542F4427040F151F261F371FA90195
:100D500066277727411551056105710519F022278E
:100D60003327F1CF00951095E82FF0E0E35DFC4FBD
:100D700010830183DF91CF911F910F9108958EBD54
:100D80000DB407FEFDCF089561E08091F4020E944A
:100D9000200378940895F89460E08091F4020C9414
:100DA00020031F93CF93DF93182FC62FD42F0E94B9
:100DB000CB068C2F8F71812B0E94BF068D2F0E9436
:100DC000BF06DF91CF911F910C94C406CF93C82F1B
:100DD000C076809186028C1799F043E06FE180EA3B
:100DE0000E94D106C09386024C2F50E085E05595B5
:100DF00047958A95E1F76FE180E8CF910C94D10691
:100E0000CF910895CF93DF93C82FD62F0E94E60687
:100E10004D2F6C2F80E4DF91CF910C94D106CF93AE
:100E2000DF93C82FD72F0E9402076D2F81E08C0F10
:100E3000DF91CF910C940207CF93C82F0E94E60652
:100E40000E94CB068C2F8F710E94BF0680E00E940B
:100E5000BF06C7FF03C080E00E94BF06CEB50E9458
:100E6000C4068C2FCF91089590E080E008950895F6
:100E70008EBD00000DB407FEFDCF8EB508958CBD6C
:100E80009DBD0895DC01ED91FC910190F081E02D74
:100E900009940F931F93FC0100E012E12AE730E070
:100EA00090E0401751076207730740F43695279585
:100EB000179507959F5F9630A1F797E0292F286B2C
:100EC000269520839095917091831F910F9108959D
:100ED000CF92DF92EF92FF92CF93C62FBC01990F72
:100EE000880B990B0E94AF186B017C016C2F70E08E
:100EF000719561957109072E000C880B990B0E9462
:100F0000AF189B01AC0160E070E080E090E40E94CB
:100F1000001A9B01AC01C701B6010E949319CF9141
:100F2000FF90EF90DF90CF900895CF93DF93FC0177
:100F3000CDE2D3E096E0DE0101900D929A95E1F7C3
:100F400086E0E3E2F3E0A3E3B3E001900D928A953B
:100F5000E1F78091240190912501A0912601B091A3
:100F600027018E8F9F8FA8A3B9A380912903909109
:100F70002A03A0912B03B0912C038A8F9B8FAC8FF7
:100F8000BD8FDF91CF910895FB0101900020E9F71B
:100F90003197AF01461B570BDC01ED91FC910280AC
:100FA000F381E02D09948F929F92AF92BF92EF92BE
:100FB000FF920F931F93CF93DF93CDB7DEB7A19727
:100FC0000FB6F894DEBF0FBECDBF7C01FA01CB0196
:100FD00019A2223008F42AE08E010F5D1F4F822EE5
:100FE000912CB12CA12CBF01A50194010E94A71B3B
:100FF000F901CA016A300CF5605DD8016E938D016C
:10100000232B242B252B79F790E080E0109721F0FB
:10101000BD01C7010E94C407A1960FB6F894DEBFB8
:101020000FBECDBFDF91CF911F910F91FF90EF9039
:10103000BF90AF909F908F900895695CDECF242F72
:10104000462F50E070E060E00C94D3078F929F929F
:10105000AF92BF92CF92DF92EF92FF920F931F93C6
:10106000CF93DF937C01EB016C0182E0C80ED11CB1
:101070004701E5E08E0E911C10E000E0F601619161
:101080006F014AE050E0CE010E941F085C01E88138
:10109000F9810190F081E02D6EE2CE0109958A0D73
:1010A0009B1D080F191FC814D90441F74AE050E0EE
:1010B000F7016581CE010E941F08800F911FDF910B
:1010C000CF911F910F91FF90EF90DF90CF90BF9045
:1010D000AF909F908F9008956AE571E00C94C407DB
:1010E000CF93DF93BC0187E494E00E94C407EC0136
:1010F00087E494E00E946C088C0F9D1FDF91CF91D4
:101100000895CF93DF9340E150E0682F87E494E0A7
:101110000E941F08EC0187E494E00E946C088C0F89
:101120009D1FDF91CF9108950F931F93CF93DF936E
:10113000EC010E949D018C01CE010E946C08800F81
:10114000911FDF91CF911F910F9108951F93CF931E
:10115000DF93E091F004F091F1044091F804609184
:10116000F6047091F7042091F5048091F5049091B4
:10117000F604A091F704B091F8048093E3059093EE
:10118000E405A093E505B093E6059091FB04D091AA
:10119000FD048091F9043091F2043530B1F590915D
:1011A000F404322F292F3093D0052093CF0570936C
:1011B000D2056093D105982F842F9093D405809306
:1011C000D3058091FA049091FB049093D605809307
:1011D000D5058091FC049091FD049093DC058093EB
:1011E000DB058091FE049091FF049093DE058093CF
:1011F000DD0580910005909101059093E0058093B5
:10120000DF05DF91CF911F910895FF773497C0914B
:10121000FE0493706091FD047091FE044091FF0400
:10122000509100052091010530910205EF30F10544
:10123000FCF0A0910305B09104057197DCF0E091FA
:101240000505F09106058130C1F4892F90E0909357
:10125000B6058093B5057093B0056093AF055093C4
:10126000B2054093B1053093B4052093B305C9CFBF
:10127000B0E0A0E0F0E0E0E0E6CF843099F4892F20
:1012800090E09093BE058093BD057093B805609380
:10129000B7055093BA054093B9053093BC05209328
:1012A000BB05AFCF823099F4892F90E09093C605AB
:1012B0008093C5057093C0056093BF055093C20528
:1012C0004093C1053093C4052093C3059ACF833062
:1012D00099F4892F90E09093CE058093CD0570937B
:1012E000C8056093C7055093CA054093C90530935C
:1012F000CC052093CB0585CF853031F0883021F0A7
:1013000018ED180F1230D8F4892F90E09093DA0579
:101310008093D9057093D0056093CF055093D20583
:101320004093D1053093D4052093D305B093D605CF
:10133000A093D505F093D805E093D70562CF81310E
:1013400029F43093E2052093E1055BCF833119F452
:10135000D093E70556CF8E3199F4C093E805AFEFEF
:10136000B4E090E080E02D91E091E905F091EA058C
:10137000E80FF91F2083019689309105A1F741CF2D
:10138000843169F47093F6056093F5055093F80580
:101390004093F7053093FA052093F90532CF853154
:1013A00069F47093FC056093FB055093FE05409330
:1013B000FD05309300062093FF0523CF863169F4A5
:1013C000709302066093010650930406409303064F
:1013D000309306062093050614CF813F09F011CF04
:1013E0008091A405882341F060ED72E08091A20510
:1013F0009091A3050E9494088091FB04873009F026
:1014000000CF8091A405882341F06BEB72E08091BE
:10141000A2059091A3050E9494088091FE048093F8
:10142000EB05EFCECF93C4E680919F059091A00588
:10143000DC01ED91FC910084F185E02D09951816F1
:101440001906BCF061E070E080E090E00E94A40327
:10145000C15051F78091A405882349F06FEA72E0EA
:101460008091A2059091A3050E94940880E0CF91FD
:10147000089581E0FCCFCF92DF92EF92FF920F931D
:101480001F93CF93DF9300D0CDB7DEB7082FF62E92
:1014900014E0160F80919F059091A005009709F028
:1014A00073C02DE7E22E8091AD050E94F702892BD3
:1014B00021F18091A405882341F066EA72E08091D1
:1014C000A2059091A3050E94940861E070E080E07D
:1014D00090E00E94A403EA94E110E5CF9091A40566
:1014E000992309F445C066E972E08091A2059091C4
:1014F000A3050E94940890E03BC04091A70550913D
:10150000A8056091A9057091AA05CE0101960E94D7
:10151000490789819A810E943F0760E08091AB056D
:101520000E942003812F0E94380780E00E94380724
:10153000802F0E943807A02FB0E0AC58BA4F8C9192
:1015400091E0980F9C930E94380794EFC92E94E085
:10155000D92E10E0D6018D916D010E9438071F5FD2
:10156000F112F8CF61E08091AB050E94200391E079
:10157000892F0F900F90DF91CF911F910F91FF90C6
:10158000EF90DF90CF9008952091A10531E0309346
:10159000FA032093F9031092F8031092F703612FD6
:1015A00070E00E94420770E060E080919F0590919A
:1015B000A0050E94420780919F059091A005DC0143
:1015C000ED91FC910190F081E02D602F09958091C3
:1015D0009F059091A005DC01ED91FC910190F081B7
:1015E000E02DA02FB0E0AC58BA4F6C9121E0260F4F
:1015F0002C93099584EFC82E84E0D82E10E08091BA
:101600009F059091A005F60161916F01DC01ED91BC
:10161000FC910190F081E02D09951F5FF112EFCF51
:1016200080919F059091A0050E948A0591E08823F2
:1016300009F49ECF60CF8F929F92BF92CF92DF929C
:10164000EF92FF920F931F93CF93DF9300D0CDB70C
:10165000DEB780919F059091A005892B09F067C1A5
:101660008091AD050E94F702019709F46BC040918B
:10167000A7055091A8056091A9057091AA05CE0112
:1016800001960E94490789819A810E943F0760E084
:101690008091AB050E94200380E00E943807082F4C
:1016A00080E00E943807182F80E00E943807F82E4B
:1016B00080E00E9438070093F0041093F104F09248
:1016C000F2048093F304C8019F770097E9F58091B5
:1016D000A4058823B9F16EE872E08091A20590918B
:1016E000A3050E949D0100EF14E054EFE52E54E0A5
:1016F000F52E6CE872E08091A2059091A3050E94FE
:101700009D01D8018D918D01803140F46AE872E02D
:101710008091A2059091A3050E949D0140E150E0B7
:10172000F801319760818091A2059091A3050E94F4
:101730001F08E016F106E9F68091A2059091A30535
:101740000E946C08F12C22C08C0104501109F12C6C
:10175000E12CE016F10678F48FEF0E943807B0E82C
:10176000EB16F10420F4F701E051FB4F8483EFEF17
:10177000EE1AFE0AEECF61E08091AB050E942003D5
:10178000F090A405F11011C0FF24F3948F2D0F9059
:101790000F90DF91CF911F910F91FF90EF90DF900D
:1017A000CF90BF909F908F9008950091F00410917A
:1017B000F10462E872E08091A2059091A3050E9475
:1017C0009D0140EFC42E44E0D42E60E872E0809189
:1017D000A2059091A3050E949D01D6018D916D01F6
:1017E000803140F46EE772E08091A2059091A305EC
:1017F0000E949D0140E150E0F601319760818091A7
:10180000A2059091A3050E941F08B4EFCB16B4E087
:10181000DB06D9F63CEFB32EB00EE8E2EB1510F480
:1018200028E2B22E67E772E08091A2059091A305AD
:101830000E949D0194EFC92E94E0D92EE12C809155
:10184000A2059091A305BE1401F165E772E00E9424
:101850009D014601D6018C91803140F463E772E02E
:101860008091A2059091A3050E949D01BFEFCB1A24
:10187000DB0A40E150E0F40160818091A205909183
:10188000A3050E941F08E394DACF17FF05C06EE599
:1018900072E00E9494081F7765E572E08091A205CE
:1018A0009091A3050E949D01A80170E060E02AE0EC
:1018B0008091A2059091A3050E94D3076BE472E08A
:1018C0008091A2059091A3050E949D016091F20470
:1018D0008091A2059091A30561110BC063E472E0B1
:1018E0000E949D018091A2059091A3050E946C0821
:1018F0004DCF613019F468E372E0F2CF623019F431
:1019000060E372E0EDCF633019F462E272E0E8CF99
:10191000643019F466E172E0E3CF653019F46AE0EF
:1019200072E0DECF4AE050E00E941F08DBCF64E0A7
:101930008091A1050E943C041092F6038093F50368
:101940000E94120A882309F4FDCE80919F05909190
:10195000A005DC01ED91FC910284F385E02D099551
:10196000F82E80919F059091A005DC01ED91FC91EE
:101970000284F385E02D0995E82E80919F059091D2
:10198000A005DC01ED91FC910284F385E02D099521
:10199000182F80919F059091A005DC01ED91FC919D
:1019A0000284F385E02D0995F092F004E092F104B1
:1019B0001093F2048093F30400E01E2D0F291F778B
:1019C0000115110509F4BECE04501109D12CC12C0A
:1019D0000115110509F4D8CE78010D31110518F063
:1019E0008CE1E82EF12C64E06E0D8091A1050E943F
:1019F0003C041092F6038093F5030E94120A882398
:101A000009F4C2CE80919F059091A005DC01ED9173
:101A1000FC910284F385E02D099580919F059091BA
:101A2000A005DC01ED91FC910284F385E02D099580
:101A300080919F059091A005DC01ED91FC910284BD
:101A4000F385E02D099580919F059091A005DC011B
:101A5000ED91FC910284F385E02D0995B12CBE1423
:101A60001F04C0F480919F059091A005DC01ED91C9
:101A7000FC910284F385E02D0995B0E8CB16D104E2
:101A800038F4F601E051FB4F8483F60131966F0183
:101A9000B394E5CF0E191F099BCFCF938091AD056D
:101AA0008F3F49F40E941B0BC82F811109C0C0E071
:101AB0008C2FCF9108950E94F702019799F7F7CFE5
:101AC0008091F204833039F48091F4048B3F79F7EC
:101AD0000E94A608EDCF8230A1F58091F404813FE9
:101AE000C9F48091F604873019F78091F904809346
:101AF000EB058091FA048093EC058091FB048093C0
:101B0000ED058091FC048093EE058091FD048093A7
:101B1000EF05CECF8C3F61F68091F5048093F00500
:101B20008091F9049091FA04A091FB04B091FC0417
:101B30008093F1059093F205A093F305B093F4051B
:101B4000B7CF853009F0B3CFC3CF0F931F93CF9397
:101B5000DF93D62FC72FBC0187E494E00E94C4070F
:101B60000D2F1C2FC0E0F80161918F014AE050E079
:101B700087E494E00E941F08C33029F06EE287E4F6
:101B800094E00E946102CF5FC43069F787E494E07B
:101B9000DF91CF911F910F910C946C0885ED80938C
:101BA000BC008091430490914404A0914504B091FD
:101BB00046040796A11DB11D23E0B695A7959795FC
:101BC00087952A95D1F72091BC0024FD03C010927F
:101BD00041040895409143045091440460914504A8
:101BE00070914604452B462B472B69F30097A105BE
:101BF000B10541F025E32A95F1F700000197A1090D
:101C0000B109E1CF809142040C941B041F920F9202
:101C10000FB60F9211242F933F934F935F936F93BF
:101C20007F938F939F93AF93BF93EF93FF9387E43B
:101C300094E00E943F02FF91EF91BF91AF919F917D
:101C40008F917F916F915F914F913F912F910F9065
:101C50000FBE0F901F9018951F920F920FB60F9204
:101C600011242F938F939F93EF93FF93E091570449
:101C7000F09158048081E0915D04F0915E0482FD52
:101C80001BC09081809160048F5F8F7320916104ED
:101C9000821741F0E0916004F0E0E95BFB4F958F23
:101CA00080936004FF91EF919F918F912F910F90FE
:101CB0000FBE0F901F9018958081F4CF1F920F9246
:101CC0000FB60F9211242F933F938F939F93AF934F
:101CD000BF938091050390910603A0910703B091F3
:101CE00008033091EB0223E0230F2D3758F50196BE
:101CF000A11DB11D2093EB02809305039093060371
:101D0000A0930703B09308038091EC029091ED0239
:101D1000A091EE02B091EF020196A11DB11D80933A
:101D2000EC029093ED02A093EE02B093EF02BF910C
:101D3000AF919F918F913F912F910F900FBE0F9078
:101D40001F90189526E8230F0296A11DB11DD2CF32
:101D50001F920F920FB60F9211242F933F934F9320
:101D60005F936F937F938F939F93AF93BF93EF9303
:101D7000FF938091B900887F803609F44AC0F0F55E
:101D8000883209F4A7C018F5803109F49BC0B8F473
:101D9000882309F4F9C0883009F494C0FF91EF91C9
:101DA000BF91AF919F918F917F916F915F914F9173
:101DB0003F912F910F900FBE0F901F901895883173
:101DC00009F488C0803251F780931F0414C0803416
:101DD00009F49DC040F48033B9F38833F9F6809359
:101DE0001F0485ECB0C0803509F485C0883509F43E
:101DF00096C0883499F60E94CE0DD0CF883909F468
:101E00008CC038F5883729F050F4883611F08037C7
:101E100029F683E0809341041092EA0257C0883883
:101E200009F47BC0803919F0803809F0B7CF809170
:101E3000EA02803208F071C0E091EA0281E08E0F80
:101E40008093EA028091BB00F0E0E653FD4F80836F
:101E50003DC0803B39F0E0F4803A09F479C0883A1B
:101E600009F09CCF84E0809341041092C902109243
:101E7000C802E091F202F091F30209958091C80244
:101E800081110FC081E08093C8021092A80209C09E
:101E9000803C09F4A6CF883C09F4A3CF883B09F025
:101EA0007DCFE091C90281E08E0F8093C902F0E0FE
:101EB000E855FD4F80818093BB009091C9028091CD
:101EC000C80229C080911C048093BB0085EC8093DC
:101ED000BC0064CF90911E0480911D04981758F5A2
:101EE000E0911E0481E08E0F80931E04F0E0E55027
:101EF000FC4F8081E9CFE0911E0481E08E0F80933A
:101F00001E048091BB00F0E0E550FC4F808390916F
:101F10001E0480911D049817C8F285E8D8CFE0917F
:101F20001E0481E08E0F80931E048091BB00F0E0C0
:101F3000E550FC4F80838091200481115CCF81E0CB
:101F400080931B0484EA8093BC001092410426CF46
:101F500085EC8093BC00109241048091EA028032AB
:101F600030F4E091EA02F0E0E653FD4F1082609118
:101F7000EA0270E0E091F002F091F1028AEC92E066
:101F800009951092EA020ACF10921F0434CFE7E4B9
:101F9000F4E01382128288EE93E0A0E0B0E0848344
:101FA0009583A683B78324E331E03183208325EC36
:101FB00030E03587248724EC30E03787268720EC13
:101FC00030E0318B208B21EC30E0338B228B22EC04
:101FD00030E0358B248B26EC30E0378B268B118E4E
:101FE000128E138E148EE4EEF4E013821282848338
:101FF0009583A683B78386E491E091838083E5E1AE
:10200000F6E088E591E09183808312821382148246
:102010001582E4E7F5E086E0DF011D928A95E9F795
:1020200010927A051092A4058EE090E09093080635
:10203000809307068CE090E090930A06809309064F
:1020400088E090E090930C0680930B0690930E0628
:1020500080930D0689E090E09093100680930F0620
:1020600084E090E090931206809311068AE090E05D
:1020700090931406809313060895CF93DF93CDB702
:10208000DEB760970FB6F894DEBF0FBECDBF789471
:1020900084B5826084BD84B5816084BD85B582606D
:1020A00085BD85B5816085BD80916E00816080931E
:1020B0006E00109281008091810082608093810087
:1020C0008091810081608093810080918000816097
:1020D000809380008091B10084608093B1008091F2
:1020E000B00081608093B00080917A00846080931A
:1020F0007A0080917A00826080937A0080917A00E1
:10210000816080937A0080917A00806880937A0061
:102110001092C1001092F6031092F5031092F8038A
:102120001092F7030E94FD038BE991E09093F30274
:102130008093F2028CE991E09093F1028093F00297
:10214000E0915704F091580482E08083E0915304B9
:10215000F09154041082E0915504F091560483E309
:10216000808310925F04E0915B04F0915C0486E050
:102170008083E0915904F0915A04808180618083CA
:10218000E0915904F0915A04808188608083E09145
:102190005904F0915A04808180688083E091590449
:1021A000F0915A0480818F7D8083CC24C394C092A7
:1021B000FA0380E68093F90384EE94E00E948A0596
:1021C0008111BBC18DE591E00E94700867E671E066
:1021D00087E494E00E94C40720E140E650E060E01C
:1021E00070E087E494E00E94D30787E494E00E94C3
:1021F0006C088AE791E00E947008C09222038091E7
:102200002203811177C188E291E09A838983AAE24F
:10221000AA2EA1E0BA2E11E044244A9409EFBCE0B2
:102220009B2E8DEF882E98E0792E20E9622E3FE5D7
:10223000532EA981BA818D91BA83A9838093040317
:102240006BEA71E087E494E00E94C4078091040384
:102250000E948108809104031093FA038093F9038C
:102260001092F8031092F70384EE94E00E948A051E
:10227000811177C18DE591E00E94700865EC71E0F5
:1022800087E494E00E94C407809104030E948108BF
:1022900088ED91E00E947008809104038093A1056D
:1022A00084EE94E09093A00580939F054092AD0545
:1022B0001093F40461E081E00E943B0A62E370E065
:1022C00080E090E00E94A4030E941B0B8111FCCFD0
:1022D00062E370E080E090E00E94A4030E941B0B88
:1022E0008111FCCF0093F4041092F50462E082E0C7
:1022F0000E943B0A0E941B0B882309F427C180918E
:10230000F404883F09F022C18091A405882309F4D0
:1023100070C067EC71E08091A2059091A3050E94C6
:102320009D0140E150E06091F6048091A2059091FA
:10233000A3050E941F0861EB71E08091A2059091B6
:10234000A3050E949D0140E150E06091F704809157
:10235000A2059091A3050E941F08C090F804D09098
:10236000F904E090FA04F090FB046DE971E08091CB
:10237000A2059091A3050E949D0120E1B701A6014D
:102380008091A2059091A3050E94D307C090FC0400
:10239000D090FD04E090FE04F090FF0468E871E046
:1023A0008091A2059091A3050E949D0120E1B701B3
:1023B000A6018091A2059091A3050E94D307E09009
:1023C0000005F090010562E771E08091A20590910F
:1023D000A3050E949D01C090A205D090A305A7016E
:1023E00070E060E020E1C6010E94D307C6010E94B0
:1023F0006C089092B8008092F4047092F5041092E8
:10240000F6041092F7041092F8046092F9045092C6
:10241000FA041093FB041092FC041092FD04109235
:10242000FE041092FF041092000510920105109214
:102430000205109203051092040561E182E00E94FA
:102440003B0AF8EEEF2EF3E0FF2EB1E0EB1AF108B5
:1024500009F4EBC40E944D0D8823B9F38091F40474
:102460008C3F99F76091F1057091F2058091F30529
:102470009091F4052091F005283039F46039AFE5EA
:102480007A07A1E08A07910591F128EE33E040E058
:1024900050E00E94C91B69017A0163EE71E087E494
:1024A00094E00E94C4078091F0050E94810862EFC9
:1024B00071E087E494E00E94C4072AE0B701A60116
:1024C000F7FE0DC06DE287E494E00E9461024427AC
:1024D0005527BA014C195D096E097F092AE087E486
:1024E00094E00E94D30785E092E00E94700881E0AA
:1024F0008093210380E98093B80087E390E0C12CAA
:10250000D12C7601C394009799F1FC0173E0F59505
:10251000E7957A95E1F7EB50FD4F282F2770B7012B
:10252000A60104C0440F551F661F771F2A95D2F7D6
:102530002081242B20830197E6CF85E891E00E943B
:1025400070088FE891E00E94700859CE89E092E00F
:102550000E947008C980DA80AC14BD0409F069CE0D
:10256000C9CF85E891E00E94700883E392E0F0CF44
:1025700086E0E0E1F1E0A3E2B3E001900D928A95FC
:10258000E1F70CB406FC25C061E08AE00E944E032E
:1025900061E08AE00E94200361E08BE00E944E032C
:1025A00061E08DE00E944E0360E08CE00E944E03EB
:1025B00061E08BE00E94200360E08BE00E9420033A
:1025C00060E08DE00E94200380E58CBD8DB58160C8
:1025D0008DBD8AE08093F40261E00E944E030E9468
:1025E000C4064FEF60E08FEF0E94D10662E070E01A
:1025F00080E090E00E94A4030E94CB068DE10E943F
:10260000BF0680E00E94BF06DEB40E94C406DD2043
:1026100099F370E060E088E00E940F0770E060E0EE
:102620008CE00E940F076FEF7BE08AE00E940F07AB
:1026300060E07CE084E00E940F076FEF71E186E0CC
:102640000E940F0761EB88E30E9402076FE370E3CB
:1026500088E20E940F0769EF77EF80E30E940F077F
:102660006DE080EC0E94020760E081EC0E940207AE
:1026700042E362EC80E80E94D10662E17CE086ECF5
:102680000E940F0762E184EC0E9402076CED75E086
:102690008AEC0E940F076091230384EE0E940207D8
:1026A0006091240385EE0E9402076091250382EE6B
:1026B0000E9402076091260383EE0E940207609148
:1026C000270380EE0E9402076091280381EE0E949A
:1026D000020760E184ED0E94020760E071E086ED90
:1026E0000E940F078AEE0E941C0780FDFBCF8FE13E
:1026F0000E94E60640EC6BE180E80E94D10644E0CF
:102700006FE180E80E94D10682E70E941C078630B4
:1027100008F08F5F811106C06CED71E087E494E0F2
:102720000E94940880910C0190910D01A0910E01DE
:10273000B0910F018093290390932A03A0932B0358
:10274000B0932C038091080190910901A0910A0196
:10275000B0910B018093000390930103A0930203B7
:10276000B09303038091040190910501A0910601AB
:10277000B09107018093FC029093FD02A093FE02AA
:10278000B093FF028091000190910101A09102019C
:10279000B09103018093090390930A03A0930B0364
:1027A000B0930C034DE053E02DE233E0A9E0B3E039
:1027B00009E213E0F80191918F018D918095892BA9
:1027C000FA018193AF0120173107A1F769E273E0A5
:1027D00081E592E00E94A50D60E073E087E592E05C
:1027E0000E94A50D6CEF72E08DE592E00E94A50DB0
:1027F00083E692E00E9470086FE1262E61E0362E9B
:102800002FB7F8948091050390910603A0910703D8
:10281000B09108032FBF4091200150912101609198
:102820002201709123016C017D01C41AD50AE60AC8
:10283000F70AB701A601443651056105710508F490
:10284000E1C28093200190932101A0932201B093D3
:10285000230180912203882309F483C081E08093BF
:10286000FA0350E6D52ED092F9031092F803109295
:10287000F70362E070E084EE94E00E94420784EE89
:1028800094E00E948A0562E080E60E943C04109277
:10289000F6038093F5038230F0F384EE94E00E9417
:1028A0001B0580931C0184EE94E00E941B0580931D
:1028B0001B0181E08093FA0340E6E42EE092F903E5
:1028C0001092F8031092F7036CE170E084EE94E04C
:1028D0000E94420784EE94E00E948A0562E080E64E
:1028E0000E943C041092F6038093F5038230F0F3CB
:1028F00084EE94E00E941B0580931E0184EE94E018
:102900000E941B0580931D01E8E1F1E090E080E06A
:102910002191820F911D2E163F06D1F780931F0142
:1029200080912903882309F498C180912401882388
:1029300009F493C164E271E089E093E0E9E2F3E035
:102940002191DB014D91BD01DC013D91CD01242799
:10295000232309F082C1E017F10791F787E193E0A3
:102960007EC180912103882379F20E944D0D882336
:1029700059F2F09007066F2D8091D5059091D605FC
:102980000E9468072B013C016F2D8091CF0590912B
:10299000D0050E9468074B015C016F2D8091D10525
:1029A0009091D2050E94680769877A878B879C87F8
:1029B0006F2D8091D3059091D4050E9468076D8397
:1029C0007E838F839887A3019201C301B2010E9485
:1029D00093196B017C01A5019401C501B4010E940A
:1029E00093199B01AC01C701B6010E9422176B012C
:1029F0007C0129853A854B855C85CA01B9010E9415
:102A000093199B01AC01C701B6010E9422176B010B
:102A10007C012D813E814F815885CA01B9010E94F8
:102A200093199B01AC01C701B6010E9422170E94B5
:102A3000561A6B017C01AC019B01C301B2010E94DB
:102A400005186D877E878F87988BA7019601C50132
:102A5000B4010E94051869837A838B839C83A70144
:102A6000960169857A858B859C850E9405184B01A6
:102A70005C01A70196016D817E818F8198850E94FE
:102A800005182B013C01A5019401C501B4010E9468
:102A900093196D837E838F839887A3019201C3016D
:102AA000B2010E9493192D813E814F8158850E9469
:102AB00022179B01AC010E9422179B01AC0160E030
:102AC00070E080E89FE30E9421176B017C01A30165
:102AD00092016D857E858F8598890E9493196987FB
:102AE0007A878B879C87A501940169817A818B8184
:102AF0009C810E9493199B01AC0169857A858B8525
:102B00009C850E9422179B01AC010E942217A701FD
:102B100096010E94A11721EE3EE245E652E40E9492
:102B200093196B017C01DC01CB01B05880931D032C
:102B300090931E03A0931F03B093200320E030E086
:102B4000A901C701B6010E9486191816D4F420E025
:102B500030E044E353E4C701B6010E9400181816A0
:102B600084F0A701960160E070E084EB93E40E949A
:102B7000211760931D0370931E0380931F0390938E
:102B8000200329813A814B815C81CA01B9010E94ED
:102B900093192D813E814F8158850E9422179B01F8
:102BA000AC010E9422179B01AC0160E070E080E85C
:102BB0009FE30E9421176B017C0129813A814B819F
:102BC0005C816D857E858F8598890E9493196983C4
:102BD0007A838B839C83A3019201C501B4010E9477
:102BE00093199B01AC0169817A818B819C810E9440
:102BF00022179B01AC010E942217A70196010E9497
:102C0000A1176B017C0120E030E040E251E46091CB
:102C10001D0370911E0380911F03909120030E9459
:102C200093190E9477185B0121EE3EE245E652E4DB
:102C3000C701B6010E94931920E030E040E251E460
:102C40000E9493190E947718A0921B01B0921C0158
:102C500060931D0170931E0157CE81E193E00E94A5
:102C6000950780912401807F803EB9F080912401F6
:102C700090912501A0912601B09127018F3F9F4F90
:102C8000AF4FBF4F51F044E050E064E271E08DE09F
:102C900093E00E94EE1B892B49F486E0EAE2F1E022
:102CA000ADE2B3E001900D928A95E1F7F8E0F09380
:102CB000390310923A0349E050E061E072E08BE39F
:102CC00093E00E94181710923D0381E1C82EC09234
:102CD000440397E2D92ED09251032FE0E22EE092E6
:102CE000520335E1F32EF0924F032AEC2093500368
:102CF0001092530310925503109256038AE0E6E1B6
:102D0000F1E0A7E5B3E001900D928A95E1F786E244
:102D100080933E03109245031092460390E49093F3
:102D20004103109242039093430320E044E150E0BA
:102D30006EE088E10E94710610925303A2E1A09315
:102D4000540321E04AE150E06AE188E20E94710602
:102D500040E86FE180E80E94D10640E86FE180EA38
:102D60000E94D1064AE06CE180EA0E94D10660E050
:102D70007CE082E00E940F0764E37CE086E00E9432
:102D80000F0740E060E08AE70E94D1060E94CB0670
:102D90008AE70E94BF0680912D038EBDEEE2F3E02C
:102DA000B3E0E136FB0731F081910DB407FEFDCFB2
:102DB0008EBDF6CF0DB407FEFDCF0E94C40648E0DD
:102DC0006FE180E80E94D106F12CE12C8CE10E9499
:102DD0001C078A7041F4EFEFEE1AFE0AF8EEEF16C8
:102DE000F3E0FF0699F78CE10E941C0781FD05C006
:102DF00028EEE21623E0F20629F448E06FE180EACB
:102E00000E94D10669E170E080E090E00E94A40396
:102E100080E090E0892B09F4F3CC0E942B028823F8
:102E200009F4EECC0E940000EBCC82E792E090CB5C
:102E3000FB01DC0102C005900D9241505040D8F7D3
:102E400008955058BB27AA270E9439170C944C1993
:102E50000E943E1938F00E94451920F039F49F3F36
:102E600019F426F40C9414190EF4E095E7FB0C9475
:102E70000E19E92F0E945D1958F3BA1762077307FC
:102E80008407950720F079F4A6F50C947F190EF4C9
:102E9000E0950B2EBA2FA02D0B01B90190010C016A
:102EA000CA01A0011124FF27591B99F0593F50F482
:102EB000503E68F11A16F040A22F232F342F4427DA
:102EC000585FF3CF469537952795A795F0405395D2
:102ED000C9F77EF41F16BA0B620B730B840BBAF0A2
:102EE0009150A1F0FF0FBB1F661F771F881FC2F70D
:102EF0000EC0BA0F621F731F841F48F48795779521
:102F00006795B795F7959E3F08F0B0CF9395880FDA
:102F100008F09927EE0F9795879508950E943E191E
:102F200060F080E891E009F49EEF0E94451928F0D6
:102F300040E851E071F45EEF0CC00C9414190C944D
:102F40007F19E92FE0780E945D1940F3092E052AC8
:102F5000B1F3261737074807590738F00E2E07F840
:102F6000E02569F0E025E0640AC0EF6307F800940B
:102F700007FADB01B9019D01DC01CA01AD01EF9344
:102F80000E941C180E944C190E94D1175F91552372
:102F900039F02BED3FE049E450FD49EC0C94221749
:102FA0000895DF93DD27B92FBF7740E85FE316165A
:102FB000170648075B0718F4D92F0E948B199F93B7
:102FC0008F937F936F930E94961AE8E6F0E00E9439
:102FD00017190E944C192F913F914F915F910E94B8
:102FE000A619DD2351F09058A2EA2AED3FE049EC02
:102FF0005FE3D0785D270E943917DF910C944C195C
:103000000E94EA1808F481E008950E9419180C94AF
:103010004C190E94451958F00E943E1940F029F4BD
:103020005F3F29F00C940E1951110C9480190C94E7
:1030300014190E945D1968F39923B1F3552391F394
:10304000951B550BBB27AA2762177307840738F017
:103050009F5F5F4F220F331F441FAA1FA9F335D074
:103060000E2E3AF0E0E832D091505040E695001C28
:10307000CAF72BD0FE2F29D0660F771F881FBB1FE2
:10308000261737074807AB07B0E809F0BB0B802DC0
:10309000BF01FF2793585F4F3AF09E3F510578F0EC
:1030A0000C940E190C9480195F3FE4F3983ED4F30E
:1030B000869577956795B795F7959F5FC9F7880FC0
:1030C000911D9695879597F90895E1E0660F771F12
:1030D000881FBB1F621773078407BA0720F0621BA3
:1030E000730B840BBA0BEE1F88F7E09508950E94CE
:1030F0007E186894B1110C94801908950E94651986
:1031000088F09F5798F0B92F9927B751B0F0E1F0A8
:10311000660F771F881F991F1AF0BA95C9F714C058
:10312000B13091F00E947F19B1E008950C947F199D
:10313000672F782F8827B85F39F0B93FCCF3869591
:1031400077956795B395D9F73EF4909580957095EE
:1031500061957F4F8F4F9F4F0895E89409C097FB6B
:103160003EF490958095709561957F4F8F4F9F4F5E
:103170009923A9F0F92F96E9BB279395F6958795A2
:1031800077956795B795F111F8CFFAF4BB0F11F465
:1031900060FF1BC06F5F7F4F8F4F9F4F16C088230C
:1031A00011F096E911C0772321F09EE8872F762F42
:1031B00005C0662371F096E8862F70E060E02AF083
:1031C0009A95660F771F881FDAF7880F969587956F
:1031D00097F90895990F0008550FAA0BE0E8FEEF44
:1031E00016161706E807F907C0F012161306E407CB
:1031F000F50798F0621B730B840B950B39F40A26C4
:1032000061F0232B242B252B21F408950A2609F4A1
:10321000A140A6958FEF811D811D089597F99F67A5
:1032200080E870E060E008959FEF80EC0895DF9300
:10323000CF931F930F93FF92EF92DF927B018C014C
:10324000689406C0DA2EEF010E94A619FE01E894E8
:10325000A5912591359145915591A6F3EF010E94D5
:103260003917FE019701A801DA9469F7DF90EF9012
:10327000FF900F911F91CF91DF91089500240A9440
:103280001616170618060906089500240A94121641
:103290001306140605060895092E0394000C11F474
:1032A000882352F0BB0F40F4BF2B11F460FF04C021
:1032B0006F5F7F4F8F4F9F4F089557FD9058440F7A
:1032C000551F59F05F3F71F04795880F97FB991F85
:1032D00061F09F3F79F08795089512161306140642
:1032E000551FF2CF4695F1DF08C0161617061806CF
:1032F000991FF1CF86957105610508940895E894AA
:10330000BB2766277727CB0197F908950E94EA1813
:1033100008F48FEF08959B01AC0160E070E080E855
:103320009FE30C9405180E94A6190C944C190E9456
:103330003E1938F00E94451920F0952311F00C94A5
:103340000E190C94141911240C9480190E945D1903
:1033500070F3959FC1F3950F50E0551F629FF001E8
:10336000729FBB27F00DB11D639FAA27F00DB11D01
:10337000AA1F649F6627B00DA11D661F829F22278A
:10338000B00DA11D621F739FB00DA11D621F839F11
:10339000A00D611D221F749F3327A00D611D231FE7
:1033A000849F600D211D822F762F6A2F11249F5735
:1033B00050409AF0F1F088234AF0EE0FFF1FBB1F38
:1033C000661F771F881F91505040A9F79E3F5105F7
:1033D00080F00C940E190C9480195F3FE4F3983E32
:1033E000D4F3869577956795B795F795E7959F5FA1
:1033F000C1F7FE2B880F911D9695879597F9089533
:10340000FA01EE0FFF1F309621053105A1F161157C
:10341000710561F48038BFE39B0749F168949038E7
:10342000810561F08038BFEF9B0741F099234AF591
:10343000FF3FE1053105210519F1E8940894E7956E
:10344000D901AA2329F4AB2FBE2FF85FD0F310C007
:10345000FF5F70F4A695E0F7F73950F019F0FF3AE6
:1034600038F49F779F930DD00F9007FC90580895E4
:1034700046F00C94141960E070E080E89FE3089532
:103480004FE79F775F934F933F932F930E942B1BA0
:103490002F913F914F915F910E9493190C94A21A22
:1034A00019F416F40C9414190C94D41A0E9465198A
:1034B000B8F39923C9F3B6F39F57550B87FF0E94C2
:1034C000E21A0024A0E640EA9001805856959795AC
:1034D00028F4805C660F771F881F20F026173707B7
:1034E000480730F4621B730B840B202931294A2BC7
:1034F000A69517940794202531254A2758F7660F7B
:10350000771F881F20F026173707480730F4620B13
:10351000730B840B200D311D411DA09581F7B9015E
:10352000842F9158880F9695879508959B01AC013B
:103530000C94931929F416F00C940E190C947F191D
:103540000C9414190E946519A8F39638A0F707F88F
:103550000F92E8942BE33AEA48EB5FE70E94A9193F
:103560000F920F920F924DB75EB70F920E94731B8E
:10357000E5E9F0E00E9417194F915F91EF91FF91FB
:10358000E595EE1FFF1F49F0FE57E0684427EE0F58
:10359000441FFA95E1F74195550B0E94ED1A0F90E3
:1035A00007FE0C948B1908959F3F31F0915020F441
:1035B000879577956795B795880F911D969587950F
:1035C00097F9089591505040660F771F881FD2F7E2
:1035D00008950C940E190C94D41A0E946519D8F30E
:1035E0009923C9F3940F511DA3F39150504094F0C7
:1035F00059F0882332F0660F771F881F9150504092
:10360000C1F79E3F51052CF7880F911D9695879520
:1036100097F908955F3FACF0983E9CF0BB278695E4
:1036200077956795B79508F4B1609395C1F7BB0F8F
:1036300058F711F460FFE8CF6F5F7F4F8F4F9F4FB8
:10364000E3CF0C94801916F00C94D41A0C9414192E
:1036500068940C940E190E946519A8F39923C1F37C
:10366000AEF3DF93CF931F930F93FF92C92FDD2704
:1036700088232AF02197660F771F881FDAF720E04A
:1036800030E040E85FEB9FE3883920F0803E38F07F
:1036900021968F770E942217EDEBF0E004C00E9484
:1036A0002217EAEEF0E00E9417198B01BE01EC012F
:1036B000FB2E6F5771097595771F880B990B0E9428
:1036C000AF1828E132E741E35FE30E94A619AF2D6E
:1036D0009801AE01FF900F911F91CF91DF910E9451
:1036E00039170C944C19FA01DC01AA0FBB1F9B017E
:1036F000AC01BF5728F4222733274427507820C035
:10370000B75190F4AB2F0024469537952795011CAF
:10371000A395D2F3002071F0220F331F441FB395FD
:10372000DAF30ED00C94211761307105A0E88A07F6
:10373000B94630F49B01AC0166277727882790783B
:10374000309621F020833183428353830895A1E290
:103750001A2EAA1BBB1BFD010DC0AA1FBB1FEE1F0B
:10376000FF1FA217B307E407F50720F0A21BB30B56
:10377000E40BF50B661F771F881F991F1A9469F7D2
:1037800060957095809590959B01AC01BD01CF012E
:103790000895052E97FB1EF400940E94E01B57FD30
:1037A00007D00E94A71B07FC03D04EF40C94E01B2B
:1037B00050954095309521953F4F4F4F5F4F08955D
:1037C00090958095709561957F4F8F4F9F4F08958D
:1037D000EE0FFF1F0590F491E02D0994FB01DC0131
:1037E00004C08D910190801921F441505040C8F7D8
:0A37F000881B990B0895F894FFCF91
:1037FA00FFFFFF0008080808C0A80101C0A8014E81
:10380A007069692A303180817DD304000000000F7D
:10381A0064000000C0A801FF4A4BFFFFFFFFFFFF43
:10382A00000000006102C101EE01AE021F02FD01AB
:10383A001102000000005B052E0534070B059401F8
:10384A001B050C050000000026080D0A00457272CF
:10385A006F72203D203000434D5053313420414493
:10386A0044524553733A20307800434D5053313413
:10387A00204F6B2E004572726F72203D2034004338
:10388A004D5053206E6F7420436F6E6E656374657E
:10389A0064206F7220466F756E64000D0A43686576
:1038AA00636B696E6720666F7220424E4F303858DC
:1038BA00206F6E2000424E4F303858204144445207
:1038CA004553733A20307800424E4F303858204FD3
:1038DA006B2E005265706F7274204944203A203072
:1038EA0078005265706F727420696E7465727661C1
:1038FA006C203A2000206D7300424E4F3038302041
:10390A006E6F7420646574656374656420617420E5
:10391A00676976656E204932432061646472657313
:10392A00732E00424E4F303858206E6F7420436F0A
:10393A006E6E6563746564206F7220466F756E647F
:10394A000049503A20200047573A202000444E535D
:10395A003A2000536574757020636F6D706C6574DE
:10396A006500424E4F30387820696E69742066616E
:06397A00696C73212100BD
:00000001FF
