:100000000C9453010C947B010C947B010C947B01A8
:100010000C947B010C947B010C947B010C947B0170
:100020000C947B010C947B010C947B010C947B0160
:100030000C947B010C947B010C947B010C947B0150
:100040000C94670E0C947B010C94350E0C940F0EDF
:100050000C947B010C947B010C947B010C947B0130
:100060000C94B10E0C947B01084AD73B3BCE016E39
:1000700084BCBFFDC12F3D6C74319ABD56833DDAFF
:100080003D00C77F11BED9E4BB4C3E916BAAAABE0E
:10009000000000803F07634236B79BD8A71A396833
:1000A0005618AEBAAB558C1D3CB7CC5763BD6DED41
:1000B000FD753EF6177231BF000000803F0800005A
:1000C00000BE922449123EABAAAA2ABECDCCCC4C8B
:1000D0003E00000080BEABAAAAAA3E00000000BFFE
:1000E000000000803F0000000000084178D3BB43BF
:1000F00087D1133D190E3CC3BD4282AD2B3E68EC47
:100100008276BED98FE1A93E4C80EFFFBE01C4FFCD
:100110007F3F0000000000000000000024002700D6
:100120002A0000000000250028002B00000000002D
:100130002300260029000404040404040404020229
:100140000202020203030303030301020408102056
:100150004080010204081020010204081020000061
:100160000008000201000003040700000000000076
:1001700000002053572056657273696F6E205061DE
:100180007463683A20307800205357204275696CB8
:1001900064204E756D6265723A20307800205357A6
:1001A0002050617274204E756D6265723A2030780D
:1001B000002053572056657273696F6E204D696E2B
:1001C0006F723A2030780053572056657273696F0A
:1001D0006E204D616A6F723A20307800535049208A
:1001E000494E542074696D656F75740053504920F1
:1001F00057616974004779726F2D766563746F7209
:100200000057616B652D7265706F72740053656E77
:10021000736F722D7265706F727400436F6E7472BB
:100220006F6C0045786563757461626C6500436F3F
:100230006D6D616E6400204368616E6E656C3A009E
:10024000204C656E6774683A00205B436F6E74697A
:100250006E756564207061636B65745D20003000AD
:10026000200020426F64793A003000200048656128
:100270006465723A00300020004865616465723A36
:10028000004932432074696D656F7574004D4520D7
:1002900043616C207265706F727420666F756E6456
:1002A00021002100D00F11241FBECFEFD8E0DEBF08
:1002B000CDBF12E0A0E0B1E0EEE9FDE302C00590A1
:1002C0000D92A836B107D9F725E0A8E6B2E001C043
:1002D0001D92A033B207E1F711E0C3E5D1E004C0FD
:1002E0002197FE010E94C71EC235D107C9F70E949F
:1002F0005E100C94CD1E0C9400000895089580E4C7
:1003000080937C0080917A00806480937A00809151
:100310007A0086FDFCCF8091780090917900089555
:100320008091F7039091F803891B990B0895EF9240
:10033000FF920F931F93CF93DF938C017B01D0E04B
:10034000C0E0F701EC0FFD1F6491662361F0D80156
:10035000ED91FC910190F081E02DC8010995892B68
:1003600011F02196EECFCE01DF91CF911F910F9129
:10037000FF90EF900895AF92BF92CF92DF92EF92ED
:10038000FF920F931F93CF93DF936C017B018B013F
:10039000040F151FEB015E01AE18BF08C017D1078F
:1003A00059F06991D601ED91FC910190F081E02D19
:1003B000C6010995892B79F7C501DF91CF911F916E
:1003C0000F91FF90EF90DF90CF90BF90AF90089586
:1003D000FC01538D448D252F30E0842F90E0821B4B
:1003E000930B541710F0CF96089501970895FC01D0
:1003F000918D828D981761F0A28DAE0FBF2FB11D28
:100400005D968C91928D9F5F9F73928F90E008957F
:100410008FEF9FEF0895FC01918D828D981731F039
:10042000828DE80FF11D858D90E008958FEF9FEF8D
:100430000895FC01918D228D892F90E0805C9F4F63
:10044000821B91098F739927089584E593E00E9498
:10045000190221E0892B09F420E0822F089580E021
:1004600090E0892B29F00E94250281110C94000054
:100470000895FC01A48DA80FB92FB11DA35ABF4F39
:100480002C91848D90E001968F739927848FA68993
:10049000B7892C93A089B1898C91837080648C93E7
:1004A000938D848D981306C00288F389E02D808196
:1004B0008F7D80830895EF92FF920F931F93CF93C8
:1004C000DF93EC0181E0888F9B8D8C8D98131AC08F
:1004D000E889F989808185FF15C09FB7F894EE8976
:1004E000FF896083E889F9898081837080648083D3
:1004F0009FBF81E090E0DF91CF911F910F91FF901E
:10050000EF900895F62E0B8D10E00F5F1F4F0F73C5
:100510001127E02E8C8D8E110CC00FB607FCFACF80
:10052000E889F989808185FFF5CFCE010E943902E3
:10053000F1CFEB8DEC0FFD2FF11DE35AFF4FF08251
:100540009FB7F8940B8FEA89FB8980818062CFCFB7
:10055000CF93DF93EC01888D8823B9F0AA89BB89FA
:10056000E889F9898C9185FD03C0808186FD0DC0E5
:100570000FB607FCF7CF8C9185FFF2CF808185FF06
:10058000EDCFCE010E943902E9CFDF91CF910895DE
:10059000833081F028F4813099F08230A9F00895F9
:1005A0008730A9F08830C9F08430B1F480918000A0
:1005B0008F7D03C0809180008F77809380000895A5
:1005C00084B58F7784BD089584B58F7DFBCF8091EE
:1005D000B0008F778093B00008958091B0008F7D38
:1005E000F9CFCF93DF93282F30E0F901E25AFE4F85
:1005F0008491F901E65BFE4FD491F901EA5CFE4F6C
:10060000C491CC23A1F081110E94C802EC2FF0E02C
:10061000EE0FFF1FE45DFE4FA591B491EC91ED2329
:1006200081E090E009F480E0DF91CF91089580E0CF
:1006300090E0FACF1F93CF93DF93282F30E0F9019A
:10064000E25AFE4F8491F901E65BFE4FD491F90125
:10065000EA5CFE4FC491CC23A9F0162F81110E94B1
:10066000C802EC2FF0E0EE0FFF1FEE5DFE4FA591EC
:10067000B4918FB7F894EC91111108C0D095DE2396
:10068000DC938FBFDF91CF911F910895DE2BF8CFC0
:10069000CF93DF9390E0FC01E65BFE4F24918A5CF0
:1006A0009E4FFC0184918823D1F090E0880F991F20
:1006B000FC01E85EFE4FA591B491FC01EE5DFE4F9A
:1006C000C591D491623071F49FB7F8943C91822F18
:1006D000809583238C93E8812E2B28839FBFDF9105
:1006E000CF9108958FB7F894EC912E2B2C938FBF58
:1006F000F6CF1F93CF93DF93182FEB0161E00E9499
:100700004803209739F460E0812FDF91CF911F914A
:100710000C941A03CF3FD10511F461E0F5CFE12F1E
:10072000F0E0E25AFE4FE491E33031F140F4E13081
:10073000B1F0E230E1F0C038D1057CF7E4CFE7302A
:1007400029F1E83059F1E430B1F7809180008062FE
:1007500080938000D0938B00C0938A0004C084B53E
:10076000806884BDC7BDDF91CF911F91089584B586
:10077000806284BDC8BDF7CF80918000806880937F
:100780008000D0938900C0938800EDCF8091B000A5
:1007900080688093B000C093B300E5CF8091B00033
:1007A00080628093B000C093B400DDCF3FB7F8946F
:1007B0008091CD029091CE02A091CF02B091D00253
:1007C00026B5A89B05C02F3F19F00196A11DB11DAC
:1007D0003FBFBA2FA92F982F8827BC01CD01620FE8
:1007E000711D811D911D42E0660F771F881F991FA3
:1007F0004A95D1F708958F929F92AF92BF92CF9270
:10080000DF92EF92FF924B015C010E94D6036B01D5
:100810007C010E94D6036C197D098E099F09683EF0
:10082000734081059105A8F321E0821A9108A1087F
:10083000B10888EEC80E83E0D81EE11CF11C8114BB
:100840009104A104B10429F7FF90EF90DF90CF90BD
:10085000BF90AF909F908F9008952091A902260F8E
:100860003327331F21323105ECF420914E03FC0174
:1008700090E080E0243069F082E00895A091A90220
:100880002191AC0147575D4FA40FB52FB11D2C939B
:100890000196861798F38091A902680F6093A902C8
:1008A00080E0089581E0089510924E0381E08093E6
:1008B0002D031092280361E082E10E941A0361E097
:1008C00083E10E941A03E9EBF0E080818E7F808350
:1008D00080818D7F808388E48093B80085E4809355
:1008E000BC000895CF93DF9391E090938802882312
:1008F000B9F0C091B800D091BA008091BC008A7B59
:100900008093BC0060E082E10E941A0360E083E112
:100910000E941A030E945404D093BA00C093B800F6
:10092000DF91CF910895CF92DF92EF92FF920F93D4
:100930001F93CF93DF93D82FC62F613208F098C052
:100940000E94D6036B017C0180914E0381116BC024
:1009500081E080934E0380932D039FEF90932C03AF
:1009600010922B039C0F90932A038093290380916C
:100970002903DD0FD82BD0932903809128038130E0
:1009800009F078C0109228030E94D6036B017C0105
:10099000809129038093BB00809150039091510373
:1009A000A0915203B0915303892B8A2B8B2BA1F07A
:1009B0000E94D603009150031091510320915203DD
:1009C000309153036C197D098E099F09061717078B
:1009D0002807390708F448C08091BC0083FDD8CFB0
:1009E00085EC8093BC000E94D6036B017C01809152
:1009F0004E03813009F440C080912B038C1710F412
:100A0000C0912B03E8E0F3E0AEE2B3E080E08C13AA
:100A100055C08C2FDF91CF911F910F91FF90EF90D8
:100A2000DF90CF9008958091500390915103A09151
:100A30005203B0915303892B8A2B8B2B09F484CF5B
:100A40000E94D6030091500310915103209152034C
:100A5000309153036C197D098E099F0906171707FA
:100A60002807390708F070CF80914F030E94720465
:100A7000C0E0CFCF85EEB5CF809150039091510368
:100A8000A0915203B0915303892B8A2B8B2B09F42D
:100A9000AECF0E94D60300915003109151032091D4
:100AA0005203309153036C197D098E099F09061773
:100AB00017072807390708F09ACFD6CF91919D9351
:100AC0008F5FA5CF0895E091F8038091F703E817B1
:100AD00030F4F0E0E25DFC4F808190E008958FEF0C
:100AE0009FEF08959091F8038091F7032FEF3FEF68
:100AF000981748F4E92FF0E0E25DFC4F208130E0E8
:100B00009F5F9093F803C9010895CF92DF92EF920F
:100B1000FF920F931F93CF93DF937C01CB018A0148
:100B200020910703222389F0EB016B01C40ED51E2F
:100B3000CC15DD0569F06991D701ED91FC9101902B
:100B4000F081E02DC7010995F3CF642F0E942D0499
:100B5000C801DF91CF911F910F91FF90EF90DF902F
:100B6000CF900895CF93DF931F92CDB7DEB76983FF
:100B7000209107032223F9F02091F503203258F049
:100B800021E030E0FC013383228390E080E00F908D
:100B9000DF91CF9108958091F603E82FF0E0E859B6
:100BA000FD4F998190838F5F8093F6038093F503C7
:100BB00081E090E0ECCF61E0CE0101960E942D042F
:100BC000F7CFCF92DF92EF92FF920F931F93CF93C5
:100BD000DF93D091F50381E0D13208F09CC0C09141
:100BE00006030E94D6036B017C0180914E038111A4
:100BF0006CC082E080934E0381E080932D038FEFE1
:100C000080932C0310922B03D0932A03A8E6B2E022
:100C1000E8E0F3E080E0D8138DC0109229038091C2
:100C20002903CC0FC82BC09329038091280381305E
:100C300009F084C0109228030E94D6036B017C0146
:100C4000809129038093BB008091500390915103C0
:100C5000A0915203B0915303892B8A2B8B2BA1F0C7
:100C60000E94D6030091500310915103209152032A
:100C7000309153036C197D098E099F0906171707D8
:100C80002807390708F442C08091BC0083FDD8CF03
:100C900085EC8093BC000E94D6036B017C0180919F
:100CA0004E03823009F44CC080912C038F3F09F42D
:100CB00069C080912C03803209F466C080912C03B6
:100CC000803309F463C084E026C080915003909182
:100CD0005103A0915203B0915303892B8A2B8B2B84
:100CE00009F483CF0E94D603009150031091510361
:100CF00020915203309153036C197D098E099F098D
:100D0000061717072807390708F06FCF80914F03A0
:100D10000E94720485E01092F6031092F50310927F
:100D20000703DF91CF911F910F91FF90EF90DF901C
:100D3000CF9008959D9191938F5F6DCF85EEA9CF50
:100D40008091500390915103A0915203B0915303AD
:100D5000892B8A2B8B2B09F4A2CF0E94D6030091FA
:100D600050031091510320915203309153036C1999
:100D70007D098E099F09061717072807390708F00C
:100D80008ECFC4CF80E0C7CF82E0C5CF83E0C3CF92
:100D900090E080E0089508958EBD00000DB407FE38
:100DA000FDCF8EB508958CBD9DBD0895CF93DF9383
:100DB000C091F002D091F102809120018823F9F0D6
:100DC000D7FD10C05C9AC091F002D091F102BE0133
:100DD00083E00E947903D093DE02C093DD02DF91AD
:100DE000CF9108955C988091F0029091F1029195D5
:100DF000819591099093F1028093F002E4CF1C1643
:100E00001D0694F470E060E089E00E947903BE0161
:100E100083E00E9479038091F0029091F102909317
:100E2000DE028093DD02DBCFD195C195D109D0934D
:100E3000F102C093F00270E060E083E00E94790369
:100E4000BE0189E0E6CFDC01ED91FC910190F081DB
:100E5000E02D0994CF93DF93EAE2F5E0858183608A
:100E6000C181D28123813481C22BD32BD168C82B7D
:100E7000808191E090930703809306031092F6031C
:100E80001092F50361E070E089EF93E00E94230780
:100E90006D2F89EF93E00E94B2056C2F89EF93E0EC
:100EA0000E94B20589EF93E0DF91CF910C94E105A8
:100EB0000F931F93FC0100E012E12AE730E090E07D
:100EC000401751076207730740F436952795179529
:100ED00007959F5F9630A1F797E0292F286B2695FD
:100EE00020839095917091831F910F910895CF93D6
:100EF000DF93CAE2D5E0888191E090930703809365
:100F000006031092F6031092F50370E060E089EF9B
:100F100093E00E94230789EF93E00E94E10562E0DD
:100F200088810E9493041092F8038093F70389EF5D
:100F300093E00E947205C82F89EF93E00E9472052A
:100F400020E0822B9C2BDF91CF910895CF92DF92EE
:100F5000EF92FF92CF93C62FBC01990F880B990B8C
:100F60000E948E1B6B017C016C2F70E07195619566
:100F70007109072E000C880B990B0E948E1B9B0198
:100F8000AC0160E070E080E090E40E94DF1C9B0117
:100F9000AC01C701B6010E94721CCF91FF90EF9087
:100FA000DF90CF900895FB0101900020E9F7319781
:100FB000AF01461B570BDC01ED91FC910280F381E0
:100FC000E02D09948F929F92AF92BF92EF92FF9281
:100FD0000F931F93CF93DF93CDB7DEB7A1970FB6D3
:100FE000F894DEBF0FBECDBF7C01FA01CB0119A280
:100FF000223008F42AE08E010F5D1F4F822E912CC3
:10100000B12CA12CBF01A50194010E94861EF901FB
:10101000CA016A300CF5605DD8016E938D01232BF7
:10102000242B252B79F790E080E0109721F0BD016B
:10103000C7010E94D307A1960FB6F894DEBF0FBE7A
:10104000CDBFDF91CF911F910F91FF90EF90BF9097
:10105000AF909F908F900895695CDECF242F462F2C
:1010600050E070E060E00C94E2076CE571E00C94F5
:10107000D307CF93DF93BC0184E593E00E94D307AD
:10108000EC0184E593E00E9435088C0F9D1FDF91F1
:10109000CF910895CF93DF9340E150E0682F84E52E
:1010A00093E00E942E08EC0184E593E00E9435084D
:1010B0008C0F9D1FDF91CF9108950F931F93CF93B6
:1010C000DF93EC010E9497018C01CE010E9435084C
:1010D000800F911FDF91CF911F910F9108951F9362
:1010E000CF93DF93E0910504F091060440910D0445
:1010F00060910B0470910C0420910A0480910A0401
:1011000090910B04A0910C04B0910D048093F8040D
:101110009093F904A093FA04B093FB049091100407
:10112000D091120480910E04309107043530B1F54E
:1011300090910904322F292F3093E5042093E40481
:101140007093E7046093E604982F842F9093E9044A
:101150008093E80480910F04909110049093EB0425
:101160008093EA0480911104909112049093F10409
:101170008093F00480911304909114049093F304ED
:101180008093F20480911504909116049093F504D5
:101190008093F404DF91CF911F910895FF773497E6
:1011A000C0911304937060911204709113044091E4
:1011B0001404509115042091160430911704EF3057
:1011C000F105FCF0A0911804B09119047197DCF0BE
:1011D000E0911A04F0911B048130C1F4892F90E052
:1011E0009093CB048093CA047093C5046093C404A5
:1011F0005093C7044093C6043093C9042093C80495
:10120000C9CFB0E0A0E0F0E0E0E0E6CF843099F4B0
:10121000892F90E09093D3048093D2047093CD04EF
:101220006093CC045093CF044093CE043093D10408
:101230002093D004AFCF823099F4892F90E090931F
:10124000DB048093DA047093D5046093D404509344
:10125000D7044093D6043093D9042093D8049ACF6E
:10126000833099F4892F90E09093E3048093E20413
:101270007093DD046093DC045093DF044093DE043C
:101280003093E1042093E00485CF853031F088303D
:1012900021F018ED180F1230D8F4892F90E09093B8
:1012A000EF048093EE047093E5046093E40450939C
:1012B000E7044093E6043093E9042093E804B093F4
:1012C000EB04A093EA04F093ED04E093EC0462CF06
:1012D000813129F43093F7042093F6045BCF8331F6
:1012E00019F4D093FC0456CF8E3199F4C093FD04C9
:1012F000A4E1B4E090E080E02D91E091FE04F09153
:10130000FF04E80FF91F2083019689309105A1F7AA
:1013100041CF843169F470930B0560930A055093B3
:101320000D0540930C0530930F0520930E0532CF29
:10133000853169F47093110560931005509313057E
:1013400040931205309315052093140523CF863161
:1013500069F470931705609316055093190540932F
:10136000180530931B0520931A0514CF813F09F00F
:1013700011CF8091B904882341F062EA72E0809134
:10138000B7049091B8040E945D08809110048730E2
:1013900009F000CF8091B904882341F06DE872E034
:1013A0008091B7049091B8040E945D088091130465
:1013B00080930005EFCECF93C4E68091B404909162
:1013C000B504DC01ED91FC910084F185E02D0995D7
:1013D00018161906BCF061E070E080E090E00E9411
:1013E000FB03C15051F78091B904882349F061E8AB
:1013F00072E08091B7049091B8040E945D0880E08B
:10140000CF91089581E0FCCF8F929F92BF92CF92AF
:10141000DF92EF92FF920F931F93CF93DF9300D051
:10142000CDB7DEB78091B4049091B504892B09F053
:1014300067C18091C2040E94F102019709F46BC058
:101440004091BC045091BD046091BE047091BF04F2
:10145000CE0101960E94580789819A810E94D30685
:1014600060E08091C0040E941A0380E00E94CC06D4
:10147000082F80E00E94CC06182F80E00E94CC0646
:10148000F82E80E00E94CC06009305041093060419
:10149000F092070480930804C8019F770097E9F54C
:1014A0008091B9048823B9F169E772E08091B704AB
:1014B0009091B8040E94970105E014E059E0E52EF0
:1014C00054E0F52E67E772E08091B7049091B8047C
:1014D0000E949701D8018D918D01803140F465E71C
:1014E00072E08091B7049091B8040E94970140E1A6
:1014F00050E0F801319760818091B7049091B80471
:101500000E942E08E016F106E9F68091B70490914A
:10151000B8040E943508F12C22C08C010450110936
:10152000F12CE12CE016F10678F48FEF0E94CC0646
:10153000B0E8EB16F10420F4F701EB5FFB4F848376
:10154000EFEFEE1AFE0AEECF61E08091C0040E9438
:101550001A03F090B904F11011C0FF24F3948F2DF9
:101560000F900F90DF91CF911F910F91FF90EF900F
:10157000DF90CF90BF909F908F90089500910504C9
:10158000109106046DE672E08091B7049091B80462
:101590000E94970145E0C42E44E0D42E6BE672E031
:1015A0008091B7049091B8040E949701D6018D9163
:1015B0006D01803140F469E672E08091B70490914A
:1015C000B8040E94970140E150E0F6013197608134
:1015D0008091B7049091B8040E942E08B9E0CB1610
:1015E000B4E0DB06D9F63CEFB32EB00EE8E2EB1523
:1015F00010F428E2B22E62E672E08091B704909176
:10160000B8040E94970199E0C92E94E0D92EE12CEC
:101610008091B7049091B804BE1401F160E672E0C5
:101620000E9497014601D6018C91803140F46EE50D
:1016300072E08091B7049091B8040E949701BFEFC7
:10164000CB1ADB0A40E150E0F40160818091B704DD
:101650009091B8040E942E08E394DACF17FF05C0DA
:1016600069E472E00E945D081F7760E472E0809197
:10167000B7049091B8040E949701A80170E060E05F
:101680002AE08091B7049091B8040E94E20766E3D3
:1016900072E08091B7049091B8040E949701609124
:1016A00007048091B7049091B80461110BC06EE2F9
:1016B00072E00E9497018091B7049091B8040E9453
:1016C00035084DCF613019F463E272E0F2CF623039
:1016D00019F46BE172E0EDCF633019F46DE072E064
:1016E000E8CF643019F461E072E0E3CF653019F4BB
:1016F00065EF71E0DECF4AE050E00E942E08DBCFBC
:1017000064E08091B6040E9493041092F8038093E1
:10171000F7030E94DB09882309F4FDCE8091B4040D
:101720009091B504DC01ED91FC910284F385E02DEC
:101730000995F82E8091B4049091B504DC01ED91E7
:10174000FC910284F385E02D0995E82E8091B40484
:101750009091B504DC01ED91FC910284F385E02DBC
:101760000995182F8091B4049091B504DC01ED9196
:10177000FC910284F385E02D0995F0920504E09236
:101780000604109307048093080400E01E2D0F291F
:101790001F770115110509F4BECE04501109D12C93
:1017A000C12C0115110509F4D8CE78010D311105B0
:1017B00018F08CE1E82EF12C64E06E0D8091B604F7
:1017C0000E9493041092F8038093F7030E94DB09B0
:1017D000882309F4C2CE8091B4049091B504DC0151
:1017E000ED91FC910284F385E02D09958091B4047C
:1017F0009091B504DC01ED91FC910284F385E02D1C
:1018000009958091B4049091B504DC01ED91FC91AF
:101810000284F385E02D09958091B4049091B5047C
:10182000DC01ED91FC910284F385E02D0995B12C4A
:10183000BE141F04C0F48091B4049091B504DC017F
:10184000ED91FC910284F385E02D0995B0E8CB166B
:10185000D10438F4F601EB5FFB4F8483F601319637
:101860006F01B394E5CF0E191F099BCFCF938091E1
:10187000C2048F3F49F40E94040AC82F811109C095
:10188000C0E08C2FCF9108950E94F102019799F743
:10189000F7CF80910704833039F4809109048B3F9E
:1018A00079F70E946F08EDCF8230A1F5809109048D
:1018B000813FC9F480910B04873019F780910E04A1
:1018C0008093000580910F0480930105809110049E
:1018D0008093020580911104809303058091120486
:1018E00080930405CECF8C3F61F680910A048093EB
:1018F000050580910E0490910F04A0911004B09101
:1019000011048093060590930705A0930805B093F2
:101910000905B7CF853009F0B3CFC3CFCF92DF929F
:10192000EF92FF920F931F93CF93DF9300D0CDB729
:10193000DEB7082FF62E14E0160F8091B4049091B4
:10194000B504009709F073C02DE7E22E8091C20420
:101950000E94F102892B21F18091B904882341F082
:101960006CEE71E08091B7049091B8040E945D081C
:1019700061E070E080E090E00E94FB03EA94E110F7
:10198000E5CF9091B904992309F445C06CED71E05D
:101990008091B7049091B8040E945D0890E03BC02C
:1019A0004091BC045091BD046091BE047091BF048D
:1019B000CE0101960E94580789819A810E94D30620
:1019C00060E08091C0040E941A03812F0E94CC061F
:1019D00080E00E94CC06802F0E94CC06A02FB0E0B1
:1019E000A757BB4F8C9191E0980F9C930E94CC0617
:1019F00099E0C92E94E0D92E10E0D6018D916D01A9
:101A00000E94CC061F5FF112F8CF61E08091C00404
:101A10000E941A0391E0892F0F900F90DF91CF91D0
:101A20001F910F91FF90EF90DF90CF90089520913C
:101A3000B60431E030930703209306031092F603B7
:101A40001092F503612F70E00E94230770E060E0C0
:101A50008091B4049091B5040E9423078091B4044E
:101A60009091B504DC01ED91FC910190F081E02DA5
:101A7000602F09958091B4049091B504DC01ED913B
:101A8000FC910190F081E02DA02FB0E0A757BB4F53
:101A90006C9121E0260F2C93099589E0C82E84E0F3
:101AA000D82E10E08091B4049091B504F6016191B4
:101AB0006F01DC01ED91FC910190F081E02D099521
:101AC0001F5FF112EFCF8091B4049091B5040E9492
:101AD000E10591E0882309F49ECF60CF85ED8093E6
:101AE000BC008091500390915103A0915203B0919A
:101AF00053030796A11DB11D23E0B695A7959795B1
:101B000087952A95D1F72091BC0024FD03C010923F
:101B10004E03089540915003509151036091520338
:101B200070915303452B462B472B69F30097A10572
:101B3000B10541F025E32A95F1F700000197A109CD
:101B4000B109E1CF80914F030C947204FF920F937F
:101B50001F93CF93DF93EC01F62E08811981C80102
:101B60000E94EA19F81621F06F2DC8010E94F2199F
:101B7000CE01DF91CF911F910F91FF900895EF92C9
:101B8000FF920F931F93CF93DF9300D0CDB7DEB7B3
:101B900088E2E82E81E0F82E0AE010E01A8309833B
:101BA000F70161917F01CE0101960E94A60D0F5FA2
:101BB0001F4F0831110591F788E291E00F900F90C7
:101BC000DF91CF911F910F91FF90EF900895EF92C9
:101BD000FF920F931F93CF93DF9300D0CDB7DEB763
:101BE0008CE1E82E81E0F82E08E210E01A830983E8
:101BF000F70161917F01CE0101960E94A60D0F5F52
:101C00001F4F0433110591F78CE191E00F900F9075
:101C1000DF91CF911F910F91FF90EF9008951F9248
:101C20000F920FB60F9211242F933F934F935F9310
:101C30006F937F938F939F93AF93BF93EF93FF9394
:101C400084E593E00E943902FF91EF91BF91AF913B
:101C50009F918F917F916F915F914F913F912F91C4
:101C60000F900FBE0F901F9018951F920F920FB6F6
:101C70000F9211242F938F939F93EF93FF93E091F3
:101C80006403F09165038081E0916A03F0916B0336
:101C900082FD1BC0908180916D038F5F8F732091B7
:101CA0006E03821741F0E0916D03F0E0EC5AFC4FB7
:101CB000958F80936D03FF91EF919F918F912F915D
:101CC0000F900FBE0F901F9018958081F4CF1F9238
:101CD0000F920FB60F9211242F933F938F939F93E0
:101CE000AF93BF938091D4029091D502A091D60278
:101CF000B091D7023091CC0223E0230F2D3758F555
:101D00000196A11DB11D2093CC028093D402909323
:101D1000D502A093D602B093D7028091CD029091C4
:101D2000CE02A091CF02B091D0020196A11DB11DAB
:101D30008093CD029093CE02A093CF02B093D002B5
:101D4000BF91AF919F918F913F912F910F900FBEB7
:101D50000F901F90189526E8230F0296A11DB11D24
:101D6000D2CF1F920F920FB60F9211242F933F9351
:101D70004F935F936F937F938F939F93AF93BF9393
:101D8000EF93FF938091B900887F803609F44AC0B1
:101D9000F0F5883209F4A7C018F5803109F49BC02A
:101DA000B8F4882309F4F9C0883009F494C0FF918D
:101DB000EF91BF91AF919F918F917F916F915F91C3
:101DC0004F913F912F910F900FBE0F901F9018953C
:101DD000883109F488C0803251F780932C0314C0F5
:101DE000803409F49DC040F48033B9F38833F9F6A8
:101DF00080932C0385ECB0C0803509F485C088350C
:101E000009F496C0883499F60E946E0DD0CF8839B7
:101E100009F48CC038F5883729F050F4883611F071
:101E2000803729F683E080934E031092CB0257C08F
:101E3000883809F47BC0803919F0803809F0B7CFB1
:101E40008091CB02803208F071C0E091CB0281E03A
:101E50008E0F8093CB028091BB00F0E0E555FD4FE3
:101E600080833DC0803B39F0E0F4803A09F479C0CA
:101E7000883A09F09CCF84E080934E031092AA0226
:101E80001092A902E091F103F091F203099580917B
:101E9000A90281110FC081E08093A90210928902EA
:101EA00009C0803C09F4A6CF883C09F4A3CF883B45
:101EB00009F07DCFE091AA0281E08E0F8093AA0203
:101EC000F0E0E757FD4F80818093BB009091AA021C
:101ED0008091A90229C0809129038093BB0085ECE1
:101EE0008093BC0064CF90912B0380912A039817B4
:101EF00058F5E0912B0381E08E0F80932B03F0E0E7
:101F0000E85FFC4F8081E9CFE0912B0381E08E0FE9
:101F100080932B038091BB00F0E0E85FFC4F80834F
:101F200090912B0380912A039817C8F285E8D8CFA7
:101F3000E0912B0381E08E0F80932B038091BB00F7
:101F4000F0E0E85FFC4F808380912D0381115CCF2E
:101F500081E08093280384EA8093BC0010924E03B2
:101F600026CF85EC8093BC0010924E038091CB026B
:101F7000803230F4E091CB02F0E0E555FD4F108265
:101F80006091CB0270E0E091F303F091F4038BEAEF
:101F900092E009951092CB020ACF10922C0334CF15
:101FA000E4E5F3E01382128288EE93E0A0E0B0E073
:101FB00084839583A683B7832CE331E03183208328
:101FC00025EC30E03587248724EC30E037872687FE
:101FD00020EC30E0318B208B21EC30E0338B228BF6
:101FE00022EC30E0358B248B26EC30E0378B268BCF
:101FF000118E128E138E148EE9EFF3E0138212828B
:1020000084839583A683B7838EE491E09183808354
:102010001092F8031092F7031092F6031092F50352
:102020000E9454048DE791E09093F2038093F103B2
:102030008EE791E09093F4038093F303EAE2F5E0F6
:1020400088E4808380E094E0928381831482138209
:1020500080E88583E9E8F4E086E0DF011D928A9557
:10206000E9F710928F041092B9048EE090E09093FB
:102070001D0580931C058CE090E090931F058093D4
:102080001E0588E090E090932105809320059093B1
:1020900023058093220589E090E0909325058093A5
:1020A000240584E090E090932705809326058AE03C
:1020B00090E090932905809328050895CF93DF93AE
:1020C000CDB7DEB766970FB6F894DEBF0FBECDBFB3
:1020D000789484B5826084BD84B5816084BD85B503
:1020E000826085BD85B5816085BD80916E0081600F
:1020F00080936E00109281008091810082608093B5
:1021000081008091810081608093810080918000B6
:102110008160809380008091B10084608093B100E1
:102120008091B00081608093B00080917A008460DB
:1021300080937A0080917A00826080937A00809107
:102140007A00816080937A0080917A008068809321
:102150007A001092C10062E087E00E94480362E0CA
:1021600086E00E94480362E088E00E94480361E044
:1021700084E00E94480380912001882321F061E0DF
:1021800089E00E9448031092F8031092F70310921E
:10219000F6031092F5030E9454048DE791E09093AA
:1021A000F2038093F1038EE791E09093F403809320
:1021B000F303E0916403F091650382E08083E09192
:1021C0006003F09161031082E0916203F091630378
:1021D00083E3808310926C03E0916803F0916903BC
:1021E00086E08083E0916603F091670380818061DF
:1021F0008083E0916603F09167038081886080832B
:10220000E0916603F0916703808180688083E091AC
:102210006603F091670380818F7D808311E01093C6
:10222000070380E68093060389EF93E00E94E105AF
:1022300081115CC58FE591E00E94390869E671E083
:1022400084E593E00E94D30720E140E650E060E09F
:1022500070E084E593E00E94E20784E593E00E9449
:1022600035088CE791E00E9439081093E4028091D0
:10227000E402811171C106E311E0FF24F394EE241E
:10228000EA94F9EF9F2EACE08A2EBDEF7B2E88E01A
:10229000682E90E9592E2FE5422EF80181918F0189
:1022A0008093D3026DEA71E084E593E00E94D30746
:1022B0008091D3020E944A088091D302F0920703D2
:1022C000809306031092F6031092F50389EF93E0D2
:1022D0000E94E10581111FC58FE591E00E94390838
:1022E00067EC71E084E593E00E94D3078091D3020C
:1022F0000E944A088AED91E00E9439088091D30239
:102300008093B60489EF93E09093B5048093B4046E
:10231000E092C204F092090461E081E00E948E0C18
:1023200062E370E080E090E00E94FB030E94040AF8
:102330008111FCCF62E370E080E090E00E94FB033B
:102340000E94040A8111FCCF9092090410920A04A1
:1023500062E082E00E948E0C0E94040A882309F445
:10236000D0C480910904883F09F0CBC48091B9049E
:10237000882309F470C067EC71E08091B7049091F4
:10238000B8040E94970140E150E060910B048091F5
:10239000B7049091B8040E942E0861EB71E080911F
:1023A000B7049091B8040E94970140E150E0609119
:1023B0000C048091B7049091B8040E942E08A0905C
:1023C0000D04B0900E04C0900F04D09010046DE97D
:1023D00071E08091B7049091B8040E94970120E1C8
:1023E000B601A5018091B7049091B8040E94E2075C
:1023F000A0901104B0901204C0901304D090140463
:1024000068E871E08091B7049091B8040E94970148
:1024100020E1B601A5018091B7049091B8040E9413
:10242000E207C0901504D090160462E771E0809135
:10243000B7049091B8040E949701A090B704B0909F
:10244000B804A60170E060E020E1C5010E94E20747
:10245000C5010E9435088092B8007092090460920C
:102460000A0410920B0410920C0410920D04509266
:102470000E0440920F04F092100410921104109276
:102480001204109213041092140410921504109266
:10249000160410921704109218041092190461E1A6
:1024A00082E00E948E0CE8EECE2EE3E0DE2EF1E01C
:1024B000CF1AD10809F48BC70E94360C8823B9F3D0
:1024C000809109048C3F99F760910605709107058A
:1024D000809108059091090520910505283039F46F
:1024E00060392FE5720721E08207910591F128EE0E
:1024F00033E040E050E00E94A81E69017A0165EED9
:1025000071E084E593E00E94D307809105050E9465
:102510004A0864EF71E084E593E00E94D3072AE063
:10252000B701A601F7FE0DC06DE284E593E00E94BD
:102530005B0244275527BA014C195D096E097F09D2
:102540002AE084E593E00E94E20787E092E00E949F
:10255000390881E08093E30280E98093B80090E03D
:1025600080E00E94EA198093D10281E090E00E940D
:10257000EA198093D2028091D1029091D2028C3ECE
:10258000934109F4CFC31A8219826CEECE010196F1
:102590000E94A60D81E090E09A83898363E1CE01D9
:1025A00001960E94A60D0E94BF0D0E94E70D60914A
:1025B0002D0180912901681B770B072E000C880BD9
:1025C000990B0E948E1B20E030E040EA50E40E940C
:1025D000E41A6093D9027093DA028093DB0290933D
:1025E000DC0280E880932F0510922C0510922B05B9
:1025F00011E000E62FB7F8948091D4029091D502B3
:10260000A091D602B091D7022FBF409118015091EE
:10261000190160911A0170911B016C017D01C41AAE
:10262000D50AE60AF70AB701A6014431510561054A
:10263000710508F4E3C18093180190931901A093E8
:102640001A01B0931B0110930503809117018B3F72
:1026500008F08BC38F5F8093170187E00E94F1021F
:10266000B82E8093040380912101813009F082C348
:1026700086E00E94F1028093160180912301882355
:1026800061F09091260180910103891730F0109339
:1026900016011093150110920303809125018823E0
:1026A00079F10E947F019250BC01990F880B990B20
:1026B0000E948E1B2AE037ED43E251E40E94E41AA7
:1026C0006B017C0120E030E0A9010E94651C181616
:1026D00024F0F7FAF094F7F8F0946091260170E096
:1026E00090E080E00E948E1BA70196010E94DF1AF5
:1026F000181634F01093160110931501109203036D
:10270000809124018823F1F00E947F018C5C910963
:10271000BC01990F880B990B0E948E1B20E030E4BE
:102720004CE95EE30E94721C0E94561B2091260118
:102730002617170609F034F41093160110931501AB
:102740001092030388E00E94F102982F990F990FCD
:1027500080911601880F892BB82AB09200038091CE
:102760001F01882309F441C3E12C40E4F42EF092C8
:102770002E05E0922D050E9477079093FF0280932B
:10278000FE020E942A078091FE029091FF02959519
:1027900087959093FF028093FE026091FE027091F4
:1027A000FF0265597A4180912A0190912B01C090D6
:1027B0002E01D0902F01E0903001F0903101209156
:1027C0001C01222309F416C3681B790B7093FF02C6
:1027D0006093FE02072E000C880B990B0E948E1B43
:1027E000A701960150580E94E41A6093FA02709370
:1027F000FB028093FC029093FD02C090FA02D090FD
:10280000FB02E090FC02F090FD0220E030E0A90124
:10281000C701B6010E94DF1A87FF14C0A701960105
:1028200060913201709133018091340190913501B2
:102830000E94721C6093FA027093FB028093FC0268
:102840009093FD028091200190911701943608F039
:10285000ECC2882309F4DDC280911D0160E0811182
:1028600001C061E089E00E941A032091F6023091D4
:10287000F7024091F8025091F9026091FA027091CA
:10288000FB028091FC029091FD020E94001A4B0114
:102890005C018092F2029092F302A092F402B09254
:1028A000F5026091280170E090E080E00E948E1BAC
:1028B000A50194010E94721C0E94561B2B017B01F2
:1028C0007093F1026093F00220E030E0A901C501AD
:1028D000B4010E94651C181624F0B7FAB094B7F83A
:1028E000B09420E030E040EA50E4C501B4010E9419
:1028F000DF1A60912D0170E087FF1DC02091D90281
:102900003091DA024091DB025091DC02C501B40142
:102910000E94721C4B015C016091290170E090E003
:1029200080E00E948E1B9B01AC01C501B4010E9496
:10293000011A0E94561BF7FE6FC280912C0190E095
:10294000481A590A5092F1024092F0028091F00226
:102950009091F1026817790724F47093F102609363
:10296000F0027195619571098091F0029091F102E8
:102970008617970724F47093F1026093F002809118
:102980001E01882359F08091F0029091F1029195F7
:10299000819591099093F1028093F0028091270133
:1029A0008823C9F08091F0029091F1028B3F91054C
:1029B00014F08AEF90E086302FEF920714F486E04F
:1029C0009FEF959587959595879580589F4F909304
:1029D000F1028093F0020E94D6068091EF028F5F91
:1029E0008093EF028B3050F047E050E06EE071E0F2
:1029F00084E593E00E94BB011092EF0284E593E02E
:102A00000E9419020297ECF08091EE02811119C028
:102A10008091ED02811115C084E593E00E94F701D9
:102A20002091EB023091EC022038310509F014C2FC
:102A3000813809F011C21093EE021092EC0210924C
:102A4000EB0284E593E00E9419020397D4F0809191
:102A5000EE028823B1F08091ED02811112C084E56D
:102A600093E00E94F70184E593E00E94F7018093D0
:102A7000EA0284E593E00E94F7018093E902109353
:102A8000ED0284E593E00E9419022091E9022817E3
:102A900019060CF011C18091EE02882309F40CC1D3
:102AA0008091ED02882309F407C18091EA028E3FEC
:102AB00009F074C384E593E00E94F7017C0184E58A
:102AC00093E00E94F701382E212CB1016E297F2955
:102AD000072E000C880B990B0E948E1B2DEC3CECF2
:102AE0004CEC5DE30E94721C4B015C018092E5029C
:102AF0009092E602A092E702B092E80284E593E0A9
:102B00000E94F701D82E8093020384E593E00E948F
:102B1000F7017C0184E593E00E94F7018C8B1B8A0E
:102B20006B897C896E297F29072E000C880B990BF5
:102B30000E948E1B2AE037ED43E25CE30E94721C88
:102B40006093F6027093F7028093F8029093F90273
:102B5000D0FE0FC02DEC3CEC4CEC5DE3C501B401A4
:102B60000E94DF1A87FD05C080911601813009F0AF
:102B700087C136E63093170184E593E00E94F701A0
:102B800084E593E00E94F70184E593E00E94F70159
:102B900084E593E00E94F7011092ED021092EE029C
:102BA0001092E9021092EA0220E030E048EC52E490
:102BB0006091FA027091FB028091FC029091FD02FB
:102BC0000E94721C0E94561B6093050170930601BF
:102BD0008091E402882309F456C1109307030093FF
:102BE00006031092F6031092F50362E070E089EF9D
:102BF00093E00E94230789EF93E00E94E10562E0E1
:102C000080E60E9493041092F8038093F7038230C9
:102C1000F0F389EF93E00E9472058093080189EF39
:102C200093E00E94720580930701109307030093BD
:102C300006031092F6031092F5036CE170E089EF41
:102C400093E00E94230789EF93E00E94E10562E090
:102C500080E60E9493041092F8038093F703823079
:102C6000F0F389EF93E00E94720580930A0189EFE7
:102C700093E00E9472058093090180910003809384
:102C80000B018091DD0280930C01E2E0F1E090E025
:102C900080E022E03191830F911D2F5F2D30D1F71D
:102CA00080930D014EE050E060E071E084E593E038
:102CB0000E94BB011092EF0280910503882309F462
:102CC000D0C088E00E94F1029091D802891709F4DF
:102CD000C8C08093D802882309F4C3C0809101033F
:102CE0008F5F8093010310920503BBC087E891E0DA
:102CF0000E94390881E991E00E9439081092E402AB
:102D0000B6CA8BE092E00E94390821E0083312072E
:102D100009F422CCC2CA87E891E00E94390885E311
:102D200092E0F1CF78E2E72E71E0F72E0AE010E0B2
:102D3000C8010E94EA19F70181937F010F5F1F4FBD
:102D400008311105A9F76CE1E62E61E0F62E08E2E4
:102D500010E0C8010E94EA19F70181937F010F5F1B
:102D60001F4F04331105A9F722CC56E6D52ED09279
:102D7000170173CC809122018130C9F486E00E9452
:102D8000F102811111C090910303913069F42091F7
:102D90001501213029F4109215011092160104C07A
:102DA00090931501909316018093030366CC809154
:102DB0000203813051F480911601813009F05DCC1D
:102DC00090910303911159CCE8CF811156CC809199
:102DD0001601811152CC80910303813009F04DCC52
:102DE000809316011092030348CC10922E05109286
:102DF0002D05C1CC680F791F7093FF026093FE020E
:102E0000072E000C880B990B0E948E1BA7019601C0
:102E1000EACC61E084E027CDEF2809F497CD8091DA
:102E20002C0190E0480E591E8DCD882391F08091A1
:102E30001D0161E0811101C060E089E00E941A0378
:102E40001092F1021092F0020E94D6061092010335
:102E5000C4CD60E084E0F2CF99279093EC02809398
:102E6000EB0280E0C82E80E0D82ECD2809F4C2CB3A
:102E70000E942502882309F4BCCB0E940000B9CB34
:102E80001092170179CE8091E302882309F479C169
:102E90000E94360C882309F4F0CEF0901C056F2DAB
:102EA0008091EA049091EB040E94A6072B013C015B
:102EB0006F2D8091E4049091E5040E94A6074B01D8
:102EC0005C016F2D8091E6049091E7040E94A607B3
:102ED0006B877C878D879E876F2D8091E80490910A
:102EE000E9040E94A6076F83788789879A87A301E0
:102EF0009201C301B2010E94721C6B017C01A50109
:102F00009401C501B4010E94721C9B01AC01C70170
:102F1000B6010E94011A6B017C012B853C854D8511
:102F20005E85CA01B9010E94721C9B01AC01C701F8
:102F3000B6010E94011A6B017C012F8138854985F9
:102F40005A85CA01B9010E94721C9B01AC01C701DC
:102F5000B6010E94011A0E94351D6B017C01AC0173
:102F60009B01C301B2010E94E41A6F87788B898BA1
:102F70009A8BA7019601C501B4010E94E41A6B83E4
:102F80007C838D839E83A70196016B857C858D85CF
:102F90009E850E94E41A4B015C01A70196016F8196
:102FA000788589859A850E94E41A2B013C01A50148
:102FB0009401C501B4010E94721C6F8378878987D0
:102FC0009A87A3019201C301B2010E94721C2F8152
:102FD000388549855A850E94011A9B01AC010E94DF
:102FE000011A9B01AC0160E070E080E89FE30E9461
:102FF000001A6B017C01A30192016F857889898990
:103000009A890E94721C6B877C878D879E87A50199
:1030100094016B817C818D819E810E94721C9B0139
:10302000AC016B857C858D859E850E94011A9B0174
:10303000AC010E94011AA70196010E94801A21EE9C
:103040003EE245E652E40E94721C6B017C01DC0109
:10305000CB01B0588093DF029093E002A093E1028D
:10306000B093E20220E030E0A901C701B6010E945E
:10307000651C1816D4F420E030E044E353E4C701A3
:10308000B6010E94DF1A181684F0A701960160E0CD
:1030900070E084EB93E40E94001A6093DF02709367
:1030A000E0028093E1029093E2022B813C814D810A
:1030B0005E81CA01B9010E94721C2F813885498541
:1030C0005A850E94011A9B01AC010E94011A9B01C2
:1030D000AC0160E070E080E89FE30E94001A6B01A1
:1030E0007C012B813C814D815E816F857889898946
:1030F0009A890E94721C6B837C838D839E83A301BB
:103100009201C501B4010E94721C9B01AC016B814C
:103110007C818D819E810E94011A9B01AC010E94DD
:10312000011AA70196010E94801A4B015C0120E060
:1031300030E040E251E46091DF027091E002809162
:10314000E1029091E2020E94721C0E94561B7B01D8
:1031500021EE3EE245E652E4C501B4010E94721C34
:1031600020E030E040E251E40E94721C0E94561BB5
:10317000E0920701F09208016093090170930A013F
:103180007CCD8FE08093070197E290930801E8EBF4
:10319000E0930901F2E2F0930A016FCD8C3F09F050
:1031A00095C084E593E00E94F701BC017727072EC4
:1031B000000C880B990B0E948E1B20E030E040E051
:1031C0005FE30E94721C0E945D1B6093280184E5EE
:1031D00093E00E94F70180932D0184E593E00E9423
:1031E000F7018093290184E593E00E94F701809321
:1031F0002C0184E593E00E94F701BC01990F880B34
:10320000990B0E948E1B60932E0170932F01809367
:1032100030019093310184E593E00E94F70190938F
:103220002B0180932A0184E593E00E94F7018E8BA5
:103230001D8A80912A0190912B01CD88DE888C29EE
:103240009D2990932B0180932A0184E593E00E94AD
:10325000F701BC01990F880B990B0E948E1B2AE085
:1032600037ED43E25CE30E94721C6093320170937D
:103270003301809334019093350184E593E00E94FB
:10328000F7010E94BF0D60912D0180912901681BFB
:10329000770B072E000C880B990B0E948E1B20E0E9
:1032A00030E040EA50E40E94E41A6093D90270933F
:1032B000DA028093DB029093DC021092ED0210920E
:1032C000EE021092E9021092EA02F6CC8B3FA9F7C7
:1032D00084E593E00E94F70180FF5BC010931C011E
:1032E00081FF5AC010931D0182FF59C010931E0127
:1032F00083FF58C010931F0184FF57C01093200113
:1033000085FF56C01093210186FF55C010932201FE
:10331000880F880B81238093230184E593E00E942A
:10332000F7018093260184E593E00E94F70184E58C
:1033300093E00E94F70180FF41C01093270181FFB5
:1033400040C01093240182FF3FC01093250184E503
:1033500093E00E94F70184E593E00E94F70184E581
:1033600093E00E94F70184E593E00E94F70184E571
:1033700093E00E94F7010E94E70D1092ED02109277
:10338000EE021092E9021092EA02F0E0E0E0099504
:1033900093CC10921C01A4CF10921D01A5CF1092C6
:1033A0001E01A6CF10921F01A7CF10922001A8CF17
:1033B00010922101A9CF10922201AACF10922701C9
:1033C000BECF10922401BFCF10922501C0CF83E55C
:1033D00092E099CCF999FECF92BD81BDF89A9927D8
:1033E00080B50895262FF999FECF1FBA92BD81BDF1
:1033F00020BD0FB6F894FA9AF99A0FBE0196089577
:103400005058BB27AA270E94181A0C942B1C0E9404
:103410001D1C38F00E94241C20F039F49F3F19F441
:1034200026F40C94F31B0EF4E095E7FB0C94ED1BD3
:10343000E92F0E943C1C58F3BA17620773078407F0
:10344000950720F079F4A6F50C945E1C0EF4E09537
:103450000B2EBA2FA02D0B01B90190010C01CA014E
:10346000A0011124FF27591B99F0593F50F4503EF9
:1034700068F11A16F040A22F232F342F4427585FEB
:10348000F3CF469537952795A795F0405395C9F703
:103490007EF41F16BA0B620B730B840BBAF09150BB
:1034A000A1F0FF0FBB1F661F771F881FC2F70EC05A
:1034B000BA0F621F731F841F48F48795779567952D
:1034C000B795F7959E3F08F0B0CF9395880F08F019
:1034D0009927EE0F9795879508950E941D1C60F01F
:1034E00080E891E009F49EEF0E94241C28F040E857
:1034F00051E071F45EEF0CC00C94F31B0C945E1C55
:10350000E92FE0780E943C1C40F3092E052AB1F314
:10351000261737074807590738F00E2E07F8E02519
:1035200069F0E025E0640AC0EF6307F8009407FA49
:10353000DB01B9019D01DC01CA01AD01EF930E94DD
:10354000FB1A0E942B1C0E94B01A5F91552339F080
:103550002BED3FE049E450FD49EC0C94011A08952D
:10356000DF93DD27B92FBF7740E85FE31616170614
:1035700048075B0718F4D92F0E946A1C9F938F930A
:103580007F936F930E94751DE8E6F0E00E94F61BA2
:103590000E942B1C2F913F914F915F910E94851C9F
:1035A000DD2351F09058A2EA2AED3FE049EC5FE3B9
:1035B000D0785D270E94181ADF910C942B1C0E9472
:1035C000C91B08F481E008950E94F81A0C942B1C82
:1035D0000E94241C58F00E941D1C40F029F45F3FFB
:1035E00029F00C94ED1B51110C945F1C0C94F31BEF
:1035F0000E943C1C68F39923B1F3552391F3951B6A
:10360000550BBB27AA2762177307840738F09F5F03
:103610005F4F220F331F441FAA1FA9F335D00E2E70
:103620003AF0E0E832D091505040E695001CCAF7DD
:103630002BD0FE2F29D0660F771F881FBB1F2617A0
:1036400037074807AB07B0E809F0BB0B802DBF0177
:10365000FF2793585F4F3AF09E3F510578F00C9446
:10366000ED1B0C945F1C5F3FE4F3983ED4F386950A
:1036700077956795B795F7959F5FC9F7880F911D67
:103680009695879597F90895E1E0660F771F881F53
:10369000BB1F621773078407BA0720F0621B730B06
:1036A000840BBA0BEE1F88F7E09508950E945D1B0E
:1036B0006894B1110C945F1C08950E94441C88F01A
:1036C0009F5798F0B92F9927B751B0F0E1F0660FE6
:1036D000771F881F991F1AF0BA95C9F714C0B13027
:1036E00091F00E945E1CB1E008950C945E1C672F5F
:1036F000782F8827B85F39F0B93FCCF38695779556
:103700006795B395D9F73EF490958095709561953E
:103710007F4F8F4F9F4F0895E89409C097FB3EF469
:1037200090958095709561957F4F8F4F9F4F99230E
:10373000A9F0F92F96E9BB279395F695879577958C
:103740006795B795F111F8CFFAF4BB0F11F460FF4C
:103750001BC06F5F7F4F8F4F9F4F16C0882311F0A4
:1037600096E911C0772321F09EE8872F762F05C0B8
:10377000662371F096E8862F70E060E02AF09A9553
:10378000660F771F881FDAF7880F9695879597F948
:103790000895990F0008550FAA0BE0E8FEEF1616E2
:1037A0001706E807F907C0F012161306E407F50735
:1037B00098F0621B730B840B950B39F40A2661F0A9
:1037C000232B242B252B21F408950A2609F4A1404C
:1037D000A6958FEF811D811D089597F99F6780E859
:1037E00070E060E008959FEF80EC0895DF93CF9341
:1037F0001F930F93FF92EF92DF927B018C016894ED
:1038000006C0DA2EEF010E94851CFE01E894A59106
:103810002591359145915591A6F3EF010E94181A13
:10382000FE019701A801DA9469F7DF90EF90FF900D
:103830000F911F91CF91DF91089500240A941616DD
:10384000170618060906089500240A94121613068E
:10385000140605060895092E0394000C11F488231C
:1038600052F0BB0F40F4BF2B11F460FF04C06F5F38
:103870007F4F8F4F9F4F089557FD9058440F551F0E
:1038800059F05F3F71F04795880F97FB991F61F0E2
:103890009F3F79F087950895121613061406551F59
:1038A000F2CF4695F1DF08C0161617061806991FC5
:1038B000F1CF86957105610508940895E894BB27BA
:1038C00066277727CB0197F908950E94C91B08F452
:1038D0008FEF08959B01AC0160E070E080E89FE30A
:1038E0000C94E41A0E94851C0C942B1C0E941D1C35
:1038F00038F00E94241C20F0952311F00C94ED1B4D
:103900000C94F31B11240C945F1C0E943C1C70F35C
:10391000959FC1F3950F50E0551F629FF001729F74
:10392000BB27F00DB11D639FAA27F00DB11DAA1F83
:10393000649F6627B00DA11D661F829F2227B00DD0
:10394000A11D621F739FB00DA11D621F839FA00D5B
:10395000611D221F749F3327A00D611D231F849FAB
:10396000600D211D822F762F6A2F11249F57504002
:103970009AF0F1F088234AF0EE0FFF1FBB1F661F7D
:10398000771F881F91505040A9F79E3F510580F046
:103990000C94ED1B0C945F1C5F3FE4F3983ED4F352
:1039A000869577956795B795F795E7959F5FC1F7EA
:1039B000FE2B880F911D9695879597F90895FA012A
:1039C000EE0FFF1F309621053105A1F1611571053C
:1039D00061F48038BFE39B0749F168949038810512
:1039E00061F08038BFEF9B0741F099234AF5FF3F14
:1039F000E1053105210519F1E8940894E795D9010D
:103A0000AA2329F4AB2FBE2FF85FD0F310C0FF5FBD
:103A100070F4A695E0F7F73950F019F0FF3A38F452
:103A20009F779F930DD00F9007FC9058089546F014
:103A30000C94F31B60E070E080E89FE308954FE78B
:103A40009F775F934F933F932F930E940A1E2F916E
:103A50003F914F915F910E94721C0C94811D19F44B
:103A600016F40C94F31B0C94B31D0E94441CB8F381
:103A70009923C9F3B6F39F57550B87FF0E94C11DC9
:103A80000024A0E640EA900180585695979528F4C6
:103A9000805C660F771F881F20F0261737074807BE
:103AA00030F4621B730B840B202931294A2BA69515
:103AB00017940794202531254A2758F7660F771F5A
:103AC000881F20F026173707480730F4620B730B66
:103AD000840B200D311D411DA09581F7B901842F64
:103AE0009158880F9695879508959B01AC010C9489
:103AF000721C29F416F00C94ED1B0C945E1C0C94B3
:103B0000F31B0E94441CA8F39638A0F707F80F9205
:103B1000E8942BE33AEA48EB5FE70E94881C0F9297
:103B20000F920F924DB75EB70F920E94521EE5E9B9
:103B3000F0E00E94F61B4F915F91EF91FF91E595A8
:103B4000EE1FFF1F49F0FE57E0684427EE0F441FA9
:103B5000FA95E1F74195550B0E94CC1D0F9007FE99
:103B60000C946A1C08959F3F31F0915020F4879582
:103B700077956795B795880F911D9695879597F9D5
:103B8000089591505040660F771F881FD2F708950F
:103B90000C94ED1B0C94B31D0E94441CD8F3992384
:103BA000C9F3940F511DA3F39150504094F059F074
:103BB000882332F0660F771F881F91505040C1F75D
:103BC0009E3F51052CF7880F911D9695879597F983
:103BD00008955F3FACF0983E9CF0BB2786957795A3
:103BE0006795B79508F4B1609395C1F7BB0F58F787
:103BF00011F460FFE8CF6F5F7F4F8F4F9F4FE3CF90
:103C00000C945F1C16F00C94B31D0C94F31B689479
:103C10000C94ED1B0E94441CA8F39923C1F3AEF34E
:103C2000DF93CF931F930F93FF92C92FDD27882334
:103C30002AF02197660F771F881FDAF720E030E01F
:103C400040E85FEB9FE3883920F0803E38F0219612
:103C50008F770E94011AEDEBF0E004C00E94011A78
:103C6000EAEEF0E00E94F61B8B01BE01EC01FB2E98
:103C70006F5771097595771F880B990B0E948E1BE2
:103C800028E132E741E35FE30E94851CAF2D9801F4
:103C9000AE01FF900F911F91CF91DF910E94181AF2
:103CA0000C942B1CFA01DC01AA0FBB1F9B01AC0179
:103CB000BF5728F4222733274427507820C0B75114
:103CC00090F4AB2F0024469537952795011CA395BA
:103CD000D2F3002071F0220F331F441FB395DAF3A3
:103CE0000ED00C94001A61307105A0E88A07B9461D
:103CF00030F49B01AC0166277727882790783096AF
:103D000021F020833183428353830895A1E21A2E48
:103D1000AA1BBB1BFD010DC0AA1FBB1FEE1FFF1F6F
:103D2000A217B307E407F50720F0A21BB30BE40BBF
:103D3000F50B661F771F881F991F1A9469F7609506
:103D40007095809590959B01AC01BD01CF010895C0
:103D5000052E97FB1EF400940E94BF1E57FD07D04E
:103D60000E94861E07FC03D04EF40C94BF1E509593
:103D70004095309521953F4F4F4F5F4F0895909557
:103D80008095709561957F4F8F4F9F4F0895EE0FEF
:0E3D9000FF1F0590F491E02D0994F894FFCFE9
:103D9E0080817FFD080000000000000000CC8081C3
:103DAE007FC70100470101661400000000000001FA
:103DBE000100000000000500280A0000093C000078
:103DCE00F0410000803F4A4B000000005B02BB0147
:103DDE00E801A8021902F7010B0200000000B2056B
:103DEE008505C80662059001720563050D0A00453A
:103DFE0072726F72203D203000434D50533134208B
:103E0E00414444524553733A20307800434D505349
:103E1E003134204F6B2E004572726F72203D20346C
:103E2E0000434D5053206E6F7420436F6E6E65636A
:103E3E00746564206F7220466F756E64000D0A43C0
:103E4E006865636B696E6720666F7220424E4F30F5
:103E5E003858206F6E2000424E4F30385820414463
:103E6E0044524553733A20307800424E4F30385802
:103E7E00204F6B2E005265706F7274204944203AA9
:103E8E00203078005265706F727420696E7465729E
:103E9E0076616C203A2000206D7300424E4F303810
:103EAE0030206E6F74206465746563746564206180
:103EBE007420676976656E204932432061646472AE
:103ECE006573732E00424E4F303858206E6F74203B
:103EDE00436F6E6E6563746564206F7220466F75F6
:103EEE006E6400424E4F30387820696E69742066D9
:083EFE0061696C7321210000D1
:00000001FF
