:100000000C944E010C9476010C9476010C947601BC
:100010000C9476010C9476010C9476010C94760184
:100020000C9476010C9476010C9476010C94760174
:100030000C9476010C9476010C9476010C94760164
:100040000C94B00C0C9476010C947E0C0C94580C0F
:100050000C9476010C9476010C9476010C94760144
:100060000C94FA0C0C947601084AD73B3BCE016EF7
:1000700084BCBFFDC12F3D6C74319ABD56833DDAFF
:100080003D00C77F11BED9E4BB4C3E916BAAAABE0E
:10009000000000803F07634236B79BD8A71A396833
:1000A0005618AEBAAB558C1D3CB7CC5763BD6DED41
:1000B000FD753EF6177231BF000000803F0800005A
:1000C00000BE922449123EABAAAA2ABECDCCCC4C8B
:1000D0003E00000080BEABAAAAAA3E00000000BFFE
:1000E000000000803F0000000000084178D3BB43BF
:1000F00087D1133D190E3CC3BD4282AD2B3E68EC47
:100100008276BED98FE1A93E4C80EFFFBE01C4FFCD
:100110007F3F0000000000000000000025002800D4
:100120002B00000000002300260029000404040422
:100130000404040402020202020203030303030391
:10014000010204081020408001020408102001026E
:10015000040810200000000800020100000304074A
:100160000000000000000000205357205665727305
:10017000696F6E2050617463683A203078002053B4
:1001800057204275696C64204E756D6265723A2025
:100190003078002053572050617274204E756D6284
:1001A00065723A2030780020535720566572736983
:1001B0006F6E204D696E6F723A2030780053572071
:1001C00056657273696F6E204D616A6F723A2030A6
:1001D00078004779726F2D766563746F720057618E
:1001E0006B652D7265706F72740053656E736F72FC
:1001F0002D7265706F727400436F6E74726F6C0055
:1002000045786563757461626C6500436F6D6D61FF
:100210006E6400204368616E6E656C3A00204C6528
:100220006E6774683A00205B436F6E74696E756523
:1002300064207061636B65745D20003000200020D5
:10024000426F64793A00300020004865616465724D
:100250003A00300020004865616465723A005350EE
:100260004920494E542074696D656F757400535070
:10027000492057616974004932432074696D656F84
:100280007574004D452043616C207265706F727407
:1002900020666F756E6421002100190E11241FBEA7
:1002A000CFEFD8E0DEBFCDBF12E0A0E0B1E0EEE6D8
:1002B000FFE202C005900D92A035B107D9F724E006
:1002C000A0E5B2E001C01D92A83EB207E1F711E03F
:1002D000CEE4D1E004C02197FE010E94AF17CD34D7
:1002E000D107C9F70E94850E0C94B5170C94000035
:1002F0008091C8029091C902891B990B08950895B5
:100300000895EF92FF920F931F93CF93DF938C0189
:100310007B01D0E0C0E0F701EC0FFD1F6491662384
:1003200061F0D801ED91FC910190F081E02DC801C0
:100330000995892B11F02196EECFCE01DF91CF9157
:100340001F910F91FF90EF900895AF92BF92CF92BF
:10035000DF92EF92FF920F931F93CF93DF936C0185
:100360007B018B01040F151FEB015E01AE18BF0866
:10037000C017D10759F06991D601ED91FC91019018
:10038000F081E02DC6010995892B79F7C501DF9130
:10039000CF911F910F91FF90EF90DF90CF90BF9082
:1003A000AF900895FC01538D448D252F30E0842FAC
:1003B00090E0821B930B541710F0CF96089501978D
:1003C0000895FC01918D828D981761F0A28DAE0F7A
:1003D000BF2FB11D5D968C91928D9F5F9F73928F01
:1003E00090E008958FEF9FEF0895FC01918D828D2D
:1003F000981731F0828DE80FF11D858D90E00895FA
:100400008FEF9FEF0895FC01918D228D892F90E051
:10041000805C9F4F821B91098F73992708958AE111
:1004200093E00E94030221E0892B09F420E0822F4F
:10043000089580E090E0892B29F00E940F0281113D
:100440000C9400000895FC01A48DA80FB92FB11DD4
:10045000A35ABF4F2C91848D90E001968F739927FA
:10046000848FA689B7892C93A089B1898C918370D8
:1004700080648C93938D848D981306C00288F389D1
:10048000E02D80818F7D80830895EF92FF920F93FE
:100490001F93CF93DF93EC0181E0888F9B8D8C8D30
:1004A00098131AC0E889F989808185FF15C09FB724
:1004B000F894EE89FF896083E889F98980818370E7
:1004C000806480839FBF81E090E0DF91CF911F9196
:1004D0000F91FF90EF900895F62E0B8D10E00F5FB7
:1004E0001F4F0F731127E02E8C8D8E110CC00FB68D
:1004F00007FCFACFE889F989808185FFF5CFCE0125
:100500000E942302F1CFEB8DEC0FFD2FF11DE35A7A
:10051000FF4FF0829FB7F8940B8FEA89FB898081A7
:100520008062CFCFCF93DF93EC01888D8823B9F021
:10053000AA89BB89E889F9898C9185FD03C08081EE
:1005400086FD0DC00FB607FCF7CF8C9185FFF2CF6B
:10055000808185FFEDCFCE010E942302E9CFDF919C
:10056000CF910895833081F028F4813099F0823062
:10057000A9F008958730A9F08830C9F08430B1F42B
:10058000809180008F7D03C0809180008F77809361
:100590008000089584B58F7784BD089584B58F7DDC
:1005A000FBCF8091B0008F778093B0000895809149
:1005B000B0008F7DF9CFCF93DF93282F30E0F90182
:1005C000EC5AFE4F8491F901E05CFE4FD491F901A1
:1005D000E45DFE4FC491CC23A1F081110E94B202D0
:1005E000EC2FF0E0EE0FFF1FEE5DFE4FA591B491F2
:1005F000EC91ED2381E090E009F480E0DF91CF9170
:10060000089580E090E0FACF1F93CF93DF93282FD7
:1006100030E0F901EC5AFE4F8491F901E05CFE4FA5
:10062000D491F901E45DFE4FC491CC23A9F0162FBB
:1006300081110E94B202EC2FF0E0EE0FFF1FE85E86
:10064000FE4FA591B4918FB7F894EC91111108C0A9
:10065000D095DE23DC938FBFDF91CF911F9108955A
:10066000DE2BF8CF3FB7F8948091B9029091BA028F
:10067000A091BB02B091BC0226B5A89B05C02F3F3C
:1006800019F00196A11DB11D3FBFBA2FA92F982FB8
:100690008827BC01CD01620F711D811D911D42E0B3
:1006A000660F771F881F991F4A95D1F708958F927B
:1006B0009F92AF92BF92CF92DF92EF92FF924B0147
:1006C0005C010E9432036B017C010E9432036C19B1
:1006D0007D098E099F09683E734081059105A8F345
:1006E00021E0821A9108A108B10888EEC80E83E0C3
:1006F000D81EE11CF11C81149104A104B10429F756
:10070000FF90EF90DF90CF90BF90AF909F908F9031
:10071000089520919102260F3327331F213231058E
:10072000ECF420911403FC0190E080E0243069F0A7
:1007300082E00895A09191022191AC014F585D4F44
:10074000A40FB52FB11D2C930196861798F38091B5
:100750009102680F6093910280E0089581E008950E
:100760001092140381E08093F3021092EE0261E094
:1007700082E10E94040361E083E10E940403E9EB4B
:10078000F0E080818E7F808380818D7F808388E40C
:100790008093B80085E48093BC000895CF93DF93E5
:1007A00091E0909370028823B9F0C091B800D09185
:1007B000BA008091BC008A7B8093BC0060E082E13B
:1007C0000E94040360E083E10E9404030E94B003DE
:1007D000D093BA00C093B800DF91CF910895CF9223
:1007E000DF92EF92FF920F931F93CF93DF93D82F57
:1007F000C62F613208F098C00E9432036B017C0161
:100800008091140381116BC081E080931403809365
:10081000F3029FEF9093F2021092F1029C0F9093DB
:10082000F0028093EF028091EF02DD0FD82BD0937E
:10083000EF028091EE02813009F078C01092EE0252
:100840000E9432036B017C018091EF028093BB0018
:100850008091160390911703A0911803B09119038A
:10086000892B8A2B8B2BA1F00E9432030091160357
:100870001091170320911803309119036C197D0909
:100880008E099F09061717072807390708F448C07B
:100890008091BC0083FDD8CF85EC8093BC000E9482
:1008A00032036B017C0180911403813009F440C054
:1008B0008091F1028C1710F4C091F102EEECF2E09D
:1008C000A4EFB2E080E08C1355C08C2FDF91CF9164
:1008D0001F910F91FF90EF90DF90CF90089580913E
:1008E000160390911703A0911803B0911903892B57
:1008F0008A2B8B2B09F484CF0E94320300911603BC
:100900001091170320911803309119036C197D0978
:100910008E099F09061717072807390708F070CFB7
:10092000809115030E94CE03C0E0CFCF85EEB5CFF6
:100930008091160390911703A0911803B0911903A9
:10094000892B8A2B8B2B09F4AECF0E9432030091A6
:1009500016031091170320911803309119036C1995
:100960007D098E099F09061717072807390708F020
:100970009ACFD6CF91919D938F5FA5CF0895E091A7
:10098000C9028091C802E81730F4F0E0EC50FD4F46
:10099000808190E008958FEF9FEF08959091C902B4
:1009A0008091C8022FEF3FEF981748F4E92FF0E04D
:1009B000EC50FD4F208130E09F5F9093C902C90148
:1009C0000895CF92DF92EF92FF920F931F93CF93F0
:1009D000DF937C01CB018A012091CD02222389F093
:1009E000EB016B01C40ED51ECC15DD0569F06991D4
:1009F000D701ED91FC910190F081E02DC70109959F
:100A0000F3CF642F0E948903C801DF91CF911F911A
:100A10000F91FF90EF90DF90CF900895CF93DF93E9
:100A20001F92CDB7DEB769832091CD022223F9F062
:100A30002091CA02203258F021E030E0FC013383DB
:100A4000228390E080E00F90DF91CF910895809114
:100A5000CB02E82FF0E0E05BFD4F998190838F5F40
:100A60008093CB028093CA0281E090E0ECCF61E0FA
:100A7000CE0101960E948903F7CFCF92DF92EF92C9
:100A8000FF920F931F93CF93DF93D091CA0281E01F
:100A9000D13208F09CC0C091CC020E9432036B019D
:100AA0007C018091140381116CC082E08093140357
:100AB00081E08093F3028FEF8093F2021092F102B3
:100AC000D093F002A0E5B2E0EEECF2E080E0D813C3
:100AD0008DC01092EF028091EF02CC0FC82BC09313
:100AE000EF028091EE02813009F084C01092EE0294
:100AF0000E9432036B017C018091EF028093BB0066
:100B00008091160390911703A0911803B0911903D7
:100B1000892B8A2B8B2BA1F00E94320300911603A4
:100B20001091170320911803309119036C197D0956
:100B30008E099F09061717072807390708F442C0CE
:100B40008091BC0083FDD8CF85EC8093BC000E94CF
:100B500032036B017C0180911403823009F44CC094
:100B60008091F2028F3F09F469C08091F2028032D5
:100B700009F466C08091F202803309F463C084E016
:100B800026C08091160390911703A0911803B0918D
:100B90001903892B8A2B8B2B09F483CF0E943203F4
:100BA0000091160310911703209118033091190337
:100BB0006C197D098E099F09061717072807390741
:100BC00008F06FCF809115030E94CE0385E010924C
:100BD000CB021092CA021092CD02DF91CF911F91E9
:100BE0000F91FF90EF90DF90CF9008959D9191939A
:100BF0008F5F6DCF85EEA9CF80911603909117037B
:100C0000A0911803B0911903892B8A2B8B2B09F41F
:100C1000A2CF0E9432030091160310911703209176
:100C20001803309119036C197D098E099F09061765
:100C300017072807390708F08ECFC4CF80E0C7CF49
:100C400082E0C5CF83E0C3CF90E080E008950895AF
:100C50008EBD00000DB407FEFDCF8EB508958CBD8E
:100C60009DBD0895DC01ED91FC910190F081E02D96
:100C700009940F931F93FC0100E012E12AE730E092
:100C800090E0401751076207730740F436952795A7
:100C9000179507959F5F9630A1F797E0292F286B4E
:100CA000269520839095917091831F910F910895BF
:100CB000CF92DF92EF92FF92CF93C62FBC01990F94
:100CC000880B990B0E9476146B017C016C2F70E0ED
:100CD000719561957109072E000C880B990B0E9484
:100CE00076149B01AC0160E070E080E090E40E942B
:100CF000C7159B01AC01C701B6010E945A15CF91DF
:100D0000FF90EF90DF90CF900895FB0101900020BD
:100D1000E9F73197AF01461B570BDC01ED91FC91D0
:100D20000280F381E02D09948F929F92AF92BF923F
:100D3000EF92FF920F931F93CF93DF93CDB7DEB760
:100D4000A1970FB6F894DEBF0FBECDBF7C01FA01AC
:100D5000CB0119A2223008F42AE08E010F5D1F4F4B
:100D6000822E912CB12CA12CBF01A50194010E94CF
:100D70006E17F901CA016A300CF5605DD8016E93F7
:100D80008D01232B242B252B79F790E080E0109701
:100D900021F0BD01C7010E948506A1960FB6F89407
:100DA000DEBF0FBECDBFDF91CF911F910F91FF909E
:100DB000EF90BF90AF909F908F900895695CDECFC9
:100DC000242F462F50E070E060E00C94940660E31E
:100DD00071E00C948506CF93DF93BC018AE193E028
:100DE0000E948506EC018AE193E00E94E7068C0FE1
:100DF0009D1FDF91CF910895CF93DF9340E150E0A5
:100E0000682F8AE193E00E94E006EC018AE193E01A
:100E10000E94E7068C0F9D1FDF91CF9108950F93DD
:100E20001F93CF93DF93EC010E9481018C01CE01CF
:100E30000E94E706800F911FDF91CF911F910F91C4
:100E400008951F93CF93DF93E091C303F091C40300
:100E50004091CB036091C9037091CA032091C803EC
:100E60008091C8039091C903A091CA03B091CB03AC
:100E70008093B6049093B704A093B804B093B904D8
:100E80009091CE03D091D0038091CC033091C503D3
:100E90003530B1F59091C703322F292F3093A30439
:100EA0002093A2047093A5046093A404982F842F28
:100EB0009093A7048093A6048091CD039091CE03D4
:100EC0009093A9048093A8048091CF039091D003BC
:100ED0009093AF048093AE048091D1039091D2039C
:100EE0009093B1048093B0048091D3039091D40384
:100EF0009093B3048093B204DF91CF911F91089532
:100F0000FF773497C091D10393706091D0037091B3
:100F1000D1034091D2035091D3032091D403309157
:100F2000D503EF30F105FCF0A091D603B091D703C3
:100F30007197DCF0E091D803F091D9038130C1F4CE
:100F4000892F90E0909389048093880470938304A0
:100F50006093820450938504409384043093870403
:100F600020938604C9CFB0E0A0E0F0E0E0E0E6CF57
:100F7000843099F4892F90E09093910480939004A9
:100F800070938B0460938A0450938D0440938C0477
:100F900030938F0420938E04AFCF823099F4892F41
:100FA00090E09093990480939804709393046093D5
:100FB00092045093950440939404309397042093A3
:100FC00096049ACF833099F4892F90E09093A104EE
:100FD0008093A00470939B0460939A0450939D04A3
:100FE00040939C0430939F0420939E0485CF8530CA
:100FF00031F0883021F018ED180F1230D8F4892F15
:1010000090E09093AD048093AC047093A30460933C
:10101000A2045093A5044093A4043093A704209302
:10102000A604B093A904A093A804F093AB04E093A2
:10103000AA0462CF813129F43093B5042093B4041B
:101040005BCF833119F4D093BA0456CF8E3199F423
:10105000C093BB04A2EDB3E090E080E02D91E0915D
:10106000BC04F091BD04E80FF91F2083019689307C
:101070009105A1F741CF843169F47093C90460935D
:10108000C8045093CB044093CA043093CD042093FA
:10109000CC0432CF853169F47093CF046093CE04D1
:1010A0005093D1044093D0043093D3042093D204BE
:1010B00023CF863169F47093D5046093D4045093A0
:1010C000D7044093D6043093D9042093D80414CF86
:1010D000813F09F011CF80917704882341F068E9BE
:1010E00072E080917504909176040E940F078091C0
:1010F000CE03873009F000CF80917704882341F038
:1011000063E872E080917504909176040E940F0765
:101110008091D1038093BE04EFCECF93C4E680913B
:10112000720490917304DC01ED91FC910084F185CF
:10113000E02D099518161906BCF061E070E080E01A
:1011400090E00E945703C15051F7809177048823A3
:1011500049F067E772E080917504909176040E94EF
:101160000F0780E0CF91089581E0FCCFCF92DF920E
:10117000EF92FF920F931F93CF93DF9300D0CDB7E1
:10118000DEB7082FF62E14E0160F809172049091AE
:101190007304009709F073C02DE7E22E809180045C
:1011A0000E94DB02892B21F180917704882341F092
:1011B0006EE672E080917504909176040E940F07AC
:1011C00061E070E080E090E00E945703EA94E11053
:1011D000E5CF90917704992309F445C06EE572E05C
:1011E00080917504909176040E940F0790E03BC0B7
:1011F00040917A0450917B0460917C0470917D044D
:10120000CE0101960E94390689819A810E942F069B
:1012100060E080917E040E940403812F0E942806D2
:1012200080E00E942806802F0E942806A02FB0E0B0
:10123000A95BBB4F8C9191E0980F9C930E9428066C
:1012400097ECC92E93E0D92E10E0D6018D916D0157
:101250000E9428061F5FF112F8CF61E080917E04A2
:101260000E94040391E0892F0F900F90DF91CF919E
:101270001F910F91FF90EF90DF90CF9008952091F4
:10128000740431E03093CD022093CC021092CB0253
:101290001092CA02612F70E00E94320670E060E096
:1012A00080917204909173040E94320680917204BE
:1012B00090917304DC01ED91FC910190F081E02D9F
:1012C000602F09958091720490917304DC01ED9177
:1012D000FC910190F081E02DA02FB0E0A95BBB4F05
:1012E0006C9121E0260F2C93099587ECC82E83E0A2
:1012F000D82E10E08091720490917304F6016191F0
:101300006F01DC01ED91FC910190F081E02D0995D8
:101310001F5FF112EFCF80917204909173040E94CD
:101320003D0591E0882309F49ECF60CF8F929F9274
:10133000BF92CF92DF92EF92FF920F931F93CF93C2
:10134000DF9300D0CDB7DEB7809172049091730423
:10135000892B09F067C1809180040E94DB0201970C
:1013600009F46BC040917A0450917B0460917C0435
:1013700070917D04CE0101960E94390689819A817F
:101380000E942F0660E080917E040E94040380E0AA
:101390000E942806082F80E00E942806182F80E06F
:1013A0000E942806F82E80E00E9428060093C303BE
:1013B0001093C403F092C5038093C603C8019F77BE
:1013C0000097E9F5809177048823B9F166E572E02A
:1013D00080917504909176040E94810103EC13E0E2
:1013E00057ECE52E53E0F52E64E572E0809175042C
:1013F000909176040E948101D8018D918D018031F8
:1014000040F462E572E080917504909176040E9448
:10141000810140E150E0F8013197608180917504CD
:10142000909176040E94E006E016F106E9F68091BC
:101430007504909176040E94E706F12C22C08C017D
:1014400004501109F12CE12CE016F10678F48FEF2D
:101450000E942806B0E8EB16F10420F4F701ED53E2
:10146000FC4F8483EFEFEE1AFE0AEECF61E080912D
:101470007E040E940403F0907704F11011C0FF2451
:10148000F3948F2D0F900F90DF91CF911F910F91BB
:10149000FF90EF90DF90CF90BF909F908F90089536
:1014A0000091C3031091C4036AE472E08091750453
:1014B000909176040E94810143ECC42E43E0D42E27
:1014C00068E472E080917504909176040E94810135
:1014D000D6018D916D01803140F466E472E0809117
:1014E0007504909176040E94810140E150E0F6017C
:1014F0003197608180917504909176040E94E00696
:10150000B7ECCB16B3E0DB06D9F63CEFB32EB00E4A
:10151000E8E2EB1510F428E2B22E6FE372E080915E
:101520007504909176040E94810197ECC92E93E096
:10153000D92EE12C8091750490917604BE1401F1AE
:101540006DE372E00E9481014601D6018C918031E9
:1015500040F46BE372E080917504909176040E94F0
:101560008101BFEFCB1ADB0A40E150E0F40160815A
:1015700080917504909176040E94E006E394DACF9E
:1015800017FF05C066E272E00E940F071F776DE14A
:1015900072E080917504909176040E948101A80107
:1015A00070E060E02AE080917504909176040E94DA
:1015B000940663E172E080917504909176040E9434
:1015C00081016091C5038091750490917604611149
:1015D0000BC06BE072E00E948101809175049091D4
:1015E00076040E94E7064DCF613019F460E072E0A6
:1015F000F2CF623019F468EF71E0EDCF633019F487
:101600006AEE71E0E8CF643019F46EED71E0E3CF7B
:10161000653019F462ED71E0DECF4AE050E00E94DF
:10162000E006DBCF64E0809174040E94EF03109227
:10163000C9028093C8020E948D08882309F4FDCE58
:101640008091720490917304DC01ED91FC9102840D
:10165000F385E02D0995F82E809172049091730422
:10166000DC01ED91FC910284F385E02D0995E82ED3
:101670008091720490917304DC01ED91FC910284DD
:10168000F385E02D0995182F8091720490917304D1
:10169000DC01ED91FC910284F385E02D0995F09237
:1016A000C303E092C4031093C5038093C60300E014
:1016B0001E2D0F291F770115110509F4BECE045008
:1016C0001109D12CC12C0115110509F4D8CE7801CE
:1016D0000D31110518F08CE1E82EF12C64E06E0D4F
:1016E000809174040E94EF031092C9028093C80293
:1016F0000E948D08882309F4C2CE809172049091D3
:101700007304DC01ED91FC910284F385E02D0995D1
:101710008091720490917304DC01ED91FC9102843C
:10172000F385E02D09958091720490917304DC019A
:10173000ED91FC910284F385E02D0995809172046E
:1017400090917304DC01ED91FC910284F385E02D0E
:101750000995B12CBE141F04C0F4809172049091BD
:101760007304DC01ED91FC910284F385E02D099571
:10177000B0E8CB16D10438F4F601ED53FC4F848366
:10178000F60131966F01B394E5CF0E191F099BCF77
:10179000CF93809180048F3F49F40E949609C82F0F
:1017A000811109C0C0E08C2FCF9108950E94DB0207
:1017B000019799F7F7CF8091C503833039F4809171
:1017C000C7038B3F79F70E942107EDCF8230A1F547
:1017D0008091C703813FC9F48091C903873019F70D
:1017E0008091CC038093BE048091CD038093BF048D
:1017F0008091CE038093C0048091CF038093C10475
:101800008091D0038093C204CECF8C3F61F680914B
:10181000C8038093C3048091CC039091CD03A09121
:10182000CE03B091CF038093C4049093C504A093DA
:10183000C604B093C704B7CF853009F0B3CFC3CF88
:1018400085ED8093BC008091160390911703A091C1
:101850001803B09119030796A11DB11D23E0B69599
:10186000A795979587952A95D1F72091BC0024FDDF
:1018700003C010921403089540911603509117036A
:101880006091180370911903452B462B472B69F380
:101890000097A105B10541F025E32A95F1F7000075
:1018A0000197A109B109E1CF809115030C94CE03F2
:1018B0001F920F920FB60F9211242F933F934F93C5
:1018C0005F936F937F938F939F93AF93BF93EF93A8
:1018D000FF938AE193E00E942302FF91EF91BF9171
:1018E000AF919F918F917F916F915F914F913F91B8
:1018F0002F910F900FBE0F901F9018951F920F926F
:101900000FB60F9211242F938F939F93EF93FF9312
:10191000E0912A03F0912B038081E0913003F09154
:10192000310382FD1BC09081809133038F5F8F73E1
:1019300020913403821741F0E0913303F0E0E65E3A
:10194000FC4F958F80933303FF91EF919F918F917F
:101950002F910F900FBE0F901F9018958081F4CF9C
:101960001F920F920FB60F9211242F933F938F93D4
:101970009F93AF93BF938091B5029091B602A091CF
:10198000B702B091B8023091B40223E0230F2D3793
:1019900058F50196A11DB11D2093B4028093B502A4
:1019A0009093B602A093B702B093B8028091B902A7
:1019B0009091BA02A091BB02B091BC020196A11D08
:1019C000B11D8093B9029093BA02A093BB02B09369
:1019D000BC02BF91AF919F918F913F912F910F903A
:1019E0000FBE0F901F90189526E8230F0296A11D99
:1019F000B11DD2CF1F920F920FB60F9211242F93C9
:101A00003F934F935F936F937F938F939F93AF9386
:101A1000BF93EF93FF938091B900887F803609F4DC
:101A20004AC0F0F5883209F4A7C018F5803109F4EE
:101A30009BC0B8F4882309F4F9C0883009F494C035
:101A4000FF91EF91BF91AF919F918F917F916F9196
:101A50005F914F913F912F910F900FBE0F901F906C
:101A60001895883109F488C0803251F78093F202CA
:101A700014C0803409F49DC040F48033B9F3883336
:101A8000F9F68093F20285ECB0C0803509F485C088
:101A9000883509F496C0883499F60E94200CD0CF7E
:101AA000883909F48CC038F5883729F050F4883625
:101AB00011F0803729F683E0809314031092B3026B
:101AC00057C0883809F47BC0803919F0803809F094
:101AD000B7CF8091B302803208F071C0E091B302B9
:101AE00081E08E0F8093B3028091BB00F0E0ED5651
:101AF000FD4F80833DC0803B39F0E0F4803A09F42B
:101B000079C0883A09F09CCF84E080931403109246
:101B1000920210929102E091BF02F091C0020995E9
:101B20008091910281110FC081E080939102109207
:101B3000710209C0803C09F4A6CF883C09F4A3CF08
:101B4000883B09F07DCFE091920281E08E0F809377
:101B50009202F0E0EF58FD4F80818093BB0090919E
:101B600092028091910229C08091EF028093BB0084
:101B700085EC8093BC0064CF9091F1028091F002DB
:101B8000981758F5E091F10281E08E0F8093F102F1
:101B9000F0E0E253FD4F8081E9CFE091F10281E076
:101BA0008E0F8093F1028091BB00F0E0E253FD4F75
:101BB00080839091F1028091F0029817C8F285E835
:101BC000D8CFE091F10281E08E0F8093F1028091F5
:101BD000BB00F0E0E253FD4F80838091F30281115E
:101BE0005CCF81E08093EE0284EA8093BC00109287
:101BF000140326CF85EC8093BC00109214038091CF
:101C0000B302803230F4E091B302F0E0ED56FD4FC4
:101C100010826091B30270E0E091BD02F091BE02CB
:101C200083E992E009951092B3020ACF1092F20272
:101C300034CFEAE1F3E01382128288EE93E0A0E071
:101C4000B0E084839583A683B78320E131E03183BC
:101C5000208325EC30E03587248724EC30E037877B
:101C6000268720EC30E0318B208B21EC30E0338B69
:101C7000228B22EC30E0358B248B26EC30E0378B46
:101C8000268B118E128E138E148EE7EBF3E01382E7
:101C9000128284839583A683B78382E291E0918345
:101CA0008083E7E4F4E086E0DF011D928A95E9F79E
:101CB00010924D04109277048EE090E09093DB0434
:101CC0008093DA048CE090E09093DD048093DC0450
:101CD00088E090E09093DF048093DE049093E10429
:101CE0008093E00489E090E09093E3048093E20421
:101CF00084E090E09093E5048093E4048AE090E02F
:101D00009093E7048093E6040895CF93DF93CDB7D3
:101D1000DEB760970FB6F894DEBF0FBECDBF7894E4
:101D200084B5826084BD84B5816084BD85B58260E0
:101D300085BD85B5816085BD80916E008160809391
:101D40006E001092810080918100826080938100FA
:101D5000809181008160809381008091800081600A
:101D6000809380008091B10084608093B100809165
:101D7000B00081608093B00080917A00846080938D
:101D80007A0080917A00826080937A0080917A0054
:101D9000816080937A0080917A00806880937A00D5
:101DA0001092C100E0912A03F0912B0382E080831E
:101DB000E0912603F09127031082E0912803F0912F
:101DC000290383E3808310923203E0912E03F09184
:101DD0002F0386E08083E0912C03F0912D03808116
:101DE00080618083E0912C03F0912D0380818860D5
:101DF0008083E0912C03F0912D03808180688083A3
:101E0000E0912C03F0912D0380818F7D80831092CF
:101E1000C9021092C8021092CB021092CA020E940C
:101E2000B0038FE791E09093C0028093BF0280E8F7
:101E300091E09093BE028093BD0283E391E00E9403
:101E4000EB0621E02093CD0280E68093CC02109235
:101E5000CB021092CA0287EB93E00E943D058111EC
:101E60001FC287E491E00E94EB0661E571E08AE120
:101E700093E00E94850620E140E650E060E070E0DB
:101E80008AE193E00E9494068AE193E00E94E706CB
:101E900084E691E00E94EB0681E08093C702809186
:101EA000C702811177C1EAE0F1E0FA83E9839CE09F
:101EB000A92E91E0B92E11E044244A9409EF2CE0B8
:101EC000922E3DEF832E48E0742E50E9652E6FE58B
:101ED000562EE981FA818191FA83E9838093C102C8
:101EE00065E971E08AE193E00E9485068091C10274
:101EF0000E94FC068091C1021093CD028093CC0217
:101F00001092CB021092CA0287EB93E00E943D052B
:101F10008111DAC187E491E00E94EB066FEA71E07B
:101F20008AE193E00E9485068091C1020E94FC062E
:101F300082EC91E00E94EB068091C10280937404D0
:101F400087EB93E090937304809372044092800433
:101F50001093C70361E081E00E94B60862E370E07D
:101F600080E090E00E9457030E9496098111FCCF07
:101F700062E370E080E090E00E9457030E949609BF
:101F80008111FCCF0093C7031092C80362E082E086
:101F90000E94B6080E949609882309F48AC180919C
:101FA000C703883F09F085C180917704882309F42D
:101FB00070C06DEB71E080917504909176040E9481
:101FC000810140E150E06091C903809175049091D6
:101FD00076040E94E00667EA71E0809175049091B2
:101FE00076040E94810140E150E06091CA03809133
:101FF0007504909176040E94E006C090CB03D090C7
:10200000CC03E090CD03F090CE0363E971E08091C2
:102010007504909176040E94810120E1B701A60128
:1020200080917504909176040E949406C090CF032D
:10203000D090D003E090D103F090D2036EE771E02E
:1020400080917504909176040E94810120E1B7018E
:10205000A60180917504909176040E949406E09008
:10206000D303F090D40368E671E0809175049091F9
:1020700076040E948101C0907504D0907604A70177
:1020800070E060E020E1C6010E949406C6010E9453
:10209000E7069092B8008092C7037092C80310922E
:1020A000C9031092CA031092CB036092CC035092E2
:1020B000CD031093CE031092CF031092D003109251
:1020C000D1031092D2031092D3031092D403109232
:1020D000D5031092D6031092D70361E182E00E94EB
:1020E000B60888EEE82E83E0F82EF1E0EF1AF1084A
:1020F00009F46BC20E94C80B8823B9F38091C7030F
:102100008C3F99F76091C4047091C5048091C60416
:102110009091C7042091C304283039F46039EFE569
:102120007E07E1E08E07910591F128EE33E040E073
:1021300050E00E94901769017A016DEC71E08AE12C
:1021400093E00E9485068091C3040E94FC066CED1A
:1021500071E08AE193E00E9485062AE0B701A601BA
:10216000F7FE0DC06DE28AE193E00E94450244272C
:102170005527BA014C195D096E097F092AE08AE1E9
:1021800093E00E9494068FEE91E00E94EB0681E0BE
:102190008093C60200E010E08091C702882309F412
:1021A0009AC091E09093CD02E0E6E093CC021092C9
:1021B000CB021092CA0262E070E087EB93E00E94CB
:1021C000320687EB93E00E943D0562E080E60E94C4
:1021D000EF031092C9028093C8028230F0F387EBBC
:1021E00093E00E94CE048093060187EB93E00E9467
:1021F000CE0480930501F1E0F093CD0220E6209318
:10220000CC021092CB021092CA026CE170E087EB14
:1022100093E00E94320687EB93E00E943D0562E066
:1022200080E60E94EF031092C9028093C8028230B8
:10223000F0F387EB93E00E94CE048093080187EBD4
:1022400093E00E94CE0480930701E2E0F1E090E089
:1022500080E02191820F911D21E0E930F207C9F75A
:10226000809309014AE050E060E071E08AE193E088
:102270000E94A5018AE193E00E9492026AE570E063
:1022800080E090E00E9457030115110509F484CF06
:102290000E940F02882309F47FCF0E9400007CCFA8
:1022A0008FE691E00E94EB0689E791E00E94EB0641
:1022B000F6CD83EF91E00E94EB0689819A81A81602
:1022C000B90609F006CE66CF8FE691E00E94EB06D4
:1022D0008DE192E0F0CF8091C602882309F4B5CF5A
:1022E0000E94C80B882309F4B0CFF090DA046F2D58
:1022F0008091A8049091A9040E9458062B013C01EA
:102300006F2D8091A2049091A3040E9458064B0166
:102310005C016F2D8091A4049091A5040E94580641
:102320006D837E838F8398876F2D8091A604909113
:10233000A7040E94580669837A838B839C83A30138
:102340009201C301B2010E945A156B017C01A501E3
:102350009401C501B4010E945A159B01AC01C7014B
:10236000B6010E94E9126B017C012D813E814F81F3
:102370005885CA01B9010E945A159B01AC01C701D9
:10238000B6010E94E9126B017C0129813A814B81DF
:102390005C81CA01B9010E945A159B01AC01C701B9
:1023A000B6010E94E9120E941D166B017C01AC016E
:1023B0009B01C301B2010E94CC1369877A878B8786
:1023C0009C87A7019601C501B4010E94CC132B0183
:1023D0003C01A70196016D817E818F8198850E94C5
:1023E000CC134B015C01A701960169817A818B8135
:1023F0009C810E94CC1369837A838B839C83A50183
:102400009401C501B4010E945A156D837E838F83A8
:10241000988729813A814B815C81CA01B9010E9468
:102420005A152D813E814F8158850E94E9129B01EA
:10243000AC010E94E9129B01AC0160E070E080E811
:102440009FE30E94E8126D877E878F87988B298192
:102450003A814B815C8169857A858B859C850E9458
:102460005A156B017C01A5019401C301B2010E94C0
:102470005A159B01AC01C701B6010E94E9129B01EC
:10248000AC010E94E9122D853E854F8558890E9436
:10249000681321EE3EE245E652E40E945A156B01B4
:1024A0007C01DC01CB01B0588093C2029093C3023F
:1024B000A093C402B093C50220E030E0A901C70197
:1024C000B6010E944D151816D4F420E030E044E324
:1024D00053E4C701B6010E94C713181684F0A70180
:1024E000960160E070E084EB93E40E94E812609350
:1024F000C2027093C3028093C4029093C502A301E9
:102500009201C301B2010E945A152D813E814F8173
:1025100058850E94E9129B01AC010E94E9129B01BF
:10252000AC0160E070E080E89FE30E94E8126B017C
:102530007C01A301920169857A858B859C850E9427
:102540005A152B013C0129813A814B815C81C501DF
:10255000B4010E945A159B01AC01C301B2010E9453
:10256000E9129B01AC010E94E912A70196010E94A9
:1025700068134B015C0120E030E040E251E46091DF
:10258000C2027091C3028091C4029091C5020E9460
:102590005A150E943E147B0121EE3EE245E652E4CC
:1025A000C501B4010E945A1520E030E040E251E438
:1025B0000E945A150E943E14E0920501F092060115
:1025C000609307017093080140CE8BE392E073CED5
:1025D0005058BB27AA270E9400130C9413150E9481
:1025E000051538F00E940C1520F039F49F3F19F4BE
:1025F00026F40C94DB140EF4E095E7FB0C94D51450
:10260000E92F0E94241558F3BA176207730784074D
:10261000950720F079F4A6F50C9446150EF4E09594
:102620000B2EBA2FA02D0B01B90190010C01CA018C
:10263000A0011124FF27591B99F0593F50F4503E37
:1026400068F11A16F040A22F232F342F4427585F29
:10265000F3CF469537952795A795F0405395C9F741
:102660007EF41F16BA0B620B730B840BBAF09150F9
:10267000A1F0FF0FBB1F661F771F881FC2F70EC098
:10268000BA0F621F731F841F48F48795779567956B
:10269000B795F7959E3F08F0B0CF9395880F08F057
:1026A0009927EE0F9795879508950E94051560F07C
:1026B00080E891E009F49EEF0E940C1528F040E8B4
:1026C00051E071F45EEF0CC00C94DB140C944615D1
:1026D000E92FE0780E94241540F3092E052AB1F372
:1026E000261737074807590738F00E2E07F8E02558
:1026F00069F0E025E0640AC0EF6307F8009407FA88
:10270000DB01B9019D01DC01CA01AD01EF930E941B
:10271000E3130E9413150E9498135F91552339F01B
:102720002BED3FE049E450FD49EC0C94E91208958B
:10273000DF93DD27B92FBF7740E85FE31616170652
:1027400048075B0718F4D92F0E9452159F938F9367
:102750007F936F930E945D16E8E6F0E00E94DE141E
:102760000E9413152F913F914F915F910E946D151B
:10277000DD2351F09058A2EA2AED3FE049EC5FE3F7
:10278000D0785D270E940013DF910C9413150E94EE
:10279000B11408F481E008950E94E0130C9413151D
:1027A0000E940C1558F00E94051540F029F45F3F77
:1027B00029F00C94D51451110C9447150C94DB148A
:1027C0000E94241568F39923B1F3552391F3951BC7
:1027D000550BBB27AA2762177307840738F09F5F42
:1027E0005F4F220F331F441FAA1FA9F335D00E2EAF
:1027F0003AF0E0E832D091505040E695001CCAF71C
:102800002BD0FE2F29D0660F771F881FBB1F2617DE
:1028100037074807AB07B0E809F0BB0B802DBF01B5
:10282000FF2793585F4F3AF09E3F510578F00C9484
:10283000D5140C9447155F3FE4F3983ED4F3869586
:1028400077956795B795F7959F5FC9F7880F911DA5
:102850009695879597F90895E1E0660F771F881F91
:10286000BB1F621773078407BA0720F0621B730B44
:10287000840BBA0BEE1F88F7E09508950E9445146B
:102880006894B1110C94471508950E942C1588F096
:102890009F5798F0B92F9927B751B0F0E1F0660F24
:1028A000771F881F991F1AF0BA95C9F714C0B13065
:1028B00091F00E944615B1E008950C944615672FDB
:1028C000782F8827B85F39F0B93FCCF38695779594
:1028D0006795B395D9F73EF490958095709561957D
:1028E0007F4F8F4F9F4F0895E89409C097FB3EF4A8
:1028F00090958095709561957F4F8F4F9F4F99234D
:10290000A9F0F92F96E9BB279395F69587957795CA
:102910006795B795F111F8CFFAF4BB0F11F460FF8A
:102920001BC06F5F7F4F8F4F9F4F16C0882311F0E2
:1029300096E911C0772321F09EE8872F762F05C0F6
:10294000662371F096E8862F70E060E02AF09A9591
:10295000660F771F881FDAF7880F9695879597F986
:102960000895990F0008550FAA0BE0E8FEEF161620
:102970001706E807F907C0F012161306E407F50773
:1029800098F0621B730B840B950B39F40A2661F0E7
:10299000232B242B252B21F408950A2609F4A1408A
:1029A000A6958FEF811D811D089597F99F6780E897
:1029B00070E060E008959FEF80EC0895DF93CF937F
:1029C0001F930F93FF92EF92DF927B018C0168942B
:1029D00006C0DA2EEF010E946D15FE01E894A59164
:1029E0002591359145915591A6F3EF010E94001371
:1029F000FE019701A801DA9469F7DF90EF90FF904C
:102A00000F911F91CF91DF91089500240A9416161B
:102A1000170618060906089500240A9412161306CC
:102A2000140605060895092E0394000C11F488235A
:102A300052F0BB0F40F4BF2B11F460FF04C06F5F76
:102A40007F4F8F4F9F4F089557FD9058440F551F4C
:102A500059F05F3F71F04795880F97FB991F61F020
:102A60009F3F79F087950895121613061406551F97
:102A7000F2CF4695F1DF08C0161617061806991F03
:102A8000F1CF86957105610508940895E894BB27F8
:102A900066277727CB0197F908950E94B11408F4AF
:102AA0008FEF08959B01AC0160E070E080E89FE348
:102AB0000C94CC130E946D150C9413150E940515EF
:102AC00038F00E940C1520F0952311F00C94D514C9
:102AD0000C94DB1411240C9447150E94241570F3F8
:102AE000959FC1F3950F50E0551F629FF001729FB3
:102AF000BB27F00DB11D639FAA27F00DB11DAA1FC2
:102B0000649F6627B00DA11D661F829F2227B00D0E
:102B1000A11D621F739FB00DA11D621F839FA00D99
:102B2000611D221F749F3327A00D611D231F849FE9
:102B3000600D211D822F762F6A2F11249F57504040
:102B40009AF0F1F088234AF0EE0FFF1FBB1F661FBB
:102B5000771F881F91505040A9F79E3F510580F084
:102B60000C94D5140C9447155F3FE4F3983ED4F3CE
:102B7000869577956795B795F795E7959F5FC1F728
:102B8000FE2B880F911D9695879597F90895FA0168
:102B9000EE0FFF1F309621053105A1F1611571057A
:102BA00061F48038BFE39B0749F168949038810550
:102BB00061F08038BFEF9B0741F099234AF5FF3F52
:102BC000E1053105210519F1E8940894E795D9014B
:102BD000AA2329F4AB2FBE2FF85FD0F310C0FF5FFC
:102BE00070F4A695E0F7F73950F019F0FF3A38F491
:102BF0009F779F930DD00F9007FC9058089546F053
:102C00000C94DB1460E070E080E89FE308954FE7E8
:102C10009F775F934F933F932F930E94F2162F91CC
:102C20003F914F915F910E945A150C94691619F4C7
:102C300016F40C94DB140C949B160E942C15B8F31C
:102C40009923C9F3B6F39F57550B87FF0E94A91626
:102C50000024A0E640EA900180585695979528F404
:102C6000805C660F771F881F20F0261737074807FC
:102C700030F4621B730B840B202931294A2BA69553
:102C800017940794202531254A2758F7660F771F98
:102C9000881F20F026173707480730F4620B730BA4
:102CA000840B200D311D411DA09581F7B901842FA2
:102CB0009158880F9695879508959B01AC010C94C7
:102CC0005A1529F416F00C94D5140C9446150C944E
:102CD000DB140E942C15A8F39638A0F707F80F9282
:102CE000E8942BE33AEA48EB5FE70E9470150F92F5
:102CF0000F920F924DB75EB70F920E943A17E5E917
:102D0000F0E00E94DE144F915F91EF91FF91E59505
:102D1000EE1FFF1F49F0FE57E0684427EE0F441FE7
:102D2000FA95E1F74195550B0E94B4160F9007FEF6
:102D30000C94521508959F3F31F0915020F48795DF
:102D400077956795B795880F911D9695879597F913
:102D5000089591505040660F771F881FD2F708954D
:102D60000C94D5140C949B160E942C15D8F399231F
:102D7000C9F3940F511DA3F39150504094F059F0B2
:102D8000882332F0660F771F881F91505040C1F79B
:102D90009E3F51052CF7880F911D9695879597F9C1
:102DA00008955F3FACF0983E9CF0BB2786957795E1
:102DB0006795B79508F4B1609395C1F7BB0F58F7C5
:102DC00011F460FFE8CF6F5F7F4F8F4F9F4FE3CFCE
:102DD0000C94471516F00C949B160C94DB14689415
:102DE0000C94D5140E942C15A8F39923C1F3AEF3CB
:102DF000DF93CF931F930F93FF92C92FDD27882373
:102E00002AF02197660F771F881FDAF720E030E05D
:102E100040E85FEB9FE3883920F0803E38F0219650
:102E20008F770E94E912EDEBF0E004C00E94E912F6
:102E3000EAEEF0E00E94DE148B01BE01EC01FB2EF5
:102E40006F5771097595771F880B990B0E9476143F
:102E500028E132E741E35FE30E946D15AF2D980151
:102E6000AE01FF900F911F91CF91DF910E9400134F
:102E70000C941315FA01DC01AA0FBB1F9B01AC01D6
:102E8000BF5728F4222733274427507820C0B75152
:102E900090F4AB2F0024469537952795011CA395F8
:102EA000D2F3002071F0220F331F441FB395DAF3E1
:102EB0000ED00C94E81261307105A0E88A07B9467B
:102EC00030F49B01AC0166277727882790783096ED
:102ED00021F020833183428353830895A1E21A2E87
:102EE000AA1BBB1BFD010DC0AA1FBB1FEE1FFF1FAE
:102EF000A217B307E407F50720F0A21BB30BE40BFE
:102F0000F50B661F771F881F991F1A9469F7609544
:102F10007095809590959B01AC01BD01CF010895FE
:102F2000052E97FB1EF400940E94A71757FD07D0AB
:102F30000E946E1707FC03D04EF40C94A71750950F
:102F40004095309521953F4F4F4F5F4F0895909595
:102F50008095709561957F4F8F4F9F4F0895EE0F2D
:0E2F6000FF1F0590F491E02D0994F894FFCF27
:102F6E0080817DD304000000000F4A4B000000005A
:102F7E004502A501D20192020302E101F501000012
:102F8E0000000E05E1042406BE047801CE04BF0441
:102F9E000D0A00436865636B696E6720666F722069
:102FAE00434D50533134004572726F72203D2030C4
:102FBE0000434D5053313420414444524553733AEB
:102FCE0020307800434D50533134204F6B2E004546
:102FDE0072726F72203D203400434D5053206E6F3D
:102FEE007420436F6E6E6563746564206F72204645
:102FFE006F756E64000D0A436865636B696E6720BA
:10300E00666F7220424E4F303858206F6E2000424D
:10301E004E4F30385820414444524553733A203075
:10302E007800424E4F303858204F6B2E005265704C
:10303E006F7274204944203A203078005265706FC8
:10304E00727420696E74657276616C203A2000206D
:10305E006D7300424E4F303830206E6F74206465B1
:10306E0074656374656420617420676976656E208B
:10307E0049324320616464726573732E00424E4F71
:10308E00303858206E6F7420436F6E6E65637465B2
:10309E0064206F7220466F756E6400424E4F30385A
:1030AE007820696E6974206661696C732121000055
:00000001FF
