:100000000C944E010C9476010C9476010C947601BC
:100010000C9476010C9476010C9476010C94760184
:100020000C9476010C9476010C9476010C94760174
:100030000C9476010C9476010C9476010C94760164
:100040000C94B00C0C9476010C947E0C0C94580C0F
:100050000C9476010C9476010C9476010C94760144
:100060000C94FA0C0C947601084AD73B3BCE016EF7
:1000700084BCBFFDC12F3D6C74319ABD56833DDAFF
:100080003D00C77F11BED9E4BB4C3E916BAAAABE0E
:10009000000000803F07634236B79BD8A71A396833
:1000A0005618AEBAAB558C1D3CB7CC5763BD6DED41
:1000B000FD753EF6177231BF000000803F0800005A
:1000C00000BE922449123EABAAAA2ABECDCCCC4C8B
:1000D0003E00000080BEABAAAAAA3E00000000BFFE
:1000E000000000803F0000000000084178D3BB43BF
:1000F00087D1133D190E3CC3BD4282AD2B3E68EC47
:100100008276BED98FE1A93E4C80EFFFBE01C4FFCD
:100110007F3F0000000000000000000025002800D4
:100120002B00000000002300260029000404040422
:100130000404040402020202020203030303030391
:10014000010204081020408001020408102001026E
:10015000040810200000000800020100000304074A
:100160000000000000000000205357205665727305
:10017000696F6E2050617463683A203078002053B4
:1001800057204275696C64204E756D6265723A2025
:100190003078002053572050617274204E756D6284
:1001A00065723A2030780020535720566572736983
:1001B0006F6E204D696E6F723A2030780053572071
:1001C00056657273696F6E204D616A6F723A2030A6
:1001D00078004779726F2D766563746F720057618E
:1001E0006B652D7265706F72740053656E736F72FC
:1001F0002D7265706F727400436F6E74726F6C0055
:1002000045786563757461626C6500436F6D6D61FF
:100210006E6400204368616E6E656C3A00204C6528
:100220006E6774683A00205B436F6E74696E756523
:1002300064207061636B65745D20003000200020D5
:10024000426F64793A00300020004865616465724D
:100250003A00300020004865616465723A005350EE
:100260004920494E542074696D656F757400535070
:10027000492057616974004932432074696D656F84
:100280007574004D452043616C207265706F727407
:1002900020666F756E6421002100190E11241FBEA7
:1002A000CFEFD8E0DEBFCDBF12E0A0E0B1E0EEE6D8
:1002B000FFE202C005900D92A435B107D9F724E002
:1002C000A4E5B2E001C01D92AC3EB207E1F711E037
:1002D000CEE4D1E004C02197FE010E94AF17CD34D7
:1002E000D107C9F70E94850E0C94B5170C94000035
:1002F0008091CC029091CD02891B990B08950895AD
:100300000895EF92FF920F931F93CF93DF938C0189
:100310007B01D0E0C0E0F701EC0FFD1F6491662384
:1003200061F0D801ED91FC910190F081E02DC801C0
:100330000995892B11F02196EECFCE01DF91CF9157
:100340001F910F91FF90EF900895AF92BF92CF92BF
:10035000DF92EF92FF920F931F93CF93DF936C0185
:100360007B018B01040F151FEB015E01AE18BF0866
:10037000C017D10759F06991D601ED91FC91019018
:10038000F081E02DC6010995892B79F7C501DF9130
:10039000CF911F910F91FF90EF90DF90CF90BF9082
:1003A000AF900895FC01538D448D252F30E0842FAC
:1003B00090E0821B930B541710F0CF96089501978D
:1003C0000895FC01918D828D981761F0A28DAE0F7A
:1003D000BF2FB11D5D968C91928D9F5F9F73928F01
:1003E00090E008958FEF9FEF0895FC01918D828D2D
:1003F000981731F0828DE80FF11D858D90E00895FA
:100400008FEF9FEF0895FC01918D228D892F90E051
:10041000805C9F4F821B91098F73992708958EE10D
:1004200093E00E94030221E0892B09F420E0822F4F
:10043000089580E090E0892B29F00E940F0281113D
:100440000C9400000895FC01A48DA80FB92FB11DD4
:10045000A35ABF4F2C91848D90E001968F739927FA
:10046000848FA689B7892C93A089B1898C918370D8
:1004700080648C93938D848D981306C00288F389D1
:10048000E02D80818F7D80830895EF92FF920F93FE
:100490001F93CF93DF93EC0181E0888F9B8D8C8D30
:1004A00098131AC0E889F989808185FF15C09FB724
:1004B000F894EE89FF896083E889F98980818370E7
:1004C000806480839FBF81E090E0DF91CF911F9196
:1004D0000F91FF90EF900895F62E0B8D10E00F5FB7
:1004E0001F4F0F731127E02E8C8D8E110CC00FB68D
:1004F00007FCFACFE889F989808185FFF5CFCE0125
:100500000E942302F1CFEB8DEC0FFD2FF11DE35A7A
:10051000FF4FF0829FB7F8940B8FEA89FB898081A7
:100520008062CFCFCF93DF93EC01888D8823B9F021
:10053000AA89BB89E889F9898C9185FD03C08081EE
:1005400086FD0DC00FB607FCF7CF8C9185FFF2CF6B
:10055000808185FFEDCFCE010E942302E9CFDF919C
:10056000CF910895833081F028F4813099F0823062
:10057000A9F008958730A9F08830C9F08430B1F42B
:10058000809180008F7D03C0809180008F77809361
:100590008000089584B58F7784BD089584B58F7DDC
:1005A000FBCF8091B0008F778093B0000895809149
:1005B000B0008F7DF9CFCF93DF93282F30E0F90182
:1005C000EC5AFE4F8491F901E05CFE4FD491F901A1
:1005D000E45DFE4FC491CC23A1F081110E94B202D0
:1005E000EC2FF0E0EE0FFF1FEE5DFE4FA591B491F2
:1005F000EC91ED2381E090E009F480E0DF91CF9170
:10060000089580E090E0FACF1F93CF93DF93282FD7
:1006100030E0F901EC5AFE4F8491F901E05CFE4FA5
:10062000D491F901E45DFE4FC491CC23A9F0162FBB
:1006300081110E94B202EC2FF0E0EE0FFF1FE85E86
:10064000FE4FA591B4918FB7F894EC91111108C0A9
:10065000D095DE23DC938FBFDF91CF911F9108955A
:10066000DE2BF8CF3FB7F8948091BD029091BE0287
:10067000A091BF02B091C00226B5A89B05C02F3F34
:1006800019F00196A11DB11D3FBFBA2FA92F982FB8
:100690008827BC01CD01620F711D811D911D42E0B3
:1006A000660F771F881F991F4A95D1F708958F927B
:1006B0009F92AF92BF92CF92DF92EF92FF924B0147
:1006C0005C010E9432036B017C010E9432036C19B1
:1006D0007D098E099F09683E734081059105A8F345
:1006E00021E0821A9108A108B10888EEC80E83E0C3
:1006F000D81EE11CF11C81149104A104B10429F756
:10070000FF90EF90DF90CF90BF90AF909F908F9031
:10071000089520919502260F3327331F213231058A
:10072000ECF420911803FC0190E080E0243069F0A3
:1007300082E00895A09195022191AC014B585D4F44
:10074000A40FB52FB11D2C930196861798F38091B5
:100750009502680F6093950280E0089581E0089506
:100760001092180381E08093F7021092F20261E088
:1007700082E10E94040361E083E10E940403E9EB4B
:10078000F0E080818E7F808380818D7F808388E40C
:100790008093B80085E48093BC000895CF93DF93E5
:1007A00091E0909374028823B9F0C091B800D09181
:1007B000BA008091BC008A7B8093BC0060E082E13B
:1007C0000E94040360E083E10E9404030E94B003DE
:1007D000D093BA00C093B800DF91CF910895CF9223
:1007E000DF92EF92FF920F931F93CF93DF93D82F57
:1007F000C62F613208F098C00E9432036B017C0161
:100800008091180381116BC081E08093180380935D
:10081000F7029FEF9093F6021092F5029C0F9093CF
:10082000F4028093F3028091F302DD0FD82BD09372
:10083000F3028091F202813009F078C01092F20246
:100840000E9432036B017C018091F3028093BB0014
:1008500080911A0390911B03A0911C03B0911D037A
:10086000892B8A2B8B2BA1F00E94320300911A0353
:1008700010911B0320911C0330911D036C197D09FD
:100880008E099F09061717072807390708F448C07B
:100890008091BC0083FDD8CF85EC8093BC000E9482
:1008A00032036B017C0180911803813009F440C050
:1008B0008091F5028C1710F4C091F502E2EDF2E0A0
:1008C000A8EFB2E080E08C1355C08C2FDF91CF9160
:1008D0001F910F91FF90EF90DF90CF90089580913E
:1008E0001A0390911B03A0911C03B0911D03892B47
:1008F0008A2B8B2B09F484CF0E94320300911A03B8
:1009000010911B0320911C0330911D036C197D096C
:100910008E099F09061717072807390708F070CFB7
:10092000809119030E94CE03C0E0CFCF85EEB5CFF2
:1009300080911A0390911B03A0911C03B0911D0399
:10094000892B8A2B8B2B09F4AECF0E9432030091A6
:100950001A0310911B0320911C0330911D036C1985
:100960007D098E099F09061717072807390708F020
:100970009ACFD6CF91919D938F5FA5CF0895E091A7
:10098000CD028091CC02E81730F4F0E0E850FD4F42
:10099000808190E008958FEF9FEF08959091CD02B0
:1009A0008091CC022FEF3FEF981748F4E92FF0E049
:1009B000E850FD4F208130E09F5F9093CD02C90148
:1009C0000895CF92DF92EF92FF920F931F93CF93F0
:1009D000DF937C01CB018A012091D102222389F08F
:1009E000EB016B01C40ED51ECC15DD0569F06991D4
:1009F000D701ED91FC910190F081E02DC70109959F
:100A0000F3CF642F0E948903C801DF91CF911F911A
:100A10000F91FF90EF90DF90CF900895CF93DF93E9
:100A20001F92CDB7DEB769832091D1022223F9F05E
:100A30002091CE02203258F021E030E0FC013383D7
:100A4000228390E080E00F90DF91CF910895809114
:100A5000CF02E82FF0E0EC5AFD4F998190838F5F31
:100A60008093CF028093CE0281E090E0ECCF61E0F2
:100A7000CE0101960E948903F7CFCF92DF92EF92C9
:100A8000FF920F931F93CF93DF93D091CE0281E01B
:100A9000D13208F09CC0C091D0020E9432036B0199
:100AA0007C018091180381116CC082E0809318034F
:100AB00081E08093F7028FEF8093F6021092F502A7
:100AC000D093F402A4E5B2E0E2EDF2E080E0D813C6
:100AD0008DC01092F3028091F302CC0FC82BC0930B
:100AE000F3028091F202813009F084C01092F20288
:100AF0000E9432036B017C018091F3028093BB0062
:100B000080911A0390911B03A0911C03B0911D03C7
:100B1000892B8A2B8B2BA1F00E94320300911A03A0
:100B200010911B0320911C0330911D036C197D094A
:100B30008E099F09061717072807390708F442C0CE
:100B40008091BC0083FDD8CF85EC8093BC000E94CF
:100B500032036B017C0180911803823009F44CC090
:100B60008091F6028F3F09F469C08091F6028032CD
:100B700009F466C08091F602803309F463C084E012
:100B800026C080911A0390911B03A0911C03B09181
:100B90001D03892B8A2B8B2B09F483CF0E943203F0
:100BA00000911A0310911B0320911C0330911D0327
:100BB0006C197D098E099F09061717072807390741
:100BC00008F06FCF809119030E94CE0385E0109248
:100BD000CF021092CE021092D102DF91CF911F91DD
:100BE0000F91FF90EF90DF90CF9008959D9191939A
:100BF0008F5F6DCF85EEA9CF80911A0390911B0373
:100C0000A0911C03B0911D03892B8A2B8B2B09F417
:100C1000A2CF0E94320300911A0310911B0320916E
:100C20001C0330911D036C197D098E099F0906175D
:100C300017072807390708F08ECFC4CF80E0C7CF49
:100C400082E0C5CF83E0C3CF90E080E008950895AF
:100C50008EBD00000DB407FEFDCF8EB508958CBD8E
:100C60009DBD0895DC01ED91FC910190F081E02D96
:100C700009940F931F93FC0100E012E12AE730E092
:100C800090E0401751076207730740F436952795A7
:100C9000179507959F5F9630A1F797E0292F286B4E
:100CA000269520839095917091831F910F910895BF
:100CB000CF92DF92EF92FF92CF93C62FBC01990F94
:100CC000880B990B0E9476146B017C016C2F70E0ED
:100CD000719561957109072E000C880B990B0E9484
:100CE00076149B01AC0160E070E080E090E40E942B
:100CF000C7159B01AC01C701B6010E945A15CF91DF
:100D0000FF90EF90DF90CF900895FB0101900020BD
:100D1000E9F73197AF01461B570BDC01ED91FC91D0
:100D20000280F381E02D09948F929F92AF92BF923F
:100D3000EF92FF920F931F93CF93DF93CDB7DEB760
:100D4000A1970FB6F894DEBF0FBECDBF7C01FA01AC
:100D5000CB0119A2223008F42AE08E010F5D1F4F4B
:100D6000822E912CB12CA12CBF01A50194010E94CF
:100D70006E17F901CA016A300CF5605DD8016E93F7
:100D80008D01232B242B252B79F790E080E0109701
:100D900021F0BD01C7010E948506A1960FB6F89407
:100DA000DEBF0FBECDBFDF91CF911F910F91FF909E
:100DB000EF90BF90AF909F908F900895695CDECFC9
:100DC000242F462F50E070E060E00C94940664E31A
:100DD00071E00C948506CF93DF93BC018EE193E024
:100DE0000E948506EC018EE193E00E94E7068C0FDD
:100DF0009D1FDF91CF910895CF93DF9340E150E0A5
:100E0000682F8EE193E00E94E006EC018EE193E012
:100E10000E94E7068C0F9D1FDF91CF9108950F93DD
:100E20001F93CF93DF93EC010E9481018C01CE01CF
:100E30000E94E706800F911FDF91CF911F910F91C4
:100E400008951F93CF93DF93E091C703F091C803F8
:100E50004091CF036091CD037091CE032091CC03DC
:100E60008091CC039091CD03A091CE03B091CF039C
:100E70008093BA049093BB04A093BC04B093BD04C8
:100E80009091D203D091D4038091D0033091C903C3
:100E90003530B1F59091CB03322F292F3093A70431
:100EA0002093A6047093A9046093A804982F842F1C
:100EB0009093AB048093AA048091D1039091D203C4
:100EC0009093AD048093AC048091D3039091D403AC
:100ED0009093B3048093B2048091D5039091D6038C
:100EE0009093B5048093B4048091D7039091D80374
:100EF0009093B7048093B604DF91CF911F9108952A
:100F0000FF773497C091D50393706091D4037091AB
:100F1000D5034091D6035091D7032091D803309147
:100F2000D903EF30F105FCF0A091DA03B091DB03B7
:100F30007197DCF0E091DC03F091DD038130C1F4C6
:100F4000892F90E090938D0480938C047093870494
:100F500060938604509389044093880430938B04F3
:100F600020938A04C9CFB0E0A0E0F0E0E0E0E6CF53
:100F7000843099F4892F90E09093950480939404A1
:100F800070938F0460938E04509391044093900467
:100F90003093930420939204AFCF823099F4892F39
:100FA00090E090939D0480939C04709397046093C9
:100FB0009604509399044093980430939B04209393
:100FC0009A049ACF833099F4892F90E09093A504E6
:100FD0008093A40470939F0460939E045093A10493
:100FE0004093A0043093A3042093A20485CF8530BE
:100FF00031F0883021F018ED180F1230D8F4892F15
:1010000090E09093B1048093B0047093A704609330
:10101000A6045093A9044093A8043093AB042093F2
:10102000AA04B093AD04A093AC04F093AF04E09392
:10103000AE0462CF813129F43093B9042093B8040F
:101040005BCF833119F4D093BE0456CF8E3199F41F
:10105000C093BF04A6EDB3E090E080E02D91E09155
:10106000C004F091C104E80FF91F20830196893074
:101070009105A1F741CF843169F47093CD04609359
:10108000CC045093CF044093CE043093D1042093EA
:10109000D00432CF853169F47093D3046093D204C5
:1010A0005093D5044093D4043093D7042093D604AE
:1010B00023CF863169F47093D9046093D804509398
:1010C000DB044093DA043093DD042093DC0414CF76
:1010D000813F09F011CF80917B04882341F068E9BA
:1010E00072E08091790490917A040E940F078091B8
:1010F000D203873009F000CF80917B04882341F030
:1011000063E872E08091790490917A040E940F075D
:101110008091D5038093C204EFCECF93C4E6809133
:10112000760490917704DC01ED91FC910084F185C7
:10113000E02D099518161906BCF061E070E080E01A
:1011400090E00E945703C15051F780917B0488239F
:1011500049F067E772E08091790490917A040E94E7
:101160000F0780E0CF91089581E0FCCFCF92DF920E
:10117000EF92FF920F931F93CF93DF9300D0CDB7E1
:10118000DEB7082FF62E14E0160F809176049091AA
:101190007704009709F073C02DE7E22E8091840454
:1011A0000E94DB02892B21F180917B04882341F08E
:1011B0006EE672E08091790490917A040E940F07A4
:1011C00061E070E080E090E00E945703EA94E11053
:1011D000E5CF90917B04992309F445C06EE572E058
:1011E0008091790490917A040E940F0790E03BC0AF
:1011F00040917E0450917F0460918004709181043D
:10120000CE0101960E94390689819A810E942F069B
:1012100060E0809182040E940403812F0E942806CE
:1012200080E00E942806802F0E942806A02FB0E0B0
:10123000A55BBB4F8C9191E0980F9C930E94280670
:101240009BECC92E93E0D92E10E0D6018D916D0153
:101250000E9428061F5FF112F8CF61E0809182049E
:101260000E94040391E0892F0F900F90DF91CF919E
:101270001F910F91FF90EF90DF90CF9008952091F4
:10128000780431E03093D1022093D0021092CF0243
:101290001092CE02612F70E00E94320670E060E092
:1012A00080917604909177040E94320680917604B2
:1012B00090917704DC01ED91FC910190F081E02D9B
:1012C000602F09958091760490917704DC01ED916F
:1012D000FC910190F081E02DA02FB0E0A55BBB4F09
:1012E0006C9121E0260F2C9309958BECC82E83E09E
:1012F000D82E10E08091760490917704F6016191E8
:101300006F01DC01ED91FC910190F081E02D0995D8
:101310001F5FF112EFCF80917604909177040E94C5
:101320003D0591E0882309F49ECF60CF8F929F9274
:10133000BF92CF92DF92EF92FF920F931F93CF93C2
:10134000DF9300D0CDB7DEB780917604909177041B
:10135000892B09F067C1809184040E94DB02019708
:1013600009F46BC040917E0450917F046091800429
:1013700070918104CE0101960E94390689819A817B
:101380000E942F0660E0809182040E94040380E0A6
:101390000E942806082F80E00E942806182F80E06F
:1013A0000E942806F82E80E00E9428060093C703BA
:1013B0001093C803F092C9038093CA03C8019F77B2
:1013C0000097E9F580917B048823B9F166E572E026
:1013D0008091790490917A040E94810107EC13E0D6
:1013E0005BECE52E53E0F52E64E572E08091790424
:1013F00090917A040E948101D8018D918D018031F4
:1014000040F462E572E08091790490917A040E9440
:10141000810140E150E0F8013197608180917904C9
:1014200090917A040E94E006E016F106E9F68091B8
:10143000790490917A040E94E706F12C22C08C0175
:1014400004501109F12CE12CE016F10678F48FEF2D
:101450000E942806B0E8EB16F10420F4F701E953E6
:10146000FC4F8483EFEFEE1AFE0AEECF61E080912D
:1014700082040E940403F0907B04F11011C0FF2449
:10148000F3948F2D0F900F90DF91CF911F910F91BB
:10149000FF90EF90DF90CF90BF909F908F90089536
:1014A0000091C7031091C8036AE472E08091790447
:1014B00090917A040E94810147ECC42E43E0D42E1F
:1014C00068E472E08091790490917A040E9481012D
:1014D000D6018D916D01803140F466E472E0809117
:1014E000790490917A040E94810140E150E0F60174
:1014F000319760818091790490917A040E94E0068E
:10150000BBECCB16B3E0DB06D9F63CEFB32EB00E46
:10151000E8E2EB1510F428E2B22E6FE372E080915E
:10152000790490917A040E9481019BECC92E93E08A
:10153000D92EE12C8091790490917A04BE1401F1A6
:101540006DE372E00E9481014601D6018C918031E9
:1015500040F46BE372E08091790490917A040E94E8
:101560008101BFEFCB1ADB0A40E150E0F40160815A
:101570008091790490917A040E94E006E394DACF96
:1015800017FF05C066E272E00E940F071F776DE14A
:1015900072E08091790490917A040E948101A801FF
:1015A00070E060E02AE08091790490917A040E94D2
:1015B000940663E172E08091790490917A040E942C
:1015C00081016091C9038091790490917A0461113D
:1015D0000BC06BE072E00E948101809179049091D0
:1015E0007A040E94E7064DCF613019F460E072E0A2
:1015F000F2CF623019F468EF71E0EDCF633019F487
:101600006AEE71E0E8CF643019F46EED71E0E3CF7B
:10161000653019F462ED71E0DECF4AE050E00E94DF
:10162000E006DBCF64E0809178040E94EF03109223
:10163000CD028093CC020E948D08882309F4FDCE50
:101640008091760490917704DC01ED91FC91028405
:10165000F385E02D0995F82E80917604909177041A
:10166000DC01ED91FC910284F385E02D0995E82ED3
:101670008091760490917704DC01ED91FC910284D5
:10168000F385E02D0995182F8091760490917704C9
:10169000DC01ED91FC910284F385E02D0995F09237
:1016A000C703E092C8031093C9038093CA0300E004
:1016B0001E2D0F291F770115110509F4BECE045008
:1016C0001109D12CC12C0115110509F4D8CE7801CE
:1016D0000D31110518F08CE1E82EF12C64E06E0D4F
:1016E000809178040E94EF031092CD028093CC0287
:1016F0000E948D08882309F4C2CE809176049091CF
:101700007704DC01ED91FC910284F385E02D0995CD
:101710008091760490917704DC01ED91FC91028434
:10172000F385E02D09958091760490917704DC0192
:10173000ED91FC910284F385E02D0995809176046A
:1017400090917704DC01ED91FC910284F385E02D0A
:101750000995B12CBE141F04C0F4809176049091B9
:101760007704DC01ED91FC910284F385E02D09956D
:10177000B0E8CB16D10438F4F601E953FC4F84836A
:10178000F60131966F01B394E5CF0E191F099BCF77
:10179000CF93809184048F3F49F40E949609C82F0B
:1017A000811109C0C0E08C2FCF9108950E94DB0207
:1017B000019799F7F7CF8091C903833039F480916D
:1017C000CB038B3F79F70E942107EDCF8230A1F543
:1017D0008091CB03813FC9F48091CD03873019F705
:1017E0008091D0038093C2048091D1038093C3047D
:1017F0008091D2038093C4048091D3038093C50465
:101800008091D4038093C604CECF8C3F61F6809143
:10181000CC038093C7048091D0039091D103A09111
:10182000D203B091D3038093C8049093C904A093CA
:10183000CA04B093CB04B7CF853009F0B3CFC3CF80
:1018400085ED8093BC0080911A0390911B03A091B9
:101850001C03B0911D030796A11DB11D23E0B69591
:10186000A795979587952A95D1F72091BC0024FDDF
:1018700003C010921803089540911A0350911B035E
:1018800060911C0370911D03452B462B472B69F378
:101890000097A105B10541F025E32A95F1F7000075
:1018A0000197A109B109E1CF809119030C94CE03EE
:1018B0001F920F920FB60F9211242F933F934F93C5
:1018C0005F936F937F938F939F93AF93BF93EF93A8
:1018D000FF938EE193E00E942302FF91EF91BF916D
:1018E000AF919F918F917F916F915F914F913F91B8
:1018F0002F910F900FBE0F901F9018951F920F926F
:101900000FB60F9211242F938F939F93EF93FF9312
:10191000E0912E03F0912F038081E0913403F09148
:10192000350382FD1BC09081809137038F5F8F73D9
:1019300020913803821741F0E0913703F0E0E25E36
:10194000FC4F958F80933703FF91EF919F918F917B
:101950002F910F900FBE0F901F9018958081F4CF9C
:101960001F920F920FB60F9211242F933F938F93D4
:101970009F93AF93BF938091B9029091BA02A091C7
:10198000BB02B091BC023091B80223E0230F2D3787
:1019900058F50196A11DB11D2093B8028093B9029C
:1019A0009093BA02A093BB02B093BC028091BD0297
:1019B0009091BE02A091BF02B091C0020196A11DFC
:1019C000B11D8093BD029093BE02A093BF02B0935D
:1019D000C002BF91AF919F918F913F912F910F9036
:1019E0000FBE0F901F90189526E8230F0296A11D99
:1019F000B11DD2CF1F920F920FB60F9211242F93C9
:101A00003F934F935F936F937F938F939F93AF9386
:101A1000BF93EF93FF938091B900887F803609F4DC
:101A20004AC0F0F5883209F4A7C018F5803109F4EE
:101A30009BC0B8F4882309F4F9C0883009F494C035
:101A4000FF91EF91BF91AF919F918F917F916F9196
:101A50005F914F913F912F910F900FBE0F901F906C
:101A60001895883109F488C0803251F78093F602C6
:101A700014C0803409F49DC040F48033B9F3883336
:101A8000F9F68093F60285ECB0C0803509F485C084
:101A9000883509F496C0883499F60E94200CD0CF7E
:101AA000883909F48CC038F5883729F050F4883625
:101AB00011F0803729F683E0809318031092B70263
:101AC00057C0883809F47BC0803919F0803809F094
:101AD000B7CF8091B702803208F071C0E091B702B1
:101AE00081E08E0F8093B7028091BB00F0E0E95651
:101AF000FD4F80833DC0803B39F0E0F4803A09F42B
:101B000079C0883A09F09CCF84E080931803109242
:101B1000960210929502E091C302F091C4020995D9
:101B20008091950281110FC081E0809395021092FF
:101B3000750209C0803C09F4A6CF883C09F4A3CF04
:101B4000883B09F07DCFE091960281E08E0F809373
:101B50009602F0E0EB58FD4F80818093BB0090919E
:101B600096028091950229C08091F3028093BB0078
:101B700085EC8093BC0064CF9091F5028091F402D3
:101B8000981758F5E091F50281E08E0F8093F502E9
:101B9000F0E0EE52FD4F8081E9CFE091F50281E067
:101BA0008E0F8093F5028091BB00F0E0EE52FD4F66
:101BB00080839091F5028091F4029817C8F285E82D
:101BC000D8CFE091F50281E08E0F8093F5028091ED
:101BD000BB00F0E0EE52FD4F80838091F70281114F
:101BE0005CCF81E08093F20284EA8093BC00109283
:101BF000180326CF85EC8093BC00109218038091C7
:101C0000B702803230F4E091B702F0E0E956FD4FC0
:101C100010826091B70270E0E091C102F091C202BF
:101C200087E992E009951092B7020ACF1092F60266
:101C300034CFEEE1F3E01382128288EE93E0A0E06D
:101C4000B0E084839583A683B78324E131E03183B8
:101C5000208325EC30E03587248724EC30E037877B
:101C6000268720EC30E0318B208B21EC30E0338B69
:101C7000228B22EC30E0358B248B26EC30E0378B46
:101C8000268B118E128E138E148EEBEBF3E01382E3
:101C9000128284839583A683B78386E291E0918341
:101CA0008083EBE4F4E086E0DF011D928A95E9F79A
:101CB0001092510410927B048EE090E09093DF0428
:101CC0008093DE048CE090E09093E1048093E00444
:101CD00088E090E09093E3048093E2049093E5041D
:101CE0008093E40489E090E09093E7048093E60415
:101CF00084E090E09093E9048093E8048AE090E027
:101D00009093EB048093EA040895CF93DF93CDB7CB
:101D1000DEB760970FB6F894DEBF0FBECDBF7894E4
:101D200084B5826084BD84B5816084BD85B58260E0
:101D300085BD85B5816085BD80916E008160809391
:101D40006E001092810080918100826080938100FA
:101D5000809181008160809381008091800081600A
:101D6000809380008091B10084608093B100809165
:101D7000B00081608093B00080917A00846080938D
:101D80007A0080917A00826080937A0080917A0054
:101D9000816080937A0080917A00806880937A00D5
:101DA0001092C100E0912E03F0912F0382E0808316
:101DB000E0912A03F0912B031082E0912C03F09123
:101DC0002D0383E3808310923603E0913203F09178
:101DD000330386E08083E0913003F091310380810A
:101DE00080618083E0913003F091310380818860CD
:101DF0008083E0913003F09131038081806880839B
:101E0000E0913003F091310380818F7D80831092C7
:101E1000CD021092CC021092CF021092CE020E94FC
:101E2000B0038FE791E09093C4028093C30280E8EF
:101E300091E09093C2028093C10287E391E00E94F7
:101E4000EB0621E02093D10280E68093D00210922D
:101E5000CF021092CE028BEB93E00E943D058111E0
:101E60001FC28BE491E00E94EB0665E571E08EE114
:101E700093E00E94850620E140E650E060E070E0DB
:101E80008EE193E00E9494068EE193E00E94E706C3
:101E900088E691E00E94EB0681E08093CB0280917E
:101EA000CB02811177C1EEE0F1E0FA83E98390E1A2
:101EB000A92E91E0B92E11E044244A9409EF2CE0B8
:101EC000922E3DEF832E48E0742E58E1652E63E795
:101ED000562EE981FA818191FA83E9838093C502C4
:101EE00069E971E08EE193E00E9485068091C50268
:101EF0000E94FC068091C5021093D1028093D0020B
:101F00001092CF021092CE028BEB93E00E943D051F
:101F10008111DAC18BE491E00E94EB0663EB71E082
:101F20008EE193E00E9485068091C5020E94FC0626
:101F300086EC91E00E94EB068091C50280937804C4
:101F40008BEB93E090937704809376044092840423
:101F50001093CB0361E081E00E94B60862E370E079
:101F600080E090E00E9457030E9496098111FCCF07
:101F700062E370E080E090E00E9457030E949609BF
:101F80008111FCCF0093CB031092CC0362E082E07E
:101F90000E94B6080E949609882309F48AC180919C
:101FA000CB03883F09F085C180917B04882309F425
:101FB00070C06DEB71E08091790490917A040E9479
:101FC000810140E150E06091CD03809179049091CE
:101FD0007A040E94E00667EA71E0809179049091AA
:101FE0007A040E94810140E150E06091CE0380912B
:101FF000790490917A040E94E006C090CF03D090BB
:10200000D003E090D103F090D20363E971E08091B6
:10201000790490917A040E94810120E1B701A60120
:102020008091790490917A040E949406C090D30321
:10203000D090D403E090D503F090D6036EE771E022
:102040008091790490917A040E94810120E1B70186
:10205000A6018091790490917A040E949406E09000
:10206000D703F090D80368E671E0809179049091ED
:102070007A040E948101C0907904D0907A04A7016B
:1020800070E060E020E1C6010E949406C6010E9453
:10209000E7069092B8008092CB037092CC03109226
:1020A000CD031092CE031092CF036092D0035092D2
:1020B000D1031093D2031092D3031092D403109241
:1020C000D5031092D6031092D7031092D803109222
:1020D000D9031092DA031092DB0361E182E00E94DF
:1020E000B60888EEE82E83E0F82EF1E0EF1AF1084A
:1020F00009F46BC20E94C80B8823B9F38091CB030B
:102100008C3F99F76091C8047091C9048091CA040A
:102110009091CB042091C704283039F46831E3E76B
:102120007E07E1E08E07910591F128EE33E040E073
:1021300050E00E94901769017A0161ED71E08EE133
:1021400093E00E9485068091C7040E94FC0660EE21
:1021500071E08EE193E00E9485062AE0B701A601B6
:10216000F7FE0DC06DE28EE193E00E944502442728
:102170005527BA014C195D096E097F092AE08EE1E5
:1021800093E00E94940683EF91E00E94EB0681E0C9
:102190008093CA0200E010E08091CB02882309F40A
:1021A0009AC091E09093D102E0E6E093D0021092C1
:1021B000CF021092CE0262E070E08BEB93E00E94BF
:1021C00032068BEB93E00E943D0562E080E60E94C0
:1021D000EF031092CD028093CC028230F0F38BEBB0
:1021E00093E00E94CE04809306018BEB93E00E9463
:1021F000CE0480930501F1E0F093D10220E6209314
:10220000D0021092CF021092CE026CE170E08BEB04
:1022100093E00E9432068BEB93E00E943D0562E062
:1022200080E60E94EF031092CD028093CC028230B0
:10223000F0F38BEB93E00E94CE04809308018BEBCC
:1022400093E00E94CE0480930701E2E0F1E090E089
:1022500080E02191820F911D21E0ED30F207C9F756
:1022600080930D014EE050E060E071E08EE193E07C
:102270000E94A5018EE193E00E9492026FE570E05A
:1022800080E090E00E9457030115110509F484CF06
:102290000E940F02882309F47FCF0E9400007CCFA8
:1022A00083E791E00E94EB068DE791E00E94EB0648
:1022B000F6CD87EF91E00E94EB0689819A81A816FE
:1022C000B90609F006CE66CF83E791E00E94EB06DF
:1022D00081E292E0F0CF8091CA02882309F4B5CF61
:1022E0000E94C80B882309F4B0CFF090DE046F2D54
:1022F0008091AC049091AD040E9458062B013C01E2
:102300006F2D8091A6049091A7040E9458064B015E
:102310005C016F2D8091A8049091A9040E94580639
:102320006D837E838F8398876F2D8091AA0490910F
:10233000AB040E94580669837A838B839C83A30134
:102340009201C301B2010E945A156B017C01A501E3
:102350009401C501B4010E945A159B01AC01C7014B
:10236000B6010E94E9126B017C012D813E814F81F3
:102370005885CA01B9010E945A159B01AC01C701D9
:10238000B6010E94E9126B017C0129813A814B81DF
:102390005C81CA01B9010E945A159B01AC01C701B9
:1023A000B6010E94E9120E941D166B017C01AC016E
:1023B0009B01C301B2010E94CC1369877A878B8786
:1023C0009C87A7019601C501B4010E94CC132B0183
:1023D0003C01A70196016D817E818F8198850E94C5
:1023E000CC134B015C01A701960169817A818B8135
:1023F0009C810E94CC1369837A838B839C83A50183
:102400009401C501B4010E945A156D837E838F83A8
:10241000988729813A814B815C81CA01B9010E9468
:102420005A152D813E814F8158850E94E9129B01EA
:10243000AC010E94E9129B01AC0160E070E080E811
:102440009FE30E94E8126D877E878F87988B298192
:102450003A814B815C8169857A858B859C850E9458
:102460005A156B017C01A5019401C301B2010E94C0
:102470005A159B01AC01C701B6010E94E9129B01EC
:10248000AC010E94E9122D853E854F8558890E9436
:10249000681321EE3EE245E652E40E945A156B01B4
:1024A0007C01DC01CB01B0588093C6029093C70237
:1024B000A093C802B093C90220E030E0A901C7018F
:1024C000B6010E944D151816D4F420E030E044E324
:1024D00053E4C701B6010E94C713181684F0A70180
:1024E000960160E070E084EB93E40E94E812609350
:1024F000C6027093C7028093C8029093C902A301D9
:102500009201C301B2010E945A152D813E814F8173
:1025100058850E94E9129B01AC010E94E9129B01BF
:10252000AC0160E070E080E89FE30E94E8126B017C
:102530007C01A301920169857A858B859C850E9427
:102540005A152B013C0129813A814B815C81C501DF
:10255000B4010E945A159B01AC01C301B2010E9453
:10256000E9129B01AC010E94E912A70196010E94A9
:1025700068134B015C0120E030E040E251E46091DF
:10258000C6027091C7028091C8029091C9020E9450
:102590005A150E943E147B0121EE3EE245E652E4CC
:1025A000C501B4010E945A1520E030E040E251E438
:1025B0000E945A150E943E14E0920501F092060115
:1025C000609307017093080140CE8FE392E073CED1
:1025D0005058BB27AA270E9400130C9413150E9481
:1025E000051538F00E940C1520F039F49F3F19F4BE
:1025F00026F40C94DB140EF4E095E7FB0C94D51450
:10260000E92F0E94241558F3BA176207730784074D
:10261000950720F079F4A6F50C9446150EF4E09594
:102620000B2EBA2FA02D0B01B90190010C01CA018C
:10263000A0011124FF27591B99F0593F50F4503E37
:1026400068F11A16F040A22F232F342F4427585F29
:10265000F3CF469537952795A795F0405395C9F741
:102660007EF41F16BA0B620B730B840BBAF09150F9
:10267000A1F0FF0FBB1F661F771F881FC2F70EC098
:10268000BA0F621F731F841F48F48795779567956B
:10269000B795F7959E3F08F0B0CF9395880F08F057
:1026A0009927EE0F9795879508950E94051560F07C
:1026B00080E891E009F49EEF0E940C1528F040E8B4
:1026C00051E071F45EEF0CC00C94DB140C944615D1
:1026D000E92FE0780E94241540F3092E052AB1F372
:1026E000261737074807590738F00E2E07F8E02558
:1026F00069F0E025E0640AC0EF6307F8009407FA88
:10270000DB01B9019D01DC01CA01AD01EF930E941B
:10271000E3130E9413150E9498135F91552339F01B
:102720002BED3FE049E450FD49EC0C94E91208958B
:10273000DF93DD27B92FBF7740E85FE31616170652
:1027400048075B0718F4D92F0E9452159F938F9367
:102750007F936F930E945D16E8E6F0E00E94DE141E
:102760000E9413152F913F914F915F910E946D151B
:10277000DD2351F09058A2EA2AED3FE049EC5FE3F7
:10278000D0785D270E940013DF910C9413150E94EE
:10279000B11408F481E008950E94E0130C9413151D
:1027A0000E940C1558F00E94051540F029F45F3F77
:1027B00029F00C94D51451110C9447150C94DB148A
:1027C0000E94241568F39923B1F3552391F3951BC7
:1027D000550BBB27AA2762177307840738F09F5F42
:1027E0005F4F220F331F441FAA1FA9F335D00E2EAF
:1027F0003AF0E0E832D091505040E695001CCAF71C
:102800002BD0FE2F29D0660F771F881FBB1F2617DE
:1028100037074807AB07B0E809F0BB0B802DBF01B5
:10282000FF2793585F4F3AF09E3F510578F00C9484
:10283000D5140C9447155F3FE4F3983ED4F3869586
:1028400077956795B795F7959F5FC9F7880F911DA5
:102850009695879597F90895E1E0660F771F881F91
:10286000BB1F621773078407BA0720F0621B730B44
:10287000840BBA0BEE1F88F7E09508950E9445146B
:102880006894B1110C94471508950E942C1588F096
:102890009F5798F0B92F9927B751B0F0E1F0660F24
:1028A000771F881F991F1AF0BA95C9F714C0B13065
:1028B00091F00E944615B1E008950C944615672FDB
:1028C000782F8827B85F39F0B93FCCF38695779594
:1028D0006795B395D9F73EF490958095709561957D
:1028E0007F4F8F4F9F4F0895E89409C097FB3EF4A8
:1028F00090958095709561957F4F8F4F9F4F99234D
:10290000A9F0F92F96E9BB279395F69587957795CA
:102910006795B795F111F8CFFAF4BB0F11F460FF8A
:102920001BC06F5F7F4F8F4F9F4F16C0882311F0E2
:1029300096E911C0772321F09EE8872F762F05C0F6
:10294000662371F096E8862F70E060E02AF09A9591
:10295000660F771F881FDAF7880F9695879597F986
:102960000895990F0008550FAA0BE0E8FEEF161620
:102970001706E807F907C0F012161306E407F50773
:1029800098F0621B730B840B950B39F40A2661F0E7
:10299000232B242B252B21F408950A2609F4A1408A
:1029A000A6958FEF811D811D089597F99F6780E897
:1029B00070E060E008959FEF80EC0895DF93CF937F
:1029C0001F930F93FF92EF92DF927B018C0168942B
:1029D00006C0DA2EEF010E946D15FE01E894A59164
:1029E0002591359145915591A6F3EF010E94001371
:1029F000FE019701A801DA9469F7DF90EF90FF904C
:102A00000F911F91CF91DF91089500240A9416161B
:102A1000170618060906089500240A9412161306CC
:102A2000140605060895092E0394000C11F488235A
:102A300052F0BB0F40F4BF2B11F460FF04C06F5F76
:102A40007F4F8F4F9F4F089557FD9058440F551F4C
:102A500059F05F3F71F04795880F97FB991F61F020
:102A60009F3F79F087950895121613061406551F97
:102A7000F2CF4695F1DF08C0161617061806991F03
:102A8000F1CF86957105610508940895E894BB27F8
:102A900066277727CB0197F908950E94B11408F4AF
:102AA0008FEF08959B01AC0160E070E080E89FE348
:102AB0000C94CC130E946D150C9413150E940515EF
:102AC00038F00E940C1520F0952311F00C94D514C9
:102AD0000C94DB1411240C9447150E94241570F3F8
:102AE000959FC1F3950F50E0551F629FF001729FB3
:102AF000BB27F00DB11D639FAA27F00DB11DAA1FC2
:102B0000649F6627B00DA11D661F829F2227B00D0E
:102B1000A11D621F739FB00DA11D621F839FA00D99
:102B2000611D221F749F3327A00D611D231F849FE9
:102B3000600D211D822F762F6A2F11249F57504040
:102B40009AF0F1F088234AF0EE0FFF1FBB1F661FBB
:102B5000771F881F91505040A9F79E3F510580F084
:102B60000C94D5140C9447155F3FE4F3983ED4F3CE
:102B7000869577956795B795F795E7959F5FC1F728
:102B8000FE2B880F911D9695879597F90895FA0168
:102B9000EE0FFF1F309621053105A1F1611571057A
:102BA00061F48038BFE39B0749F168949038810550
:102BB00061F08038BFEF9B0741F099234AF5FF3F52
:102BC000E1053105210519F1E8940894E795D9014B
:102BD000AA2329F4AB2FBE2FF85FD0F310C0FF5FFC
:102BE00070F4A695E0F7F73950F019F0FF3A38F491
:102BF0009F779F930DD00F9007FC9058089546F053
:102C00000C94DB1460E070E080E89FE308954FE7E8
:102C10009F775F934F933F932F930E94F2162F91CC
:102C20003F914F915F910E945A150C94691619F4C7
:102C300016F40C94DB140C949B160E942C15B8F31C
:102C40009923C9F3B6F39F57550B87FF0E94A91626
:102C50000024A0E640EA900180585695979528F404
:102C6000805C660F771F881F20F0261737074807FC
:102C700030F4621B730B840B202931294A2BA69553
:102C800017940794202531254A2758F7660F771F98
:102C9000881F20F026173707480730F4620B730BA4
:102CA000840B200D311D411DA09581F7B901842FA2
:102CB0009158880F9695879508959B01AC010C94C7
:102CC0005A1529F416F00C94D5140C9446150C944E
:102CD000DB140E942C15A8F39638A0F707F80F9282
:102CE000E8942BE33AEA48EB5FE70E9470150F92F5
:102CF0000F920F924DB75EB70F920E943A17E5E917
:102D0000F0E00E94DE144F915F91EF91FF91E59505
:102D1000EE1FFF1F49F0FE57E0684427EE0F441FE7
:102D2000FA95E1F74195550B0E94B4160F9007FEF6
:102D30000C94521508959F3F31F0915020F48795DF
:102D400077956795B795880F911D9695879597F913
:102D5000089591505040660F771F881FD2F708954D
:102D60000C94D5140C949B160E942C15D8F399231F
:102D7000C9F3940F511DA3F39150504094F059F0B2
:102D8000882332F0660F771F881F91505040C1F79B
:102D90009E3F51052CF7880F911D9695879597F9C1
:102DA00008955F3FACF0983E9CF0BB2786957795E1
:102DB0006795B79508F4B1609395C1F7BB0F58F7C5
:102DC00011F460FFE8CF6F5F7F4F8F4F9F4FE3CFCE
:102DD0000C94471516F00C949B160C94DB14689415
:102DE0000C94D5140E942C15A8F39923C1F3AEF3CB
:102DF000DF93CF931F930F93FF92C92FDD27882373
:102E00002AF02197660F771F881FDAF720E030E05D
:102E100040E85FEB9FE3883920F0803E38F0219650
:102E20008F770E94E912EDEBF0E004C00E94E912F6
:102E3000EAEEF0E00E94DE148B01BE01EC01FB2EF5
:102E40006F5771097595771F880B990B0E9476143F
:102E500028E132E741E35FE30E946D15AF2D980151
:102E6000AE01FF900F911F91CF91DF910E9400134F
:102E70000C941315FA01DC01AA0FBB1F9B01AC01D6
:102E8000BF5728F4222733274427507820C0B75152
:102E900090F4AB2F0024469537952795011CA395F8
:102EA000D2F3002071F0220F331F441FB395DAF3E1
:102EB0000ED00C94E81261307105A0E88A07B9467B
:102EC00030F49B01AC0166277727882790783096ED
:102ED00021F020833183428353830895A1E21A2E87
:102EE000AA1BBB1BFD010DC0AA1FBB1FEE1FFF1FAE
:102EF000A217B307E407F50720F0A21BB30BE40BFE
:102F0000F50B661F771F881F991F1A9469F7609544
:102F10007095809590959B01AC01BD01CF010895FE
:102F2000052E97FB1EF400940E94A71757FD07D0AB
:102F30000E946E1707FC03D04EF40C94A71750950F
:102F40004095309521953F4F4F4F5F4F0895909595
:102F50008095709561957F4F8F4F9F4F0895EE0F2D
:0E2F6000FF1F0590F491E02D0994F894FFCF27
:102F6E0080817DD30800000000000000000F4A4B56
:102F7E00000000004502A501D20192020302E10108
:102F8E00F501000000000E05E1042406BE047801E0
:102F9E00CE04BF040D0A00436865636B696E67203B
:102FAE00666F7220434D50533134004572726F720A
:102FBE00203D203000434D50533134204144445283
:102FCE004553733A20307800434D50533134204FDF
:102FDE006B2E004572726F72203D203400434D50AF
:102FEE0053206E6F7420436F6E6E6563746564203C
:102FFE006F7220466F756E64000D0A436865636BD1
:10300E00696E6720666F7220424E4F303858206FBF
:10301E006E2000424E4F30385820414444524553A2
:10302E00733A20307800424E4F303858204F6B2E76
:10303E00005265706F7274204944203A2030780037
:10304E005265706F727420696E74657276616C2051
:10305E003A2000206D7300424E4F303830206E6F94
:10306E007420646574656374656420617420676997
:10307E0076656E2049324320616464726573732EE7
:10308E0000424E4F303858206E6F7420436F6E6E74
:10309E006563746564206F7220466F756E640042BE
:1030AE004E4F30387820696E6974206661696C7392
:0430BE0021210000CC
:00000001FF
