:100000000C945D000C949C040C9475040C94850075
:100010000C9485000C9485000C9485000C9485004C
:100020000C9485000C9485000C9485000C9485003C
:100030000C9485000C9485000C9485000C9485002C
:100040000C942B040C9485000C94F9030C94D303AA
:100050000C9485000C9485000C9485000C9485000C
:100060000C9485000C94850000000008000201003B
:100070000003040700000000000000000000000072
:10008000250028002B0000000000240027002A0083
:10009000040404040404040402020202020203032E
:1000A0000303030301020408102040800102040836
:1000B0001020010204081020C30411241FBECFEF3A
:1000C000D8E0DEBFCDBF23E0A8E5B1E001C01D92BE
:1000D000A831B207E1F711E0A0E0B1E0EAEAF0E20E
:1000E00002C005900D92A835B107D9F710E0CDE513
:1000F000D0E004C02197FE010E944810CC35D10702
:10010000C9F70E9402050C9453100C940000E3E31D
:10011000F2E0A089B18982E08C93A485B5851C9218
:10012000A685B78583E38C93108EA489B58986E074
:100130008C93A289B3898C9180618C93A289B389B5
:100140008C9188608C93A289B3898C9180688C9300
:100150000288F389E02D80818F7D8083089590E06F
:10016000FC01EC55FF4F2491FC01E057FF4F8491B7
:10017000882399F090E0880F991FFC01EA57FF4F00
:10018000A591B491FC01E458FF4F859194918FB7EC
:10019000F894EC91E22BEC938FBF0895E2E7F0E046
:1001A0002491EEEAF0E09491EAE9F0E0E491EE23A4
:1001B00009F43BC0222339F1233091F038F4213087
:1001C000A9F0223001F524B52F7D12C0273091F01F
:1001D0002830A1F02430B9F4209180002F7D03C095
:1001E000209180002F77209380000DC024B52F77B9
:1001F00024BD09C02091B0002F7703C02091B0002A
:100200002F7D2093B000F0E0EE0FFF1FE458FF4F6A
:10021000A591B4912FB7F894EC91811103C09095FA
:100220009E2301C09E2B9C932FBF0895CF93DF93F5
:10023000EC018AE00E94AF00209711F480E004C036
:10024000CF3FD10529F481E0DF91CF910C94CE000E
:10025000E2E7F0E0E491E330F9F048F4E130B9F09E
:10026000E230A1F584B5806284BDC8BD34C0E730FA
:10027000E9F0E83019F1E43049F5809180008062BE
:1002800080938000D0938B00C0938A0024C084B5F3
:10029000806884BDC7BD1FC0809180008068809346
:1002A0008000D0938900C093880015C08091B00071
:1002B00080688093B000C093B3000DC08091B000FF
:1002C00080628093B000C093B40005C0C038D105EF
:1002D0000CF0B9CFB3CFDF91CF910895CF92DF92D9
:1002E000EF92FF920F931F93CF93DF936C017A01EC
:1002F0008B01C0E0D0E0CE15DF0589F0D8016D910B
:100300008D01D601ED91FC910190F081E02DC601A7
:100310000995892B11F47E0102C02196ECCFC7010B
:10032000DF91CF911F910F91FF90EF90DF90CF90D1
:100330000895089580E090E00895FC01538D448D68
:10034000252F30E0842F90E0821B930B541710F080
:10035000CF96089501970895FC01918D828D98178D
:1003600061F0828DDF01A80FB11D5D968C91928D99
:100370009F5F9F73928F90E008958FEF9FEF089596
:10038000FC01918D828D981731F0828DE80FF11D5F
:10039000858D90E008958FEF9FEF0895FC01918D7A
:1003A000228D892F90E0805C9F4F821B91098F7373
:1003B0009927089583E392E00E94CE0121E0892BE2
:1003C00009F420E0822F0895FC01848DDF01A80F3D
:1003D000B11DA35ABF4F2C91848D90E001968F736D
:1003E0009927848FA689B7892C93A089B1898C918C
:1003F00080648C93938D848D981306C00288F38952
:10040000E02D80818F7D80830895EF92FF920F937E
:100410001F93CF93DF93EC0181E0888F9B8D8C8DB0
:10042000981305C0E889F989808185FD24C0F62EDE
:100430000B8D10E00F5F1F4F0F731127E02E8C8D77
:10044000E8120CC00FB607FCFACFE889F989808161
:1004500085FFF5CFCE010E94E401F1CF8B8DFE0127
:10046000E80FF11DE35AFF4FF0820B8FEA89FB89F9
:100470008081806207C0EE89FF896083E889F989FD
:1004800080818064808381E090E0DF91CF911F9133
:100490000F91FF90EF900895CF93DF93EC01888D3B
:1004A0008823C9F0EA89FB89808185FD05C0A88978
:1004B000B9898C9186FD0FC00FB607FCF5CF8081FE
:1004C00085FFF2CFA889B9898C9185FFEDCFCE0148
:1004D0000E94E401E7CFDF91CF91089580E090E0A2
:1004E000892B29F00E94DA0181110C9400000895F3
:1004F0002FB7F89460916501709166018091670152
:10050000909168012FBF08958F929F92AF92BF92F2
:10051000CF92DF92EF92FF926B017C010E947802F2
:100520004B015C01C60ED71EE81EF91E0E94780220
:10053000681579058A059B0528F0C616D706E806D2
:10054000F906A0F7FF90EF90DF90CF90BF90AF90AB
:100550009F908F900895CF92DF92EF92FF920F932A
:100560001F938091270290912802A0912902B091B7
:100570002A020196A11DB11D8093270290932802A3
:10058000A0932902B0932A020E94780200911F02D0
:10059000109120022091210230912202C090580136
:1005A000D0905901E0905A01F0905B010C191D099F
:1005B0002E093F09DC01CB01800F911FA21FB31F41
:1005C00080931F0290932002A0932102B0932202F5
:1005D0000E947802609358017093590180935A01E8
:1005E00090935B011F910F91FF90EF90DF90CF9060
:1005F0000895CF92DF92EF92FF920F931F93809115
:10060000170290911802A0911902B0911A02019656
:10061000A11DB11D8093170290931802A093190297
:10062000B0931A020E94780200910F0210911002FA
:100630002091110230911202C0905C01D0905D01B6
:10064000E0905E01F0905F010C191D092E093F0931
:10065000DC01CB01800F911FA21FB31F80930F02FB
:1006600090931002A0931102B09312020E9478029C
:1006700060935C0170935D0180935E0190935F01D4
:100680001F910F91FF90EF90DF90CF900895089504
:100690000E944E106115710579F0FB010190002058
:1006A000E9F73197AF01461B570BDC01ED91FC9147
:1006B0000280F381E02D099480E090E008954F924C
:1006C0005F926F927F92EF92FF920F931F93CF935F
:1006D000DF93CDB7DEB7A1970FB6F894DEBF0FBE9C
:1006E000CDBF7C01FA01CB0119A2223008F42AE027
:1006F0008E010F5D1F4F422E512C612C712CBF01BA
:10070000A30192010E940C0FF901CA0101501109C5
:100710006A3014F4605D01C0695CD8016C93232BCE
:10072000242B252B61F7B801C7010E944A03A1962B
:100730000FB6F894DEBF0FBECDBFDF91CF911F91F2
:100740000F91FF90EF907F906F905F904F90089582
:10075000CF92DF92EF92FF92CF93DF936B017C01F8
:10076000E0913302F09134020190F081E02D6DE2CE
:1007700083E392E00995EC0144275527BA014C190F
:100780005D096E097F092AE083E392E00E945F031E
:100790008C0F9D1FDF91CF91FF90EF90DF90CF9056
:1007A00008950C944A031F920F920FB60F921124D2
:1007B0002F933F934F935F936F937F938F939F9369
:1007C000AF93BF93EF93FF9383E392E00E94E40122
:1007D000FF91EF91BF91AF919F918F917F916F9119
:1007E0005F914F913F912F910F900FBE0F901F90EF
:1007F00018951F920F920FB60F9211242F938F937B
:100800009F93EF93FF93E0914302F0914402808124
:10081000E0914902F0914A0282FD12C090818091DC
:100820004C028F5F8F7320914D02821751F0E0913F
:100830004C02F0E0ED5CFD4F958F80934C0201C0BF
:100840008081FF91EF919F918F912F910F900FBE1B
:100850000F901F9018951F920F920FB60F921124B0
:100860002F933F938F939F93AF93BF938091650195
:1008700090916601A0916701B09168013091640187
:1008800023E0230F2D3720F40196A11DB11D05C0D3
:1008900026E8230F0296A11DB11D209364018093C9
:1008A000650190936601A0936701B0936801809100
:1008B000600190916101A0916201B0916301019684
:1008C000A11DB11D8093600190936101A09362010D
:1008D000B0936301BF91AF919F918F913F912F9101
:1008E0000F900FBE0F901F9018951F920F920FB68A
:1008F0000F9211242F933F934F935F936F937F93A6
:100900008F939F93AF93BF93EF93FF93E091020177
:10091000F09103010995FF91EF91BF91AF919F91E4
:100920008F917F916F915F914F913F912F910F9098
:100930000FBE0F901F9018951F920F920FB60F9237
:1009400011242F933F934F935F936F937F938F93D4
:100950009F93AF93BF93EF93FF93E0910001F091CA
:1009600001010995FF91EF91BF91AF919F918F91F7
:100970007F916F915F914F913F912F910F900FBE9B
:100980000F901F901895E3E3F2E01382128288EE35
:1009900093E0A0E0B0E084839583A683B78382E2EE
:1009A00091E09183808385EC90E09587848784EC47
:1009B00090E09787868780EC90E0918B808B81EC2C
:1009C00090E0938B828B82EC90E0958B848B86EC0D
:1009D00090E0978B868B118E128E138E148EE0ED25
:1009E000F2E016821782108611861286138614860C
:1009F000158616861786108A118A128A138A148A17
:100A0000158A0895CF93DF93CDB7DEB72A970FB637
:100A1000F894DEBF0FBECDBF789484B5826084BDEC
:100A200084B5816084BD85B5826085BD85B58160F2
:100A300085BD80916E00816080936E001092810070
:100A4000809181008260809381008091810081602B
:100A500080938100809180008160809380008091EC
:100A6000B10084608093B1008091B0008160809378
:100A7000B00080917A00846080937A0080917A003F
:100A8000826080937A0080917A00816080937A00FE
:100A900080917A00806880937A001092C100109251
:100AA000140310921503109216031092170310925C
:100AB000D2021092D3021092D4021092D50268EBA7
:100AC0007BE080E090E00E94840283E392E09093D8
:100AD0001303809312030E9487000E9478026093A0
:100AE000D2027093D3028093D4029093D50260E334
:100AF00071E080911203909113030E94D1036AE088
:100B000070E080E090E00E94840281E08093E60241
:100B10008DE00E94AF0085E00E94AF0086E00E9459
:100B2000AF000E9487008BEA92E0909301018093CE
:100B30000001809169008C7F816080936900E89A50
:100B400089EF92E090930301809302018091690004
:100B5000837F846080936900E99A11E00E947802A3
:100B6000672B682B692B41F40E9478026230710573
:100B70008105910508F40FC10E94780260932F024D
:100B8000709330028093310290933202C0902B0216
:100B9000D0902C02E0902D02F0902E026C157D0575
:100BA0008E059F0540F460932B0270932C02809376
:100BB0002D0290932E02C0902B02D0902C02E09038
:100BC0002D02F0902E029B01AC012C193D094E091B
:100BD0005F0969017A013AEFC316D104E104F10417
:100BE00008F4D9C060932B0270932C0280932D02DD
:100BF00090932E0284EF91E0A0E0B0E08093DE02BB
:100C00009093DF02A093E002B093E1021092E2021F
:100C10001092E3021092E4021092E5028091D60253
:100C20009091D702A091D802B091D9028093DA02B4
:100C30009093DB02A093DC02B093DD020E94780265
:100C40006093D6027093D7028093D8029093D90212
:100C50000E9478026093D2027093D3028093D402F0
:100C60009093D5020E9478026B017C0162E471E0EE
:100C700080911203909113030E94D1032AE041E076
:100C800050E060E070E080911203909113030E94A5
:100C90005F0369E471E080911203909113030E9455
:100CA000D1032AE0B701A6018091120390911303AA
:100CB0000E945F036BE471E0809112039091130333
:100CC0000E94D1038091D6029091D702A091D802C0
:100CD000B091D902B701A601481B590B6A0B7B0BD7
:100CE0002AE080911203909113030E945F036BE44A
:100CF00071E080911203909113030E94D1034091FF
:100D0000D6025091D7026091D8027091D902809199
:100D1000DA029091DB02A091DC02B091DD02481B67
:100D2000590B6A0B7B0B2AE08091120390911303FD
:100D30000E945F036DE471E08091120390911303B0
:100D40000E94D1030E947802AB01BC012AE080918D
:100D50001203909113030E945F03E0901203F0903E
:100D600013036FE471E0C7010E944A036FE371E06F
:100D7000C7010E944A0365E070E080E090E00E94B5
:100D800084020E9478026093D6027093D702809307
:100D9000D8029093D9020E94780260931A0170934E
:100DA0001B0180931C0190931D018090160190906F
:100DB0001701A0901801B09019016B017C01C818AF
:100DC000D908EA08FB08A8ECCA16D104E104F1042A
:100DD00008F4DAC59B0128193909309315012093CD
:100DE000140160931601709317018093180190937A
:100DF0001901609127027091280280912902909137
:100E00002A020E94ED0D4B015C0160932302709356
:100E100024028093250290932602109227021092BA
:100E200028021092290210922A0220E030E0A90143
:100E30000E94E80D8823F1F060911F02709120025A
:100E400080912102909122020E94ED0DA501940152
:100E50000E949B0F60931B0270931C0280931D02E3
:100E600090931E0210921F021092200210922102F3
:100E7000109222026091170270911802809119025B
:100E800090911A020E94ED0D6B017C016093130298
:100E90007093140280931502909316021092170219
:100EA000109218021092190210921A0220E030E0FB
:100EB000A9010E94E80D8823F1F060910F02709162
:100EC000100280911102909112020E94ED0DA70173
:100ED00096010E949B0F60930B0270930C0280930B
:100EE0000D0290930E0210920F02109210021092B7
:100EF00011021092120280910A028F5F80930A02FF
:100F00008B3070F083E392E00E94CE011816190630
:100F10002CF483E392E00E94AC01F4CF10920A0219
:100F20006091060270910702809108029091090277
:100F30000E94ED0DA50194010E942F0F0E94141034
:100F4000609306027093070280930802909309024F
:100F50006091020270910302809104029091050257
:100F60000E94ED0DA70196010E942F0F0E94141000
:100F7000609302027093030280930402909305022F
:100F800020E030E0A901C501B4010E94E80D8823EA
:100F900009F4CAC02FE632E143E85AE360911B022C
:100FA00070911C0280911D0290911E020E944E0EB3
:100FB0004B015C012FE632E143E85AE30E94E80D61
:100FC00087FF0DC02DEC3CEC4CEC5DE32093FE0163
:100FD0003093FF01409300025093010220C0A5010D
:100FE000940160E070E080E89FE30E949B0F20E0A6
:100FF00030E040E752E40E944E0E20911001309103
:10100000110140911201509113010E949B0F6093B6
:10101000FE017093FF01809300029093010220E093
:1010200030E040E251E460910C0170910D0180913B
:101030000E0190910F010E942F0F4B015C016093F4
:10104000FA017093FB018093FC019093FD0120E075
:1010500030E048EC52E40E942F0F9B01AC01C50127
:10106000B4010E949B0F2B013C016093F601709329
:10107000F7018093F8019093F9019B01AC0160E0C6
:1010800070E080E89FE30E942E0FA50194010E946A
:101090004E0E60930C0170930D0180930E0190939E
:1010A0000F018090F2019090F301A090F401B090B4
:1010B000F5018092EE019092EF01A092F001B092C2
:1010C000F1018092EA019092EB01A092EC01B092C2
:1010D000ED01A50194016091FE017091FF018091E5
:1010E0000002909101020E942E0F9B01AC01C301EE
:1010F000B2010E944E0EA50194010E942F0F609331
:10110000F2017093F3018093F4019093F50120E0D4
:1011100030E048EC52E40E944E0E0E940D10709395
:10112000E9016093E80110C08DEC9CECACECBDE3F0
:101130008093FE019093FF01A0930002B0930102FF
:101140001092E9011092E80120E030E0A901C70106
:10115000B6010E94E80D882309F4CAC02FE632E1E7
:1011600043E85AE360910B0270910C0280910D02EA
:1011700090910E020E944E0E6B017C012FE632E12F
:1011800043E85AE30E94E80D87FF0DC02DEC3CECCC
:101190004CEC5DE32093E4013093E5014093E601DC
:1011A0005093E70120C0A701960160E070E080E85D
:1011B0009FE30E949B0F20E030E040E752E40E9452
:1011C0004E0E209108013091090140910A01509181
:1011D0000B010E949B0F6093E4017093E5018093E3
:1011E000E6019093E70120E030E040E251E46091B5
:1011F00004017091050180910601909107010E9400
:101200002F0F6B017C016093E0017093E1018093EB
:10121000E2019093E30120E030E048EC52E40E94C8
:101220002F0F9B01AC01C701B6010E949B0F4B0120
:101230005C016093DC017093DD018093DE0190938B
:10124000DF019B01AC0160E070E080E89FE30E9459
:101250002E0FA70196010E944E0E60930401709319
:1012600005018093060190930701C090D801D090AA
:10127000D901E090DA01F090DB01C092D401D09264
:10128000D501E092D601F092D701C092D001D09260
:10129000D101E092D201F092D301A70196016091B1
:1012A000E4017091E5018091E6019091E7010E94CF
:1012B0002E0F9B01AC01C501B4010E944E0EA70187
:1012C00096010E942F0F6093D8017093D9018093EB
:1012D000DA019093DB0120E030E048EC52E40E9418
:1012E0004E0E0E940D107093CF016093CE0110C07E
:1012F0008DEC9CECACECBDE38093E4019093E501B4
:10130000A093E601B093E7011092CF011092CE01B5
:101310008091B60180FF02C05D9A01C05D98809106
:10132000B60181FF02C05E9A01C05E982091FE0165
:101330003091FF0140910002509101026091CA0179
:101340007091CB018091CC019091CD010E942E0F24
:101350006B017C016093C6017093C7018093C80143
:101360009093C9012091E4013091E5014091E6019B
:101370005091E7016091C2017091C3018091C40155
:101380009091C5010E942E0F6093BE017093BF0122
:101390008093C0019093C10120E030E040E05FE322
:1013A000C701B6010E944E0E4B015C01609385019E
:1013B0007093860180938701909388012091810129
:1013C000309182014091830150918401C701B6019F
:1013D0000E942F0F2B013C0120E030E048E453E451
:1013E0000E94431018164CF04092810150928201E5
:1013F00060928301709284010CC080E090E0A8E4C8
:10140000B3E48093810190938201A0938301B09310
:10141000840120E030E048E453EC60918101709158
:10142000820180918301909184010E94E80D87FFE1
:101430000CC080E090E0A8E4B3EC8093810190932D
:101440008201A0938301B093840120E030E0A901E0
:10145000C701B6010E94431018161CF410938001B6
:1014600002C0109280018091800190917F018917C4
:1014700041F010928101109282011092830110922A
:10148000840180937F0120E030E0A9016091810117
:101490007091820180918301909184010E944E0E8F
:1014A0002B013C0120E030E040EA51E40E9443106F
:1014B00018164CF040927B0150927C0160927D01A5
:1014C00070927E010CC080E090E0A0EAB1E48093CD
:1014D0007B0190937C01A0937D01B0937E0120E07D
:1014E00030E040EA51EC60917B0170917C01809189
:1014F0007D0190917E010E94E80D87FF0CC080E085
:1015000090E0A0EAB1EC80937B0190937C01A093E2
:101510007D01B0937E012091770130917801409157
:10152000790150917A01C701B6010E942E0F609394
:10153000730170937401809375019093760120E09C
:1015400030E0A9010E944E0E9B01AC0160936F0137
:1015500070937001809371019093720180916B017F
:1015600090916C01A0916D01B0916E018093770113
:1015700090937801A0937901B0937A01C0926B01A6
:10158000D0926C01E0926D01F0926E01C501B40140
:101590000E942F0F20917B0130917C0140917D01B1
:1015A00050917E010E942F0F0E940D1070936A01CE
:1015B000609369016F3F710519F014F06FEF70E0EF
:1015C00061309FEF790714F461E07FEF70938C0135
:1015D00060938B0170938A016093890177FD02C04B
:1015E0002C9A0CC02C9880918B0190918C01919534
:1015F0008195910990938C0180938B0180918B014F
:1016000090918C010E941601C090BE01D090BF0144
:10161000E090C001F090C10120E030E040E05FE3E5
:10162000C701B6010E944E0E4B015C016093A901F7
:101630007093AA018093AB019093AC012091A50116
:101640003091A6014091A7015091A801C701B601B0
:101650000E942F0F2B013C0120E030E048E453E4CE
:101660000E94431018164CF04092A5015092A6011A
:101670006092A7017092A8010CC080E090E0A8E4FD
:10168000B3E48093A5019093A601A093A701B09322
:10169000A80120E030E048E453EC6091A50170918E
:1016A000A6018091A7019091A8010E94E80D87FFF3
:1016B0000CC080E090E0A8E4B3EC8093A501909387
:1016C000A601A093A701B093A80120E030E0A901F2
:1016D000C701B6010E94431018161CF41093A40110
:1016E00002C01092A4018091A4019091A3018917D6
:1016F00041F01092A5011092A6011092A70110923C
:10170000A8018093A30120E030E0A9016091A50128
:101710007091A6018091A7019091A8010E944E0EA0
:101720002B013C0120E030E040EA51E40E944310EC
:1017300018164CF040929F015092A0016092A101B6
:101740007092A2010CC080E090E0A0EAB1E4809326
:101750009F019093A001A093A101B093A20120E06A
:1017600030E040EA51EC60919F017091A0018091BE
:10177000A1019091A2010E94E80D87FF0CC080E0BA
:1017800090E0A0EAB1EC80939F019093A001A09318
:10179000A101B093A20120919B0130919C01409145
:1017A0009D0150919E01C701B6010E942E0F6093CA
:1017B0009701709398018093990190939A0120E08A
:1017C00030E0A9010E944E0E9B01AC016093930191
:1017D00070939401809395019093960180918F016D
:1017E00090919001A0919101B091920180939B0101
:1017F00090939C01A0939D01B0939E01C0928F0194
:10180000D0929001E0929101F0929201C501B40151
:101810000E942F0F20919F013091A0014091A101C2
:101820005091A2010E942F0F0E940D1070938E0103
:1018300060938D016F3F710519F014F06FEF70E048
:101840006130AFEF7A0714F461E07FEF7093B0017D
:101850006093AF017093AE016093AD0177FD02C05C
:101860002C9A0CC02C988091AF019091B001919569
:10187000819591099093B0018093AF018091AF0160
:101880009091B0010E9416014091E8015091E90148
:10189000052E000C660B770B77FF05C0CB01BA0154
:1018A0000E94A80305C02AE083E392E00E945F0340
:1018B00066E571E083E392E00E94D1034091CE019E
:1018C0005091CF01052E000C660B770B77FF05C0FA
:1018D000CB01BA010E94A80305C02AE083E392E08D
:1018E0000E945F0366E571E083E392E00E94D1030A
:1018F000609106027091070280910802909109029E
:101900000E94ED0D209110013091110140911201C2
:10191000509113010E949B0F6B017C0160910202A8
:101920007091030280910402909105020E94ED0DD6
:10193000209108013091090140910A0150910B0159
:101940000E949B0F9B01AC01C701B6010E942F0FA3
:101950000E940D10AB01770F660B770B77FF05C068
:10196000CB01BA010E94A80305C02AE083E392E0FC
:101970000E945F036FE371E083E392E00E944A03F9
:1019800083E392E00E944C0283E392E00E94CE0146
:10199000181619061CF58091BD0181111FC0809198
:1019A000BC0181111BC083E392E00E94AC01309125
:1019B000BA013E831D822D813E81282B392B309325
:1019C000B9012093B8019093BB018093BA012A3FDB
:1019D0004FE7340709F084C01093BD0183E392E020
:1019E0000E94CE01089721F48091BD0181117FC032
:1019F00083E392E00E94CE01069709F06EC08091C9
:101A0000BC01882309F469C01092BC0183E392E011
:101A10000E94AC01F82E83E392E00E94AC01FA86AA
:101A20001986E985FA858E2B9F2BBC01990F880BAF
:101A3000990B0E94EF0D20E038E74FEF56E40E942B
:101A4000E80D811110C01092060210920702109248
:101A500008021092090210920202109203021092E0
:101A600004021092050283E392E00E94AC01F82E7A
:101A700083E392E00E94AC01FA821982E981FA8143
:101A80008E2B9F2BBC01990F880B990B0E94EF0D99
:101A900060931001709311018093120190931301D0
:101AA00083E392E00E94AC01F82E83E392E00E946F
:101AB000AC01FC821B822B813C81822B932BBC01CD
:101AC000990F880B990B0E94EF0D6093080170939A
:101AD000090180930A0190930B010E946E023EC897
:101AE000283F3F4709F07ACF1093BC0177CF10927F
:101AF000BD0183E392E00E94AC018093B70183E3D0
:101B000092E00E94AC018093B60183E392E00E94D0
:101B1000AC019595879595958795BC01990F880B94
:101B2000990B0E94EF0D6093B2017093B301809303
:101B3000B4019093B50183E392E00E94AC01F82ECA
:101B400083E392E00E94AC01F8861F82AF81B885E2
:101B50008A2B9B2BBC01990F880B990B0E94EF0DD0
:101B60002AE037ED43E25CE30E944E0E6093CA0127
:101B70007093CB018093CC019093CD0183E392E0ED
:101B80000E94AC01F82E83E392E00E94AC013F2C4E
:101B9000212C82299329BC01990F880B990B0E9453
:101BA000EF0D2AE037ED43E25CE30E944E0E6093B6
:101BB000C2017093C3018093C4019093C50183E374
:101BC00092E00E94AC018093B10110920A0210CF02
:101BD0000E942A0E08F481E00895E89409C097FB5A
:101BE0003EF490958095709561957F4F8F4F9F4FF4
:101BF0009923A9F0F92F96E9BB279395F695879538
:101C000077956795B795F111F8CFFAF4BB0F11F4FA
:101C100060FF1BC06F5F7F4F8F4F9F4F16C08823A1
:101C200011F096E911C0772321F09EE8872F762FD7
:101C300005C0662371F096E8862F70E060E02AF018
:101C40009A95660F771F881FDAF7880F9695879504
:101C500097F90895990F0008550FAA0BE0E8FEEFD9
:101C600016161706E807F907C0F012161306E40760
:101C7000F50798F0621B730B840B950B39F40A2659
:101C800061F0232B242B252B21F408950A2609F437
:101C9000A140A6958FEF811D811D08950E94610EC0
:101CA0000C94D20E0E94C40E38F00E94CB0E20F08D
:101CB000952311F00C94BB0E0C94C10E11240C94BE
:101CC000060F0E94E30E70F3959FC1F3950F50E04D
:101CD000551F629FF001729FBB27F00DB11D639FDE
:101CE000AA27F00DB11DAA1F649F6627B00DA11D84
:101CF000661F829F2227B00DA11D621F739FB00D2A
:101D0000A11D621F839FA00D611D221F749F332799
:101D1000A00D611D231F849F600D211D822F762F32
:101D20006A2F11249F5750409AF0F1F088234AF00F
:101D3000EE0FFF1FBB1F661F771F881F915050407B
:101D4000A9F79E3F510580F00C94BB0E0C94060F32
:101D50005F3FE4F3983ED4F3869577956795B79502
:101D6000F795E7959F5FC1F7FE2B880F911D96951C
:101D7000879597F9089597F99F6780E870E060E08C
:101D800008959FEF80EC089500240A941616170614
:101D900018060906089500240A941216130614065C
:101DA00005060895092E0394000C11F4882352F0BF
:101DB000BB0F40F4BF2B11F460FF04C06F5F7F4F77
:101DC0008F4F9F4F089557FD9058440F551F59F05E
:101DD0005F3F71F04795880F97FB991F61F09F3F18
:101DE00079F087950895121613061406551FF2CF41
:101DF0004695F1DF08C0161617061806991FF1CF91
:101E000086957105610508940895E894BB276627B7
:101E10007727CB0197F90895A1E21A2EAA1BBB1BC5
:101E2000FD010DC0AA1FBB1FEE1FFF1FA217B307A6
:101E3000E407F50720F0A21BB30BE40BF50B661FBC
:101E4000771F881F991F1A9469F760957095809580
:101E500090959B01AC01BD01CF0108955058BB275F
:101E6000AA270E94460F0C94D20E0E94C40E38F08E
:101E70000E94CB0E20F039F49F3F19F426F40C9405
:101E8000C10E0EF4E095E7FB0C94BB0EE92F0E9407
:101E9000E30E58F3BA17620773078407950720F01B
:101EA00079F4A6F50C94050F0EF4E0950B2EBA2FDD
:101EB000A02D0B01B90190010C01CA01A001112450
:101EC000FF27591B99F0593F50F4503E68F11A16FC
:101ED000F040A22F232F342F4427585FF3CF46958D
:101EE00037952795A795F0405395C9F77EF41F16AF
:101EF000BA0B620B730B840BBAF09150A1F0FF0F79
:101F0000BB1F661F771F881FC2F70EC0BA0F621F64
:101F1000731F841F48F4879577956795B795F79554
:101F20009E3F08F0B0CF9395880F08F09927EE0FE9
:101F30009795879508950E94AF0F0C94D20E0E943A
:101F4000CB0E58F00E94C40E40F029F45F3F29F0F8
:101F50000C94BB0E51110C94060F0C94C10E0E94F0
:101F6000E30E68F39923B1F3552391F3951B550BB9
:101F7000BB27AA2762177307840738F09F5F5F4F5C
:101F8000220F331F441FAA1FA9F335D00E2E3AF09B
:101F9000E0E832D091505040E695001CCAF72BD0B3
:101FA000FE2F29D0660F771F881FBB1F2617370704
:101FB0004807AB07B0E809F0BB0B802DBF01FF2736
:101FC00093585F4F3AF09E3F510578F00C94BB0E4A
:101FD0000C94060F5F3FE4F3983ED4F38695779513
:101FE0006795B795F7959F5FC9F7880F911D9695EF
:101FF000879597F90895E1E0660F771F881FBB1F4B
:10200000621773078407BA0720F0621B730B840BF7
:10201000BA0BEE1F88F7E09508950E94141068949B
:10202000B1110C94060F08950E94EB0E88F09F5793
:1020300098F0B92F9927B751B0F0E1F0660F771FEC
:10204000881F991F1AF0BA95C9F714C0B13091F0E2
:102050000E94050FB1E008950C94050F672F782FAB
:102060008827B85F39F0B93FCCF3869577956795A7
:10207000B395D9F73EF490958095709561957F4F13
:102080008F4F9F4F08950E942A0E08F48FEF0895F6
:10209000EE0FFF1F0590F491E02D099481E090E090
:0A20A000F8940C945310F894FFCF4D
:1020AA00470347030000803F0000FA430000803FD7
:1020BA000000FA436400C8000000C80000000000E5
:1020CA00000005026E019D014C02CE01AC01C00167
:1020DA00564D4450565F317C315F564D4450560D33
:1020EA000A00564D4450455F003A323A007C005F80
:0820FA00564D445045002C0036
:00000001FF
