:100000000C9462000C948A000C948A000C948A0070
:100010000C948A000C948A000C948A000C948A0038
:100020000C948A000C948A000C948A000C948A0028
:100030000C948A000C948A000C948A000C948A0018
:100040000C94C2030C948A000C94CE020C94A80267
:100050000C948A000C948A000C948A000C948A00F8
:100060000C940C040C948A0000000000240027006B
:100070002A0000000000250028002B0000000000DE
:1000800023002600290004040404040404040202DA
:100090000202020203030303030301020408102007
:1000A0004080010204081020010204081020000012
:1000B0000008000201000003040700000000000027
:1000C0000000201211241FBECFEFD8E0DEBFCDBF4D
:1000D00011E0A0E0B1E0EAE4FAE202C005900D927E
:1000E000AC37B107D9F723E0ACE7B1E001C01D920E
:1000F000AB3BB207E1F710E0C2E6D0E004C02197C5
:10010000FE010E941815C136D107C9F70E942908BF
:100110000C9423150C940000FC01538D448D252F65
:1001200030E0842F90E0821B930B541710F0CF9691
:10013000089501970895FC01918D828D981761F0C3
:10014000828DDF01A80FB11D5D968C91928D9F5F0E
:100150009F73928F90E008958FEF9FEF0895FC01B9
:10016000918D828D981731F0828DE80FF11D858D6C
:1001700090E008958FEF9FEF0895FC01918D228DFF
:10018000892F90E0805C9F4F821B91098F73992784
:10019000089583EB92E00E94BD0021E0892B09F4D1
:1001A00020E0822F0895FC01848DDF01A80FB11D8E
:1001B000A35ABF4F2C91848D90E001968F7399279D
:1001C000848FA689B7892C93A089B1898C9180648A
:1001D0008C93938D848D981306C00288F389E02D4B
:1001E00080818F7D80830895EF92FF920F931F93FC
:1001F000CF93DF93EC0181E0888F9B8D8C8D9813DA
:1002000005C0E889F989808185FD24C0F62E0B8D13
:1002100010E00F5F1F4F0F731127E02E8C8DE81237
:100220000CC00FB607FCFACFE889F989808185FFF9
:10023000F5CFCE010E94D300F1CF8B8DFE01E80FE8
:10024000F11DE35AFF4FF0820B8FEA89FB89808111
:10025000806207C0EE89FF896083E889F98980811F
:100260008064808381E090E0DF91CF911F910F91B6
:10027000FF90EF900895CF93DF93EC01888D882352
:10028000C9F0EA89FB89808185FD05C0A889B98903
:100290008C9186FD0FC00FB607FCF5CF808185FFDE
:1002A000F2CFA889B9898C9185FFEDCFCE010E944C
:1002B000D300E7CFDF91CF91089580E090E0892BC4
:1002C00029F00E94C90081110C9400000895833028
:1002D00081F028F4813099F08230A1F008958730C0
:1002E000A9F08830B9F08430D1F4809180008F7DFE
:1002F00003C0809180008F7780938000089584B53B
:100300008F7702C084B58F7D84BD08958091B00041
:100310008F7703C08091B0008F7D8093B0000895E7
:100320001F93CF93DF93282F30E0F901E255FF4F61
:100330008491F901E656FF4FD491F901EA57FF4F36
:10034000C491CC23C9F0162F81110E946701EC2FB4
:10035000F0E0EE0FFF1FEE58FF4FA591B4918FB75D
:10036000F894111105C09C91ED2FE095E92302C08E
:10037000EC91ED2BEC938FBFDF91CF911F910895FE
:100380003FB7F8948091430290914402A0914502B6
:10039000B091460226B5A89B05C02F3F19F00196E3
:1003A000A11DB11D3FBFBA2FA92F982F8827820FFB
:1003B000911DA11DB11DBC01CD0142E0660F771F4B
:1003C000881F991F4A95D1F7089585ED8093BC0049
:1003D0008091BC0084FDFCCF1092B2020895409140
:1003E0001902262F30E0240F311D21323105DCF4B3
:1003F0002091B2022430C9F4FC0180E090E086171D
:1004000058F4309119022191DC01A950BE4FA30F7D
:10041000B11D2C930196F3CF80911902680F609360
:10042000190280E0089581E0089582E0089508951A
:10043000E091480280914702E81730F4F0E0E75B72
:10044000FD4F808190E008958FEF9FEF0895909188
:10045000480280914702981750F4E92FF0E0E75BDB
:10046000FD4F208130E09F5F9093480202C02FEF44
:100470003FEFC90108958091470290E02091480222
:10048000821B91090895CF92DF92EF92FF920F9312
:100490001F93CF93DF937C01262F972F8A018091A2
:1004A0006902882391F0C62FD72F6E01C40ED51E86
:1004B000CC15DD0571F06991D701ED91FC910190AA
:1004C000F081E02DC7010995F3CF642F822F0E94A0
:1004D000EF01C801DF91CF911F910F91FF90EF9035
:1004E000DF90CF900895CF93DF931F92CDB7DEB703
:1004F0006983209169022223D1F020918B0220325E
:1005000040F021E030E0FC013383228380E090E082
:1005100015C080916A02E82FF0E0E559FD4F9981FE
:1005200090838F5F80936A0280938B0205C061E0A5
:10053000CE0101960E94EF0181E090E00F90DF91E3
:10054000CF910895089580E090E008950E941E15CF
:100550001F920F920FB60F9211242F933F934F9338
:100560005F936F937F938F939F93AF93BF93EF931B
:10057000FF9383EB92E00E94D300FF91EF91BF9134
:10058000AF919F918F917F916F915F914F913F912B
:100590002F910F900FBE0F901F9018951F920F92E2
:1005A0000FB60F9211242F938F939F93EF93FF9386
:1005B000E091C302F091C4028081E091C902F09100
:1005C000CA0282FD12C090818091CC028F5F8F732E
:1005D0002091CD02821751F0E091CC02F0E0ED5471
:1005E000FD4F958F8093CC0201C08081FF91EF91E8
:1005F0009F918F912F910F900FBE0F901F90189584
:10060000CF93DF93282F30E0F901E255FF4F84911B
:10061000F901E656FF4FD491F901EA57FF4FC49113
:10062000CC2391F081110E946701EC2FF0E0EE0FD6
:10063000FF1FE458FF4FA591B491EC91ED2381E0A9
:1006400090E021F480E002C080E090E0DF91CF9163
:100650000895CF93DF9390E0FC01E656FF4F24917D
:10066000FC01EA57FF4F8491882361F190E0880FE5
:10067000991FFC01E859FF4FC591D491FC01EE5838
:10068000FF4FA591B491611109C09FB7F89488817B
:10069000209582238883EC912E230BC0623061F475
:1006A0009FB7F8943881822F809583238883EC91BB
:1006B0002E2B2C939FBF06C08FB7F894E8812E2B6A
:1006C00028838FBFDF91CF9108958E3008F08E5030
:1006D0008770806480937C0080917A00806480932E
:1006E0007A0080917A0086FDFCCF8091780020917D
:1006F000790090E0922B08958F929F92AF92BF92D3
:10070000CF92DF92EF92FF926B017C010E94C001B9
:100710004B015C01C114D104E104F104F1F00E9429
:10072000C001DC01CB0188199909AA09BB09883EDF
:100730009340A105B10570F321E0C21AD108E10888
:10074000F10888EE880E83E0981EA11CB11CC1142C
:10075000D104E104F10419F7DDCFFF90EF90DF90B1
:10076000CF90BF90AF909F908F9008952FB7F8943F
:1007700060913F027091400280914102909142024B
:100780002FBF08951F920F920FB60F9211242F932F
:100790003F938F939F93AF93BF9380913F0290912C
:1007A0004002A0914102B091420230913E0223E00A
:1007B000230F2D3720F40196A11DB11D05C026E899
:1007C000230F0296A11DB11D20933E0280933F028C
:1007D00090934002A0934102B09342028091430261
:1007E00090914402A0914502B09146020196A11D4C
:1007F000B11D8093430290934402A0934502B093AD
:100800004602BF91AF919F918F913F912F910F9091
:100810000FBE0F901F9018951F920F920FB60F9258
:1008200011242F933F934F935F936F937F938F93F5
:100830009F93AF93BF93EF93FF938091B900887F0D
:10084000803609F49CC068F5883209F45BC090F4E6
:10085000803109F454C038F4882309F4F6C0883094
:1008600009F44DC0F6C0883109F44CC0803209F457
:100870005DC0EFC0803409F468C048F4803309F4E7
:1008800055C0883309F0E5C08093B002D8C08035E8
:1008900009F44FC0883509F45DC0883409F0D9C027
:1008A000D6C0883909F4C7C0A8F4883709F467C0EE
:1008B00038F4883609F463C0803709F460C0C9C0D1
:1008C000883809F4B8C0803909F45FC0803809F06D
:1008D000C0C05BC0803B09F486C038F4803A09F49C
:1008E00066C0883A09F47FC0B4C0803C09F4A7C050
:1008F000883C09F4A4C0883B09F48AC0AAC080914E
:100900008D0210C09091AF028091AE02981770F5E1
:10091000E091AF0281E08E0F8093AF02F0E0E257EA
:10092000FD4F80818093BB0085EC86C08093B00230
:100930008EC0E091AF0281E08E0F8093AF02809174
:10094000BB00F0E0E257FD4F80839091AF028091B1
:10095000AE026EC0E091AF0281E08E0F8093AF02D5
:100960008091BB00F0E0E257FD4F80838091B1029F
:1009700081116DC081E080938C0284EA61C083E0C4
:100980008093B20210923D02CFCF80913D0280321F
:1009900008F051C0E0913D0281E08E0F80933D024E
:1009A0008091BB00F0E0E35EFD4F8083BDCF85EC1E
:1009B0008093BC001092B20280913D02803230F4EC
:1009C000E0913D02F0E0E35EFD4F108260913D0258
:1009D00070E0E0911B02F0911C028DE192E009951C
:1009E00010923D0236C084E08093B20210921A0247
:1009F00010921902E0911702F09118020995809166
:100A00001902811105C081E0809319021092F7014B
:100A1000E0911A0281E08E0F80931A02F0E0E95013
:100A2000FE4F80818093BB0090911A028091190241
:100A3000981708F479CF85E88093BC000AC085EC4C
:100A40008093BC001092B20204C01092B0020E94C7
:100A5000E501FF91EF91BF91AF919F918F917F91B0
:100A60006F915F914F913F912F910F900FBE0F901B
:100A70001F9018951092B20281E08093B1021092FB
:100A80008C0261E082E10E94900161E083E10E94BA
:100A90009001E9EBF0E080818E7F808380818D7F03
:100AA000808388E48093B80085E48093BC00089537
:100AB000CF93DF9380917E0190917F0190937D0190
:100AC00080937C0197FD02C02C9A0CC02C988091D9
:100AD0007E0190917F0191958195910990937F017D
:100AE00080937E01C0917E01D0917F0161E08BE017
:100AF0000E942903209711F460E004C0CF3FD10584
:100B000031F461E08BE0DF91CF910C949001E9EB3F
:100B1000F0E0E491E330F9F048F4E130B9F0E2308C
:100B2000A1F584B5806284BDC8BD34C0E730E9F06A
:100B3000E83019F1E43049F58091800080628093BB
:100B40008000D0938B00C0938A0024C084B5806855
:100B500084BDC7BD1FC080918000806880938000E5
:100B6000D0938900C093880015C08091B000806840
:100B70008093B000C093B3000DC08091B00080623C
:100B80008093B000C093B40005C0C038D1050CF00C
:100B9000B8CFB2CFDF91CF9108959091B202911169
:100BA000FCCF32E03093B2022093B1022FEF2093BA
:100BB000B0021092AF024093AE02FB016EE872E009
:100BC000DB012A2F261B241718F421912D93F9CF2E
:100BD00010928D0220918D02880F822B80938D02BE
:100BE00080918C02813061F410928C0280918D0290
:100BF0008093BB008091BC0083FDF8CF85EC01C0E1
:100C000085EE8093BC008091B2028230E1F3809146
:100C1000B0028F3F69F08091B002803231F0809154
:100C2000B002803321F094E003C092E001C093E071
:100C3000892F0895282F40918B028091BA03413269
:100C400028F46BE672E00E94CD0501C081E01092AD
:100C50006A0210928B02109269020895CF92DF927D
:100C6000EF92FF920F931F93CF93DF936C017A0162
:100C70008B01C0E0D0E0CE15DF0589F0D8016D9181
:100C80008D01D601ED91FC910190F081E02DC6011E
:100C90000995892B11F47E0102C02196ECCFC70182
:100CA000DF91CF911F910F91FF90EF90DF90CF9048
:100CB0000895E3EBF2E0A089B18982E08C93A485EA
:100CC000B5851C92A685B78583E38C93108EA48985
:100CD000B58986E08C93A289B3898C9180618C93CD
:100CE000A289B3898C9188608C93A289B3898C91F5
:100CF00080688C930288F389E02D80818F7D8083CA
:100D00000895CF93DF931F92CDB7DEB791E0909314
:100D100069028093BA0310926A0210928B0289E9E9
:100D200093E049830E9473024981642F89E993E02B
:100D30000E94730281E00F90DF91CF910C941A060C
:100D40008F929F92AF92BF92CF92DF92EF92FF92DB
:100D50006B017C010E94B6034B015C01C60ED71EDD
:100D6000E81EF91E0E94B603681579058A059B05E1
:100D700028F0C616D706E806F906A0F7FF90EF9010
:100D8000DF90CF90BF90AF909F908F900895E091AB
:100D9000B302F091B4020190F081E02D682F83EB53
:100DA00092E00994EF92FF920F931F93CF93C82F75
:100DB0008A0181E080936902C093BA0310926A02AB
:100DC00010928B0289E993E00E94730280E00E94F6
:100DD0001A068091B2028111FCCF81E08093B202A9
:100DE0008093B1029FEF9093B0021092AF0295E012
:100DF0009093AE0280938D0280918D02CC0FC82B10
:100E0000C0938D0280918C02813061F410928C022B
:100E100080918D028093BB008091BC0083FDF8CF50
:100E200085EC01C085EE8093BC008091B2028130D8
:100E3000E1F38091AF02863018F48091AF0201C0D7
:100E400086E0AEE8B2E029E432E0F9019E2F921B81
:100E5000981718F49D919193F9CF109248028093BE
:100E6000470280E02091470290914802291769F0DB
:100E7000C1E0C80F7801E80EF11C89E993E00E94F7
:100E80002702F70180838C2FEDCFCF911F910F9117
:100E9000FF90EF9008956115710579F0FB010190C5
:100EA0000020E9F73197AF01461B570BDC01ED91AC
:100EB000FC910280F381E02D099480E090E0089598
:100EC0004F925F926F927F92EF92FF920F931F93D8
:100ED000CF93DF93CDB7DEB7A1970FB6F894DEBFFF
:100EE0000FBECDBF7C01FA01CB0119A2223008F45C
:100EF0002AE08E010F5D1F4F422E512C612C712C68
:100F0000BF01A30192010E94A213F901CA0101507D
:100F100011096A3014F4605D01C0695CD8016C93FA
:100F2000232B242B252B61F7B801C7010E944B0707
:100F3000A1960FB6F894DEBF0FBECDBFDF91CF9163
:100F40001F910F91FF90EF907F906F905F904F9067
:100F500008950F931F93CF93DF9300D000D0CDB7A8
:100F6000DEB7AC01990F660B770B77FF23C08DE2DC
:100F700049835A836B837C830E94C7068C01498115
:100F80005A816B817C8170956095509541955F4F3A
:100F90006F4F7F4F2AE083EB92E00E946007800F43
:100FA000911F0F900F900F900F90DF91CF911F9195
:100FB0000F9108952AE083EB92E00F900F900F902D
:100FC0000F90DF91CF911F910F910C9460070C94BB
:100FD0004B07CF92DF92EF92FF92CF93DF931F9256
:100FE000CDB7DEB7198288E0C82ED12CE12CF12CC8
:100FF00021E040E0BE016F5F7F4F8C2D0E94CD0548
:10100000811114C02AE0B701A60180919303909149
:1010100094030E94600765E671E0809193039091CC
:1010200094030E94E70781E0809356038FEFC81A6C
:10103000D80AE80AF80A87E7C816D104E104F104DF
:10104000B9F60F90DF91CF91FF90EF90DF90CF90A6
:101050000895CF93DF93CDB7DEB768970FB6F894B6
:10106000DEBF0FBECDBF789484B5826084BD84B5E9
:10107000816084BD85B5826085BD85B5816085BD93
:1010800080916E00816080936E001092810080914B
:1010900081008260809381008091810081608093D3
:1010A0008100809180008160809380008091B100F8
:1010B00084608093B1008091B00081608093B00023
:1010C00080917A00846080937A0080917A008260B7
:1010D00080937A0080917A00816080937A00809179
:1010E0007A00806880937A001092C1001092950374
:1010F0001092960310929703109298031092520345
:1011000010925303109254031092550368EB7BE046
:1011100080E090E00E94A00683EB92E0909394031D
:10112000809393030E9459060E94B6036093520372
:1011300070935303809354039093550368E371E0D5
:1011400080919303909194030E94E7076AE070E016
:1011500080E090E00E94A00681E0809367031092F7
:1011600048021092470210926A0210928B020E946B
:101170003A050E94B6030091520310915303209147
:101180005403309155036B017C01C01AD10AE20A65
:10119000F30A22E3C216D104E104F104C8F00E946C
:1011A000B603609352037093530380935403909358
:1011B00055036AE471E080919303909194030E9437
:1011C000E70780915603811121C00E94E9071EC0E4
:1011D0000E94B6034B015C01DC01CB018C199D0917
:1011E000AE09BF096C017D0192E3C90ED11CE11C5F
:1011F000F11C0E94B603681579058A059B0578F2F3
:10120000C616D706E806F906A0F7C9CF61E571E072
:1012100080919303909194030E94E70761E571E048
:1012200080919303909194030E94E70761E571E038
:1012300080919303909194030E94E70761E571E028
:1012400080919303909194030E94E70763E571E016
:1012500080919303909194030E94E7076AE070E005
:1012600080E090E00E94A00661E08DE00E942903EA
:1012700061E085E00E94290361E086E00E94290385
:1012800061E087E00E94290361E088E00E94290371
:1012900061E089E00E94290361E08CE00E9429035B
:1012A00062E084E00E94290362E08AE00E94290350
:1012B000109248021092470210926A0210928B021A
:1012C0000E943A050E94590640E06DE38091AD030B
:1012D0000E94810669E170E080E090E00E947C035A
:1012E00041E067E08091AD030E9481068091B203E6
:1012F000A0E28A9FA00111249091B303B8E09B9FC4
:10130000C0011124842B4091B103482B68E08091E7
:10131000AD030E9481068091B00328E0829FC00146
:1013200011244091AF03482B6AE08091AD030E94E5
:1013300081064091AE036BE08091AD030E9481066F
:101340008091B50330E2839FA00111249091B403F2
:10135000A8E09A9FC0011124842B4091B603482B2A
:1013600069E08091AD030E94810640E067E08091D2
:10137000AD030E94810641E060E48091AD030E94CC
:10138000810641E06BE38091AD030E9481064091AC
:10139000B7036EE38091AD030E9481064091B803CC
:1013A0006DE38091AD030E94810669E170E080E009
:1013B00090E00E947C0340E06DE38091AD030E94C9
:1013C000810669E170E080E090E00E947C0340E0EB
:1013D00067E08091AD030E94810640EF65E5809152
:1013E000AD030E9481064FEF66E58091AD030E9438
:1013F00081064DE867E58091AD030E9481064FEFBD
:1014000068E58091AD030E9481064DE869E5809111
:10141000AD030E9481064FEF6AE58091AD030E9403
:1014200081064EEF61E68091AD030E9481064FEF89
:1014300062E68091AD030E9481064DEF63E68091E4
:10144000AD030E9481064FEF64E68091AD030E94D8
:10145000810641E065E68091AD030E94810640E08F
:1014600066E68091AD030E94810649E16BE58091BB
:10147000AD030E9481064FEF6CE58091AD030E94A1
:10148000810647E76DE58091AD030E94810640E04B
:101490006EE58091AD030E9481064AE86FE5809178
:1014A000AD030E9481064FEF60E68091AD030E947C
:1014B000810648EE67E68091AD030E94810643E015
:1014C00068E68091AD030E94810643ED69E6809154
:1014D000AD030E94810643E06AE68091AD030E945D
:1014E00081064091B8036DE38091AD030E948106AF
:1014F00069E170E080E090E00E947C0340E86FE3E7
:101500008091AD030E9481066AE070E080E090E087
:101510000E947C034091B8036DE38091AD030E946B
:10152000810669E170E080E090E00E947C03809198
:101530008100887F8360809381000E94B6030091C0
:10154000F3011091F4012091F5013091F601DC01D5
:10155000CB01801B910BA20BB30B86399105A10522
:10156000B10508F4ACC00E94B6036093F301709318
:10157000F4018093F5019093F60161E070E080E062
:1015800090E00E94A0060E94B603609352037093FD
:10159000530380935403909355036AE471E0809160
:1015A0009303909194030E94E70780915603811161
:1015B00002C00E94E90761E070E080E090E00E94D4
:1015C000A00661E571E080919303909194030E94DD
:1015D000E707C12CD12C760100E010E020E0822F3B
:1015E000002E01C0880F0A94EAF7182B0F5F08300D
:1015F00031F02DE0C216D104E104F104A9F4412F29
:1016000050E060E070E02AE08091930390919403B1
:101610000E94600765E671E08091930390919403C6
:101620000E94E70700E010E061E070E080E090E0F9
:101630000E94A0063FEFC31AD30AE30AF30A4EE062
:10164000C416D104E104F10471F0B1E0CB16D10469
:10165000E104F10419F28C2D0E94000321E0892B92
:1016600009F0BDCFBBCF61E070E080E090E00E9468
:10167000A00661E571E080919303909194030E942C
:10168000E70761E571E080919303909194030E94D4
:10169000E70761E571E080919303909194030E94C4
:1016A000E70763E571E080919303909194030E94B2
:1016B000E70761E070E080E090E00E94A0060E94F1
:1016C000B603672B682B692B41F40E94B603623086
:1016D00071058105910508F40EC10E94B60360935F
:1016E000EF017093F0018093F1019093F20100916A
:1016F000EB011091EC012091ED013091EE016017AA
:1017000071078207930740F46093EB017093EC013B
:101710008093ED019093EE010091EB011091EC01AB
:101720002091ED013091EE016B017C01C01AD10ACC
:10173000E20AF30A970186010A3F110521053105E6
:1017400008F4D9C06093EB017093EC018093ED0134
:101750009093EE0124EF31E040E050E020935F03EE
:1017600030936003409361035093620310926303CC
:1017700010926403109265031092660380915703E0
:1017800090915803A0915903B0915A0380935B0341
:1017900090935C03A0935D03B0935E030E94B60335
:1017A00060935703709358038093590390935A039F
:1017B0000E94B603609352037093530380935403C3
:1017C000909355030E94B6036B017C016CE571E0B8
:1017D00080919303909194030E94E7072AE041E0EF
:1017E00050E060E070E080919303909194030E9438
:1017F000600763E671E080919303909194030E94E7
:10180000E7072AE0B701A601809193039091940322
:101810000E94600765E671E08091930390919403C4
:101820000E94E7078091570390915803A0915903B4
:10183000B0915A03B701A601481B590B6A0B7B0BE9
:101840002AE080919303909194030E94600765E6DB
:1018500071E080919303909194030E94E707409177
:101860005703509158036091590370915A03809126
:101870005B0390915C03A0915D03B0915E03481BF4
:10188000590B6A0B7B0B2AE0809193039091940390
:101890000E94600761E571E0809193039091940349
:1018A0000E94E7070E94B603AB01BC012AE08091C9
:1018B0009303909194030E94600700919303109109
:1018C000940367E671E0C8010E944B0769E571E087
:1018D000C8010E944B0765E070E080E090E00E9444
:1018E000A0060E94B6036093570370935803809339
:1018F000590390935A030E94B603709313016093A7
:1019000012012091100130911101AB01421B530BC8
:101910004436510508F450C450930F0140930E0112
:101920007093110160931001AE014F5F5F4F6AE148
:101930008091AD030E94D2068A8190E0982F88277B
:101940002981822B9093A6038093A5038C8190E03C
:10195000982F88272B81822B9093A8038093A7032D
:101960008E8190E0982F88272D81822B9093AA0357
:101970008093A903AE01495F5F4F68E18091AD0399
:101980000E94D206888590E0982F88272F81822B8D
:101990009093AC038093AB038091EA018B3F10F4EA
:1019A0008F5F01C08CE08093EA018091E90191E0B2
:1019B000980F9093E901853170F083EB92E00E94DB
:1019C000BD00181619062CF483EB92E00E949B00D0
:1019D000F4CF1092E90161E070E080E090E00E94B5
:1019E0007C038FE00E94650361E070E080E090E09E
:1019F0000E947C038FE00E9465038C0164E070E02C
:101A000080E090E00E947C038FE00E946503080F55
:101A1000191F64E070E080E090E00E947C038FE09A
:101A20000E946503080F191F64E070E080E090E0F9
:101A30000E947C038FE00E946503080F191F64E079
:101A400070E080E090E00E947C03D801B595A795F6
:101A5000B595A795B093E401A093E30128EE33E098
:101A60000E9411152FEF33E040E050E00E94C413B4
:101A7000CA01B901645F7140810991090E94851210
:101A80002DEC3CEC4CE45FE30E94E4122B013C01A2
:101A90006093E5017093E6018093E7019093E8017C
:101AA0002FE632E143E859E360910A0170910B019E
:101AB00080910C0190910D010E94F3136B017C0148
:101AC0006093DF017093E0018093E1019093E20164
:101AD0002DEC3CEC4CEC5DE30E94F3139B01AC015C
:101AE000C701B6010E945F144B015C016093DB01EA
:101AF0007093DC018093DD019093DE019B01AC01CA
:101B000060E070E080E89FE30E94F213A701960175
:101B10000E94E41260930A0170930B0180930C0100
:101B200090930D01C090D701D090D801E090D901D9
:101B3000F090DA01C092D301D092D401E092D501A5
:101B4000F092D601C092CF01D092D001E092D101A3
:101B5000F092D201A7019601C301B2010E94F213D3
:101B60009B01AC01C501B4010E94E412A7019601DA
:101B70000E94F3136B017C016093D7017093D8012D
:101B80008093D9019093DA0184E00E940003182F1A
:101B90008093CE018AE00E940003880F80930901A0
:101BA000182B1093CD018EE00E9465038EE00E94F9
:101BB00065038C0164E070E080E090E00E947C03AB
:101BC0008EE00E946503080F191F64E070E080E05A
:101BD00090E00E947C038EE00E946503080F191FAD
:101BE00064E070E080E090E00E947C038EE00E9460
:101BF0006503800F911FBC01759567957595679575
:101C00008091070190910801681B790B072E000C49
:101C1000880B990B0E9485124B015C0120E030E09B
:101C200040E85DE3C701B6010E94E4129B01AC01EC
:101C3000C501B4010E94F3130E94D1147093CC012A
:101C40006093CB01072E000C880B990B0E94851224
:101C500000910301109104012091050130910601CA
:101C6000A901980150580E945F146B017C01609398
:101C7000C7017093C8018093C9019093CA018091F4
:101C8000EA018A3008F0AAC12091C3013091C40151
:101C90004091C5015091C601C701B6010E94F213DF
:101CA0002B013C016093BF017093C0018093C1017F
:101CB0009093C2018091A2019091A301A091A401EF
:101CC000B091A50189879A87AB87BC872091AE0127
:101CD0003091AF014091B0015091B101C301B20107
:101CE0000E94E41229853A854B855C850E94E412A6
:101CF0006D877E878F87988B60939E0170939F017D
:101D00008093A0019093A10120919A0130919B01B1
:101D100040919C0150919D01C301B2010E94F313B7
:101D20004B015C0120E030E048E453E40E940715D9
:101D300018164CF080929A0190929B01A0929C01FF
:101D4000B0929D010CC080E090E0A8E4B3E48093E1
:101D50009A0190939B01A0939C01B0939D0120E078
:101D600030E048E453EC60919A0170919B018091BE
:101D70009C0190919D010E947E1287FF0CC080E023
:101D800090E0A8E4B3EC80939A0190939B01A09318
:101D90009C01B0939D0120E030E0A901C301B20194
:101DA0000E94071518163CF481E090E09093990189
:101DB0008093980104C0109299011092980180912B
:101DC0009801909199012091960130919701821785
:101DD000930741F010929A0110929B0110929C017E
:101DE00010929D01909397018093960120919A0102
:101DF00030919B0140919C0150919D016091AA01FD
:101E00007091AB018091AC019091AD010E94E41200
:101E1000698B7A8B8B8B9C8B60939201709393016F
:101E2000809394019093950100910001109101011C
:101E3000B801012E000C880B990B0E9485124B01F2
:101E40005C019B01AC0169897A898B899C890E941C
:101E50000715181644F48092920190929301A09273
:101E60009401B092950166277727601B710B072EAE
:101E7000000C880B990B0E9485124B015C019B01A1
:101E8000AC016091920170919301809194019091C5
:101E900095010E947E1287FF08C080929201909265
:101EA0009301A0929401B092950120918E013091FE
:101EB0008F014091900150919101C301B2010E94A4
:101EC000F21360938A0170938B0180938C0190933D
:101ED0008D012091A6013091A7014091A801509158
:101EE000A9010E94E41229853A854B855C850E94F0
:101EF000E4129B01AC01609386017093870180938B
:101F00008801909389018091820190918301A09131
:101F10008401B091850180938E0190938F01A093ED
:101F20009001B0939101409282015092830160929E
:101F30008401709285016D857E858F8598890E94C8
:101F4000F3132091920130919301409194015091AB
:101F500095010E94F3130E94D11470938101609344
:101F600080016F3F710519F014F06FEF70E0613080
:101F70009FEF790714F461E07FEF70937F01609326
:101F80007E0177FF05C080910201681B710907C0BF
:101F90006115710541F080910201680F711D709308
:101FA0007F0160937E0180917E0190917F01893C49
:101FB000910534F0A8ECB0E0B0937F01A0937E01CE
:101FC00080917E0190917F0188339F4F5CF428E3DC
:101FD0003FEF30937F0120937E0104C010927F0178
:101FE00010927E010E945805A7019601C701B60113
:101FF0000E940C15882319F06EE671E01AC04601A4
:102000005701E894B7F82FEF3FEF4FE75FE7C501BF
:10201000B4010E940C15811111C02FEF3FEF4FE763
:102020005FE7C501B4010E947E1218163CF462E716
:1020300071E083EB92E00E944B0779C02FEF3FEFF6
:102040004FE75FE4C701B6010E94071518161CF49C
:1020500066E771E0EECF2FEF3FEF4FE75FECC70190
:10206000B6010E947E1287FDF3CF20E030E0A90187
:10207000C701B6010E947E1287FF07C08DE20E9451
:10208000C706F7FAF094F7F8F0942AE037ED43EA40
:102090005BE3C701B6010E94F3134B015C010E9490
:1020A000D8146B017C010E9483129B01AC01C50115
:1020B000B4010E94F2134B015C012AE0B701A601B2
:1020C00083EB92E00E9460078EE20E94C70620E048
:1020D00030E040E251E4C501B4010E94E4124B013A
:1020E0005C010E94D8146B01E12CF12C2AE0B701AD
:1020F000A60183EB92E00E946007C701B6010E942F
:1021000083129B01AC01C501B4010E94F21320E0CF
:1021100030E040E251E40E94E4120E94D814AB0186
:1021200060E070E02AE083EB92E00E9460076AE7DB
:1021300071E083EB92E00E94E70780917C0190912F
:102140007D010E94A9076AE771E083EB92E00E949B
:10215000E7078091A5039091A6030E94A9076AE76B
:1021600071E083EB92E00E94E7076091D7017091E4
:10217000D8018091D9019091DA010E94D114CB014C
:102180000E94A9076AE771E083EB92E00E94E707EB
:102190004091CD0150E060E070E02AE083EB92E0F6
:1021A0000E94600769E571E083EB92E00E944B07B3
:1021B00083EB92E00E943B0183EB92E00E94BD0022
:1021C0001816190614F58091BE0181111EC0809168
:1021D000BD0181111AC083EB92E00E949B003090F8
:1021E000BB01212C9C01222933293093BA01209371
:1021F000B9019093BC018093BB012E3F8FE7380754
:1022000009F085C031E03093BE0183EB92E00E947B
:10221000BD0007970CF46EC08091BE01882309F4BD
:1022200069C01092BE0183EB92E00E949B008093F4
:10223000B80183EB92E00E949B0095958795959558
:102240008795182F8093B70183EB92E00E949B0043
:10225000082F83EB92E00E949B000E8B1D8ACD8895
:10226000DE888C299D29BC01990F880B990B0E944F
:1022700085126B017C016093B3017093B40180936C
:10228000B5019093B60183EB92E00E949B00082F6A
:1022900083EB92E00E949B00088F1F8A2F89388D64
:1022A000822B932BBC01990F880B990B0E948512EE
:1022B0002AE037ED43E25CE30E94E4126093C3013D
:1022C0007093C4018093C5019093C60183EB92E0A3
:1022D0000E949B008093B20191E0111190E081E097
:1022E00020910901213009F080E0892BC1F08CE0B8
:1022F0008093EA0183EB92E00E94BD00089724F0EE
:102300008091BD0181111BC00E945D0116C92C3F47
:102310003F4709F07ACF51E05093BD0176CF20E0DE
:1023200038E24AEF56E4C701B6010E947E128823C4
:10233000F1F21D9A1092EA011092E901DBCF10929E
:10234000BD0183EB92E00E949B00BC01990F880BBA
:10235000990B0E9485126093AE017093AF01809338
:10236000B0019093B10183EB92E00E949B00BC010D
:10237000990F880B990B0E9485122DEC3CEC4CECCC
:102380005DE30E94E4126093AA017093AB01809315
:10239000AC019093AD0183EB92E00E949B00BC01E5
:1023A000990F880B990B0E9485126093A601709378
:1023B000A7018093A8019093A90183EB92E00E946A
:1023C0009B00BC01990F880B990B0E9485122DEC84
:1023D0003CEC4CEC5DE30E94E4126093A20170932C
:1023E000A3018093A4019093A50183EB92E00E9446
:1023F0009B0084569E4F909308018093070183EBC6
:1024000092E00E949B008093020183EB92E00E9485
:102410009B00909301018093000183EB92E00E9466
:102420009B00BC01990F880B990B0E948512609349
:10243000030170930401809305019093060164CF1A
:10244000E3EBF2E01382128288EE93E0A0E0B0E0CA
:1024500084839583A683B78328E131E03183208389
:1024600025EC30E03587248724EC30E03787268759
:1024700020EC30E0318B208B21EC30E0338B228B51
:1024800022EC30E0358B248B26EC30E0378B268B2A
:10249000118E128E138E148EE0E5F3E017821086F3
:1024A0001186128613861486158616861786108A5C
:1024B000118A128A138A148A158A168AE9E9F3E0C6
:1024C0001382128284839583A683B7838AE291E084
:1024D00091838083E5EAF3E088E28087118683E0D8
:1024E000828792E0938714861586968791E0978776
:1024F000108A818B128A8CE0838B08950E94C0120F
:1025000008F481E00895E89409C097FB3EF49095A3
:102510008095709561957F4F8F4F9F4F9923A9F0BC
:10252000F92F96E9BB279395F6958795779567954B
:10253000B795F111F8CFFAF4BB0F11F460FF1BC08F
:102540006F5F7F4F8F4F9F4F16C0882311F096E922
:1025500011C0772321F09EE8872F762F05C06623D0
:1025600071F096E8862F70E060E02AF09A95660F89
:10257000771F881FDAF7880F9695879597F9089542
:10258000990F0008550FAA0BE0E8FEEF1616170684
:10259000E807F907C0F012161306E407F50798F0EC
:1025A000621B730B840B950B39F40A2661F0232B05
:1025B000242B252B21F408950A2609F4A140A69581
:1025C0008FEF811D811D08950E94F7120C946813EE
:1025D0000E945A1338F00E94611320F0952311F0E5
:1025E0000C9451130C94571311240C949C130E94B7
:1025F000791370F3959FC1F3950F50E0551F629FBB
:10260000F001729FBB27F00DB11D639FAA27F00D4B
:10261000B11DAA1F649F6627B00DA11D661F829F72
:102620002227B00DA11D621F739FB00DA11D621F57
:10263000839FA00D611D221F749F3327A00D611D74
:10264000231F849F600D211D822F762F6A2F112456
:102650009F5750409AF0F1F088234AF0EE0FFF1F89
:10266000BB1F661F771F881F91505040A9F79E3FE0
:10267000510580F00C9451130C949C135F3FE4F3CC
:10268000983ED4F3869577956795B795F795E79536
:102690009F5FC1F7FE2B880F911D9695879597F93F
:1026A000089597F99F6780E870E060E008959FEFD4
:1026B00080EC089500240A941616170618060906D9
:1026C000089500240A9412161306140605060895A8
:1026D000092E0394000C11F4882352F0BB0F40F430
:1026E000BF2B11F460FF04C06F5F7F4F8F4F9F4F70
:1026F000089557FD9058440F551F59F05F3F71F0F2
:102700004795880F97FB991F61F09F3F79F0879558
:102710000895121613061406551FF2CF4695F1DFE1
:1027200008C0161617061806991FF1CF8695710571
:10273000610508940895E894BB2766277727CB01A5
:1027400097F90895A1E21A2EAA1BBB1BFD010DC02B
:10275000AA1FBB1FEE1FFF1FA217B307E407F50751
:1027600020F0A21BB30BE40BF50B661F771F881F2D
:10277000991F1A9469F760957095809590959B01C3
:10278000AC01BD01CF010895052E97FB1EF4009406
:102790000E94DB1357FD07D00E94A21307FC03D051
:1027A0004EF40C94DB1350954095309521953F4F96
:1027B0004F4F5F4F089590958095709561957F4F2D
:1027C0008F4F9F4F0895A29FB001B39FC001A39F59
:1027D000700D811D1124911DB29F700D811D11245A
:1027E000911D08955058BB27AA270E940A140C94E3
:1027F00068130E945A1338F00E94611320F039F4D4
:102800009F3F19F426F40C9457130EF4E095E7FB60
:102810000C945113E92F0E94791358F3BA176207E9
:1028200073078407950720F079F4A6F50C949B13A1
:102830000EF4E0950B2EBA2FA02D0B01B9019001DB
:102840000C01CA01A0011124FF27591B99F0593F1F
:1028500050F4503E68F11A16F040A22F232F342F67
:102860004427585FF3CF469537952795A795F040B5
:102870005395C9F77EF41F16BA0B620B730B840BCA
:10288000BAF09150A1F0FF0FBB1F661F771F881F82
:10289000C2F70EC0BA0F621F731F841F48F48795DA
:1028A00077956795B795F7959E3F08F0B0CF9395CC
:1028B000880F08F09927EE0F9795879508950E9445
:1028C00073140C9468130E94611358F00E945A13F9
:1028D00040F029F45F3F29F00C94511351110C94EE
:1028E0009C130C9457130E94791368F39923B1F346
:1028F000552391F3951B550BBB27AA276217730726
:10290000840738F09F5F5F4F220F331F441FAA1FB9
:10291000A9F335D00E2E3AF0E0E832D09150504075
:10292000E695001CCAF72BD0FE2F29D0660F771F23
:10293000881FBB1F261737074807AB07B0E809F009
:10294000BB0B802DBF01FF2793585F4F3AF09E3F8E
:10295000510578F00C9451130C949C135F3FE4F3F1
:10296000983ED4F3869577956795B795F7959F5FD1
:10297000C9F7880F911D9695879597F90895E1E01D
:10298000660F771F881FBB1F621773078407BA077C
:1029900020F0621B730B840BBA0BEE1F88F7E095D7
:1029A00008950E94D8146894B1110C949C13089552
:1029B0000E94811388F09F5798F0B92F9927B7513B
:1029C000B0F0E1F0660F771F881F991F1AF0BA95D3
:1029D000C9F714C0B13091F00E949B13B1E0089583
:1029E0000C949B13672F782F8827B85F39F0B93F75
:1029F000CCF3869577956795B395D9F73EF4909586
:102A00008095709561957F4F8F4F9F4F08950E94DD
:102A1000C01208F48FEF08950E94C012880B990B22
:102A200008950E94E313B7FF0895821B930B089546
:102A3000EE0FFF1F0590F491E02D099481E090E0E6
:0A2A4000F8940C942315F894FFCFCE
:102A4A0014000A000080400002010000803F50C3C9
:102A5A006400640000000000F4002E068C003B01B4
:102A6A00BD009B00AF000000000073024302A302F6
:102A7A0017023B0227021802564D4450565F317C1A
:102A8A00315F564D4450560D0A00564D4450525F20
:102A9A00007C005F564D4450520D0A00564D44507A
:102AAA00455F003A323A005F564D445045006E6128
:0C2ABA006E00696E66006F7666002C00EE
:107800000C94343C0C94513C0C94513C0C94513CE1
:107810000C94513C0C94513C0C94513C0C94513CB4
:107820000C94513C0C94513C0C94513C0C94513CA4
:107830000C94513C0C94513C0C94513C0C94513C94
:107840000C94513C0C94513C0C94513C0C94513C84
:107850000C94513C0C94513C0C94513C0C94513C74
:107860000C94513C0C94513C11241FBECFEFD8E036
:10787000DEBFCDBF11E0A0E0B1E0ECE9FFE702C060
:1078800005900D92A230B107D9F712E0A2E0B1E065
:1078900001C01D92AD30B107E1F70E942D3D0C945F
:1078A000CC3F0C94003C982F959595959595959582
:1078B000905D8F708A307CF0282F295A8091C0000B
:1078C00085FFFCCF9093C6008091C00085FFFCCF60
:1078D0002093C6000895282F205DF0CF982F809127
:1078E000C00085FFFCCF9093C6000895EF92FF92F1
:1078F0000F931F93EE24FF2487018091C00087FD22
:1079000017C00894E11CF11C011D111D81E4E8164B
:1079100082E4F8068FE0080780E0180770F3E09132
:107920000401F091050109958091C00087FFE9CF1E
:107930008091C6001F910F91FF90EF9008950E94D3
:10794000763C982F8091C00085FFFCCF9093C600B5
:1079500091362CF490330CF09053892F089597555D
:10796000892F08951F930E949F3C182F0E949F3CCF
:107970001295107F810F1F9108951F93182F882350
:1079800021F00E94763C1150E1F71F9108951F935A
:10799000182F0E94763C803249F0809103018F5F5E
:1079A000809303018530C1F01F9108958091C0003C
:1079B00085FFFCCF84E18093C6008091C00085FFE5
:1079C000FCCF1093C6008091C00085FFFCCF80E102
:1079D0008093C6001F910895E0910401F091050184
:1079E00009951F9108950E94763C803241F0809164
:1079F00003018F5F80930301853081F008958091AA
:107A0000C00085FFFCCF84E18093C6008091C00058
:107A100085FFFCCF80E18093C6000895E0910401CA
:107A2000F09105010995089540E951E08823A1F0FE
:107A30002D9A28EE33E0FA013197F1F721503040CA
:107A4000D1F72D9828EE33E0FA013197F1F7215064
:107A50003040D1F7815061F708953F924F925F9285
:107A60006F927F928F929F92AF92BF92CF92DF924E
:107A7000EF92FF920F931F93CF93DF93000080E16B
:107A80008093C4001092C50088E18093C10086E015
:107A90008093C2005098589A259A81E00E94143D24
:107AA00024E1F22E9EE1E92E85E9D82E0FE0C02ECA
:107AB00010E1B12EAA24A394B1E49B2EA6E58A2E50
:107AC000F2E57F2EE0E26E2E79E4572E63E5462E36
:107AD00050E5352E0E94763C8033B1F18133B9F107
:107AE000803409F46FC0813409F476C0823409F41B
:107AF00085C0853409F488C0803531F1823521F1A3
:107B0000813511F1853509F485C0863509F48DC0BC
:107B1000843609F496C0843709F403C1853709F423
:107B200072C1863709F466C0809103018F5F80932C
:107B30000301853079F6E0910401F0910501099582
:107B40000E94763C803351F60E94F33CC3CF0E94E2
:107B5000763C803249F78091C00085FFFCCFF092DF
:107B6000C6008091C00085FFFCCF9092C600809136
:107B7000C00085FFFCCF8092C6008091C00085FFC9
:107B8000FCCF7092C6008091C00085FFFCCF609250
:107B9000C6008091C00085FFFCCF5092C600809146
:107BA000C00085FFFCCF4092C6008091C00085FFD9
:107BB000FCCF3092C6008091C00085FFFCCFB09210
:107BC000C60088CF0E94763C863808F4BDCF0E945C
:107BD000763C0E94F33C7ECF0E94763C803809F4CC
:107BE0009CC0813809F40BC1823809F43CC1883942
:107BF00009F48FC080E00E94C73C6CCF84E10E94F2
:107C0000BD3C0E94F33C66CF85E00E94BD3C0E94D3
:107C1000F33C60CF0E94763C809306010E94763C44
:107C2000809307010E94F33C55CF0E94763C80333D
:107C300009F41DC183E00E94BD3C80E00E94C73C66
:107C400049CF0E94763C809309020E94763C809343
:107C5000080280910C028E7F80930C020E94763C79
:107C6000853409F415C18091080290910902892B8D
:107C700089F000E010E00E94763CF801E85FFE4FDA
:107C800080830F5F1F4F80910802909109020817AF
:107C9000190788F30E94763C803209F045CF809125
:107CA0000C0280FF01C16091060170910701660F0F
:107CB000771F7093070160930601A0910802B091AD
:107CC00009021097C9F0E8E0F1E09B01AD014E0F09
:107CD0005F1FF999FECF32BD21BD819180BDFA9A17
:107CE000F99A2F5F3F4FE417F50799F76A0F7B1F4B
:107CF00070930701609306018091C00085FFFCCF5F
:107D0000F092C6008091C00085FFFCCFB092C60003
:107D1000E1CE83E00E94C73CDDCE82E00E94C73CFA
:107D2000D9CE0E94763C809309020E94763C8093D3
:107D300008028091060190910701880F991F909386
:107D40000701809306010E94763C853409F4A6C0A1
:107D500080910C028E7F80930C020E94763C8032D0
:107D600009F0B8CE8091C00085FFFCCFF092C6002C
:107D7000609108027091090261157105B9F140E046
:107D800050E080910C02A82FA170B82FB27011C0E2
:107D9000BB2309F45CC0E0910601F0910701319624
:107DA000F0930701E09306014F5F5F4F46175707B7
:107DB000E8F4AA2369F3F999FECF209106013091E6
:107DC000070132BD21BDF89A90B58091C00085FFB2
:107DD000FCCF9093C6002F5F3F4F30930701209355
:107DE00006014F5F5F4F4617570718F38091C00099
:107DF00085FDE5CE8091C00085FFF8CFE0CE81E023
:107E00000E94C73C67CE0E94763C803209F08CCE3F
:107E10008091C00085FFFCCFF092C6008091C00029
:107E200085FFFCCFE092C6008091C00085FFFCCFAB
:107E3000D092C6008091C00085FFFCCFC092C600E2
:107E40008091C00085FFFCCFB092C60043CEE09188
:107E50000601F091070194918091C00085FFFCCF4D
:107E60009093C6009CCF80E10E94C73C33CE0E9415
:107E7000763C0E94763C182F0E94763C112309F430
:107E800083C0113009F484C08FE00E94C73C22CE29
:107E900080910C02816080930C02E5CE80910C02EF
:107EA000816080930C0259CF809107018823880F4D
:107EB000880B8A2180930B02809106019091070123
:107EC000880F991F90930701809306018091080203
:107ED00080FF09C080910802909109020196909359
:107EE000090280930802F894F999FECF1127E091D6
:107EF0000601F0910701C8E0D1E08091080290915D
:107F00000902103091F40091570001700130D9F34B
:107F100003E000935700E89500915700017001308D
:107F2000D9F301E100935700E89509901990009169
:107F3000570001700130D9F301E000935700E89534
:107F40001395103498F011270091570001700130FB
:107F5000D9F305E000935700E895009157000170B0
:107F60000130D9F301E100935700E895329602976A
:107F700009F0C7CF103011F00296E5CF112480919F
:107F8000C00085FFB9CEBCCE8EE10E94C73CA2CD19
:0C7F900085E90E94C73C9ECDF894FFCF0D
:027F9C00800063
:040000030000780081
:00000001FF