:100000000C9453000C947B000C947B000C947B00AC
:100010000C947B000C947B000C947B000C947B0074
:100020000C947B000C947B000C947B000C947B0064
:100030000C947B000C947B000C947B000C947B0054
:100040000C9422020C947B000C94F0010C94CA01D5
:100050000C947B000C947B000C947B000C947B0034
:100060000C947B000C947B0000000000250028000D
:100070002B0000000000240027002A0004040404D0
:100080000404040402020202020203030303030342
:10009000010204081020408001020408102001021F
:1000A00004081020670511241FBECFEFD8E0DEBF83
:1000B000CDBF11E0A0E0B1E0E4E6FBE002C00590B6
:1000C0000D92A832B107D9F721E0A8E2B1E001C052
:1000D0001D92AD3DB207E1F710E0C3E5D0E004C0EA
:1000E0002197FE010E94AA05C235D107C9F70E94D7
:1000F0006C020C94B0050C94000090E0FC01E057F9
:10010000FF4F249184589F4FFC018491882399F0DC
:1001100090E0880F991FFC01EE58FF4FA591B49114
:10012000FC01E859FF4F859194918FB7F894EC91B9
:10013000E22BEC938FBF0895AF92BF92CF92DF92E4
:10014000EF92FF920F931F93CF93DF936C017B018C
:100150008B01040F151FEB015E01AE18BF08C0171D
:10016000D10759F06991D601ED91FC910190F08190
:10017000E02DC6010995892B79F7C501DF91CF9153
:100180001F910F91FF90EF90DF90CF90BF90AF90B5
:100190000895FC01538D448D252F30E0842F90E08D
:1001A000821B930B541710F0CF9608950197089572
:1001B000FC01918D828D981761F0A28DAE0FBF2F3B
:1001C000B11D5D968C91928D9F5F9F73928F90E091
:1001D00008958FEF9FEF0895FC01918D828D981700
:1001E00031F0828DE80FF11D858D90E008958FEF3D
:1001F0009FEF0895FC01918D228D892F90E0805C06
:100200009F4F821B91098F73992708958EE391E088
:100210000E94FA0021E0892B09F420E0822F089542
:1002200080E090E0892B29F00E94060181110C9456
:1002300000000895FC01A48DA80FB92FB11DA35A89
:10024000BF4F2C91848D90E001968F739927848FF6
:10025000A689B7892C93A089B1898C918370806419
:100260008C93938D848D981306C00288F389E02DBA
:1002700080818F7D80830895EF92FF920F931F936B
:10028000CF93DF93EC0181E0888F9B8D8C8D981349
:100290001AC0E889F989808185FF15C09FB7F89455
:1002A000EE89FF896083E889F989808183708064A1
:1002B00080839FBF81E090E0DF91CF911F910F91EC
:1002C000FF90EF900895F62E0B8D10E00F5F1F4FFB
:1002D0000F731127E02E8C8D8E110CC00FB607FC0A
:1002E000FACFE889F989808185FFF5CFCE010E9498
:1002F0001A01F1CFEB8DEC0FFD2FF11DE35AFF4FEB
:10030000F0829FB7F8940B8FEA89FB898081806225
:10031000CFCFCF93DF93EC01888D8823B9F0AA89E2
:10032000BB89E889F9898C9185FD03C0808186FDB0
:100330000DC00FB607FCF7CF8C9185FFF2CF8081FF
:1003400085FFEDCFCE010E941A01E9CFDF91CF9159
:100350000895FF920F931F93CF93DF9302E111E073
:10036000C6E0D0E0F801F1908F01CE010E94940523
:10037000F81621F06F2DCE010E949C052196CA30FF
:10038000D10581F782E191E0DF91CF911F910F912B
:10039000FF9008951F920F920FB60F9211242F9382
:1003A0003F934F935F936F937F938F939F93AF93FD
:1003B000BF93EF93FF938EE391E00E941A01FF91A8
:1003C000EF91BF91AF919F918F917F916F915F91CD
:1003D0004F913F912F910F900FBE0F901F90189546
:1003E0001F920F920FB60F9211242F938F939F930A
:1003F000EF93FF93E0914E01F0914F018081E091E6
:100400005401F091550182FD1BC0908180915701EC
:100410008F5F8F7320915801821741F0E09157014F
:10042000F0E0E25CFE4F958F80935701FF91EF91D2
:100430009F918F912F910F900FBE0F901F90189545
:100440008081F4CF1F920F920FB60F9211242F9339
:100450003F938F939F93AF93BF9380912F01909180
:100460003001A0913101B091320130912C0123E093
:10047000230F2D3758F50196A11DB11D20932C0196
:1004800080932F0190933001A0933101B0933201FA
:100490008091280190912901A0912A01B0912B010E
:1004A0000196A11DB11D8093280190932901A0936D
:1004B0002A01B0932B01BF91AF919F918F913F91F2
:1004C0002F910F900FBE0F901F90189526E8230FC5
:1004D0000296A11DB11DD2CF789484B5826084BDEF
:1004E00084B5816084BD85B5826085BD85B5816038
:1004F00085BD80916E00816080936E0010928100B6
:100500008091810082608093810080918100816070
:100510008093810080918000816080938000809131
:10052000B10084608093B1008091B00081608093BD
:10053000B00080917A00846080937A0080917A0084
:10054000826080937A0080917A00816080937A0043
:1005500080917A00806880937A001092C100E091C7
:100560004E01F0914F0182E08083E0914A01F091C9
:100570004B011082E0914C01F0914D0183E38083A7
:1005800010925601E0915201F091530186E0808370
:10059000E0915001F0915101808180618083E09170
:1005A0005001F0915101808188608083E091500179
:1005B000F0915101808180688083E0915001F09139
:1005C000510180818F7D808390E080E00E949405BE
:1005D00080932D0181E090E00E94940580932E018C
:1005E00080912D0190912E018031934409F486C0B1
:1005F00090E080E00E949405803129F060E190E075
:1006000080E00E949C0581E090E00E949405833484
:1006100029F063E481E090E00E949C050E94A9011A
:1006200083E00E947D0084E00E947D0085E00E94BE
:100630007D0086E00E947D0087E00E947D0088E0CA
:100640000E947D0089E00E947D008AE00E947D007A
:100650008BE00E947D008CE00E947D000DE011E0A7
:10066000F12CE12CC0E0D0E081E6C82E9CE0B92E50
:10067000DD24D3942FB7F89480912F01909130010D
:10068000A0913101B09132012FBF40910E015091E4
:100690000F0160911001709111013C014D01641A2C
:1006A000750A860A970AB401A301483C5105610501
:1006B000710508F421C180930E0190930F01A0935E
:1006C0001001B09311018091DC018B3F80F58F5FA9
:1006D0008093DC018091DB0191E0980F9093DB0126
:1006E000853150F18EE391E00E94FA001816190648
:1006F0000CF58EE391E00E94D800F4CF86E090E004
:100700000E9494058093120187E090E00E94940576
:100710008093130188E090E00E9494058093140177
:1007200089E090E00E9494058093150179CFB09202
:10073000DC01D0CF1092DB019091DC019B3010F0F6
:1007400010923D0180913C012FEF280F30913B0129
:10075000831799F0223088F480933B0110923A017C
:1007600010923901823009F45AC030911301832F5D
:10077000880F880F830F80933A0180913901882375
:1007800029F081508093390110923A0180913A0109
:10079000882319F0815080933A01223010F49B3065
:1007A00030F010923A011092390110923B01909171
:1007B0003A0180911501882309F44CC09923C1F1B5
:1007C0005B98909139019923A9F15C9890913D0132
:1007D00090FF32C05D9890913D0191FF2FC05E98CF
:1007E00090913D0192FF2CC05F9890913D0193FF45
:1007F00029C0289890913D0194FF26C02998909196
:100800003D0195FF23C02A9890913D0196FF20C09D
:100810002B9890913D0197FF4EC02C984DC0309180
:100820001201832F880F880F830F80933901A5CF82
:100830005B9AC7CF5C9ACACF5D9ACDCF5E9AD0CF74
:100840005F9AD3CF289AD6CF299AD9CF2A9ADCCFCC
:100850002B9ADFCF992309F4E0C05B9A909139017C
:10086000992309F4DCC05C9A90913D0190FFD9C0B6
:100870005D9A90913D0191FFD6C05E9A90913D01A5
:1008800092FFD3C05F9A90913D0193FFD0C0289A08
:1008900090913D0194FFCDC0299A90913D0195FF23
:1008A000CAC02A9A90913D0196FFC7C02B9A909199
:1008B0003D0197FFB2CF2C9A8093050180913D01B5
:1008C00080930601C0920701E2E0F1E090E080E051
:1008D0002191820F911D0E171F07D1F780930D01F3
:1008E0004EE050E060E071E08EE391E00E949C00F9
:1008F0008EE391E00E9489018EE391E00E94FA006C
:100900000597ECF080913801811119C08091370171
:10091000811115C08EE391E00E94D800209135012D
:10092000309136012038310509F089C0813809F04D
:1009300086C0D092380110923601109235018EE3B4
:1009400091E00E94FA000397D4F080913801882347
:10095000B1F080913701811112C08EE391E00E94C5
:10096000D8008EE391E00E94D800809334018EE39A
:1009700091E00E94D80080933301D09237018EE33A
:1009800091E00E94FA0020913301281719060CF01B
:100990005BC080913801882309F456C080913701EB
:1009A000882309F451C0809134018F3E09F057C06B
:1009B0008EE391E00E94D8008EE391E00E94D8007F
:1009C0008EE391E00E94D80080933C018EE391E099
:1009D0000E94D8008EE391E00E94D8008EE391E05F
:1009E0000E94D8008EE391E00E94D80080933D01E0
:1009F0008EE391E00E94D8008EE391E00E94D8003F
:100A00001092DC011092DB01109237011092380134
:100A1000109233011092340117C05B981FCF5C987D
:100A200023CF5D9826CF5E9829CF5F982CCF28984A
:100A30002FCF299832CF2A9835CF2B9838CF9927A6
:100A40009093360180933501209709F413CE0E94CC
:100A50000601882309F40ECE0E9400000BCE8E3EC4
:100A600099F68EE391E00E94D800809312018EE304
:100A700091E00E94D800809313018EE391E00E94E0
:100A8000D800809314018EE391E00E94D80080FF8B
:100A90001BC0D09215018EE391E00E94D8008EE336
:100AA00091E00E94D8008EE391E00E94D8008EE38E
:100AB00091E00E94D8008EE391E00E94D8000E944D
:100AC000A901F7010995A0CF10921501E4CFEEE33B
:100AD000F1E01382128288EE93E0A0E0B0E084831C
:100AE0009583A683B7838AE191E09183808385EC27
:100AF00090E09587848784EC90E09787868780ECE8
:100B000090E0918B808B81EC90E0938B828B82ECD8
:100B100090E0958B848B86EC90E0978B868B118E82
:100B2000128E138E148E0895F999FECF92BD81BD59
:100B3000F89A992780B50895262FF999FECF1FBA04
:100B400092BD81BD20BD0FB6F894FA9AF99A0FBEF6
:100B500001960895EE0FFF1F0590F491E02D099482
:040B6000F894FFCF37
:100B640080817FED080000000000000000CCC80078
:100B7400000002040000000000003C019C00C900C9
:080B84008901FA00D800EC0021
:00000001FF
