:100000000C945D000C9485000C9485000C94850084
:100010000C9485000C9485000C9485000C9485004C
:100020000C9485000C9485000C9485000C9485003C
:100030000C9485000C9485000C9485000C9485002C
:100040000C9478020C9485000C9446020C942002C7
:100050000C9485000C9485000C9485000C9485000C
:100060000C9485000C94850000000008000201003B
:100070000003040700000000000000000000000072
:10008000250028002B0000000000240027002A0083
:10009000040404040404040402020202020203032E
:1000A0000303030301020408102040800102040836
:1000B00010200102040810208E0511241FBECFEF6E
:1000C000D8E0DEBFCDBF11E0A0E0B1E0E2EBFBE0A5
:1000D00002C005900D92A832B107D9F721E0A8E23D
:1000E000B1E001C01D92AE3DB207E1F710E0CDE5F1
:1000F000D0E004C02197FE010E94D105CC35D10784
:10010000C9F70E94C2020C94D7050C94000090E03D
:10011000FC01EC55FF4F249180579F4FFC018491C7
:10012000882399F090E0880F991FFC01EA57FF4F50
:10013000A591B491FC01E458FF4F859194918FB73C
:10014000F894EC91E22BEC938FBF0895AF92BF929D
:10015000CF92DF92EF92FF920F931F93CF93DF9393
:100160006C017B018B01040F151FEB015E01AE18C2
:10017000BF08C017D10759F06991D601ED91FC91E4
:100180000190F081E02DC6010995892B79F7C50111
:10019000DF91CF911F910F91FF90EF90DF90CF9063
:1001A000BF90AF900895FC01538D448D252F30E012
:1001B000842F90E0821B930B541710F0CF96089574
:1001C00001970895FC01918D828D981761F0A28DA1
:1001D000AE0FBF2FB11D5D968C91928D9F5F9F7367
:1001E000928F90E008958FEF9FEF0895FC01918D1D
:1001F000828D981731F0828DE80FF11D858D90E08A
:1002000008958FEF9FEF0895FC01918D228D892F26
:1002100090E0805C9F4F821B91098F73992708950E
:100220008FE391E00E94040121E0892B09F420E092
:10023000822F089580E090E0892B29F00E94100120
:1002400081110C9400000895FC01A48DA80FB92F12
:10025000B11DA35ABF4F2C91848D90E001968F73EE
:100260009927848FA689B7892C93A089B1898C910D
:10027000837080648C93938D848D981306C002885C
:10028000F389E02D80818F7D80830895EF92FF9226
:100290000F931F93CF93DF93EC0181E0888F9B8DA9
:1002A0008C8D98131AC0E889F989808185FF15C063
:1002B0009FB7F894EE89FF896083E889F989808186
:1002C0008370806480839FBF81E090E0DF91CF9155
:1002D0001F910F91FF90EF900895F62E0B8D10E077
:1002E0000F5F1F4F0F731127E02E8C8D8E110CC0E6
:1002F0000FB607FCFACFE889F989808185FFF5CF31
:10030000CE010E942401F1CFEB8DEC0FFD2FF11DEA
:10031000E35AFF4FF0829FB7F8940B8FEA89FB896D
:1003200080818062CFCFCF93DF93EC01888D8823CB
:10033000B9F0AA89BB89E889F9898C9185FD03C048
:10034000808186FD0DC00FB607FCF7CF8C9185FF2D
:10035000F2CF808185FFEDCFCE010E942401E9CF4D
:10036000DF91CF91089590E0FC01E859FF4F24916F
:10037000FC01EC55FF4F3491FC01E057FF4FE49135
:10038000EE23C9F0222339F0233001F1A8F4213003
:1003900019F1223029F1F0E0EE0FFF1FE458FF4F72
:1003A000A591B4918FB7F894EC91611126C0309566
:1003B0003E233C938FBF08952730A9F02830C9F021
:1003C000243049F7809180008F7D03C080918000A8
:1003D0008F7780938000DFCF84B58F7784BDDBCFAC
:1003E00084B58F7DFBCF8091B0008F778093B00074
:1003F000D2CF8091B0008F7DF9CF3E2BDACFFF9224
:100400000F931F93CF93DF9302E111E0C6E0D0E09A
:10041000F801F1908F01CE010E94BB05F81621F082
:100420006F2DCE010E94C3052196CA30D10581F7F8
:1004300082E191E0DF91CF911F910F91FF9008959C
:100440001F920F920FB60F9211242F933F934F9349
:100450005F936F937F938F939F93AF93BF93EF932C
:10046000FF938FE391E00E942401FF91EF91BF91F0
:10047000AF919F918F917F916F915F914F913F913C
:100480002F910F900FBE0F901F9018951F920F92F3
:100490000FB60F9211242F938F939F93EF93FF9397
:1004A000E0914F01F09150018081E0915501F09170
:1004B000560182FD1BC09081809158018F5F8F7320
:1004C00020915901821741F0E0915801F0E0E15C80
:1004D000FE4F958F80935801FF91EF919F918F91DF
:1004E0002F910F900FBE0F901F9018958081F4CF21
:1004F0001F920F920FB60F9211242F933F938F9359
:100500009F93AF93BF9380912F0190913001A09161
:100510003101B091320130912C0123E0230F2D37AE
:1005200058F50196A11DB11D20932C0180932F0138
:1005300090933001A0933101B09332018091280152
:1005400090912901A0912A01B0912B010196A11D42
:10055000B11D8093280190932901A0932A01B093A3
:100560002B01BF91AF919F918F913F912F910F9050
:100570000FBE0F901F90189526E8230F0296A11D1D
:10058000B11DD2CF789484B5826084BD84B581607A
:1005900084BD85B5826085BD85B5816085BD80914E
:1005A0006E00816080936E001092810080918100C6
:1005B00082608093810080918100816080938100BE
:1005C000809180008160809380008091B100846080
:1005D0008093B1008091B00081608093B0008091E1
:1005E0007A00846080937A0080917A0082608093A0
:1005F0007A0080917A00816080937A0080917A00FD
:10060000806880937A001092C100E0914F01F091D0
:10061000500182E08083E0914B01F0914C01108207
:10062000E0914D01F0914E0183E3808310925701D8
:10063000E0915301F091540186E08083E0915101F3
:10064000F0915201808180618083E0915101F091AD
:100650005201808188608083E0915101F0915201C4
:10066000808180688083E0915101F0915201808106
:100670008F7D808390E080E00E94BB0580932D01F8
:1006800081E090E00E94BB0580932E0180912D01B6
:1006900090912E018530904509F48CC090E080E067
:1006A0000E94BB05853029F065E090E080E00E9463
:1006B000C30581E090E00E94BB05803529F060E52C
:1006C00081E090E00E94C3050E94FF0182E00E9449
:1006D000870083E00E94870084E00E94870085E015
:1006E0000E94870086E00E94870087E00E948700C2
:1006F00088E00E94870089E00E9487008AE00E94CB
:1007000087008BE00E9487008CE00E9487008DE0CC
:100710000E9487006DE0E62E61E0F62ED12CC12C00
:1007200000E010E07CE0A72EBB24B3942FB7F89430
:1007300080912F0190913001A0913101B09132014F
:100740002FBF40910E0150910F01609110017091E7
:1007500011013C014D01641A750A860A970AB40119
:10076000A301483C51056105710508F4E6C080937A
:100770000E0190930F01A0931001B093110180918D
:10078000DD018B3F80F58F5F8093DD018091DC017F
:1007900091E0980F9093DC01853150F18FE391E067
:1007A0000E940401181619060CF58FE391E00E94CF
:1007B000E200F4CF86E090E00E94BB058093120136
:1007C00087E090E00E94BB058093130188E090E0F1
:1007D0000E94BB058093140189E090E00E94BB0554
:1007E0008093150173CFA092DD01D0CF1092DC0170
:1007F0009091DD019B3010F010923E0180913D01FF
:100800002FEF280F30913C01831799F0223088F4A4
:1008100080933C0110923B0110923A01823009F41E
:100820002BC130911301832F880F880F830F809382
:100830003B0180913A01882329F0815080933A014D
:1008400010923B0180913B01882319F081508093E5
:100850003B01223010F49B3030F010923B0110929B
:100860003A0110923C0190903E01692D617082E046
:100870000E94B301C92DD0E0BE01759567956170E6
:1008800083E00E94B301BE017595679575956795E4
:10089000617084E00E94B301BE0123E07595679505
:1008A0002A95E1F7617085E00E94B301BE0134E052
:1008B000759567953A95E1F7617086E00E94B301FE
:1008C000BE0145E0759567954A95E1F7617087E04F
:1008D0000E94B30156E0D595C7955A95E1F76C2F64
:1008E000617088E00E94B301692D661F6627661F4C
:1008F00089E00E94B30180911501809305019092D7
:1009000006018091390180930701E2E0F1E090E077
:1009100080E02191820F911DEE16FF06D1F78093A2
:100920000D014EE050E060E071E08FE391E00E9445
:10093000A6008FE391E00E9493018FE391E00E9473
:1009400004010597ECF080913801811119C0809164
:100950003701811115C08FE391E00E94E2002091E0
:100960003501309136012038310509F08EC08138CB
:1009700009F08BC0B0923801109236011092350107
:100980008FE391E00E9404010397D4F08091380135
:100990008823B1F080913701811112C08FE391E07B
:1009A0000E94E2008FE391E00E94E2008093340114
:1009B0008FE391E00E94E20080933301B09237010F
:1009C0008FE391E00E94040120913301281719065A
:1009D0000CF060C080913801882309F45BC08091DD
:1009E0003701882309F456C0809134018F3E09F005
:1009F0005DC08FE391E00E94E2008FE391E00E94EE
:100A0000E2008FE391E00E94E20080933D018FE3DA
:100A100091E00E94E200D82F809339018FE391E0AA
:100A20000E94E2008FE391E00E94E2008FE391E0F8
:100A30000E94E200C82F80933E018FE391E00E9464
:100A4000E20080911501882331F0D095D0933901CF
:100A5000C095C0933E018FE391E00E94E2001092A6
:100A6000DD011092DC0110923701109238011092D2
:100A70003301109234010EC030911201832F880F80
:100A8000880F830F80933A01D4CE99279093360133
:100A9000809335010115110509F448CE0E9410011B
:100AA000882309F443CE0E94000040CE8E3ED9F642
:100AB0008FE391E00E94E200809312018FE391E0C6
:100AC0000E94E200809313018FE391E00E94E20014
:100AD000809314018FE391E00E94E20080FF1BC02D
:100AE000B09215018FE391E00E94E2008FE391E064
:100AF0000E94E2008FE391E00E94E2008FE391E028
:100B00000E94E2008FE391E00E94E2000E94FF0158
:100B1000F6010995A8CF10921501E4CFEFE3F1E0BB
:100B20001382128288EE93E0A0E0B0E08483958384
:100B3000A683B7838AE191E09183808385EC90E07E
:100B40009587848784EC90E09787868780EC90E097
:100B5000918B808B81EC90E0938B828B82EC90E088
:100B6000958B848B86EC90E0978B868B118E128E02
:100B7000138E148E0895F999FECF92BD81BDF89A17
:100B8000992780B50895262FF999FECF1FBA92BDF7
:100B900081BD20BD0FB6F894FA9AF99A0FBE01965E
:100BA0000895EE0FFF1F0590F491E02D0994F8943D
:020BB000FFCF75
:100BB20080817FED080000000000000000CCC8002A
:100BC200000002040000000000004601A600D3005D
:080BD20093010401E200F600AA
:00000001FF
