:100000000C9462000C94C0030C9499030C948A0025
:100010000C948A000C948A000C948A000C948A0038
:100020000C948A000C948A000C948A000C948A0028
:100030000C948A000C948A000C948A000C948A0018
:100040000C944F030C948A000C945B020C943502C0
:100050000C948A000C948A000C948A000C948A00F8
:100060000C948A000C948A000000000024002700F1
:100070002A0000000000250028002B0000000000DE
:1000800023002600290004040404040404040202DA
:100090000202020203030303030301020408102007
:1000A0004080010204081020010204081020000012
:1000B0000008000201000003040700000000000027
:1000C0000000571011241FBECFEFD8E0DEBFCDBF18
:1000D00023E0AEE7B1E001C01D92AE37B207E1F711
:1000E00011E0A0E0B1E0E6E0F6E202C005900D927A
:1000F000AE37B107D9F710E0C2E6D0E004C02197CF
:10010000FE010E94F612C136D107C9F70E944405CC
:100110000C9401130C940000089580E090E0089581
:10012000FC01538D448D252F30E0842F90E0821BFD
:10013000930B541710F0CF96089501970895FC0182
:10014000918D828D981761F0828DDF01A80FB11D0E
:100150005D968C91928D9F5F9F73928F90E0089532
:100160008FEF9FEF0895FC01918D828D981731F0EC
:10017000828DE80FF11D858D90E008958FEF9FEF40
:100180000895FC01918D228D892F90E0805C9F4F16
:10019000821B91098F739927089589E992E00E9443
:1001A000C10021E0892B09F420E0822F0895FC0191
:1001B000848DDF01A80FB11DA35ABF4F2C91848DF0
:1001C00090E001968F739927848FA689B7892C9325
:1001D000A089B1898C9180648C93938D848D9813C0
:1001E00006C00288F389E02D80818F7D8083089589
:1001F000EF92FF920F931F93CF93DF93EC0181E077
:10020000888F9B8D8C8D981305C0E889F989808132
:1002100085FD24C0F62E0B8D10E00F5F1F4F0F736E
:100220001127E02E8C8DE8120CC00FB607FCFACF18
:10023000E889F989808185FFF5CFCE010E94D7003A
:10024000F1CF8B8DFE01E80FF11DE35AFF4FF082D5
:100250000B8FEA89FB898081806207C0EE89FF8964
:100260006083E889F98980818064808381E090E0FF
:10027000DF91CF911F910F91FF90EF900895CF9351
:10028000DF93EC01888D8823C9F0EA89FB8980819E
:1002900085FD05C0A889B9898C9186FD0FC00FB670
:1002A00007FCF5CF808185FFF2CFA889B9898C91B1
:1002B00085FFEDCFCE010E94D700E7CFDF91CF9130
:1002C000089580E090E0892B29F00E94CD008111F3
:1002D0000C9400000895833081F028F4813099F067
:1002E0008230A1F008958730A9F08830B9F08430C9
:1002F000D1F4809180008F7D03C0809180008F7742
:1003000080938000089584B58F7702C084B58F7D77
:1003100084BD08958091B0008F7703C08091B000B4
:100320008F7D8093B00008951F93CF93DF93282F84
:1003300030E0F901E255FF4F8491F901E656FF4F95
:10034000D491F901EA57FF4FC491CC23C9F0162F7D
:1003500081110E946B01EC2FF0E0EE0FFF1FEE58B1
:10036000FF4FA591B4918FB7F894111105C09C91DE
:10037000ED2FE095E92302C0EC91ED2BEC938FBFBC
:10038000DF91CF911F9108953FB7F8948091950226
:1003900090919602A0919702B091980226B5A89BE1
:1003A00005C02F3F19F00196A11DB11D3FBFBA2F07
:1003B000A92F982F8827820F911DA11DB11DBC0167
:1003C000CD0142E0660F771F881F991F4A95D1F72C
:1003D000089508950F931F9380918701909188014C
:1003E000A0918901B0918A010196A11DB11D809350
:1003F000870190938801A0938901B0938A0190911D
:100400008F0281E0892780938F02882359F00E9410
:10041000C40160938B0270938C0280938D02909341
:100420008E0220C00E94C40100918B0210918C02A8
:1004300020918D0230918E02DC01CB01801B910B4B
:10044000A20BB30B8093830190938401A093850149
:10045000B093860110928B0210928C0210928D0242
:1004600010928E021F910F9108951F920F920FB656
:100470000F9211242F933F934F935F936F937F932A
:100480008F939F93AF93BF93EF93FF9389E992E08C
:100490000E94D700FF91EF91BF91AF919F918F91F3
:1004A0007F916F915F914F913F912F910F900FBE70
:1004B0000F901F9018951F920F920FB60F92112454
:1004C0002F938F939F93EF93FF93E091A902F09165
:1004D000AA028081E091AF02F091B00282FD12C0C9
:1004E00090818091B2028F5F8F732091B302821747
:1004F00051F0E091B202F0E0E756FD4F958F809306
:10050000B20201C08081FF91EF919F918F912F9155
:100510000F900FBE0F901F901895CF93DF93282F49
:1005200030E0F901E255FF4F8491F901E656FF4FA3
:10053000D491F901EA57FF4FC491CC2391F0811176
:100540000E946B01EC2FF0E0EE0FFF1FE458FF4F0D
:10055000A591B491EC91ED2381E090E021F480E04D
:1005600002C080E090E0DF91CF910895CF93DF93B8
:1005700090E0FC01E656FF4F2491FC01EA57FF4F43
:100580008491882361F190E0880F991FFC01E8595C
:10059000FF4FC591D491FC01EE58FF4FA591B49146
:1005A000611109C09FB7F8948881209582238883C0
:1005B000EC912E230BC0623061F49FB7F894388120
:1005C000822F809583238883EC912E2B2C939FBFC1
:1005D00006C08FB7F894E8812E2B28838FBFDF9158
:1005E000CF9108958E3008F08E508770806480938C
:1005F0007C0080917A00806480937A0080917A00F8
:1006000086FDFCCF809178002091790090E0922BBC
:1006100008958F929F92AF92BF92CF92DF92EF9206
:10062000FF926B017C010E94C4014B015C01C1146B
:10063000D104E104F104F1F00E94C401DC01CB011A
:1006400088199909AA09BB09883E9340A105B105FB
:1006500070F321E0C21AD108E108F10888EE880E93
:1006600083E0981EA11CB11CC114D104E104F10463
:1006700019F7DDCFFF90EF90DF90CF90BF90AF9054
:100680009F908F9008952FB7F89460919102709188
:10069000920280919302909194022FBF08951F922D
:1006A0000F920FB60F9211242F933F938F939F9326
:1006B000AF93BF938091910290919202A091930287
:1006C000B09194023091900223E0230F2D3720F453
:1006D0000196A11DB11D05C026E8230F0296A11D9C
:1006E000B11D209390028093910290939202A09367
:1006F0009302B09394028091950290919602A091FA
:100700009702B09198020196A11DB11D80939502A8
:1007100090939602A0939702B0939802BF91AF91E5
:100720009F918F913F912F910F900FBE0F901F902F
:1007300018951F920F920FB60F9211242F933F938B
:100740004F935F936F937F938F939F93AF93BF93D9
:10075000EF93FF93E0910201F09103010995FF915E
:10076000EF91BF91AF919F918F917F916F915F9129
:100770004F913F912F910F900FBE0F901F901895A2
:100780001F920F920FB60F9211242F933F934F9306
:100790005F936F937F938F939F93AF93BF93EF93E9
:1007A000FF93E0910001F09101010995FF91EF9114
:1007B000BF91AF919F918F917F916F915F914F9179
:1007C0003F912F910F900FBE0F901F901895CF93D0
:1007D000DF9380918201882309F45BC080917E01C0
:1007E00090917F01181619060CF42C9AC0917E0185
:1007F000D0917F0161E08BE00E94B602209709F45E
:1008000073C0CF3FD10511F461E06FC0E9EBF0E0B8
:10081000E491E330F9F048F4E130B9F0E230A1F5C9
:1008200084B5806284BDC8BD65C0E730E9F0E830BA
:1008300019F1E43049F58091800080628093800056
:10084000D0938B00C0938A0055C084B5806884BD66
:10085000C7BD50C080918000806880938000D09395
:100860008900C093880046C08091B0008068809362
:10087000B000C093B3003EC08091B000806280930E
:10088000B000C093B40036C0C038D1050CF0BCCF66
:100890002BC080918001882341F061E08CE00E94B0
:1008A000940161E08BE00E94940180918101882392
:1008B00041F060E08CE00E94940161E08BE00E94D6
:1008C000940180918101811115C080918001811175
:1008D00011C060E00E94940160E080E00E949401F9
:1008E00060E08CE00E94940160E08BE0DF91CF91AA
:1008F0000C949401DF91CF910895CF92DF92EF9203
:10090000FF920F931F93CF93DF936C017A018B01BA
:10091000C0E0D0E0CE15DF0589F0D8016D918D01E2
:10092000D601ED91FC910190F081E02DC601099571
:10093000892B11F47E0102C02196ECCFC701DF9113
:10094000CF911F910F91FF90EF90DF90CF9008957E
:100950000E94FC126115710579F0FB0101900020E5
:10096000E9F73197AF01461B570BDC01ED91FC9184
:100970000280F381E02D099480E090E008954F9289
:100980005F926F927F92EF92FF920F931F93CF939C
:10099000DF93CDB7DEB7A1970FB6F894DEBF0FBED9
:1009A000CDBF7C01FA01CB0119A2223008F42AE064
:1009B0008E010F5D1F4F422E512C612C712CBF01F7
:1009C000A30192010E94BA11F901CA010150110953
:1009D0006A3014F4605D01C0695CD8016C93232B0C
:1009E000242B252B61F7B801C7010E94AA04A19608
:1009F0000FB6F894DEBF0FBECDBFDF91CF911F9130
:100A00000F91FF90EF907F906F905F904F900895BF
:100A1000CF92DF92EF92FF92CF93DF936C01990F09
:100A2000EE08FF08F7FE21C0E0919902F0919A02CA
:100A30000190F081E02D6DE289E992E00995EC01E9
:100A400044275527BA014C195D096E097F092AE030
:100A500089E992E00E94BF048C0F9D1FDF91CF9126
:100A6000FF90EF90DF90CF9008952AE0B701A601A4
:100A700089E992E0DF91CF91FF90EF90DF90CF90E6
:100A80000C94BF040C94AA04CF93DF93CDB7DEB7C8
:100A900060970FB6F894DEBF0FBECDBF789484B5D3
:100AA000826084BD84B5816084BD85B5826085BD6A
:100AB00085B5816085BD80916E00816080936E00F8
:100AC00010928100809181008260809381008091EA
:100AD000810081608093810080918000816080939B
:100AE00080008091B10084608093B1008091B0005B
:100AF00081608093B00080917A00846080937A0056
:100B000080917A00826080937A0080917A0081607F
:100B100080937A0080917A00806880937A001092A6
:100B2000C10010927A0310927B0310927C03109202
:100B30007D03109238031092390310923A031092F9
:100B40003B030E9443034B015C016B017C0128EBDA
:100B5000C20E2BE0D21EE11CF11C0E94430368155B
:100B600079058A059B0528F0C616D706E806F9061A
:100B7000A0F789E992E09093790380937803E0915C
:100B8000A902F091AA0282E08083E091A502F0918F
:100B9000A6021082E091A702F091A80280E1808372
:100BA0001092B102E091AD02F091AE0286E0808336
:100BB000E091AB02F091AC02808180618083E09192
:100BC000AB02F091AC02808188608083E091AB023F
:100BD000F091AC02808180688083E091AB02F0915B
:100BE000AC0280818F7D80830E9443036093380331
:100BF0007093390380933A0390933B0366E571E069
:100C000080917803909179030E9442050E944303EA
:100C10004B015C016B017C013AE0C30ED11CE11C6D
:100C2000F11C0E944303681579058A059B0528F08D
:100C3000C616D706E806F906A0F781E080934C03B4
:100C400000911B01002321F162E084E00E94B602C2
:100C500062E085E10E94B60262E08EE00E94B60288
:100C600062E08FE00E94B60262E080E10E94B6027C
:100C700062E081E10E94B60262E082E10E94B60277
:100C800062E083E10E94B60262E083E00E94B60265
:100C900010911A01112321F062E084E10E94B60252
:100CA000F090FC01FF2021F062E084E10E94B60296
:100CB00080918B01811110928B01EDECF1E088EEB7
:100CC00093E08193919341E0ED3EF407D1F7EDEA93
:100CD000F1E088EE93E08193919351E0ED3CF507CC
:100CE000D1F784EF91E09093CE018093CD011092E3
:100CF000AA011092AB0128EE33E03093D00120938B
:100D0000CF0121E020930D019093D2018093D10176
:100D1000F6E3CF2EF1E0DF2ED6018C91B2E0CB0EC0
:100D2000D11C61E00E94B602E4E4CE16E1E0DE06EA
:100D300099F761E08CE00E94B60261E08BE00E94CE
:100D4000B6021092FD011092FE01002351F1E5E080
:100D5000EE2E00E085E10E94F2026C019093CE013C
:100D60008093CD016AE070E080E090E00E9409038A
:100D7000FFEECF16F2E0DF063CF064EF71E080E0BA
:100D800090E00E9409030F5FEA94E110E3CF053081
:100D900040F010921B0184EF91E09093CE0180937C
:100DA000CD01112349F175E0D72EE12C84E10E9499
:100DB000F2028C019093D2018093D1016AE070E03D
:100DC00080E090E00E9409030F3E12403CF064EF87
:100DD00071E080E090E00E940903E394DA94D1107E
:100DE000E5CF34E03E1540F410921A0184EF91E013
:100DF0009093D2018093D101FF2049F165E0E62E66
:100E0000F12C84E10E94F2028C019093D401809332
:100E1000D3016AE070E080E090E00E9409030F3E99
:100E200012403CF064EF71E080E090E00E94090322
:100E3000F394EA94E110E5CF54E05F1540F410928A
:100E4000FC0184EF91E09093D4018093D301E09171
:100E5000A902F091AA0282E08083E091A502F091BC
:100E6000A6021082E091A702F091A80283E380839A
:100E70001092B102E091AD02F091AE0286E0808363
:100E8000E091AB02F091AC02808180618083E091BF
:100E9000AB02F091AC02808188608083E091AB026C
:100EA000F091AC02808180688083E091AB02F09188
:100EB000AC0280818F7D808381E0809382018AEE05
:100EC00091E09093010180930001809169008C7FF3
:100ED000816080936900E89A89E992E00E943F016D
:100EE00080918100887F836080938100412C512C08
:100EF0003201439422242394312C08EE13E00E9403
:100F00004303672B682B692B41F40E944303623033
:100F100071058105910508F41CC10E94430360938B
:100F20008702709388028093890290938A02C0900E
:100F30008302D0908402E0908502F09086026C15C6
:100F40007D058E059F0540F46093830270938402B3
:100F50008093850290938602C0908302D090840291
:100F6000E0908502F09086029B01AC012C193D09AE
:100F70004E095F0969017A013AEFC316D104E10411
:100F8000F10408F4E6C060938302709384028093B6
:100F900085029093860284EF91E0A0E0B0E0809318
:100FA000440390934503A0934603B09347031092E4
:100FB00048031092490310924A0310924B03809108
:100FC0003C0390913D03A0913E03B0913F03809379
:100FD000400390934103A0934203B09343030E94C4
:100FE000430360933C0370933D0380933E039093CF
:100FF0003F030E9443036093380370933903809347
:101000003A0390933B030E9443036B017C0168E623
:1010100071E080917803909179030E9442052AE063
:1010200041E050E060E070E08091780390917903B6
:101030000E94BF046FE671E080917803909179037C
:101040000E9442052AE0B701A601809178039091A1
:1010500079030E94BF0461E771E080917803909169
:1010600079030E94420580913C0390913D03A09139
:101070003E03B0913F03B701A601481B590B6A0B11
:101080007B0B2AE080917803909179030E94BF0442
:1010900061E771E080917803909179030E944205A5
:1010A00040913C0350913D0360913E0370913F039A
:1010B0008091400390914103A0914203B09143037A
:1010C000481B590B6A0B7B0B2AE0809178039091A7
:1010D00079030E94BF0463E771E0809178039091E7
:1010E00079030E9442050E944303AB01BC012AE040
:1010F00080917803909179030E94BF04E090780377
:10110000F090790365E771E0C7010E94AA0465E6E3
:1011100071E0C7010E94AA040E9443034B015C01D5
:101120006B017C0195E0C90ED11CE11CF11C0E94F1
:101130004303681579058A059B0508F014C70E94CA
:10114000430360933C0370933D0380933E0390936D
:101150003F030E94430360933201709333018093F5
:10116000340190933501C0902E01D0902F01E09072
:101170003001F09031014B015C018C189D08AE08E4
:10118000BF08A6E28A16A2E09A06A104B10408F4F8
:10119000DFC39B012C193D0930932D0120932C01B5
:1011A00060932E0170932F01809330019093310151
:1011B00060918701709188018091890190918A01E5
:1011C0000E949B104B015C0160937F027093800230
:1011D000809381029093820210928701109288017D
:1011E0001092890110928A0120E030E0A9010E944A
:1011F00096108823F1F060918301709184018091B1
:101200008501909186010E949B10A50194010E9486
:10121000491260937B0270937C0280937D029093CD
:101220007E02109283011092840110928501109227
:101230008601609177027091780280917902909195
:101240007A020E949B106B017C0160937302709381
:101250007402809375029093760210927702109236
:1012600078021092790210927A0220E030E0A9010F
:101270000E9496108823F1F060916F0270917002C5
:1012800080917102909172020E949B10A7019601B9
:101290000E94491260936B0270936C0280936D02FE
:1012A00090936E0210926F0210927002109271026F
:1012B0001092720280916A028F5F80936A028B3073
:1012C00070F089E992E00E94C100181619062CF40A
:1012D00089E992E00E949F00F4CF10926A02609127
:1012E00066027091670280916802909169020E9483
:1012F0009B10A50194010E94DD110E94C21260930F
:10130000660270936702809368029093690260910D
:1013100062027091630280916402909165020E9462
:101320009B10A70196010E94DD110E94C2126093DA
:10133000620270936302809364029093650220E0DE
:1013400030E0A901C501B4010E949610882309F478
:10135000CEC02FE632E143E85AE360917B02709100
:101360007C0280917D0290917E020E94FC104B01D4
:101370005C012FE632E143E85AE30E94961087FFB2
:101380000DC02DEC3CEC4CEC5DE320935E02309301
:101390005F02409360025093610220C0A501940156
:1013A00060E070E080E89FE30E94491220E030E0B6
:1013B00040E752E40E94FC1020912801309129015D
:1013C00040912A0150912B010E94491260935E02C4
:1013D00070935F02809360029093610220E030E09E
:1013E00040E251E460912401709125018091260131
:1013F000909127010E94DD114B015C0160935A021C
:1014000070935B0280935C0290935D0220E030E079
:1014100048EC52E40E94DD119B01AC01C501B4010E
:101420000E94491269837A838B839C83609356025E
:101430007093570280935802909359029B01AC011C
:1014400060E070E080E89FE30E94DC11A501940158
:101450000E94FC1060932401709325018093260163
:10146000909327018090520290905302A0905402D2
:10147000B090550280924E0290924F02A09250027C
:10148000B092510280924A0290924B02A0924C027A
:10149000B0924D02A501940160915E0270915F02CD
:1014A00080916002909161020E94DC119B01AC016D
:1014B00069817A818B819C810E94FC10A501940135
:1014C0000E94DD1160935202709353028093540284
:1014D0009093550220E030E048EC52E40E94FC106A
:1014E0000E94BB12709349026093480210C08DECB9
:1014F0009CECACECBDE380935E0290935F02A09302
:101500006002B0936102109249021092480220E0FA
:1015100030E0A901C701B6010E949610882309F4A2
:10152000CAC02FE632E143E85AE360916B02709142
:101530006C0280916D0290916E020E94FC106B0112
:101540007C012FE632E143E85AE30E94961087FFC0
:101550000DC02DEC3CEC4CEC5DE320934402309349
:101560004502409346025093470220C0A7019601CE
:1015700060E070E080E89FE30E94491220E030E0E4
:1015800040E752E40E94FC1020912001309121019B
:1015900040912201509123010E944912609344021C
:1015A00070934502809346029093470220E030E01A
:1015B00040E251E460911C0170911D0180911E0177
:1015C00090911F010E94DD116B017C01609340022C
:1015D00070934102809342029093430220E030E0F6
:1015E00048EC52E40E94DD119B01AC01C701B60139
:1015F0000E9449124B015C0160933C0270933D02D2
:1016000080933E0290933F029B01AC0160E070E04A
:1016100080E89FE30E94DC11A70196010E94FC1064
:1016200060931C0170931D0180931E0190931F0114
:10163000C0903802D0903902E0903A02F0903B021C
:10164000C0923402D0923502E0923602F092370214
:10165000C0923002D0923102E0923202F092330214
:10166000A701960160914402709145028091460263
:10167000909147020E94DC119B01AC01C501B401AD
:101680000E94FC10A70196010E94DD1160933802B0
:101690007093390280933A0290933B0220E030E04D
:1016A00048EC52E40E94FC100E94BB1270932F027F
:1016B00060932E0210C08DEC9CECACECBDE38093EB
:1016C000440290934502A0934602B09347021092C1
:1016D0002F0210922E0220915E0230915F02409103
:1016E00060025091610260912A0270912B028091F8
:1016F0002C0290912D020E94DC116B017C01609301
:101700002602709327028093280290932902209149
:101710004402309145024091460250914702609147
:1017200022027091230280912402909125020E944E
:10173000DC1160931E0270931F028093200290932D
:10174000210223E333E343EB5EE3C701B6010E94CA
:10175000FC10609396017093970180939801909389
:10176000990120E030E0A9010E94DD1120E030E085
:10177000A9010E94DD1160939201709393018093FF
:1017800094019093950120918E0130918F014091A9
:101790009001509191010E94DD116B017C0120E0CC
:1017A00030E0A9010E94961087FD11C020E030E0D2
:1017B0004CE852E4C701B6010E94F112181654F425
:1017C000C12CD12C3CE8E32E32E4F32E03C0C12C13
:1017D000D12C7601C0928E01D0928F01E0929001BF
:1017E000F0929101C701B6010E94BB1270937F0174
:1017F00060937E0170938D0160938C0180918201D2
:1018000081110E94E70380914802909149020E9451
:1018100008056CE771E089E992E00E944205809139
:101820002E0290912F020E9408056CE771E089E971
:1018300092E00E9442056091660270916702809179
:101840006802909169020E949B10209128013091BA
:10185000290140912A0150912B010E9449120E94B6
:10186000BB126B017C0160916202709163028091F6
:101870006402909165020E949B102091200130919A
:10188000210140912201509123010E9449120E949E
:10189000BB12CB018C0D9D1D0E9408056CE771E009
:1018A00089E992E00E9442054091170250E060E011
:1018B00070E02AE089E992E00E94BF046CE771E0E1
:1018C00089E992E00E9442054091160250E060E0F2
:1018D00070E02AE089E992E00E94BF046CE771E0C1
:1018E00089E992E00E94420540910F0250E060E0D9
:1018F00070E02AE089E992E00E94BF046CE771E0A1
:1019000089E992E00E94420540910E0250E060E0B9
:1019100070E02AE089E992E00E94BF046CE771E080
:1019200089E992E00E94420540910D0250E060E09A
:1019300070E02AE089E992E00E94BF0465E671E068
:1019400089E992E00E94AA0489E992E00E943F019D
:1019500080911B01882309F47EC10E9443034B013F
:101960005C016093120170931301809314019093B2
:10197000150110920E0210920F028EE00E94F202E8
:101980009093AE018093AD018FE00E94F20290939C
:10199000B0018093AF0180E10E94F2029093B20106
:1019A0008093B10181E10E94F2029093B40180938F
:1019B000B30182E10E94F2029093B6018093B501D7
:1019C00083E10E94F2029093B8018093B70183E013
:1019D0000E948D02019729F41093BA010093B90176
:1019E00004C03092BA012092B90185E10E94F2024E
:1019F0007C019093CE018093CD0184E00E948D0202
:101A0000019729F41093D0010093CF0104C03092C4
:101A1000D0012092CF0184E10E94F2029093D20182
:101A20008093D1018091CF019091D0018F3EA2E0AF
:101A30009A0724F0B1E0B0930D0105C08C329140BB
:101A400014F410920D01D0900D0180910C01D81664
:101A500051F18091AC0181110EC0809208019092E9
:101A60000901A0920A01B0920B0165E070E080E0EC
:101A700090E00E940903F1E0F093AC01809108012D
:101A800090910901A0910A01B0910B0188589A4FD9
:101A9000AF4FBF4F88159905AA05BB0520F41092DA
:101AA000AC01D0920C018091AB0120910502811113
:101AB0000EC0DD2061F0211104C080910602882350
:101AC00021F031E03093AA0102C01092AA014FEE3A
:101AD000E41642E0F40634F051E05093AA0150932A
:101AE000AB010AC08CE2E81681E0F8066CF41092B3
:101AF000AA0191E09093AB018092040190920501BC
:101B0000A0920601B0920701809104019091050115
:101B1000A0910601B091070188589A4FAF4FBF4F6F
:101B200088159905AA05BB0510F41092AB01109217
:101B3000A2011092A301A0910E027091AA016091DE
:101B4000FD0130E0EDEAF1E080E090E0419151915B
:101B50004F3EB2E05B073CF1DD20A1F0A901082E69
:101B600002C0559547950A94E2F753014201082EA9
:101B700004C0880C991CAA1CBB1C0A94D2F740FF15
:101B80000FC00CC053014201082E04C0880C991CE0
:101B9000AA1CBB1C0A94D2F7772311F0682914C041
:101BA0008094682111C04C32514074F453014201B9
:101BB000082E04C0880C991CAA1CBB1C0A94D2F7DE
:101BC000482D40956423A82901968730910509F096
:101BD000BDCFA0930E026093FD01D11007C06093AA
:101BE00016028091FE018093170204C01092160223
:101BF0001092170280910D028C7F80930D029091BC
:101C0000AB01992341F0772309F4B4C1DD2051F0F1
:101C1000816080930D02DD2029F08091AC0181115B
:101C200009C0AAC17111F9CF80910E028F6780930C
:101C30000E02F3CFDD2009F42DC27723A1F08091AD
:101C40000D02816080930D0280919A018093FD01C5
:101C500080919B0106C0809105028093FD018091D7
:101C600006028093FE018091FC01811105C08091E4
:101C70001A01882309F49AC00E9443036B017C0176
:101C800060931201709313018093140190931501D6
:101C900084E10E94F2029093D2018093D1018C32B0
:101CA000E1E09E0764F520918201222311F1409129
:101CB0000E0150910F016091100170911101465079
:101CC0005F4F6F4F7F4F4C155D056E057F0508F028
:101CD0004EC020910D0222FF05C023FD06C02B7FC0
:101CE000286001C0246020930D0220910D022F7DF9
:101CF0002EC0F1E0F09381011092800138C08F3E38
:101D000022E09207A4F120918201222359F140910F
:101D10000E0150910F016091100170911101465018
:101D20005F4F6F4F7F4F4C155D056E057F05F8F4D3
:101D300020910D0222FF05C023FD06C02B7F2860E5
:101D400001C0246020930D0220910D022062209397
:101D50000D02C0920E01D0920F01E0921001F0929C
:101D6000110105C01092810131E0309380018F553F
:101D700091408D359140D0F41092810110928001F4
:101D800080910E0190910F01A0911001B09111016D
:101D900088589A4FAF4FBF4F8C159D05AE05BF05B4
:101DA00028F480910D02837C80930D028091FD01C7
:101DB00080FF02C02D9A01C02D988091FD0181FF06
:101DC00002C02A9A01C02A988091FD0182FF02C0B8
:101DD000299A01C029988091FD0183FF02C0289AA9
:101DE00001C028988091FD0184FF02C05F9A01C064
:101DF0005F988091FD0185FF02C05E9A01C05E98E8
:101E00008091FD0186FF02C05D9A01C05D988091BE
:101E10008201811102C00E94E70389E992E00E94D9
:101E2000C1001816190624F58091FB01811120C00C
:101E30008091FA0181111CC089E992E00E949F0003
:101E4000F091F801FA87198629853A85282B392BD4
:101E50003093F7012093F6019093F9018093F801F4
:101E60002A3F4FE7340709F090C051E05093FB013F
:101E700089E992E00E94C100089721F48091FB015A
:101E800081118BC089E992E00E94C100069709F098
:101E900066C08091FA01882309F461C01092FA01AA
:101EA00089E992E00E949F00F82E89E992E00E9461
:101EB0009F00F88A1F862F853889822B932BBC01BF
:101EC000990F880B990B0E949D1020E038E74FEF87
:101ED00056E40E949610811108C01092ED011092F4
:101EE000EE011092EF011092F00189E992E00E9458
:101EF0009F00F82E89E992E00E949F00FE821D82D9
:101F0000AD81BE818A2B9B2BBC01990F880B990B4D
:101F10000E949D10609328017093290180932A01EB
:101F200090932B0189E992E00E949F00F82E89E9A5
:101F300092E00E949F00F8861F82EF81F8858E2B29
:101F40009F2BBC01990F880B990B0E949D106093E9
:101F500020017093210180932201909323010E941C
:101F600061010C947F07C616D706E806F90608F04B
:101F7000DEC8E5C882604DCE8091FD0180939A0154
:101F80008091FE0180939B016ECE283F3F4709F070
:101F90006FCF91E09093FA016BCF1092FB0189E92A
:101FA00092E00E949F008093060289E992E00E94DD
:101FB0009F008093050289E992E00E949F00959519
:101FC000879595958795BC01990F880B990B0E9471
:101FD0009D106093F2017093F3018093F40190934C
:101FE000F50189E992E00E949F00F82E89E992E0CC
:101FF0000E949F00FC861B86AB85BC858A2B9B2B91
:10200000BC01990F880B990B0E949D102AE037EDB7
:1020100043E25CE30E94FC1060932A0270932B025F
:1020200080932C0290932D0289E992E00E949F00F8
:10203000F82E89E992E00E949F00FE861D86ED85BC
:10204000FE858E2B9F2BBC01990F880B990B0E944C
:102050009D102AE037ED43E25CE30E94FC106093A0
:10206000220270932302809324029093250289E92F
:1020700092E00E949F008093F10110926A020E94F8
:102080004303609316017093170180931801909396
:102090001901F8CE7111D8CD80910D028E7F82602A
:1020A00080930D021092FD011092FE01DCCDE9E952
:1020B000F2E01382128288EE93E0A0E0B0E0848325
:1020C0009583A683B78388E491E09183808385EC30
:1020D00090E09587848784EC90E09787868780ECF2
:1020E00090E0918B808B81EC90E0938B828B82ECE3
:1020F00090E0958B848B86EC90E0978B868B118E8D
:10210000128E138E148EE6E3F3E016821782108689
:102110001186128613861486158616861786108AEF
:10212000118A128A138A148A158A08950E94D81077
:1021300008F481E00895E89409C097FB3EF4909577
:102140008095709561957F4F8F4F9F4F9923A9F090
:10215000F92F96E9BB279395F6958795779567951F
:10216000B795F111F8CFFAF4BB0F11F460FF1BC063
:102170006F5F7F4F8F4F9F4F16C0882311F096E9F6
:1021800011C0772321F09EE8872F762F05C06623A4
:1021900071F096E8862F70E060E02AF09A95660F5D
:1021A000771F881FDAF7880F9695879597F9089516
:1021B000990F0008550FAA0BE0E8FEEF1616170658
:1021C000E807F907C0F012161306E407F50798F0C0
:1021D000621B730B840B950B39F40A2661F0232BD9
:1021E000242B252B21F408950A2609F4A140A69555
:1021F0008FEF811D811D08950E940F110C94801195
:102200000E94721138F00E94791120F0952311F08C
:102210000C9469110C946F1111240C94B4110E9448
:10222000911170F3959FC1F3950F50E0551F629F78
:10223000F001729FBB27F00DB11D639FAA27F00D1F
:10224000B11DAA1F649F6627B00DA11D661F829F46
:102250002227B00DA11D621F739FB00DA11D621F2B
:10226000839FA00D611D221F749F3327A00D611D48
:10227000231F849F600D211D822F762F6A2F11242A
:102280009F5750409AF0F1F088234AF0EE0FFF1F5D
:10229000BB1F661F771F881F91505040A9F79E3FB4
:1022A000510580F00C9469110C94B4115F3FE4F374
:1022B000983ED4F3869577956795B795F795E7950A
:1022C0009F5FC1F7FE2B880F911D9695879597F913
:1022D000089597F99F6780E870E060E008959FEFA8
:1022E00080EC089500240A941616170618060906AD
:1022F000089500240A94121613061406050608957C
:10230000092E0394000C11F4882352F0BB0F40F403
:10231000BF2B11F460FF04C06F5F7F4F8F4F9F4F43
:10232000089557FD9058440F551F59F05F3F71F0C5
:102330004795880F97FB991F61F09F3F79F087952C
:102340000895121613061406551FF2CF4695F1DFB5
:1023500008C0161617061806991FF1CF8695710545
:10236000610508940895E894BB2766277727CB0179
:1023700097F90895A1E21A2EAA1BBB1BFD010DC0FF
:10238000AA1FBB1FEE1FFF1FA217B307E407F50725
:1023900020F0A21BB30BE40BF50B661F771F881F01
:1023A000991F1A9469F760957095809590959B0197
:1023B000AC01BD01CF0108955058BB27AA270E9448
:1023C000F4110C9480110E94721138F00E9479115E
:1023D00020F039F49F3F19F426F40C946F110EF499
:1023E000E095E7FB0C946911E92F0E94911158F3D5
:1023F000BA17620773078407950720F079F4A6F5EA
:102400000C94B3110EF4E0950B2EBA2FA02D0B01F6
:10241000B90190010C01CA01A0011124FF27591B29
:1024200099F0593F50F4503E68F11A16F040A22F2F
:10243000232F342F4427585FF3CF469537952795A0
:10244000A795F0405395C9F77EF41F16BA0B620B9F
:10245000730B840BBAF09150A1F0FF0FBB1F661FE6
:10246000771F881FC2F70EC0BA0F621F731F841F29
:1024700048F4879577956795B795F7959E3F08F04F
:10248000B0CF9395880F08F09927EE0F9795879511
:1024900008950E945D120C9480110E94791158F0E9
:1024A0000E94721140F029F45F3F29F00C946911E9
:1024B00051110C94B4110C946F110E94911168F396
:1024C0009923B1F3552391F3951B550BBB27AA27ED
:1024D00062177307840738F09F5F5F4F220F331F27
:1024E000441FAA1FA9F335D00E2E3AF0E0E832D0EF
:1024F00091505040E695001CCAF72BD0FE2F29D0F2
:10250000660F771F881FBB1F261737074807AB07C3
:10251000B0E809F0BB0B802DBF01FF2793585F4F38
:102520003AF09E3F510578F00C9469110C94B41167
:102530005F3FE4F3983ED4F3869577956795B7951A
:10254000F7959F5FC9F7880F911D9695879597F925
:102550000895E1E0660F771F881FBB1F621773079E
:102560008407BA0720F0621B730B840BBA0BEE1FB3
:1025700088F7E09508950E94C2126894B1110C94F6
:10258000B41108950E94991188F09F5798F0B92FBF
:102590009927B751B0F0E1F0660F771F881F991F98
:1025A0001AF0BA95C9F714C0B13091F00E94B31176
:1025B000B1E008950C94B311672F782F8827B85F86
:1025C00039F0B93FCCF3869577956795B395D9F7F0
:1025D0003EF490958095709561957F4F8F4F9F4FFA
:1025E00008950E94D81008F48FEF0895EE0FFF1F92
:1025F0000590F491E02D099481E090E0F8940C941A
:062600000113F894FFCF66
:10260600E901E90126020000260200000101260276
:102616000000260200002602000001010000803FA3
:10262600000048420000803F000048426400260245
:102636000000260200000D000A000900080007003D
:102646000600050000000000F8007D0490003F0130
:10265600C1009F00B300564D4450565F317C315F38
:10266600564D4450560D0A00564D4450455F003AAB
:0E267600323A007C005F564D445045002C0067
:107800000C94343C0C94513C0C94513C0C94513CE1
:107810000C94513C0C94513C0C94513C0C94513CB4
:107820000C94513C0C94513C0C94513C0C94513CA4
:107830000C94513C0C94513C0C94513C0C94513C94
:107840000C94513C0C94513C0C94513C0C94513C84
:107850000C94513C0C94513C0C94513C0C94513C74
:107860000C94513C0C94513C11241FBECFEFD8E036
:10787000DEBFCDBF11E0A0E0B1E0ECE9FFE702C060
:1078800005900D92A230B107D9F712E0A2E0B1E065
:1078900001C01D92AD30B107E1F70E942D3D0C945F
:1078A000CC3F0C94003C982F959595959595959582
:1078B000905D8F708A307CF0282F295A8091C0000B
:1078C00085FFFCCF9093C6008091C00085FFFCCF60
:1078D0002093C6000895282F205DF0CF982F809127
:1078E000C00085FFFCCF9093C6000895EF92FF92F1
:1078F0000F931F93EE24FF2487018091C00087FD22
:1079000017C00894E11CF11C011D111D81E4E8164B
:1079100082E4F8068FE0080780E0180770F3E09132
:107920000401F091050109958091C00087FFE9CF1E
:107930008091C6001F910F91FF90EF9008950E94D3
:10794000763C982F8091C00085FFFCCF9093C600B5
:1079500091362CF490330CF09053892F089597555D
:10796000892F08951F930E949F3C182F0E949F3CCF
:107970001295107F810F1F9108951F93182F882350
:1079800021F00E94763C1150E1F71F9108951F935A
:10799000182F0E94763C803249F0809103018F5F5E
:1079A000809303018530C1F01F9108958091C0003C
:1079B00085FFFCCF84E18093C6008091C00085FFE5
:1079C000FCCF1093C6008091C00085FFFCCF80E102
:1079D0008093C6001F910895E0910401F091050184
:1079E00009951F9108950E94763C803241F0809164
:1079F00003018F5F80930301853081F008958091AA
:107A0000C00085FFFCCF84E18093C6008091C00058
:107A100085FFFCCF80E18093C6000895E0910401CA
:107A2000F09105010995089540E951E08823A1F0FE
:107A30002D9A28EE33E0FA013197F1F721503040CA
:107A4000D1F72D9828EE33E0FA013197F1F7215064
:107A50003040D1F7815061F708953F924F925F9285
:107A60006F927F928F929F92AF92BF92CF92DF924E
:107A7000EF92FF920F931F93CF93DF93000080E16B
:107A80008093C4001092C50088E18093C10086E015
:107A90008093C2005098589A259A81E00E94143D24
:107AA00024E1F22E9EE1E92E85E9D82E0FE0C02ECA
:107AB00010E1B12EAA24A394B1E49B2EA6E58A2E50
:107AC000F2E57F2EE0E26E2E79E4572E63E5462E36
:107AD00050E5352E0E94763C8033B1F18133B9F107
:107AE000803409F46FC0813409F476C0823409F41B
:107AF00085C0853409F488C0803531F1823521F1A3
:107B0000813511F1853509F485C0863509F48DC0BC
:107B1000843609F496C0843709F403C1853709F423
:107B200072C1863709F466C0809103018F5F80932C
:107B30000301853079F6E0910401F0910501099582
:107B40000E94763C803351F60E94F33CC3CF0E94E2
:107B5000763C803249F78091C00085FFFCCFF092DF
:107B6000C6008091C00085FFFCCF9092C600809136
:107B7000C00085FFFCCF8092C6008091C00085FFC9
:107B8000FCCF7092C6008091C00085FFFCCF609250
:107B9000C6008091C00085FFFCCF5092C600809146
:107BA000C00085FFFCCF4092C6008091C00085FFD9
:107BB000FCCF3092C6008091C00085FFFCCFB09210
:107BC000C60088CF0E94763C863808F4BDCF0E945C
:107BD000763C0E94F33C7ECF0E94763C803809F4CC
:107BE0009CC0813809F40BC1823809F43CC1883942
:107BF00009F48FC080E00E94C73C6CCF84E10E94F2
:107C0000BD3C0E94F33C66CF85E00E94BD3C0E94D3
:107C1000F33C60CF0E94763C809306010E94763C44
:107C2000809307010E94F33C55CF0E94763C80333D
:107C300009F41DC183E00E94BD3C80E00E94C73C66
:107C400049CF0E94763C809309020E94763C809343
:107C5000080280910C028E7F80930C020E94763C79
:107C6000853409F415C18091080290910902892B8D
:107C700089F000E010E00E94763CF801E85FFE4FDA
:107C800080830F5F1F4F80910802909109020817AF
:107C9000190788F30E94763C803209F045CF809125
:107CA0000C0280FF01C16091060170910701660F0F
:107CB000771F7093070160930601A0910802B091AD
:107CC00009021097C9F0E8E0F1E09B01AD014E0F09
:107CD0005F1FF999FECF32BD21BD819180BDFA9A17
:107CE000F99A2F5F3F4FE417F50799F76A0F7B1F4B
:107CF00070930701609306018091C00085FFFCCF5F
:107D0000F092C6008091C00085FFFCCFB092C60003
:107D1000E1CE83E00E94C73CDDCE82E00E94C73CFA
:107D2000D9CE0E94763C809309020E94763C8093D3
:107D300008028091060190910701880F991F909386
:107D40000701809306010E94763C853409F4A6C0A1
:107D500080910C028E7F80930C020E94763C8032D0
:107D600009F0B8CE8091C00085FFFCCFF092C6002C
:107D7000609108027091090261157105B9F140E046
:107D800050E080910C02A82FA170B82FB27011C0E2
:107D9000BB2309F45CC0E0910601F0910701319624
:107DA000F0930701E09306014F5F5F4F46175707B7
:107DB000E8F4AA2369F3F999FECF209106013091E6
:107DC000070132BD21BDF89A90B58091C00085FFB2
:107DD000FCCF9093C6002F5F3F4F30930701209355
:107DE00006014F5F5F4F4617570718F38091C00099
:107DF00085FDE5CE8091C00085FFF8CFE0CE81E023
:107E00000E94C73C67CE0E94763C803209F08CCE3F
:107E10008091C00085FFFCCFF092C6008091C00029
:107E200085FFFCCFE092C6008091C00085FFFCCFAB
:107E3000D092C6008091C00085FFFCCFC092C600E2
:107E40008091C00085FFFCCFB092C60043CEE09188
:107E50000601F091070194918091C00085FFFCCF4D
:107E60009093C6009CCF80E10E94C73C33CE0E9415
:107E7000763C0E94763C182F0E94763C112309F430
:107E800083C0113009F484C08FE00E94C73C22CE29
:107E900080910C02816080930C02E5CE80910C02EF
:107EA000816080930C0259CF809107018823880F4D
:107EB000880B8A2180930B02809106019091070123
:107EC000880F991F90930701809306018091080203
:107ED00080FF09C080910802909109020196909359
:107EE000090280930802F894F999FECF1127E091D6
:107EF0000601F0910701C8E0D1E08091080290915D
:107F00000902103091F40091570001700130D9F34B
:107F100003E000935700E89500915700017001308D
:107F2000D9F301E100935700E89509901990009169
:107F3000570001700130D9F301E000935700E89534
:107F40001395103498F011270091570001700130FB
:107F5000D9F305E000935700E895009157000170B0
:107F60000130D9F301E100935700E895329602976A
:107F700009F0C7CF103011F00296E5CF112480919F
:107F8000C00085FFB9CEBCCE8EE10E94C73CA2CD19
:0C7F900085E90E94C73C9ECDF894FFCF0D
:027F9C00800063
:040000030000780081
:00000001FF